{
  "_format": "hh-sol-artifact-1",
  "contractName": "CMCDeposit.ovm",
  "sourceName": "src.sol/CMCDeposit.sol",
  "abi": [
    {
      "anonymous": false,
      "inputs": [
        {
          "indexed": false,
          "internalType": "address",
          "name": "assetId",
          "type": "address"
        },
        {
          "indexed": false,
          "internalType": "uint256",
          "name": "amount",
          "type": "uint256"
        }
      ],
      "name": "AliceDeposited",
      "type": "event"
    },
    {
      "inputs": [
        {
          "internalType": "address",
          "name": "assetId",
          "type": "address"
        },
        {
          "internalType": "uint256",
          "name": "amount",
          "type": "uint256"
        }
      ],
      "name": "depositAlice",
      "outputs": [],
      "stateMutability": "payable",
      "type": "function"
    },
    {
      "inputs": [
        {
          "internalType": "address",
          "name": "assetId",
          "type": "address"
        },
        {
          "internalType": "address",
          "name": "owner",
          "type": "address"
        },
        {
          "internalType": "address payable",
          "name": "recipient",
          "type": "address"
        }
      ],
      "name": "exit",
      "outputs": [],
      "stateMutability": "nonpayable",
      "type": "function"
    },
    {
      "inputs": [],
      "name": "getAlice",
      "outputs": [
        {
          "internalType": "address",
          "name": "",
          "type": "address"
        }
      ],
      "stateMutability": "view",
      "type": "function"
    },
    {
      "inputs": [],
      "name": "getBob",
      "outputs": [
        {
          "internalType": "address",
          "name": "",
          "type": "address"
        }
      ],
      "stateMutability": "view",
      "type": "function"
    },
    {
      "inputs": [
        {
          "internalType": "address",
          "name": "assetId",
          "type": "address"
        },
        {
          "internalType": "address",
          "name": "owner",
          "type": "address"
        }
      ],
      "name": "getExitableAmount",
      "outputs": [
        {
          "internalType": "uint256",
          "name": "",
          "type": "uint256"
        }
      ],
      "stateMutability": "view",
      "type": "function"
    },
    {
      "inputs": [
        {
          "internalType": "address",
          "name": "assetId",
          "type": "address"
        }
      ],
      "name": "getTotalDepositsAlice",
      "outputs": [
        {
          "internalType": "uint256",
          "name": "",
          "type": "uint256"
        }
      ],
      "stateMutability": "view",
      "type": "function"
    },
    {
      "inputs": [
        {
          "internalType": "address",
          "name": "assetId",
          "type": "address"
        }
      ],
      "name": "getTotalDepositsBob",
      "outputs": [
        {
          "internalType": "uint256",
          "name": "",
          "type": "uint256"
        }
      ],
      "stateMutability": "view",
      "type": "function"
    },
    {
      "inputs": [
        {
          "internalType": "address",
          "name": "assetId",
          "type": "address"
        }
      ],
      "name": "getTotalTransferred",
      "outputs": [
        {
          "internalType": "uint256",
          "name": "",
          "type": "uint256"
        }
      ],
      "stateMutability": "view",
      "type": "function"
    },
    {
      "inputs": [],
      "name": "lock",
      "outputs": [
        {
          "internalType": "uint256",
          "name": "",
          "type": "uint256"
        }
      ],
      "stateMutability": "view",
      "type": "function"
    },
    {
      "inputs": [
        {
          "internalType": "address",
          "name": "_alice",
          "type": "address"
        },
        {
          "internalType": "address",
          "name": "_bob",
          "type": "address"
        }
      ],
      "name": "setup",
      "outputs": [],
      "stateMutability": "nonpayable",
      "type": "function"
    },
    {
      "stateMutability": "payable",
      "type": "receive"
    }
  ],
  "bytecode": "0x60a06040523480156200001c57600080620000196200008e565b50505b505a63996d79a5598160e01b8152602081600483336000905af158600e01573d6000803e3d6000fd5b3d6001141558600a015760016000f35b8051925060005b604081101562000075576000828201526020016200005c565b50505060601b6001600160601b031916608052620000fb565b632a2a7adb598160e01b8152600481016020815285602082015260005b86811015620000c8578086015182820160400152602001620000ab565b506020828760640184336000905af158600e01573d6000803e3d6000fd5b3d6001141558600a015760016000f35b505050565b60805160601c611ec46200014560003980609c528061034e5280610466528061067e52806109065280610b9a5280610ca25280610da45280610ebd5280610ff65250611ec46000f3fe6080604052600436106100955760003560e01c8063b081e9c811610059578063b081e9c814610293578063cefa5122146102bc578063e9852569146102e5578063eeb30fea1461030e578063f83d08ba1461032c576101b4565b8063241686a0146101c25780632d34ba79146101f65780635bc9d96d14610221578063635ae9011461024a5780636f33389e1461025d576101b4565b366101b4577f00000000000000000000000000000000000000000000000000000000000000006001600160a01b03165a63996d79a5598160e01b8152602081600483336000905af158600e01573d6000803e3d6000fd5b3d6001141558600a015760016000f35b8051925060005b604081101561011a57600082820152602001610103565b5050506001600160a01b031614156101565760405162461bcd60e51b815260040161014490611e66565b6040518091039061015361169d565b50505b60016000610162611708565b146101915760405162461bcd60e51b815260040161017f90611d9f565b6040518091039061018e61169d565b50505b600280600061019e611763565b5050506001600081906101af611763565b505050005b6000806101bf61169d565b50505b3480156101d7576000806101d461169d565b50505b506101e061034a565b6040516101ed9190611bc5565b60405180910390f35b34801561020b5760008061020861169d565b50505b5061021f61021a366004611a65565b610464565b005b3480156102365760008061023361169d565b50505b5061021f610245366004611aa6565b61067c565b61021f610258366004611af9565b610904565b3480156102725760008061026f61169d565b50505b50610286610281366004611a40565b610b96565b6040516101ed9190611e9d565b3480156102a8576000806102a561169d565b50505b506102866102b7366004611a40565b610c9e565b3480156102d1576000806102ce61169d565b50505b506102866102e0366004611a40565b610da0565b3480156102fa576000806102f761169d565b50505b50610286610309366004611a65565b610eb9565b3480156103235760008061032061169d565b50505b506101e0610ff2565b3480156103415760008061033e61169d565b50505b506102866110f7565b60007f00000000000000000000000000000000000000000000000000000000000000006001600160a01b03165a63996d79a5598160e01b8152602081600483336000905af158600e01573d6000803e3d6000fd5b3d6001141558600a015760016000f35b8051925060005b60408110156103cc576000828201526020016103b5565b5050506001600160a01b031614156104085760405162461bcd60e51b81526004016103f690611e66565b6040518091039061040561169d565b50505b60016000610414611708565b146104435760405162461bcd60e51b815260040161043190611d9f565b6040518091039061044061169d565b50505b6000600261044f611708565b906101000a90046001600160a01b0316905090565b7f00000000000000000000000000000000000000000000000000000000000000006001600160a01b03165a63996d79a5598160e01b8152602081600483336000905af158600e01573d6000803e3d6000fd5b3d6001141558600a015760016000f35b8051925060005b60408110156104e4576000828201526020016104cd565b5050506001600160a01b031614156105205760405162461bcd60e51b815260040161050e90611e66565b6040518091039061051d61169d565b50505b600080600161052d611708565b906101000a90046001600160a01b03166001600160a01b0316146105755760405162461bcd60e51b815260040161056390611e36565b6040518091039061057261169d565b50505b6001600160a01b0382161580159061059557506001600160a01b03811615155b6105c35760405162461bcd60e51b81526004016105b190611c84565b604051809103906105c061169d565b50505b806001600160a01b0316826001600160a01b031614156106075760405162461bcd60e51b81526004016105f590611c16565b6040518091039061060461169d565b50505b61060f611104565b816001808061061c611708565b816001600160a01b0302191690836001600160a01b031602179061063e611763565b50505080600260006101000a81610653611708565b816001600160a01b0302191690836001600160a01b0316021790610675611763565b5050505050565b7f00000000000000000000000000000000000000000000000000000000000000006001600160a01b03165a63996d79a5598160e01b8152602081600483336000905af158600e01573d6000803e3d6000fd5b3d6001141558600a015760016000f35b8051925060005b60408110156106fc576000828201526020016106e5565b5050506001600160a01b031614156107385760405162461bcd60e51b815260040161072690611e66565b6040518091039061073561169d565b50505b60016000610744611708565b146107735760405162461bcd60e51b815260040161076190611d9f565b6040518091039061077061169d565b50505b6002806000610780611763565b505050816001600160a01b03165a6107966117b1565b6001600160a01b031614806107bc5750806001600160a01b0316826001600160a01b0316145b6107ea5760405162461bcd60e51b81526004016107d890611dff565b604051809103906107e761169d565b50505b6001600160a01b0383166000908152600460205261082c84604083206001600160a01b038616600090815260209190915260409020610827611708565b611116565b9050600081116108605760405162461bcd60e51b815260040161084e90611dd6565b6040518091039061085d61169d565b50505b6001600160a01b038416600090815260046020526108a5908290604090206001600160a01b03861660009081526020919091526040902061089f611708565b9061112a565b6001600160a01b03851660009081526004602052604090206001600160a01b03851660009081526020919091526040902081906108e0611763565b5050506108ee84838361116a565b5060018060006108fc611763565b505050505050565b7f00000000000000000000000000000000000000000000000000000000000000006001600160a01b03165a63996d79a5598160e01b8152602081600483336000905af158600e01573d6000803e3d6000fd5b3d6001141558600a015760016000f35b8051925060005b60408110156109845760008282015260200161096d565b5050506001600160a01b031614156109c05760405162461bcd60e51b81526004016109ae90611e66565b604051809103906109bd61169d565b50505b600160006109cc611708565b146109fb5760405162461bcd60e51b81526004016109e990611d9f565b604051809103906109f861169d565b50505b6002806000610a08611763565b505050610a14826111aa565b15610a4f57803414610a4a5760405162461bcd60e51b8152600401610a3890611cfc565b60405180910390610a4761169d565b50505b610b19565b3415610a7f5760405162461bcd60e51b8152600401610a6d90611d33565b60405180910390610a7c61169d565b50505b610aeb825a610a8c6117b1565b5a63996d79a5598160e01b8152602081600483336000905af158600e01573d6000803e3d6000fd5b3d6001141558600a015760016000f35b8051925060005b6040811015610ae257600082820152602001610acb565b505050846111b7565b610b195760405162461bcd60e51b8152600401610b0790611cbb565b60405180910390610b1661169d565b50505b6001600160a01b0382166000908152600560205281906040902060008282610b3f611708565b019250508190610b4d611763565b5050507fb52926ac8ed62d53d4b88d81b71c48639bd63aa53950fcf3e1d7676ca7c261408282604051610b81929190611bfd565b60405180910390a16001806000610675611763565b60007f00000000000000000000000000000000000000000000000000000000000000006001600160a01b03165a63996d79a5598160e01b8152602081600483336000905af158600e01573d6000803e3d6000fd5b3d6001141558600a015760016000f35b8051925060005b6040811015610c1857600082820152602001610c01565b5050506001600160a01b03161415610c545760405162461bcd60e51b8152600401610c4290611e66565b60405180910390610c5161169d565b50505b60016000610c60611708565b14610c8f5760405162461bcd60e51b8152600401610c7d90611d9f565b60405180910390610c8c61169d565b50505b610c988261120e565b92915050565b60007f00000000000000000000000000000000000000000000000000000000000000006001600160a01b03165a63996d79a5598160e01b8152602081600483336000905af158600e01573d6000803e3d6000fd5b3d6001141558600a015760016000f35b8051925060005b6040811015610d2057600082820152602001610d09565b5050506001600160a01b03161415610d5c5760405162461bcd60e51b8152600401610d4a90611e66565b60405180910390610d5961169d565b50505b60016000610d68611708565b14610d975760405162461bcd60e51b8152600401610d8590611d9f565b60405180910390610d9461169d565b50505b610c988261122e565b60007f00000000000000000000000000000000000000000000000000000000000000006001600160a01b03165a63996d79a5598160e01b8152602081600483336000905af158600e01573d6000803e3d6000fd5b3d6001141558600a015760016000f35b8051925060005b6040811015610e2257600082820152602001610e0b565b5050506001600160a01b03161415610e5e5760405162461bcd60e51b8152600401610e4c90611e66565b60405180910390610e5b61169d565b50505b60016000610e6a611708565b14610e995760405162461bcd60e51b8152600401610e8790611d9f565b60405180910390610e9661169d565b50505b6001600160a01b0382166000908152600360205260409020610c98611708565b60007f00000000000000000000000000000000000000000000000000000000000000006001600160a01b03165a63996d79a5598160e01b8152602081600483336000905af158600e01573d6000803e3d6000fd5b3d6001141558600a015760016000f35b8051925060005b6040811015610f3b57600082820152602001610f24565b5050506001600160a01b03161415610f775760405162461bcd60e51b8152600401610f6590611e66565b60405180910390610f7461169d565b50505b60016000610f83611708565b14610fb25760405162461bcd60e51b8152600401610fa090611d9f565b60405180910390610faf61169d565b50505b6001600160a01b03831660009081526004602052604090206001600160a01b038316600090815260209190915260409020610feb611708565b9392505050565b60007f00000000000000000000000000000000000000000000000000000000000000006001600160a01b03165a63996d79a5598160e01b8152602081600483336000905af158600e01573d6000803e3d6000fd5b3d6001141558600a015760016000f35b8051925060005b60408110156110745760008282015260200161105d565b5050506001600160a01b031614156110b05760405162461bcd60e51b815260040161109e90611e66565b604051809103906110ad61169d565b50505b600160006110bc611708565b146110eb5760405162461bcd60e51b81526004016110d990611d9f565b604051809103906110e861169d565b50505b6000600161044f611708565b6000611101611708565b81565b6001806000611111611763565b505050565b6000610feb826111258561127f565b611379565b6000610feb838360405160408082019052601e81527f536166654d6174683a207375627472616374696f6e206f766572666c6f770000602082015261138f565b611174838261142f565b61117f838383611463565b6111115760405162461bcd60e51b815260040161119b90611c4d565b6040518091039061067561169d565b6001600160a01b03161590565b6000611205858585856040516024016111d293929190611bd9565b604051601f198183030181526040919091526323b872dd60e01b6020820180516001600160e01b03169091179052611494565b95945050505050565b6001600160a01b0381166000908152600560205260408120610c98611708565b6001600160a01b038116600090815260056020526040812061124e611708565b6001600160a01b038316600090815260036020526040902061126e611708565b6112778461127f565b010392915050565b6000816001600160a01b03166370a082315a63996d79a5598160e01b8152602081600483336000905af158600e01573d6000803e3d6000fd5b3d6001141558600a015760016000f35b8051925060005b60408110156112e6576000828201526020016112cf565b5050506040518263ffffffff1660e01b81526004016113059190611bc5565b60206040518083038186806113186117f7565b15801561132d5760008061132a61169d565b50505b505a611337611843565b5050505050158015611356573d6000803e3d600061135361169d565b50505b50505050604051601f3d908101601f19168201604052610c989190810190611b65565b60008183106113885781610feb565b5090919050565b600081848411156114275760405162461bcd60e51b81526004018080602001828103825283818151815260200191508051906020019080838360005b838110156113e35780820151838201526020016113cb565b50505050905090810190601f1680156114105780820380516001836020036101000a031916815260200191505b50925050506040518091039061142461169d565b50505b505050900390565b6001600160a01b0382166000908152600360205281906040902060008282611455611708565b019250508190610675611763565b600061146e846111aa565b6114825761147d848484611562565b61148c565b61148c838361156f565b949350505050565b600061149f836115f4565b6114cd5760405162461bcd60e51b81526004016114bb90611d74565b604051809103906114ca61169d565b50505b600080846001600160a01b0316846040516114e89190611b88565b6000604051808303816000865a6114fd61192e565b5050505050509150503d8060008114611532576040513d603f01601f191681016040523d815291503d6000602084013e611537565b606091505b50915091506115468282611637565b8051158061120557506020810181518101906112059190611b2d565b600061148c848484611651565b6000806000846001600160a01b03168460405161158b90611bc2565b60006040518083038185875a61159f61192e565b505050505050925050503d80600081146115d5576040513d603f01601f191681016040523d815291503d6000602084013e6115da565b606091505b50915091506115e98282611637565b506001949350505050565b6000807fc5d2460186f7233c927e7db2dcc703c0e500b653ca82273b7bfad8045d85a470836116216119f4565b915080821415801561148c575050151592915050565b8161164d5780516020820161164a61169d565b50505b5050565b600061148c84848460405160240161166a929190611bfd565b604051601f1981830301815260409190915263a9059cbb60e01b6020820180516001600160e01b03169091179052611494565b632a2a7adb598160e01b8152600481016020815285602082015260005b868110156116d55780860151828201604001526020016116ba565b506020828760640184336000905af158600e01573d6000803e3d6000fd5b3d6001141558600a015760016000f35b505050565b6303daa959598160e01b8152836004820152602081602483336000905af158600e01573d6000803e3d6000fd5b3d6001141558600a015760016000f35b8051935060005b60408110156111115760008282015260200161174c565b6322bd64c0598160e01b8152836004820152846024820152600081604483336000905af158600e01573d6000803e3d6000fd5b3d6001141558600a015760016000f35b60008152602061174c565b6373509064598160e01b8152602081600483336000905af158600e01573d6000803e3d6000fd5b3d6001141558600a015760016000f35b8051600082529350602061174c565b638435035b598160e01b8152836004820152602081602483336000905af158600e01573d6000803e3d6000fd5b3d6001141558600a015760016000f35b8051600082529350602061174c565b638540661f598160e01b8152611874565b8080831115610c98575090919050565b8080831015610c98575090919050565b836004820152846024820152606060448201528660648201526084810160005b888110156118ac578088015182820152602001611894565b506060828960a40184336000905af158600e01573d6000803e3d6000fd5b3d6001141558600a015760016000f35b815160408301513d6000853e8b8b82606087013350600060045af150596119018d3d611864565b8c0161190d8187611854565b5b82811015611922576000815260200161190e565b50929c50505050505050565b6385979f76598160e01b8152836004820152846024820152606060448201528760648201526084810160005b8981101561197257808901518282015260200161195a565b506060828a60a40184336000905af158600e01573d6000803e3d6000fd5b3d6001141558600a015760016000f35b815160408301513d6000853e8c8c82606087013350600060045af150596119c78e3d611864565b8d016119d38187611854565b5b828110156119e857600081526020016119d4565b50929d50505050505050565b6324749d5c598160e01b8152836004820152602081602483336000905af158600e01573d6000803e3d6000fd5b3d6001141558600a015760016000f35b8051600082529350602061174c565b600060208284031215611a5a578081611a5761169d565b50505b8135610feb81611ea6565b60008060408385031215611a80578081611a7d61169d565b50505b8235611a8b81611ea6565b91506020830135611a9b81611ea6565b809150509250929050565b600080600060608486031215611ac3578081611ac061169d565b50505b8335611ace81611ea6565b92506020840135611ade81611ea6565b91506040840135611aee81611ea6565b809150509250925092565b60008060408385031215611b14578182611b1161169d565b50505b8235611b1f81611ea6565b946020939093013593505050565b600060208284031215611b47578081611b4461169d565b50505b81518015158114610feb578182611b5c61169d565b50509392505050565b600060208284031215611b7f578081611b7c61169d565b50505b81519392505050565b60008251815b81811015611ba9576020818601015184820152602001611b8e565b81811115611bb75782828501525b509190910192915050565b90565b6001600160a01b0391909116815260200190565b6001600160a01b039384168152919092166020820152604081019190915260600190565b6001600160a01b03929092168252602082015260400190565b6020808252601f908201527f434d43436f72653a204944454e544943414c5f5041525449434950414e545300604082015260600190565b60208082526019908201527f434d4341737365743a205452414e534645525f4641494c454400000000000000604082015260600190565b6020808252601c908201527f434d43436f72653a20494e56414c49445f5041525449434950414e5400000000604082015260600190565b60208082526021908201527f434d434465706f7369743a2045524332305f5452414e534645525f4641494c456040820152601160fa1b606082015260800190565b6020808252601a908201527f434d434465706f7369743a2056414c55455f4d49534d41544348000000000000604082015260600190565b60208082526021908201527f434d434465706f7369743a204554485f574954485f4552435f5452414e5346456040820152602960f91b606082015260800190565b6020808252601190820152704c696245524332303a204e4f5f434f444560781b604082015260600190565b6020808252601f908201527f5265656e7472616e637947756172643a205245454e5452414e545f43414c4c00604082015260600190565b6020808252600f908201526e0434d4341737365743a204e4f5f4f5608c1b604082015260600190565b60208082526018908201527f434d4341737365743a204f574e45525f4d49534d415443480000000000000000604082015260600190565b6020808252601690820152750434d43436f72653a20414c52454144595f53455455560541b604082015260600190565b6020808252601a908201527f4d6173746572636f70793a204f4e4c595f5649415f50524f5859000000000000604082015260600190565b90815260200190565b6001600160a01b0381168114611ec15760008061111161169d565b5056",
  "linkReferences": {},
  "deployedLinkReferences": {}
}