{
  "_format": "hh-sol-artifact-1",
  "contractName": "CMCAdjudicator",
  "sourceName": "src.sol/CMCAdjudicator.sol",
  "abi": [
    {
      "anonymous": false,
      "inputs": [
        {
          "indexed": false,
          "internalType": "address",
          "name": "assetId",
          "type": "address"
        },
        {
          "indexed": false,
          "internalType": "uint256",
          "name": "amount",
          "type": "uint256"
        }
      ],
      "name": "AliceDeposited",
      "type": "event"
    },
    {
      "anonymous": false,
      "inputs": [
        {
          "indexed": false,
          "internalType": "address",
          "name": "defunder",
          "type": "address"
        },
        {
          "components": [
            {
              "internalType": "address",
              "name": "channelAddress",
              "type": "address"
            },
            {
              "internalType": "address",
              "name": "alice",
              "type": "address"
            },
            {
              "internalType": "address",
              "name": "bob",
              "type": "address"
            },
            {
              "internalType": "address[]",
              "name": "assetIds",
              "type": "address[]"
            },
            {
              "components": [
                {
                  "internalType": "uint256[2]",
                  "name": "amount",
                  "type": "uint256[2]"
                },
                {
                  "internalType": "address payable[2]",
                  "name": "to",
                  "type": "address[2]"
                }
              ],
              "internalType": "struct Balance[]",
              "name": "balances",
              "type": "tuple[]"
            },
            {
              "internalType": "uint256[]",
              "name": "processedDepositsA",
              "type": "uint256[]"
            },
            {
              "internalType": "uint256[]",
              "name": "processedDepositsB",
              "type": "uint256[]"
            },
            {
              "internalType": "uint256[]",
              "name": "defundNonces",
              "type": "uint256[]"
            },
            {
              "internalType": "uint256",
              "name": "timeout",
              "type": "uint256"
            },
            {
              "internalType": "uint256",
              "name": "nonce",
              "type": "uint256"
            },
            {
              "internalType": "bytes32",
              "name": "merkleRoot",
              "type": "bytes32"
            }
          ],
          "indexed": false,
          "internalType": "struct ICMCAdjudicator.CoreChannelState",
          "name": "state",
          "type": "tuple"
        },
        {
          "components": [
            {
              "internalType": "bytes32",
              "name": "channelStateHash",
              "type": "bytes32"
            },
            {
              "internalType": "uint256",
              "name": "nonce",
              "type": "uint256"
            },
            {
              "internalType": "bytes32",
              "name": "merkleRoot",
              "type": "bytes32"
            },
            {
              "internalType": "uint256",
              "name": "consensusExpiry",
              "type": "uint256"
            },
            {
              "internalType": "uint256",
              "name": "defundExpiry",
              "type": "uint256"
            }
          ],
          "indexed": false,
          "internalType": "struct ICMCAdjudicator.ChannelDispute",
          "name": "dispute",
          "type": "tuple"
        },
        {
          "indexed": false,
          "internalType": "address[]",
          "name": "assetIds",
          "type": "address[]"
        }
      ],
      "name": "ChannelDefunded",
      "type": "event"
    },
    {
      "anonymous": false,
      "inputs": [
        {
          "indexed": false,
          "internalType": "address",
          "name": "disputer",
          "type": "address"
        },
        {
          "components": [
            {
              "internalType": "address",
              "name": "channelAddress",
              "type": "address"
            },
            {
              "internalType": "address",
              "name": "alice",
              "type": "address"
            },
            {
              "internalType": "address",
              "name": "bob",
              "type": "address"
            },
            {
              "internalType": "address[]",
              "name": "assetIds",
              "type": "address[]"
            },
            {
              "components": [
                {
                  "internalType": "uint256[2]",
                  "name": "amount",
                  "type": "uint256[2]"
                },
                {
                  "internalType": "address payable[2]",
                  "name": "to",
                  "type": "address[2]"
                }
              ],
              "internalType": "struct Balance[]",
              "name": "balances",
              "type": "tuple[]"
            },
            {
              "internalType": "uint256[]",
              "name": "processedDepositsA",
              "type": "uint256[]"
            },
            {
              "internalType": "uint256[]",
              "name": "processedDepositsB",
              "type": "uint256[]"
            },
            {
              "internalType": "uint256[]",
              "name": "defundNonces",
              "type": "uint256[]"
            },
            {
              "internalType": "uint256",
              "name": "timeout",
              "type": "uint256"
            },
            {
              "internalType": "uint256",
              "name": "nonce",
              "type": "uint256"
            },
            {
              "internalType": "bytes32",
              "name": "merkleRoot",
              "type": "bytes32"
            }
          ],
          "indexed": false,
          "internalType": "struct ICMCAdjudicator.CoreChannelState",
          "name": "state",
          "type": "tuple"
        },
        {
          "components": [
            {
              "internalType": "bytes32",
              "name": "channelStateHash",
              "type": "bytes32"
            },
            {
              "internalType": "uint256",
              "name": "nonce",
              "type": "uint256"
            },
            {
              "internalType": "bytes32",
              "name": "merkleRoot",
              "type": "bytes32"
            },
            {
              "internalType": "uint256",
              "name": "consensusExpiry",
              "type": "uint256"
            },
            {
              "internalType": "uint256",
              "name": "defundExpiry",
              "type": "uint256"
            }
          ],
          "indexed": false,
          "internalType": "struct ICMCAdjudicator.ChannelDispute",
          "name": "dispute",
          "type": "tuple"
        }
      ],
      "name": "ChannelDisputed",
      "type": "event"
    },
    {
      "anonymous": false,
      "inputs": [
        {
          "indexed": false,
          "internalType": "address",
          "name": "defunder",
          "type": "address"
        },
        {
          "components": [
            {
              "internalType": "address",
              "name": "channelAddress",
              "type": "address"
            },
            {
              "internalType": "bytes32",
              "name": "transferId",
              "type": "bytes32"
            },
            {
              "internalType": "address",
              "name": "transferDefinition",
              "type": "address"
            },
            {
              "internalType": "address",
              "name": "initiator",
              "type": "address"
            },
            {
              "internalType": "address",
              "name": "responder",
              "type": "address"
            },
            {
              "internalType": "address",
              "name": "assetId",
              "type": "address"
            },
            {
              "components": [
                {
                  "internalType": "uint256[2]",
                  "name": "amount",
                  "type": "uint256[2]"
                },
                {
                  "internalType": "address payable[2]",
                  "name": "to",
                  "type": "address[2]"
                }
              ],
              "internalType": "struct Balance",
              "name": "balance",
              "type": "tuple"
            },
            {
              "internalType": "uint256",
              "name": "transferTimeout",
              "type": "uint256"
            },
            {
              "internalType": "bytes32",
              "name": "initialStateHash",
              "type": "bytes32"
            }
          ],
          "indexed": false,
          "internalType": "struct ICMCAdjudicator.CoreTransferState",
          "name": "state",
          "type": "tuple"
        },
        {
          "components": [
            {
              "internalType": "bytes32",
              "name": "transferStateHash",
              "type": "bytes32"
            },
            {
              "internalType": "uint256",
              "name": "transferDisputeExpiry",
              "type": "uint256"
            },
            {
              "internalType": "bool",
              "name": "isDefunded",
              "type": "bool"
            }
          ],
          "indexed": false,
          "internalType": "struct ICMCAdjudicator.TransferDispute",
          "name": "dispute",
          "type": "tuple"
        },
        {
          "indexed": false,
          "internalType": "bytes",
          "name": "encodedInitialState",
          "type": "bytes"
        },
        {
          "indexed": false,
          "internalType": "bytes",
          "name": "encodedResolver",
          "type": "bytes"
        },
        {
          "components": [
            {
              "internalType": "uint256[2]",
              "name": "amount",
              "type": "uint256[2]"
            },
            {
              "internalType": "address payable[2]",
              "name": "to",
              "type": "address[2]"
            }
          ],
          "indexed": false,
          "internalType": "struct Balance",
          "name": "balance",
          "type": "tuple"
        }
      ],
      "name": "TransferDefunded",
      "type": "event"
    },
    {
      "anonymous": false,
      "inputs": [
        {
          "indexed": false,
          "internalType": "address",
          "name": "disputer",
          "type": "address"
        },
        {
          "components": [
            {
              "internalType": "address",
              "name": "channelAddress",
              "type": "address"
            },
            {
              "internalType": "bytes32",
              "name": "transferId",
              "type": "bytes32"
            },
            {
              "internalType": "address",
              "name": "transferDefinition",
              "type": "address"
            },
            {
              "internalType": "address",
              "name": "initiator",
              "type": "address"
            },
            {
              "internalType": "address",
              "name": "responder",
              "type": "address"
            },
            {
              "internalType": "address",
              "name": "assetId",
              "type": "address"
            },
            {
              "components": [
                {
                  "internalType": "uint256[2]",
                  "name": "amount",
                  "type": "uint256[2]"
                },
                {
                  "internalType": "address payable[2]",
                  "name": "to",
                  "type": "address[2]"
                }
              ],
              "internalType": "struct Balance",
              "name": "balance",
              "type": "tuple"
            },
            {
              "internalType": "uint256",
              "name": "transferTimeout",
              "type": "uint256"
            },
            {
              "internalType": "bytes32",
              "name": "initialStateHash",
              "type": "bytes32"
            }
          ],
          "indexed": false,
          "internalType": "struct ICMCAdjudicator.CoreTransferState",
          "name": "state",
          "type": "tuple"
        },
        {
          "components": [
            {
              "internalType": "bytes32",
              "name": "transferStateHash",
              "type": "bytes32"
            },
            {
              "internalType": "uint256",
              "name": "transferDisputeExpiry",
              "type": "uint256"
            },
            {
              "internalType": "bool",
              "name": "isDefunded",
              "type": "bool"
            }
          ],
          "indexed": false,
          "internalType": "struct ICMCAdjudicator.TransferDispute",
          "name": "dispute",
          "type": "tuple"
        }
      ],
      "name": "TransferDisputed",
      "type": "event"
    },
    {
      "inputs": [
        {
          "components": [
            {
              "internalType": "address",
              "name": "channelAddress",
              "type": "address"
            },
            {
              "internalType": "address",
              "name": "alice",
              "type": "address"
            },
            {
              "internalType": "address",
              "name": "bob",
              "type": "address"
            },
            {
              "internalType": "address[]",
              "name": "assetIds",
              "type": "address[]"
            },
            {
              "components": [
                {
                  "internalType": "uint256[2]",
                  "name": "amount",
                  "type": "uint256[2]"
                },
                {
                  "internalType": "address payable[2]",
                  "name": "to",
                  "type": "address[2]"
                }
              ],
              "internalType": "struct Balance[]",
              "name": "balances",
              "type": "tuple[]"
            },
            {
              "internalType": "uint256[]",
              "name": "processedDepositsA",
              "type": "uint256[]"
            },
            {
              "internalType": "uint256[]",
              "name": "processedDepositsB",
              "type": "uint256[]"
            },
            {
              "internalType": "uint256[]",
              "name": "defundNonces",
              "type": "uint256[]"
            },
            {
              "internalType": "uint256",
              "name": "timeout",
              "type": "uint256"
            },
            {
              "internalType": "uint256",
              "name": "nonce",
              "type": "uint256"
            },
            {
              "internalType": "bytes32",
              "name": "merkleRoot",
              "type": "bytes32"
            }
          ],
          "internalType": "struct ICMCAdjudicator.CoreChannelState",
          "name": "ccs",
          "type": "tuple"
        },
        {
          "internalType": "address[]",
          "name": "assetIds",
          "type": "address[]"
        },
        {
          "internalType": "uint256[]",
          "name": "indices",
          "type": "uint256[]"
        }
      ],
      "name": "defundChannel",
      "outputs": [],
      "stateMutability": "nonpayable",
      "type": "function"
    },
    {
      "inputs": [
        {
          "components": [
            {
              "internalType": "address",
              "name": "channelAddress",
              "type": "address"
            },
            {
              "internalType": "bytes32",
              "name": "transferId",
              "type": "bytes32"
            },
            {
              "internalType": "address",
              "name": "transferDefinition",
              "type": "address"
            },
            {
              "internalType": "address",
              "name": "initiator",
              "type": "address"
            },
            {
              "internalType": "address",
              "name": "responder",
              "type": "address"
            },
            {
              "internalType": "address",
              "name": "assetId",
              "type": "address"
            },
            {
              "components": [
                {
                  "internalType": "uint256[2]",
                  "name": "amount",
                  "type": "uint256[2]"
                },
                {
                  "internalType": "address payable[2]",
                  "name": "to",
                  "type": "address[2]"
                }
              ],
              "internalType": "struct Balance",
              "name": "balance",
              "type": "tuple"
            },
            {
              "internalType": "uint256",
              "name": "transferTimeout",
              "type": "uint256"
            },
            {
              "internalType": "bytes32",
              "name": "initialStateHash",
              "type": "bytes32"
            }
          ],
          "internalType": "struct ICMCAdjudicator.CoreTransferState",
          "name": "cts",
          "type": "tuple"
        },
        {
          "internalType": "bytes",
          "name": "encodedInitialTransferState",
          "type": "bytes"
        },
        {
          "internalType": "bytes",
          "name": "encodedTransferResolver",
          "type": "bytes"
        },
        {
          "internalType": "bytes",
          "name": "responderSignature",
          "type": "bytes"
        }
      ],
      "name": "defundTransfer",
      "outputs": [],
      "stateMutability": "nonpayable",
      "type": "function"
    },
    {
      "inputs": [
        {
          "internalType": "address",
          "name": "assetId",
          "type": "address"
        },
        {
          "internalType": "uint256",
          "name": "amount",
          "type": "uint256"
        }
      ],
      "name": "depositAlice",
      "outputs": [],
      "stateMutability": "payable",
      "type": "function"
    },
    {
      "inputs": [
        {
          "components": [
            {
              "internalType": "address",
              "name": "channelAddress",
              "type": "address"
            },
            {
              "internalType": "address",
              "name": "alice",
              "type": "address"
            },
            {
              "internalType": "address",
              "name": "bob",
              "type": "address"
            },
            {
              "internalType": "address[]",
              "name": "assetIds",
              "type": "address[]"
            },
            {
              "components": [
                {
                  "internalType": "uint256[2]",
                  "name": "amount",
                  "type": "uint256[2]"
                },
                {
                  "internalType": "address payable[2]",
                  "name": "to",
                  "type": "address[2]"
                }
              ],
              "internalType": "struct Balance[]",
              "name": "balances",
              "type": "tuple[]"
            },
            {
              "internalType": "uint256[]",
              "name": "processedDepositsA",
              "type": "uint256[]"
            },
            {
              "internalType": "uint256[]",
              "name": "processedDepositsB",
              "type": "uint256[]"
            },
            {
              "internalType": "uint256[]",
              "name": "defundNonces",
              "type": "uint256[]"
            },
            {
              "internalType": "uint256",
              "name": "timeout",
              "type": "uint256"
            },
            {
              "internalType": "uint256",
              "name": "nonce",
              "type": "uint256"
            },
            {
              "internalType": "bytes32",
              "name": "merkleRoot",
              "type": "bytes32"
            }
          ],
          "internalType": "struct ICMCAdjudicator.CoreChannelState",
          "name": "ccs",
          "type": "tuple"
        },
        {
          "internalType": "bytes",
          "name": "aliceSignature",
          "type": "bytes"
        },
        {
          "internalType": "bytes",
          "name": "bobSignature",
          "type": "bytes"
        }
      ],
      "name": "disputeChannel",
      "outputs": [],
      "stateMutability": "nonpayable",
      "type": "function"
    },
    {
      "inputs": [
        {
          "components": [
            {
              "internalType": "address",
              "name": "channelAddress",
              "type": "address"
            },
            {
              "internalType": "bytes32",
              "name": "transferId",
              "type": "bytes32"
            },
            {
              "internalType": "address",
              "name": "transferDefinition",
              "type": "address"
            },
            {
              "internalType": "address",
              "name": "initiator",
              "type": "address"
            },
            {
              "internalType": "address",
              "name": "responder",
              "type": "address"
            },
            {
              "internalType": "address",
              "name": "assetId",
              "type": "address"
            },
            {
              "components": [
                {
                  "internalType": "uint256[2]",
                  "name": "amount",
                  "type": "uint256[2]"
                },
                {
                  "internalType": "address payable[2]",
                  "name": "to",
                  "type": "address[2]"
                }
              ],
              "internalType": "struct Balance",
              "name": "balance",
              "type": "tuple"
            },
            {
              "internalType": "uint256",
              "name": "transferTimeout",
              "type": "uint256"
            },
            {
              "internalType": "bytes32",
              "name": "initialStateHash",
              "type": "bytes32"
            }
          ],
          "internalType": "struct ICMCAdjudicator.CoreTransferState",
          "name": "cts",
          "type": "tuple"
        },
        {
          "internalType": "bytes32[]",
          "name": "merkleProofData",
          "type": "bytes32[]"
        }
      ],
      "name": "disputeTransfer",
      "outputs": [],
      "stateMutability": "nonpayable",
      "type": "function"
    },
    {
      "inputs": [
        {
          "internalType": "address",
          "name": "assetId",
          "type": "address"
        },
        {
          "internalType": "address",
          "name": "owner",
          "type": "address"
        },
        {
          "internalType": "address payable",
          "name": "recipient",
          "type": "address"
        }
      ],
      "name": "exit",
      "outputs": [],
      "stateMutability": "nonpayable",
      "type": "function"
    },
    {
      "inputs": [],
      "name": "getAlice",
      "outputs": [
        {
          "internalType": "address",
          "name": "",
          "type": "address"
        }
      ],
      "stateMutability": "view",
      "type": "function"
    },
    {
      "inputs": [],
      "name": "getBob",
      "outputs": [
        {
          "internalType": "address",
          "name": "",
          "type": "address"
        }
      ],
      "stateMutability": "view",
      "type": "function"
    },
    {
      "inputs": [],
      "name": "getChannelDispute",
      "outputs": [
        {
          "components": [
            {
              "internalType": "bytes32",
              "name": "channelStateHash",
              "type": "bytes32"
            },
            {
              "internalType": "uint256",
              "name": "nonce",
              "type": "uint256"
            },
            {
              "internalType": "bytes32",
              "name": "merkleRoot",
              "type": "bytes32"
            },
            {
              "internalType": "uint256",
              "name": "consensusExpiry",
              "type": "uint256"
            },
            {
              "internalType": "uint256",
              "name": "defundExpiry",
              "type": "uint256"
            }
          ],
          "internalType": "struct ICMCAdjudicator.ChannelDispute",
          "name": "",
          "type": "tuple"
        }
      ],
      "stateMutability": "view",
      "type": "function"
    },
    {
      "inputs": [
        {
          "internalType": "address",
          "name": "assetId",
          "type": "address"
        }
      ],
      "name": "getDefundNonce",
      "outputs": [
        {
          "internalType": "uint256",
          "name": "",
          "type": "uint256"
        }
      ],
      "stateMutability": "view",
      "type": "function"
    },
    {
      "inputs": [
        {
          "internalType": "address",
          "name": "assetId",
          "type": "address"
        },
        {
          "internalType": "address",
          "name": "owner",
          "type": "address"
        }
      ],
      "name": "getExitableAmount",
      "outputs": [
        {
          "internalType": "uint256",
          "name": "",
          "type": "uint256"
        }
      ],
      "stateMutability": "view",
      "type": "function"
    },
    {
      "inputs": [
        {
          "internalType": "address",
          "name": "assetId",
          "type": "address"
        }
      ],
      "name": "getTotalDepositsAlice",
      "outputs": [
        {
          "internalType": "uint256",
          "name": "",
          "type": "uint256"
        }
      ],
      "stateMutability": "view",
      "type": "function"
    },
    {
      "inputs": [
        {
          "internalType": "address",
          "name": "assetId",
          "type": "address"
        }
      ],
      "name": "getTotalDepositsBob",
      "outputs": [
        {
          "internalType": "uint256",
          "name": "",
          "type": "uint256"
        }
      ],
      "stateMutability": "view",
      "type": "function"
    },
    {
      "inputs": [
        {
          "internalType": "address",
          "name": "assetId",
          "type": "address"
        }
      ],
      "name": "getTotalTransferred",
      "outputs": [
        {
          "internalType": "uint256",
          "name": "",
          "type": "uint256"
        }
      ],
      "stateMutability": "view",
      "type": "function"
    },
    {
      "inputs": [
        {
          "internalType": "bytes32",
          "name": "transferId",
          "type": "bytes32"
        }
      ],
      "name": "getTransferDispute",
      "outputs": [
        {
          "components": [
            {
              "internalType": "bytes32",
              "name": "transferStateHash",
              "type": "bytes32"
            },
            {
              "internalType": "uint256",
              "name": "transferDisputeExpiry",
              "type": "uint256"
            },
            {
              "internalType": "bool",
              "name": "isDefunded",
              "type": "bool"
            }
          ],
          "internalType": "struct ICMCAdjudicator.TransferDispute",
          "name": "",
          "type": "tuple"
        }
      ],
      "stateMutability": "view",
      "type": "function"
    },
    {
      "inputs": [],
      "name": "lock",
      "outputs": [
        {
          "internalType": "uint256",
          "name": "",
          "type": "uint256"
        }
      ],
      "stateMutability": "view",
      "type": "function"
    },
    {
      "inputs": [
        {
          "internalType": "address",
          "name": "_alice",
          "type": "address"
        },
        {
          "internalType": "address",
          "name": "_bob",
          "type": "address"
        }
      ],
      "name": "setup",
      "outputs": [],
      "stateMutability": "nonpayable",
      "type": "function"
    },
    {
      "stateMutability": "payable",
      "type": "receive"
    }
  ],
  "bytecode": "0x60a060405234801561001057600080fd5b5030606081901b6080526139416100816000398061011252806103b8528061076452806107df52806108fd52806109a95280610eb25280611027528061118f52806112da528061135652806113ca52806115ce528061165752806116e0528061177952806117fc52506139416000f3fe6080604052600436106101025760003560e01c80636f33389e11610095578063e7283a8d11610064578063e7283a8d14610321578063e985256914610341578063eeb30fea14610361578063f19eb10e14610376578063f83d08ba1461039857610182565b80636f33389e14610294578063b081e9c8146102c1578063c60939be146102e1578063cefa51221461030157610182565b80634d3fcbda116100d15780634d3fcbda146102215780635bc9d96d146102415780635fd334d914610261578063635ae9011461028157610182565b8063072f25fd14610187578063241686a0146101a95780632d34ba79146101d45780633ff0da16146101f457610182565b3661018257306001600160a01b037f00000000000000000000000000000000000000000000000000000000000000001614156101595760405162461bcd60e51b815260040161015090613643565b60405180910390fd5b60016000541461017b5760405162461bcd60e51b815260040161015090613436565b6001600055005b600080fd5b34801561019357600080fd5b506101a76101a236600461278f565b6103ad565b005b3480156101b557600080fd5b506101be610757565b6040516101cb9190612c5b565b60405180910390f35b3480156101e057600080fd5b506101a76101ef366004612425565b6107d4565b34801561020057600080fd5b5061021461020f3660046124f2565b6108ea565b6040516101cb919061375e565b34801561022d57600080fd5b506101a761023c36600461262d565b61099e565b34801561024d57600080fd5b506101a761025c36600461245d565b610ea7565b34801561026d57600080fd5b506101a761027c36600461273c565b61101c565b6101a761028f3660046124a7565b611184565b3480156102a057600080fd5b506102b46102af366004612409565b6112cd565b6040516101cb9190613781565b3480156102cd57600080fd5b506102b46102dc366004612409565b611349565b3480156102ed57600080fd5b506101a76102fc3660046126bd565b6113bf565b34801561030d57600080fd5b506102b461031c366004612409565b6115c1565b34801561032d57600080fd5b506102b461033c366004612409565b61164a565b34801561034d57600080fd5b506102b461035c366004612425565b6116d3565b34801561036d57600080fd5b506101be61176c565b34801561038257600080fd5b5061038b6117e9565b6040516101cb9190613702565b3480156103a457600080fd5b506102b4611891565b306001600160a01b037f00000000000000000000000000000000000000000000000000000000000000001614156103f65760405162461bcd60e51b815260040161015090613643565b6001600054146104185760405162461bcd60e51b815260040161015090613436565b6002600055863061042c6020830183612409565b6001600160a01b0316146104525760405162461bcd60e51b815260040161015090612fca565b6020808901356000908152600c9091526040902060018101546104875760405162461bcd60e51b815260040161015090613385565b80546104928a611897565b146104af5760405162461bcd60e51b8152600401610150906136af565b600281015460ff16156104d45760405162461bcd60e51b815260040161015090613112565b60028101805460ff191660011790556104eb6121d1565b81600101544210156106d357896101600135898960405161050d929190612bfb565b6040518091039020146105325760405162461bcd60e51b8152600401610150906136af565b61054260a08b0160808c01612409565b6001600160a01b0316336001600160a01b031614806105b357506105b385858080601f0160208091040260200160405190810160405280939291908181526020018383808284376000920191909152506105a69250505060a08d0160808e01612409565b6101608d013591906118c7565b6105cf5760405162461bcd60e51b81526004016101509061360e565b60006105e160608c0160408d01612409565b9050806001600160a01b0316638ef98a7e8c60c00160405160200161060691906136f4565b6040516020818303038152906040528c8c8c8c6040518663ffffffff1660e01b8152600401610639959493929190612e44565b60806040518083038186803b15801561065157600080fd5b505afa158015610665573d6000803e3d6000fd5b505050506040513d601f19601f8201168201806040525081019061068991906125a4565b915061069d60c08c013560e08d01356118ef565b8251602081015190516106af916118ef565b11156106cd5760405162461bcd60e51b81526004016101509061367a565b506106e8565b6106e5368b90038b0160c08c0161250a565b90505b6107016106fb60c08c0160a08d01612409565b8261191b565b7f93f6b8187e81bd7d01ce234c043cd6ae4feda2e2ae91daae0962c68a656da8c7338b848c8c8c8c8860405161073e989796959493929190612d21565b60405180910390a1505060016000555050505050505050565b6000306001600160a01b037f00000000000000000000000000000000000000000000000000000000000000001614156107a25760405162461bcd60e51b815260040161015090613643565b6001600054146107c45760405162461bcd60e51b815260040161015090613436565b506002546001600160a01b031690565b306001600160a01b037f000000000000000000000000000000000000000000000000000000000000000016141561081d5760405162461bcd60e51b815260040161015090613643565b6001546001600160a01b0316156108465760405162461bcd60e51b81526004016101509061355a565b6001600160a01b0382161580159061086657506001600160a01b03811615155b6108825760405162461bcd60e51b815260040161015090613253565b806001600160a01b0316826001600160a01b031614156108b45760405162461bcd60e51b815260040161015090612fff565b6108bc611971565b600180546001600160a01b039384166001600160a01b03199182161790915560028054929093169116179055565b6108f26121f6565b306001600160a01b037f000000000000000000000000000000000000000000000000000000000000000016141561093b5760405162461bcd60e51b815260040161015090613643565b60016000541461095d5760405162461bcd60e51b815260040161015090613436565b506000818152600c60209081526040918290208251606081018452815481526001820154928101929092526002015460ff161515918101919091525b919050565b306001600160a01b037f00000000000000000000000000000000000000000000000000000000000000001614156109e75760405162461bcd60e51b815260040161015090613643565b600160005414610a095760405162461bcd60e51b815260040161015090613436565b60026000558430610a1d6020830183612409565b6001600160a01b0316148015610a5557506001546001600160a01b0316610a4a6040830160208401612409565b6001600160a01b0316145b8015610a8357506002546001600160a01b0316610a786060830160408401612409565b6001600160a01b0316145b610a9f5760405162461bcd60e51b815260040161015090613192565b83610abc5760405162461bcd60e51b81526004016101509061315b565b83821115610adc5760405162461bcd60e51b81526004016101509061358a565b600654610ae887611978565b14610b055760405162461bcd60e51b815260040161015090612ee1565b610b0d61198b565b610b295760405162461bcd60e51b815260040161015090612f93565b60005b84811015610e59576000868683818110610b4257fe5b9050602002016020810190610b579190612409565b9050600084831015610bdc57858584818110610b6f57fe5b905060200201359050888060600190610b88919061378a565b82818110610b9257fe5b9050602002016020810190610ba79190612409565b6001600160a01b0316826001600160a01b031614610bd75760405162461bcd60e51b815260040161015090612f25565b610c48565b5060005b610bed60608a018a61378a565b9050811015610c4857610c0360608a018a61378a565b82818110610c0d57fe5b9050602002016020810190610c229190612409565b6001600160a01b0316826001600160a01b03161415610c4057610c48565b600101610be0565b6000610c5760608b018b61378a565b90508214610c8257610c6c60e08b018b61378a565b83818110610c7657fe5b90506020020135610c85565b60015b6001600160a01b0384166000908152600b60205260409020549091508111610cbf5760405162461bcd60e51b81526004016101509061320b565b6001600160a01b0383166000908152600b6020526040812091909155610ce4836119a8565b90506000610cf1846119c3565b9050610cfb6121d1565b610d0860608d018d61378a565b9050841415610d92576040518060400160405280604051806040016040528086815260200185815250815260200160405180604001604052808f6020016020810190610d549190612409565b6001600160a01b03166001600160a01b031681526020018f6040016020810190610d7e9190612409565b6001600160a01b0316905290529050610e3e565b610d9f60808d018d6137d0565b85818110610da957fe5b905060800201803603810190610dbf919061250a565b9050610e00610dd160a08e018e61378a565b86818110610ddb57fe5b9050602002013584038260000151600060028110610df557fe5b6020020151906119f8565b815152610e37610e1360c08e018e61378a565b86818110610e1d57fe5b9050602002013583038260000151600160028110610df557fe5b8151602001525b610e48858261191b565b505060019093019250610b2c915050565b507f49cbb28c69ffbdb6b3893f83d64557662a5dd43ffd6045b6a5180ab0a027f224338760068888604051610e92959493929190612ca2565b60405180910390a15050600160005550505050565b306001600160a01b037f0000000000000000000000000000000000000000000000000000000000000000161415610ef05760405162461bcd60e51b815260040161015090613643565b600160005414610f125760405162461bcd60e51b815260040161015090613436565b6002600055336001600160a01b0383161480610f3f5750806001600160a01b0316826001600160a01b0316145b610f5b5760405162461bcd60e51b815260040161015090613523565b6001600160a01b038084166000908152600460209081526040808320938616835292905290812054610f8e908590611a11565b905060008111610fb05760405162461bcd60e51b8152600401610150906134b1565b6001600160a01b03808516600090815260046020908152604080832093871683529290522054610fe09082611a25565b6001600160a01b03808616600090815260046020908152604080832093881683529290522055611011848383611a67565b505060016000555050565b306001600160a01b037f00000000000000000000000000000000000000000000000000000000000000001614156110655760405162461bcd60e51b815260040161015090613643565b6001600054146110875760405162461bcd60e51b815260040161015090613436565b6002600055823061109b6020830183612409565b6001600160a01b0316146110c15760405162461bcd60e51b815260040161015090612fca565b60006110cc85611897565b90506110df848460066002015484611a98565b6110e761198b565b6111035760405162461bcd60e51b815260040161015090612f93565b6020808601356000908152600c909152604090206001810154156111395760405162461bcd60e51b8152600401610150906134da565b81815561114b426101408801356118ef565b60018201556040517f87b348a76dd4ef431d45553a1d8c5934db960e64201a5776ab64e3eb397f4cfa90610e9290339089908590612cf5565b306001600160a01b037f00000000000000000000000000000000000000000000000000000000000000001614156111cd5760405162461bcd60e51b815260040161015090613643565b6001600054146111ef5760405162461bcd60e51b815260040161015090613436565b60026000556111fd82611afa565b15611226578034146112215760405162461bcd60e51b8152600401610150906132cb565b61126c565b34156112445760405162461bcd60e51b815260040161015090613344565b61125082333084611b07565b61126c5760405162461bcd60e51b81526004016101509061328a565b6001600160a01b03821660009081526005602052604090819020805483019055517fb52926ac8ed62d53d4b88d81b71c48639bd63aa53950fcf3e1d7676ca7c26140906112bc9084908490612e0d565b60405180910390a150506001600055565b6000306001600160a01b037f00000000000000000000000000000000000000000000000000000000000000001614156113185760405162461bcd60e51b815260040161015090613643565b60016000541461133a5760405162461bcd60e51b815260040161015090613436565b611343826119a8565b92915050565b6000306001600160a01b037f00000000000000000000000000000000000000000000000000000000000000001614156113945760405162461bcd60e51b815260040161015090613643565b6001600054146113b65760405162461bcd60e51b815260040161015090613436565b611343826119c3565b306001600160a01b037f00000000000000000000000000000000000000000000000000000000000000001614156114085760405162461bcd60e51b815260040161015090613643565b60016000541461142a5760405162461bcd60e51b815260040161015090613436565b6002600055843061143e6020830183612409565b6001600160a01b031614801561147657506001546001600160a01b031661146b6040830160208401612409565b6001600160a01b0316145b80156114a457506002546001600160a01b03166114996060830160408401612409565b6001600160a01b0316145b6114c05760405162461bcd60e51b815260040161015090613192565b60006114cb87611978565b90506114db878288888888611b5a565b6114e361198b565b156115005760405162461bcd60e51b815260040161015090612f93565b600754610120880135116115265760405162461bcd60e51b815260040161015090613036565b61152e611c64565b61156257611541426101008901356118ef565b60095561155e6115576101008901356002611c6c565b42906118ef565b600a555b60068181556101208801356007556101408801356008556040517fef03cf86f2e77e1a0ae5cb25b50519e55b94788b920ace71f92341df2dab97ed916115ab9133918b91612c6f565b60405180910390a1505060016000555050505050565b6000306001600160a01b037f000000000000000000000000000000000000000000000000000000000000000016141561160c5760405162461bcd60e51b815260040161015090613643565b60016000541461162e5760405162461bcd60e51b815260040161015090613436565b506001600160a01b031660009081526003602052604090205490565b6000306001600160a01b037f00000000000000000000000000000000000000000000000000000000000000001614156116955760405162461bcd60e51b815260040161015090613643565b6001600054146116b75760405162461bcd60e51b815260040161015090613436565b506001600160a01b03166000908152600b602052604090205490565b6000306001600160a01b037f000000000000000000000000000000000000000000000000000000000000000016141561171e5760405162461bcd60e51b815260040161015090613643565b6001600054146117405760405162461bcd60e51b815260040161015090613436565b506001600160a01b03918216600090815260046020908152604080832093909416825291909152205490565b6000306001600160a01b037f00000000000000000000000000000000000000000000000000000000000000001614156117b75760405162461bcd60e51b815260040161015090613643565b6001600054146117d95760405162461bcd60e51b815260040161015090613436565b506001546001600160a01b031690565b6117f1612216565b306001600160a01b037f000000000000000000000000000000000000000000000000000000000000000016141561183a5760405162461bcd60e51b815260040161015090613643565b60016000541461185c5760405162461bcd60e51b815260040161015090613436565b506040805160a08101825260065481526007546020820152600854918101919091526009546060820152600a54608082015290565b60005481565b6000816040516020016118aa919061374f565b604051602081830303815290604052805190602001209050919050565b6000816001600160a01b03166118dd8585611ca6565b6001600160a01b031614949350505050565b6000828201838110156119145760405162461bcd60e51b8152600401610150906130db565b9392505050565b60005b600281101561196c578151600090826002811061193757fe5b60200201519050801561196357611963848460200151846002811061195857fe5b602002015183611cbe565b5060010161191e565b505050565b6001600055565b6000816040516020016118aa919061373c565b600042600660030154111580156119a35750600a5442105b905090565b6001600160a01b031660009081526005602052604090205490565b6001600160a01b03811660009081526005602090815260408083205460039092528220546119f084611d1f565b010392915050565b600082820183811015611914576000195b949350505050565b600061191482611a2085611d1f565b611d9e565b600061191483836040518060400160405280601e81526020017f536166654d6174683a207375627472616374696f6e206f766572666c6f770000815250611db4565b611a718382611de0565b611a7c838383611e02565b61196c5760405162461bcd60e51b81526004016101509061306d565b611ad8848480806020026020016040519081016040528093929190818152602001838360200280828437600092019190915250869250859150611e2b9050565b611af45760405162461bcd60e51b81526004016101509061346d565b50505050565b6001600160a01b03161590565b6000611b5185858585604051602401611b2293929190612de9565b60408051601f198184030181529190526020810180516001600160e01b03166323b872dd60e01b179052611ec8565b95945050505050565b60008086604051602001611b6f929190612e7f565b604051602081830303815290604052805190602001209050611bd985858080601f016020809104026020016040519081016040528093929190818152602001838380828437600092019190915250611bd19250505060408a0160208b01612409565b8391906118c7565b611bf55760405162461bcd60e51b8152600401610150906135cd565b611c3f83838080601f016020809104026020016040519081016040528093929190818152602001838380828437600092019190915250611bd19250505060608a0160408b01612409565b611c5b5760405162461bcd60e51b8152600401610150906130a4565b50505050505050565b600954421090565b600082611c7b57506000611343565b82820282848281611c8857fe5b04146119145760405162461bcd60e51b8152600401610150906133ca565b600080611cb284611f79565b9050611a098184611f8c565b6001600160a01b03808416600090815260046020908152604080832093861683529290522054611cee90826119f8565b6001600160a01b03938416600090815260046020908152604080832095909616825293909352929091209190915550565b6040516370a0823160e01b81526000906001600160a01b038316906370a0823190611d4e903090600401612c5b565b60206040518083038186803b158015611d6657600080fd5b505afa158015611d7a573d6000803e3d6000fd5b505050506040513d601f19601f82011682018060405250810190611343919061283a565b6000818310611dad5781611914565b5090919050565b60008184841115611dd85760405162461bcd60e51b81526004016101509190612e97565b505050900390565b6001600160a01b03909116600090815260036020526040902080549091019055565b6000611e0d84611afa565b611e2157611e1c8484846120ba565b611a09565b611a0983836120c7565b600081815b8551811015611ebd576000868281518110611e4757fe5b60200260200101519050808311611e88578281604051602001611e6b929190612bed565b604051602081830303815290604052805190602001209250611eb4565b8083604051602001611e9b929190612bed565b6040516020818303038152906040528051906020012092505b50600101611e30565b509092149392505050565b6000611ed38361213f565b611eef5760405162461bcd60e51b81526004016101509061340b565b60006060846001600160a01b031684604051611f0b9190612c0b565b6000604051808303816000865af19150503d8060008114611f48576040519150601f19603f3d011682016040523d82523d6000602084013e611f4d565b606091505b5091509150611f5c8282612178565b80511580611b51575080806020019051810190611b5191906124d2565b6000816040516020016118aa9190612c27565b60008151604114611faf5760405162461bcd60e51b815260040161015090612f5c565b60208201516040830151606084015160001a7f7fffffffffffffffffffffffffffffff5d576e7357a4501ddfe92f46681b20a08211156120015760405162461bcd60e51b8152600401610150906131c9565b8060ff16601b1415801561201957508060ff16601c14155b156120365760405162461bcd60e51b815260040161015090613302565b60006001878386866040516000815260200160405260405161205b9493929190612e26565b6020604051602081039080840390855afa15801561207d573d6000803e3d6000fd5b5050604051601f1901519150506001600160a01b0381166120b05760405162461bcd60e51b815260040161015090612eaa565b9695505050505050565b6000611a09848484612189565b6000806060846001600160a01b0316846040516120e390612c58565b60006040518083038185875af1925050503d8060008114612120576040519150601f19603f3d011682016040523d82523d6000602084013e612125565b606091505b50915091506121348282612178565b506001949350505050565b6000813f7fc5d2460186f7233c927e7db2dcc703c0e500b653ca82273b7bfad8045d85a470818114801590611a09575050151592915050565b8161218557805160208201fd5b5050565b6000611a098484846040516024016121a2929190612e0d565b60408051601f198184030181529190526020810180516001600160e01b031663a9059cbb60e01b179052611ec8565b60405180604001604052806121e4612244565b81526020016121f1612244565b905290565b604080516060810182526000808252602082018190529181019190915290565b6040805160a08101825260008082526020820181905291810182905260608101829052608081019190915290565b60405180604001604052806002906020820280368337509192915050565b8035610999816138f3565b60008083601f84011261227e578182fd5b5081356001600160401b03811115612294578182fd5b60208301915083602080830285010111156122ae57600080fd5b9250929050565b600082601f8301126122c5578081fd5b604051604081018181106001600160401b03821117156122e157fe5b806040525080915082846040850111156122fa57600080fd5b60005b6002811015612326578135612311816138f3565b835260209283019291909101906001016122fd565b50505092915050565b600082601f83011261233f578081fd5b604051604081018181106001600160401b038211171561235b57fe5b8060405250809150828460408501111561237457600080fd5b60005b600281101561232657815161238b816138f3565b83526020928301929190910190600101612377565b60008083601f8401126123b1578182fd5b5081356001600160401b038111156123c7578182fd5b6020830191508360208285010111156122ae57600080fd5b600061016082840312156123f1578081fd5b50919050565b600061018082840312156123f1578081fd5b60006020828403121561241a578081fd5b8135611914816138f3565b60008060408385031215612437578081fd5b8235612442816138f3565b91506020830135612452816138f3565b809150509250929050565b600080600060608486031215612471578081fd5b833561247c816138f3565b9250602084013561248c816138f3565b9150604084013561249c816138f3565b809150509250925092565b600080604083850312156124b9578182fd5b82356124c4816138f3565b946020939093013593505050565b6000602082840312156124e3578081fd5b81518015158114611914578182fd5b600060208284031215612503578081fd5b5035919050565b60006080828403121561251b578081fd5b604051604081018181106001600160401b038211171561253757fe5b604052601f83018413612548578182fd5b6125526040613816565b80846040860187811115612564578586fd5b855b6002811015612585578235855260209485019490920191600101612566565b5082855261259388826122b5565b602086015250929695505050505050565b6000608082840312156125b5578081fd5b604051604081018181106001600160401b03821117156125d157fe5b604052601f830184136125e2578182fd5b6125ec6040613816565b808460408601878111156125fe578586fd5b855b600281101561261f578251855260209485019490920191600101612600565b50828552612593888261232f565b600080600080600060608688031215612644578283fd5b85356001600160401b038082111561265a578485fd5b61266689838a016123df565b9650602088013591508082111561267b578485fd5b61268789838a0161226d565b9096509450604088013591508082111561269f578283fd5b506126ac8882890161226d565b969995985093965092949392505050565b6000806000806000606086880312156126d4578283fd5b85356001600160401b03808211156126ea578485fd5b6126f689838a016123df565b9650602088013591508082111561270b578485fd5b61271789838a016123a0565b9096509450604088013591508082111561272f578283fd5b506126ac888289016123a0565b60008060006101a08486031215612751578081fd5b61275b85856123f7565b92506101808401356001600160401b03811115612776578182fd5b6127828682870161226d565b9497909650939450505050565b60008060008060008060006101e0888a0312156127aa578485fd5b6127b489896123f7565b96506101808801356001600160401b03808211156127d0578687fd5b6127dc8b838c016123a0565b90985096506101a08a01359150808211156127f5578384fd5b6128018b838c016123a0565b90965094506101c08a013591508082111561281a578384fd5b506128278a828b016123a0565b989b979a50959850939692959293505050565b60006020828403121561284b578081fd5b5051919050565b6001600160a01b0316815260200190565b6001600160a01b03169052565b60008284526020808501945082825b858110156128ad578135612892816138f3565b6001600160a01b03168752958201959082019060010161287f565b509495945050505050565b600082845260208401935081815b848110156128eb576128d8868361297f565b60809586019591909101906001016128c6565b5093949350505050565b81835260006001600160fb1b0383111561290d578081fd5b6020830280836020870137939093016020019283525090919050565b60008284528282602086013780602084860101526020601f19601f85011685010190509392505050565b6000815180845261296b8160208601602086016138c7565b601f01601f19169290920160200192915050565b604081833760006040838101828152908301915b60028110156129c45782356129a7816138f3565b6001600160a01b0316825260209283019290910190600101612993565b5050505050565b8054825260018101546020830152600281015460408301526003810154606083015260040154608090910152565b6000610160612a1084612a0b85612262565b612863565b612a1c60208401612262565b612a296020860182612863565b50612a3660408401612262565b612a436040860182612863565b50612a516060840184613839565b826060870152612a648387018284612870565b92505050612a756080840184613880565b8583036080870152612a888382846128b8565b92505050612a9960a0840184613839565b85830360a0870152612aac8382846128f5565b92505050612abd60c0840184613839565b85830360c0870152612ad08382846128f5565b92505050612ae160e0840184613839565b85830360e0870152612af48382846128f5565b6101008681013590880152610120808701359088015261014095860135959096019490945250929392505050565b8035612b2d816138f3565b6001600160a01b03908116835260208281013590840152604082013590612b53826138f3565b166040830152612b6560608201612262565b612b726060840182612863565b50612b7f60808201612262565b612b8c6080840182612863565b50612b9960a08201612262565b612ba660a0840182612863565b50612bb760c0830160c0830161297f565b610140818101359083015261016090810135910152565b80548252600181015460208301526002015460ff161515604090910152565b918252602082015260400190565b6000828483379101908152919050565b60008251612c1d8184602087016138c7565b9190910192915050565b7f16566563746f72205369676e6564204d6573736167653a0a33320000000000008152601a810191909152603a0190565b90565b6001600160a01b0391909116815260200190565b6001600160a01b038416815260e060208201819052600090612c93908301856129f9565b9050611a0960408301846129cb565b6001600160a01b038616815261010060208201819052600090612cc7838201886129f9565b9050612cd660408401876129cb565b82810360e0840152612ce9818587612870565b98975050505050505050565b6001600160a01b03841681526102008101612d136020830185612b22565b611a096101a0830184612bce565b6001600160a01b038916815260006102c06020612d408185018c612b22565b612d4e6101a085018b612bce565b81610200850152612d62828501898b612929565b9150838203610220850152612d78828789612929565b85519093509150600061024085015b6002821015612da6578351815292820192600191909101908201612d87565b5050808501519150610280840160005b6002811015612dd857612dca828551612852565b938301939150600101612db6565b505050509998505050505050505050565b6001600160a01b039384168152919092166020820152604081019190915260600190565b6001600160a01b03929092168252602082015260400190565b93845260ff9290921660208401526040830152606082015260800190565b600060608252612e576060830188612953565b8281036020840152612e6a818789612929565b90508281036040840152612ce9818587612929565b6040810160028410612e8d57fe5b9281526020015290565b6000602082526119146020830184612953565b60208082526018908201527f45434453413a20696e76616c6964207369676e61747572650000000000000000604082015260600190565b60208082526024908201527f434d4341646a7564696361746f723a20494e56414c49445f4348414e4e454c5f60408201526309082a6960e31b606082015260800190565b6020808252601e908201527f434d4341646a7564696361746f723a20494e4445585f4d49534d415443480000604082015260600190565b6020808252601f908201527f45434453413a20696e76616c6964207369676e6174757265206c656e67746800604082015260600190565b6020808252601d908201527f434d4341646a7564696361746f723a20494e56414c49445f5048415345000000604082015260600190565b6020808252818101527f434d4341646a7564696361746f723a20494e56414c49445f5452414e53464552604082015260600190565b6020808252601f908201527f434d43436f72653a204944454e544943414c5f5041525449434950414e545300604082015260600190565b6020808252601d908201527f434d4341646a7564696361746f723a20494e56414c49445f4e4f4e4345000000604082015260600190565b60208082526019908201527f434d4341737365743a205452414e534645525f4641494c454400000000000000604082015260600190565b6020808252601f908201527f434d4341646a7564696361746f723a20494e56414c49445f424f425f53494700604082015260600190565b6020808252601b908201527f536166654d6174683a206164646974696f6e206f766572666c6f770000000000604082015260600190565b60208082526029908201527f434d4341646a7564696361746f723a205452414e534645525f414c524541445960408201526817d11151955391115160ba1b606082015260800190565b6020808252601f908201527f434d4341646a7564696361746f723a204e4f5f4153534554535f474956454e00604082015260600190565b6020808252601f908201527f434d4341646a7564696361746f723a20494e56414c49445f4348414e4e454c00604082015260600190565b60208082526022908201527f45434453413a20696e76616c6964207369676e6174757265202773272076616c604082015261756560f01b606082015260800190565b60208082526028908201527f434d4341646a7564696361746f723a204348414e4e454c5f414c52454144595f604082015267111151955391115160c21b606082015260800190565b6020808252601c908201527f434d43436f72653a20494e56414c49445f5041525449434950414e5400000000604082015260600190565b60208082526021908201527f434d434465706f7369743a2045524332305f5452414e534645525f4641494c456040820152601160fa1b606082015260800190565b6020808252601a908201527f434d434465706f7369743a2056414c55455f4d49534d41544348000000000000604082015260600190565b60208082526022908201527f45434453413a20696e76616c6964207369676e6174757265202776272076616c604082015261756560f01b606082015260800190565b60208082526021908201527f434d434465706f7369743a204554485f574954485f4552435f5452414e5346456040820152602960f91b606082015260800190565b60208082526025908201527f434d4341646a7564696361746f723a205452414e534645525f4e4f545f444953604082015264141555115160da1b606082015260800190565b60208082526021908201527f536166654d6174683a206d756c7469706c69636174696f6e206f766572666c6f6040820152607760f81b606082015260800190565b6020808252601190820152704c696245524332303a204e4f5f434f444560781b604082015260600190565b6020808252601f908201527f5265656e7472616e637947756172643a205245454e5452414e545f43414c4c00604082015260600190565b60208082526024908201527f434d4341646a7564696361746f723a20494e56414c49445f4d45524b4c455f506040820152632927a7a360e11b606082015260800190565b6020808252600f908201526e0434d4341737365743a204e4f5f4f5608c1b604082015260600190565b60208082526029908201527f434d4341646a7564696361746f723a205452414e534645525f414c524541445960408201526817d11254d41555115160ba1b606082015260800190565b60208082526018908201527f434d4341737365743a204f574e45525f4d49534d415443480000000000000000604082015260600190565b6020808252601690820152750434d43436f72653a20414c52454144595f53455455560541b604082015260600190565b60208082526023908201527f434d4341646a7564696361746f723a2057524f4e475f41525241595f4c454e4760408201526254485360e81b606082015260800190565b60208082526021908201527f434d4341646a7564696361746f723a20494e56414c49445f414c4943455f53496040820152604760f81b606082015260800190565b6020808252818101527f434d4341646a7564696361746f723a20494e56414c49445f5245534f4c564552604082015260600190565b6020808252601a908201527f4d6173746572636f70793a204f4e4c595f5649415f50524f5859000000000000604082015260600190565b6020808252818101527f434d4341646a7564696361746f723a20494e56414c49445f42414c414e434553604082015260600190565b60208082526025908201527f434d4341646a7564696361746f723a20494e56414c49445f5452414e534645526040820152640be9082a6960db1b606082015260800190565b60808101611343828461297f565b600060a082019050825182526020830151602083015260408301516040830152606083015160608301526080830151608083015292915050565b60006020825261191460208301846129f9565b61018081016113438284612b22565b815181526020808301519082015260409182015115159181019190915260600190565b90815260200190565b6000808335601e198436030181126137a0578283fd5b8301803591506001600160401b038211156137b9578283fd5b60209081019250810236038213156122ae57600080fd5b6000808335601e198436030181126137e6578283fd5b8301803591506001600160401b038211156137ff578283fd5b60200191506080810236038213156122ae57600080fd5b6040518181016001600160401b038111828210171561383157fe5b604052919050565b6000808335601e1984360301811261384f578283fd5b83016020810192503590506001600160401b0381111561386e57600080fd5b6020810236038313156122ae57600080fd5b6000808335601e19843603018112613896578283fd5b83016020810192503590506001600160401b038111156138b557600080fd5b6080810236038313156122ae57600080fd5b60005b838110156138e25781810151838201526020016138ca565b83811115611af45750506000910152565b6001600160a01b038116811461390857600080fd5b5056fea2646970667358221220b4a66a17b6e60b179806481ec28773b65ceea70d40ad8a64449c4790d2e6f45464736f6c63430007030033",
  "linkReferences": {},
  "deployedLinkReferences": {}
}