{
  "_format": "hh-sol-artifact-1",
  "contractName": "CMCAdjudicator.ovm",
  "sourceName": "src.sol/CMCAdjudicator.sol",
  "abi": [
    {
      "anonymous": false,
      "inputs": [
        {
          "indexed": false,
          "internalType": "address",
          "name": "assetId",
          "type": "address"
        },
        {
          "indexed": false,
          "internalType": "uint256",
          "name": "amount",
          "type": "uint256"
        }
      ],
      "name": "AliceDeposited",
      "type": "event"
    },
    {
      "anonymous": false,
      "inputs": [
        {
          "indexed": false,
          "internalType": "address",
          "name": "defunder",
          "type": "address"
        },
        {
          "components": [
            {
              "internalType": "address",
              "name": "channelAddress",
              "type": "address"
            },
            {
              "internalType": "address",
              "name": "alice",
              "type": "address"
            },
            {
              "internalType": "address",
              "name": "bob",
              "type": "address"
            },
            {
              "internalType": "address[]",
              "name": "assetIds",
              "type": "address[]"
            },
            {
              "components": [
                {
                  "internalType": "uint256[2]",
                  "name": "amount",
                  "type": "uint256[2]"
                },
                {
                  "internalType": "address payable[2]",
                  "name": "to",
                  "type": "address[2]"
                }
              ],
              "internalType": "struct Balance[]",
              "name": "balances",
              "type": "tuple[]"
            },
            {
              "internalType": "uint256[]",
              "name": "processedDepositsA",
              "type": "uint256[]"
            },
            {
              "internalType": "uint256[]",
              "name": "processedDepositsB",
              "type": "uint256[]"
            },
            {
              "internalType": "uint256[]",
              "name": "defundNonces",
              "type": "uint256[]"
            },
            {
              "internalType": "uint256",
              "name": "timeout",
              "type": "uint256"
            },
            {
              "internalType": "uint256",
              "name": "nonce",
              "type": "uint256"
            },
            {
              "internalType": "bytes32",
              "name": "merkleRoot",
              "type": "bytes32"
            }
          ],
          "indexed": false,
          "internalType": "struct ICMCAdjudicator.CoreChannelState",
          "name": "state",
          "type": "tuple"
        },
        {
          "components": [
            {
              "internalType": "bytes32",
              "name": "channelStateHash",
              "type": "bytes32"
            },
            {
              "internalType": "uint256",
              "name": "nonce",
              "type": "uint256"
            },
            {
              "internalType": "bytes32",
              "name": "merkleRoot",
              "type": "bytes32"
            },
            {
              "internalType": "uint256",
              "name": "consensusExpiry",
              "type": "uint256"
            },
            {
              "internalType": "uint256",
              "name": "defundExpiry",
              "type": "uint256"
            }
          ],
          "indexed": false,
          "internalType": "struct ICMCAdjudicator.ChannelDispute",
          "name": "dispute",
          "type": "tuple"
        },
        {
          "indexed": false,
          "internalType": "address[]",
          "name": "assetIds",
          "type": "address[]"
        }
      ],
      "name": "ChannelDefunded",
      "type": "event"
    },
    {
      "anonymous": false,
      "inputs": [
        {
          "indexed": false,
          "internalType": "address",
          "name": "disputer",
          "type": "address"
        },
        {
          "components": [
            {
              "internalType": "address",
              "name": "channelAddress",
              "type": "address"
            },
            {
              "internalType": "address",
              "name": "alice",
              "type": "address"
            },
            {
              "internalType": "address",
              "name": "bob",
              "type": "address"
            },
            {
              "internalType": "address[]",
              "name": "assetIds",
              "type": "address[]"
            },
            {
              "components": [
                {
                  "internalType": "uint256[2]",
                  "name": "amount",
                  "type": "uint256[2]"
                },
                {
                  "internalType": "address payable[2]",
                  "name": "to",
                  "type": "address[2]"
                }
              ],
              "internalType": "struct Balance[]",
              "name": "balances",
              "type": "tuple[]"
            },
            {
              "internalType": "uint256[]",
              "name": "processedDepositsA",
              "type": "uint256[]"
            },
            {
              "internalType": "uint256[]",
              "name": "processedDepositsB",
              "type": "uint256[]"
            },
            {
              "internalType": "uint256[]",
              "name": "defundNonces",
              "type": "uint256[]"
            },
            {
              "internalType": "uint256",
              "name": "timeout",
              "type": "uint256"
            },
            {
              "internalType": "uint256",
              "name": "nonce",
              "type": "uint256"
            },
            {
              "internalType": "bytes32",
              "name": "merkleRoot",
              "type": "bytes32"
            }
          ],
          "indexed": false,
          "internalType": "struct ICMCAdjudicator.CoreChannelState",
          "name": "state",
          "type": "tuple"
        },
        {
          "components": [
            {
              "internalType": "bytes32",
              "name": "channelStateHash",
              "type": "bytes32"
            },
            {
              "internalType": "uint256",
              "name": "nonce",
              "type": "uint256"
            },
            {
              "internalType": "bytes32",
              "name": "merkleRoot",
              "type": "bytes32"
            },
            {
              "internalType": "uint256",
              "name": "consensusExpiry",
              "type": "uint256"
            },
            {
              "internalType": "uint256",
              "name": "defundExpiry",
              "type": "uint256"
            }
          ],
          "indexed": false,
          "internalType": "struct ICMCAdjudicator.ChannelDispute",
          "name": "dispute",
          "type": "tuple"
        }
      ],
      "name": "ChannelDisputed",
      "type": "event"
    },
    {
      "anonymous": false,
      "inputs": [
        {
          "indexed": false,
          "internalType": "address",
          "name": "defunder",
          "type": "address"
        },
        {
          "components": [
            {
              "internalType": "address",
              "name": "channelAddress",
              "type": "address"
            },
            {
              "internalType": "bytes32",
              "name": "transferId",
              "type": "bytes32"
            },
            {
              "internalType": "address",
              "name": "transferDefinition",
              "type": "address"
            },
            {
              "internalType": "address",
              "name": "initiator",
              "type": "address"
            },
            {
              "internalType": "address",
              "name": "responder",
              "type": "address"
            },
            {
              "internalType": "address",
              "name": "assetId",
              "type": "address"
            },
            {
              "components": [
                {
                  "internalType": "uint256[2]",
                  "name": "amount",
                  "type": "uint256[2]"
                },
                {
                  "internalType": "address payable[2]",
                  "name": "to",
                  "type": "address[2]"
                }
              ],
              "internalType": "struct Balance",
              "name": "balance",
              "type": "tuple"
            },
            {
              "internalType": "uint256",
              "name": "transferTimeout",
              "type": "uint256"
            },
            {
              "internalType": "bytes32",
              "name": "initialStateHash",
              "type": "bytes32"
            }
          ],
          "indexed": false,
          "internalType": "struct ICMCAdjudicator.CoreTransferState",
          "name": "state",
          "type": "tuple"
        },
        {
          "components": [
            {
              "internalType": "bytes32",
              "name": "transferStateHash",
              "type": "bytes32"
            },
            {
              "internalType": "uint256",
              "name": "transferDisputeExpiry",
              "type": "uint256"
            },
            {
              "internalType": "bool",
              "name": "isDefunded",
              "type": "bool"
            }
          ],
          "indexed": false,
          "internalType": "struct ICMCAdjudicator.TransferDispute",
          "name": "dispute",
          "type": "tuple"
        },
        {
          "indexed": false,
          "internalType": "bytes",
          "name": "encodedInitialState",
          "type": "bytes"
        },
        {
          "indexed": false,
          "internalType": "bytes",
          "name": "encodedResolver",
          "type": "bytes"
        },
        {
          "components": [
            {
              "internalType": "uint256[2]",
              "name": "amount",
              "type": "uint256[2]"
            },
            {
              "internalType": "address payable[2]",
              "name": "to",
              "type": "address[2]"
            }
          ],
          "indexed": false,
          "internalType": "struct Balance",
          "name": "balance",
          "type": "tuple"
        }
      ],
      "name": "TransferDefunded",
      "type": "event"
    },
    {
      "anonymous": false,
      "inputs": [
        {
          "indexed": false,
          "internalType": "address",
          "name": "disputer",
          "type": "address"
        },
        {
          "components": [
            {
              "internalType": "address",
              "name": "channelAddress",
              "type": "address"
            },
            {
              "internalType": "bytes32",
              "name": "transferId",
              "type": "bytes32"
            },
            {
              "internalType": "address",
              "name": "transferDefinition",
              "type": "address"
            },
            {
              "internalType": "address",
              "name": "initiator",
              "type": "address"
            },
            {
              "internalType": "address",
              "name": "responder",
              "type": "address"
            },
            {
              "internalType": "address",
              "name": "assetId",
              "type": "address"
            },
            {
              "components": [
                {
                  "internalType": "uint256[2]",
                  "name": "amount",
                  "type": "uint256[2]"
                },
                {
                  "internalType": "address payable[2]",
                  "name": "to",
                  "type": "address[2]"
                }
              ],
              "internalType": "struct Balance",
              "name": "balance",
              "type": "tuple"
            },
            {
              "internalType": "uint256",
              "name": "transferTimeout",
              "type": "uint256"
            },
            {
              "internalType": "bytes32",
              "name": "initialStateHash",
              "type": "bytes32"
            }
          ],
          "indexed": false,
          "internalType": "struct ICMCAdjudicator.CoreTransferState",
          "name": "state",
          "type": "tuple"
        },
        {
          "components": [
            {
              "internalType": "bytes32",
              "name": "transferStateHash",
              "type": "bytes32"
            },
            {
              "internalType": "uint256",
              "name": "transferDisputeExpiry",
              "type": "uint256"
            },
            {
              "internalType": "bool",
              "name": "isDefunded",
              "type": "bool"
            }
          ],
          "indexed": false,
          "internalType": "struct ICMCAdjudicator.TransferDispute",
          "name": "dispute",
          "type": "tuple"
        }
      ],
      "name": "TransferDisputed",
      "type": "event"
    },
    {
      "inputs": [
        {
          "components": [
            {
              "internalType": "address",
              "name": "channelAddress",
              "type": "address"
            },
            {
              "internalType": "address",
              "name": "alice",
              "type": "address"
            },
            {
              "internalType": "address",
              "name": "bob",
              "type": "address"
            },
            {
              "internalType": "address[]",
              "name": "assetIds",
              "type": "address[]"
            },
            {
              "components": [
                {
                  "internalType": "uint256[2]",
                  "name": "amount",
                  "type": "uint256[2]"
                },
                {
                  "internalType": "address payable[2]",
                  "name": "to",
                  "type": "address[2]"
                }
              ],
              "internalType": "struct Balance[]",
              "name": "balances",
              "type": "tuple[]"
            },
            {
              "internalType": "uint256[]",
              "name": "processedDepositsA",
              "type": "uint256[]"
            },
            {
              "internalType": "uint256[]",
              "name": "processedDepositsB",
              "type": "uint256[]"
            },
            {
              "internalType": "uint256[]",
              "name": "defundNonces",
              "type": "uint256[]"
            },
            {
              "internalType": "uint256",
              "name": "timeout",
              "type": "uint256"
            },
            {
              "internalType": "uint256",
              "name": "nonce",
              "type": "uint256"
            },
            {
              "internalType": "bytes32",
              "name": "merkleRoot",
              "type": "bytes32"
            }
          ],
          "internalType": "struct ICMCAdjudicator.CoreChannelState",
          "name": "ccs",
          "type": "tuple"
        },
        {
          "internalType": "address[]",
          "name": "assetIds",
          "type": "address[]"
        },
        {
          "internalType": "uint256[]",
          "name": "indices",
          "type": "uint256[]"
        }
      ],
      "name": "defundChannel",
      "outputs": [],
      "stateMutability": "nonpayable",
      "type": "function"
    },
    {
      "inputs": [
        {
          "components": [
            {
              "internalType": "address",
              "name": "channelAddress",
              "type": "address"
            },
            {
              "internalType": "bytes32",
              "name": "transferId",
              "type": "bytes32"
            },
            {
              "internalType": "address",
              "name": "transferDefinition",
              "type": "address"
            },
            {
              "internalType": "address",
              "name": "initiator",
              "type": "address"
            },
            {
              "internalType": "address",
              "name": "responder",
              "type": "address"
            },
            {
              "internalType": "address",
              "name": "assetId",
              "type": "address"
            },
            {
              "components": [
                {
                  "internalType": "uint256[2]",
                  "name": "amount",
                  "type": "uint256[2]"
                },
                {
                  "internalType": "address payable[2]",
                  "name": "to",
                  "type": "address[2]"
                }
              ],
              "internalType": "struct Balance",
              "name": "balance",
              "type": "tuple"
            },
            {
              "internalType": "uint256",
              "name": "transferTimeout",
              "type": "uint256"
            },
            {
              "internalType": "bytes32",
              "name": "initialStateHash",
              "type": "bytes32"
            }
          ],
          "internalType": "struct ICMCAdjudicator.CoreTransferState",
          "name": "cts",
          "type": "tuple"
        },
        {
          "internalType": "bytes",
          "name": "encodedInitialTransferState",
          "type": "bytes"
        },
        {
          "internalType": "bytes",
          "name": "encodedTransferResolver",
          "type": "bytes"
        },
        {
          "internalType": "bytes",
          "name": "responderSignature",
          "type": "bytes"
        }
      ],
      "name": "defundTransfer",
      "outputs": [],
      "stateMutability": "nonpayable",
      "type": "function"
    },
    {
      "inputs": [
        {
          "internalType": "address",
          "name": "assetId",
          "type": "address"
        },
        {
          "internalType": "uint256",
          "name": "amount",
          "type": "uint256"
        }
      ],
      "name": "depositAlice",
      "outputs": [],
      "stateMutability": "payable",
      "type": "function"
    },
    {
      "inputs": [
        {
          "components": [
            {
              "internalType": "address",
              "name": "channelAddress",
              "type": "address"
            },
            {
              "internalType": "address",
              "name": "alice",
              "type": "address"
            },
            {
              "internalType": "address",
              "name": "bob",
              "type": "address"
            },
            {
              "internalType": "address[]",
              "name": "assetIds",
              "type": "address[]"
            },
            {
              "components": [
                {
                  "internalType": "uint256[2]",
                  "name": "amount",
                  "type": "uint256[2]"
                },
                {
                  "internalType": "address payable[2]",
                  "name": "to",
                  "type": "address[2]"
                }
              ],
              "internalType": "struct Balance[]",
              "name": "balances",
              "type": "tuple[]"
            },
            {
              "internalType": "uint256[]",
              "name": "processedDepositsA",
              "type": "uint256[]"
            },
            {
              "internalType": "uint256[]",
              "name": "processedDepositsB",
              "type": "uint256[]"
            },
            {
              "internalType": "uint256[]",
              "name": "defundNonces",
              "type": "uint256[]"
            },
            {
              "internalType": "uint256",
              "name": "timeout",
              "type": "uint256"
            },
            {
              "internalType": "uint256",
              "name": "nonce",
              "type": "uint256"
            },
            {
              "internalType": "bytes32",
              "name": "merkleRoot",
              "type": "bytes32"
            }
          ],
          "internalType": "struct ICMCAdjudicator.CoreChannelState",
          "name": "ccs",
          "type": "tuple"
        },
        {
          "internalType": "bytes",
          "name": "aliceSignature",
          "type": "bytes"
        },
        {
          "internalType": "bytes",
          "name": "bobSignature",
          "type": "bytes"
        }
      ],
      "name": "disputeChannel",
      "outputs": [],
      "stateMutability": "nonpayable",
      "type": "function"
    },
    {
      "inputs": [
        {
          "components": [
            {
              "internalType": "address",
              "name": "channelAddress",
              "type": "address"
            },
            {
              "internalType": "bytes32",
              "name": "transferId",
              "type": "bytes32"
            },
            {
              "internalType": "address",
              "name": "transferDefinition",
              "type": "address"
            },
            {
              "internalType": "address",
              "name": "initiator",
              "type": "address"
            },
            {
              "internalType": "address",
              "name": "responder",
              "type": "address"
            },
            {
              "internalType": "address",
              "name": "assetId",
              "type": "address"
            },
            {
              "components": [
                {
                  "internalType": "uint256[2]",
                  "name": "amount",
                  "type": "uint256[2]"
                },
                {
                  "internalType": "address payable[2]",
                  "name": "to",
                  "type": "address[2]"
                }
              ],
              "internalType": "struct Balance",
              "name": "balance",
              "type": "tuple"
            },
            {
              "internalType": "uint256",
              "name": "transferTimeout",
              "type": "uint256"
            },
            {
              "internalType": "bytes32",
              "name": "initialStateHash",
              "type": "bytes32"
            }
          ],
          "internalType": "struct ICMCAdjudicator.CoreTransferState",
          "name": "cts",
          "type": "tuple"
        },
        {
          "internalType": "bytes32[]",
          "name": "merkleProofData",
          "type": "bytes32[]"
        }
      ],
      "name": "disputeTransfer",
      "outputs": [],
      "stateMutability": "nonpayable",
      "type": "function"
    },
    {
      "inputs": [
        {
          "internalType": "address",
          "name": "assetId",
          "type": "address"
        },
        {
          "internalType": "address",
          "name": "owner",
          "type": "address"
        },
        {
          "internalType": "address payable",
          "name": "recipient",
          "type": "address"
        }
      ],
      "name": "exit",
      "outputs": [],
      "stateMutability": "nonpayable",
      "type": "function"
    },
    {
      "inputs": [],
      "name": "getAlice",
      "outputs": [
        {
          "internalType": "address",
          "name": "",
          "type": "address"
        }
      ],
      "stateMutability": "view",
      "type": "function"
    },
    {
      "inputs": [],
      "name": "getBob",
      "outputs": [
        {
          "internalType": "address",
          "name": "",
          "type": "address"
        }
      ],
      "stateMutability": "view",
      "type": "function"
    },
    {
      "inputs": [],
      "name": "getChannelDispute",
      "outputs": [
        {
          "components": [
            {
              "internalType": "bytes32",
              "name": "channelStateHash",
              "type": "bytes32"
            },
            {
              "internalType": "uint256",
              "name": "nonce",
              "type": "uint256"
            },
            {
              "internalType": "bytes32",
              "name": "merkleRoot",
              "type": "bytes32"
            },
            {
              "internalType": "uint256",
              "name": "consensusExpiry",
              "type": "uint256"
            },
            {
              "internalType": "uint256",
              "name": "defundExpiry",
              "type": "uint256"
            }
          ],
          "internalType": "struct ICMCAdjudicator.ChannelDispute",
          "name": "",
          "type": "tuple"
        }
      ],
      "stateMutability": "view",
      "type": "function"
    },
    {
      "inputs": [
        {
          "internalType": "address",
          "name": "assetId",
          "type": "address"
        }
      ],
      "name": "getDefundNonce",
      "outputs": [
        {
          "internalType": "uint256",
          "name": "",
          "type": "uint256"
        }
      ],
      "stateMutability": "view",
      "type": "function"
    },
    {
      "inputs": [
        {
          "internalType": "address",
          "name": "assetId",
          "type": "address"
        },
        {
          "internalType": "address",
          "name": "owner",
          "type": "address"
        }
      ],
      "name": "getExitableAmount",
      "outputs": [
        {
          "internalType": "uint256",
          "name": "",
          "type": "uint256"
        }
      ],
      "stateMutability": "view",
      "type": "function"
    },
    {
      "inputs": [
        {
          "internalType": "address",
          "name": "assetId",
          "type": "address"
        }
      ],
      "name": "getTotalDepositsAlice",
      "outputs": [
        {
          "internalType": "uint256",
          "name": "",
          "type": "uint256"
        }
      ],
      "stateMutability": "view",
      "type": "function"
    },
    {
      "inputs": [
        {
          "internalType": "address",
          "name": "assetId",
          "type": "address"
        }
      ],
      "name": "getTotalDepositsBob",
      "outputs": [
        {
          "internalType": "uint256",
          "name": "",
          "type": "uint256"
        }
      ],
      "stateMutability": "view",
      "type": "function"
    },
    {
      "inputs": [
        {
          "internalType": "address",
          "name": "assetId",
          "type": "address"
        }
      ],
      "name": "getTotalTransferred",
      "outputs": [
        {
          "internalType": "uint256",
          "name": "",
          "type": "uint256"
        }
      ],
      "stateMutability": "view",
      "type": "function"
    },
    {
      "inputs": [
        {
          "internalType": "bytes32",
          "name": "transferId",
          "type": "bytes32"
        }
      ],
      "name": "getTransferDispute",
      "outputs": [
        {
          "components": [
            {
              "internalType": "bytes32",
              "name": "transferStateHash",
              "type": "bytes32"
            },
            {
              "internalType": "uint256",
              "name": "transferDisputeExpiry",
              "type": "uint256"
            },
            {
              "internalType": "bool",
              "name": "isDefunded",
              "type": "bool"
            }
          ],
          "internalType": "struct ICMCAdjudicator.TransferDispute",
          "name": "",
          "type": "tuple"
        }
      ],
      "stateMutability": "view",
      "type": "function"
    },
    {
      "inputs": [],
      "name": "lock",
      "outputs": [
        {
          "internalType": "uint256",
          "name": "",
          "type": "uint256"
        }
      ],
      "stateMutability": "view",
      "type": "function"
    },
    {
      "inputs": [
        {
          "internalType": "address",
          "name": "_alice",
          "type": "address"
        },
        {
          "internalType": "address",
          "name": "_bob",
          "type": "address"
        }
      ],
      "name": "setup",
      "outputs": [],
      "stateMutability": "nonpayable",
      "type": "function"
    },
    {
      "stateMutability": "payable",
      "type": "receive"
    }
  ],
  "bytecode": "0x60a06040523480156200001c57600080620000196200008e565b50505b505a63996d79a5598160e01b8152602081600483336000905af158600e01573d6000803e3d6000fd5b3d6001141558600a015760016000f35b8051925060005b604081101562000075576000828201526020016200005c565b50505060601b6001600160601b031916608052620000fb565b632a2a7adb598160e01b8152600481016020815285602082015260005b86811015620000c8578086015182820160400152602001620000ab565b506020828760640184336000905af158600e01573d6000803e3d6000fd5b3d6001141558600a015760016000f35b505050565b60805160601c6151e7620001696000398061010952806104e75280610a905280610ba85280610dc85280610f1f52806115e4528061186c5280611b4e5280611de25280611eea5280611fea528061239052806124a952806125c252806126fb528061280652506151e76000f3fe6080604052600436106101025760003560e01c80636f33389e11610095578063e7283a8d11610064578063e7283a8d1461042c578063e985256914610455578063eeb30fea1461047e578063f19eb10e1461049c578063f83d08ba146104c757610221565b80636f33389e1461037b578063b081e9c8146103b1578063c60939be146103da578063cefa51221461040357610221565b80634d3fcbda116100d15780634d3fcbda146102ed5780635bc9d96d146103165780635fd334d91461033f578063635ae9011461036857610221565b8063072f25fd1461022f578063241686a01461025a5780632d34ba791461028e5780633ff0da16146102b757610221565b36610221577f00000000000000000000000000000000000000000000000000000000000000006001600160a01b03165a63996d79a5598160e01b8152602081600483336000905af158600e01573d6000803e3d6000fd5b3d6001141558600a015760016000f35b8051925060005b604081101561018757600082820152602001610170565b5050506001600160a01b031614156101c35760405162461bcd60e51b81526004016101b190614e38565b604051809103906101c06135f4565b50505b600160006101cf61365f565b146101fe5760405162461bcd60e51b81526004016101ec90614c2b565b604051809103906101fb6135f4565b50505b600280600061020b6136ba565b50505060016000819061021c6136ba565b505050005b60008061022c6135f4565b50505b348015610244576000806102416135f4565b50505b506102586102533660046140cf565b6104e5565b005b34801561026f5760008061026c6135f4565b50505b50610278610a8c565b60405161028591906145ce565b60405180910390f35b3480156102a3576000806102a06135f4565b50505b506102586102b2366004613c95565b610ba6565b3480156102cc576000806102c96135f4565b50505b506102e06102db366004613d8c565b610dbe565b6040516102859190614f4f565b348015610302576000806102ff6135f4565b50505b50610258610311366004613f13565b610f1d565b34801561032b576000806103286135f4565b50505b5061025861033a366004613cd6565b6115e2565b348015610354576000806103516135f4565b50505b5061025861036336600461406a565b61186a565b610258610376366004613d29565b611b4c565b3480156103905760008061038d6135f4565b50505b506103a461039f366004613c70565b611dde565b6040516102859190614f73565b3480156103c6576000806103c36135f4565b50505b506103a46103d5366004613c70565b611ee6565b3480156103ef576000806103ec6135f4565b50505b506102586103fe366004613fc7565b611fe8565b348015610418576000806104156135f4565b50505b506103a4610427366004613c70565b61238c565b3480156104415760008061043e6135f4565b50505b506103a4610450366004613c70565b6124a5565b34801561046a576000806104676135f4565b50505b506103a4610479366004613c95565b6125be565b348015610493576000806104906135f4565b50505b506102786126f7565b3480156104b1576000806104ae6135f4565b50505b506104ba6127fc565b6040516102859190614ef7565b3480156104dc576000806104d96135f4565b50505b506103a461295e565b7f00000000000000000000000000000000000000000000000000000000000000006001600160a01b03165a63996d79a5598160e01b8152602081600483336000905af158600e01573d6000803e3d6000fd5b3d6001141558600a015760016000f35b8051925060005b60408110156105655760008282015260200161054e565b5050506001600160a01b031614156105a15760405162461bcd60e51b815260040161058f90614e38565b6040518091039061059e6135f4565b50505b600160006105ad61365f565b146105dc5760405162461bcd60e51b81526004016105ca90614c2b565b604051809103906105d96135f4565b50505b60028060006105e96136ba565b505050865a63996d79a5598160e01b8152602081600483336000905af158600e01573d6000803e3d6000fd5b3d6001141558600a015760016000f35b8051925060005b60408110156106435760008282015260200161062c565b5050506001600160a01b031661065c6020830183613c70565b6001600160a01b0316146106945760405162461bcd60e51b8152600401610682906148bb565b604051809103906106916135f4565b50505b6020808901356000908152600c909152604081209050806001016106b661365f565b6106e45760405162461bcd60e51b81526004016106d290614bbb565b604051809103906106e16135f4565b50505b806106ed61365f565b6106f68a61296b565b146107255760405162461bcd60e51b815260040161071390614ea4565b604051809103906107226135f4565b50505b60006002820161073361365f565b906101000a900460ff161561076c5760405162461bcd60e51b815260040161075a906149cc565b604051809103906107696135f4565b50505b600160028201818161077c61365f565b8160ff021916908315150217906107916136ba565b50505061079c613708565b816001016107a861365f565b5a6107b161372d565b10156109f45789610160013589896040516107cd92919061456e565b6040518091039020146108045760405162461bcd60e51b81526004016107f290614ea4565b604051809103906108016135f4565b50505b61081460a08b0160808c01613c70565b6001600160a01b03165a610826613773565b6001600160a01b0316148061088c575061088c85858080601f016020809104026020016040519081016040528181529291906020840183838082843760009201919091525061087f9250505060a08d0160808e01613c70565b6101608d0135919061299a565b6108ba5760405162461bcd60e51b81526004016108a890614e03565b604051809103906108b76135f4565b50505b60006108cc60608c0160408d01613c70565b9050806001600160a01b0316638ef98a7e8c60c0016040516020016108f19190614ee9565b6040516020818303038152906040528c8c8c8c6040518663ffffffff1660e01b815260040161092495949392919061479a565b60806040518083038186806109376137b9565b15801561094c576000806109496135f4565b50505b505a610956613805565b5050505050158015610975573d6000803e3d60006109726135f4565b50505b50505050604051601f3d908101601f191682016040526109989190810190613e6b565b91506109ac60c08c013560e08d01356129c2565b6109be835160200151845151906129c2565b11156109ee5760405162461bcd60e51b81526004016109dc90614e6f565b604051809103906109eb6135f4565b50505b50610a09565b610a06368b90038b0160c08c01613dad565b90505b610a22610a1c60c08c0160a08d01613c70565b82612a2a565b7f93f6b8187e81bd7d01ce234c043cd6ae4feda2e2ae91daae0962c68a656da8c75a610a4c613773565b8b848c8c8c8c88604051610a67989796959493929190614694565b60405180910390a1505050600160008190610a806136ba565b50505050505050505050565b60007f00000000000000000000000000000000000000000000000000000000000000006001600160a01b03165a63996d79a5598160e01b8152602081600483336000905af158600e01573d6000803e3d6000fd5b3d6001141558600a015760016000f35b8051925060005b6040811015610b0e57600082820152602001610af7565b5050506001600160a01b03161415610b4a5760405162461bcd60e51b8152600401610b3890614e38565b60405180910390610b476135f4565b50505b60016000610b5661365f565b14610b855760405162461bcd60e51b8152600401610b7390614c2b565b60405180910390610b826135f4565b50505b60006002610b9161365f565b906101000a90046001600160a01b0316905090565b7f00000000000000000000000000000000000000000000000000000000000000006001600160a01b03165a63996d79a5598160e01b8152602081600483336000905af158600e01573d6000803e3d6000fd5b3d6001141558600a015760016000f35b8051925060005b6040811015610c2657600082820152602001610c0f565b5050506001600160a01b03161415610c625760405162461bcd60e51b8152600401610c5090614e38565b60405180910390610c5f6135f4565b50505b6000806001610c6f61365f565b906101000a90046001600160a01b03166001600160a01b031614610cb75760405162461bcd60e51b8152600401610ca590614d4f565b60405180910390610cb46135f4565b50505b6001600160a01b03821615801590610cd757506001600160a01b03811615155b610d055760405162461bcd60e51b8152600401610cf390614acb565b60405180910390610d026135f4565b50505b806001600160a01b0316826001600160a01b03161415610d495760405162461bcd60e51b8152600401610d37906148f0565b60405180910390610d466135f4565b50505b610d51612a7f565b8160018080610d5e61365f565b816001600160a01b0302191690836001600160a01b0316021790610d806136ba565b50505080600260006101000a81610d9561365f565b816001600160a01b0302191690836001600160a01b0316021790610db76136ba565b5050505050565b610dc66138f0565b7f00000000000000000000000000000000000000000000000000000000000000006001600160a01b03165a63996d79a5598160e01b8152602081600483336000905af158600e01573d6000803e3d6000fd5b3d6001141558600a015760016000f35b8051925060005b6040811015610e4657600082820152602001610e2f565b5050506001600160a01b03161415610e825760405162461bcd60e51b8152600401610e7090614e38565b60405180910390610e7f6135f4565b50505b60016000610e8e61365f565b14610ebd5760405162461bcd60e51b8152600401610eab90614c2b565b60405180910390610eba6135f4565b50505b6000828152600c6020526040902060405160608101604052908181610ee061365f565b815260200160018201610ef161365f565b8152602001600060028301610f0461365f565b60ff6101009290920a900416151590525090505b919050565b7f00000000000000000000000000000000000000000000000000000000000000006001600160a01b03165a63996d79a5598160e01b8152602081600483336000905af158600e01573d6000803e3d6000fd5b3d6001141558600a015760016000f35b8051925060005b6040811015610f9d57600082820152602001610f86565b5050506001600160a01b03161415610fd95760405162461bcd60e51b8152600401610fc790614e38565b60405180910390610fd66135f4565b50505b60016000610fe561365f565b146110145760405162461bcd60e51b815260040161100290614c2b565b604051809103906110116135f4565b50505b60028060006110216136ba565b505050845a63996d79a5598160e01b8152602081600483336000905af158600e01573d6000803e3d6000fd5b3d6001141558600a015760016000f35b8051925060005b604081101561107b57600082820152602001611064565b5050506001600160a01b03166110946020830183613c70565b6001600160a01b03161480156110de5750600060016110b161365f565b6001600160a01b036101009290920a9004166110d36040830160208401613c70565b6001600160a01b0316145b801561111e5750600060026110f161365f565b6001600160a01b036101009290920a9004166111136060830160408401613c70565b6001600160a01b0316145b61114c5760405162461bcd60e51b815260040161113a90614a4c565b604051809103906111496135f4565b50505b8361117b5760405162461bcd60e51b815260040161116990614a15565b604051809103906111786135f4565b50505b838211156111ad5760405162461bcd60e51b815260040161119b90614d7f565b604051809103906111aa6135f4565b50505b60066111b761365f565b6111c087612a8c565b146111ef5760405162461bcd60e51b81526004016111dd90614809565b604051809103906111ec6135f4565b50505b6111f7612a9f565b6112255760405162461bcd60e51b815260040161121390614884565b604051809103906112226135f4565b50505b60005b8481101561158157600086868381811061123e57fe5b90506020020160208101906112539190613c70565b90506000848310156112ea5785858481811061126b57fe5b9050602002013590508880606001906112849190614f7c565b8281811061128e57fe5b90506020020160208101906112a39190613c70565b6001600160a01b0316826001600160a01b0316146112e55760405162461bcd60e51b81526004016112d39061484d565b604051809103906112e26135f4565b50505b611356565b5060005b6112fb60608a018a614f7c565b90508110156113565761131160608a018a614f7c565b8281811061131b57fe5b90506020020160208101906113309190613c70565b6001600160a01b0316826001600160a01b0316141561134e57611356565b6001016112ee565b600061136560608b018b614f7c565b905082146113905761137a60e08b018b614f7c565b8381811061138457fe5b90506020020135611393565b60015b6001600160a01b0384166000908152600b6020529091508190604090206113b861365f565b106113e75760405162461bcd60e51b81526004016113d590614a83565b604051809103906113e46135f4565b50505b6001600160a01b0383166000908152600b602052819060409020819061140b6136ba565b50505050600061141a83612ad7565b9050600061142784612af7565b9050611431613708565b61143e60608d018d614f7c565b90508414156114c8576040518060400160405280604051806040016040528086815260200185815250815260200160405180604001604052808f602001602081019061148a9190613c70565b6001600160a01b03166001600160a01b031681526020018f60400160208101906114b49190613c70565b6001600160a01b0316905290529050611566565b6114d560808d018d614fda565b858181106114df57fe5b9050608002018036038101906114f59190613dad565b905061152d61150760a08e018e614f7c565b8681811061151157fe5b905060200201358403826000015160005b602002015190612b48565b81515261155f61154060c08e018e614f7c565b8681811061154a57fe5b90506020020135830382600001516001611522565b8151602001525b6115708582612a2a565b505060019093019250611228915050565b507f49cbb28c69ffbdb6b3893f83d64557662a5dd43ffd6045b6a5180ab0a027f2245a6115ac613773565b87600688886040516115c2959493929190614615565b60405180910390a15060018060006115d86136ba565b5050505050505050565b7f00000000000000000000000000000000000000000000000000000000000000006001600160a01b03165a63996d79a5598160e01b8152602081600483336000905af158600e01573d6000803e3d6000fd5b3d6001141558600a015760016000f35b8051925060005b60408110156116625760008282015260200161164b565b5050506001600160a01b0316141561169e5760405162461bcd60e51b815260040161168c90614e38565b6040518091039061169b6135f4565b50505b600160006116aa61365f565b146116d95760405162461bcd60e51b81526004016116c790614c2b565b604051809103906116d66135f4565b50505b60028060006116e66136ba565b505050816001600160a01b03165a6116fc613773565b6001600160a01b031614806117225750806001600160a01b0316826001600160a01b0316145b6117505760405162461bcd60e51b815260040161173e90614d18565b6040518091039061174d6135f4565b50505b6001600160a01b0383166000908152600460205261179284604083206001600160a01b03861660009081526020919091526040902061178d61365f565b612b61565b9050600081116117c65760405162461bcd60e51b81526004016117b490614ca6565b604051809103906117c36135f4565b50505b6001600160a01b0384166000908152600460205261180b908290604090206001600160a01b03861660009081526020919091526040902061180561365f565b90612b75565b6001600160a01b03851660009081526004602052604090206001600160a01b03851660009081526020919091526040902081906118466136ba565b505050611854848383612bb5565b5060018060006118626136ba565b505050505050565b7f00000000000000000000000000000000000000000000000000000000000000006001600160a01b03165a63996d79a5598160e01b8152602081600483336000905af158600e01573d6000803e3d6000fd5b3d6001141558600a015760016000f35b8051925060005b60408110156118ea576000828201526020016118d3565b5050506001600160a01b031614156119265760405162461bcd60e51b815260040161191490614e38565b604051809103906119236135f4565b50505b6001600061193261365f565b146119615760405162461bcd60e51b815260040161194f90614c2b565b6040518091039061195e6135f4565b50505b600280600061196e6136ba565b505050825a63996d79a5598160e01b8152602081600483336000905af158600e01573d6000803e3d6000fd5b3d6001141558600a015760016000f35b8051925060005b60408110156119c8576000828201526020016119b1565b5050506001600160a01b03166119e16020830183613c70565b6001600160a01b031614611a195760405162461bcd60e51b8152600401611a07906148bb565b60405180910390611a166135f4565b50505b6000611a248561296b565b9050611a3b84846008611a3561365f565b84612bf5565b611a43612a9f565b611a715760405162461bcd60e51b8152600401611a5f90614884565b60405180910390611a6e6135f4565b50505b6020808601356000908152600c90915260408120905080600101611a9361365f565b15611ac25760405162461bcd60e51b8152600401611ab090614ccf565b60405180910390611abf6135f4565b50505b818082611acd6136ba565b505050611ae88661014001355a611ae261372d565b906129c2565b8060018301611af56136ba565b5050507f87b348a76dd4ef431d45553a1d8c5934db960e64201a5776ab64e3eb397f4cfa5a611b22613773565b8783604051611b3393929190614668565b60405180910390a15050506001600081906118626136ba565b7f00000000000000000000000000000000000000000000000000000000000000006001600160a01b03165a63996d79a5598160e01b8152602081600483336000905af158600e01573d6000803e3d6000fd5b3d6001141558600a015760016000f35b8051925060005b6040811015611bcc57600082820152602001611bb5565b5050506001600160a01b03161415611c085760405162461bcd60e51b8152600401611bf690614e38565b60405180910390611c056135f4565b50505b60016000611c1461365f565b14611c435760405162461bcd60e51b8152600401611c3190614c2b565b60405180910390611c406135f4565b50505b6002806000611c506136ba565b505050611c5c82612c66565b15611c9757803414611c925760405162461bcd60e51b8152600401611c8090614b43565b60405180910390611c8f6135f4565b50505b611d61565b3415611cc75760405162461bcd60e51b8152600401611cb590614b7a565b60405180910390611cc46135f4565b50505b611d33825a611cd4613773565b5a63996d79a5598160e01b8152602081600483336000905af158600e01573d6000803e3d6000fd5b3d6001141558600a015760016000f35b8051925060005b6040811015611d2a57600082820152602001611d13565b50505084612c73565b611d615760405162461bcd60e51b8152600401611d4f90614b02565b60405180910390611d5e6135f4565b50505b6001600160a01b0382166000908152600560205281906040902060008282611d8761365f565b019250508190611d956136ba565b5050507fb52926ac8ed62d53d4b88d81b71c48639bd63aa53950fcf3e1d7676ca7c261408282604051611dc9929190614781565b60405180910390a16001806000610db76136ba565b60007f00000000000000000000000000000000000000000000000000000000000000006001600160a01b03165a63996d79a5598160e01b8152602081600483336000905af158600e01573d6000803e3d6000fd5b3d6001141558600a015760016000f35b8051925060005b6040811015611e6057600082820152602001611e49565b5050506001600160a01b03161415611e9c5760405162461bcd60e51b8152600401611e8a90614e38565b60405180910390611e996135f4565b50505b60016000611ea861365f565b14611ed75760405162461bcd60e51b8152600401611ec590614c2b565b60405180910390611ed46135f4565b50505b611ee082612ad7565b92915050565b60007f00000000000000000000000000000000000000000000000000000000000000006001600160a01b03165a63996d79a5598160e01b8152602081600483336000905af158600e01573d6000803e3d6000fd5b3d6001141558600a015760016000f35b8051925060005b6040811015611f6857600082820152602001611f51565b5050506001600160a01b03161415611fa45760405162461bcd60e51b8152600401611f9290614e38565b60405180910390611fa16135f4565b50505b60016000611fb061365f565b14611fdf5760405162461bcd60e51b8152600401611fcd90614c2b565b60405180910390611fdc6135f4565b50505b611ee082612af7565b7f00000000000000000000000000000000000000000000000000000000000000006001600160a01b03165a63996d79a5598160e01b8152602081600483336000905af158600e01573d6000803e3d6000fd5b3d6001141558600a015760016000f35b8051925060005b604081101561206857600082820152602001612051565b5050506001600160a01b031614156120a45760405162461bcd60e51b815260040161209290614e38565b604051809103906120a16135f4565b50505b600160006120b061365f565b146120df5760405162461bcd60e51b81526004016120cd90614c2b565b604051809103906120dc6135f4565b50505b60028060006120ec6136ba565b505050845a63996d79a5598160e01b8152602081600483336000905af158600e01573d6000803e3d6000fd5b3d6001141558600a015760016000f35b8051925060005b60408110156121465760008282015260200161212f565b5050506001600160a01b031661215f6020830183613c70565b6001600160a01b03161480156121a957506000600161217c61365f565b6001600160a01b036101009290920a90041661219e6040830160208401613c70565b6001600160a01b0316145b80156121e95750600060026121bc61365f565b6001600160a01b036101009290920a9004166121de6060830160408401613c70565b6001600160a01b0316145b6122175760405162461bcd60e51b815260040161220590614a4c565b604051809103906122146135f4565b50505b600061222287612a8c565b9050612232878288888888612cca565b61223a612a9f565b156122695760405162461bcd60e51b815260040161225790614884565b604051809103906122666135f4565b50505b610120870135600761227961365f565b106122a85760405162461bcd60e51b815260040161229690614927565b604051809103906122a56135f4565b50505b6122b0612df6565b612301576122c68761010001355a611ae261372d565b8060096122d16136ba565b506122f291506122e990506101008901356002612e02565b5a611ae261372d565b80600a6122fd6136ba565b5050505b8080600661230d6136ba565b5050506101208701358060076123216136ba565b5050506101408701358060086123356136ba565b5050507fef03cf86f2e77e1a0ae5cb25b50519e55b94788b920ace71f92341df2dab97ed5a612362613773565b886006604051612374939291906145e2565b60405180910390a150506001600081906115d86136ba565b60007f00000000000000000000000000000000000000000000000000000000000000006001600160a01b03165a63996d79a5598160e01b8152602081600483336000905af158600e01573d6000803e3d6000fd5b3d6001141558600a015760016000f35b8051925060005b604081101561240e576000828201526020016123f7565b5050506001600160a01b0316141561244a5760405162461bcd60e51b815260040161243890614e38565b604051809103906124476135f4565b50505b6001600061245661365f565b146124855760405162461bcd60e51b815260040161247390614c2b565b604051809103906124826135f4565b50505b6001600160a01b0382166000908152600360205260409020611ee061365f565b60007f00000000000000000000000000000000000000000000000000000000000000006001600160a01b03165a63996d79a5598160e01b8152602081600483336000905af158600e01573d6000803e3d6000fd5b3d6001141558600a015760016000f35b8051925060005b604081101561252757600082820152602001612510565b5050506001600160a01b031614156125635760405162461bcd60e51b815260040161255190614e38565b604051809103906125606135f4565b50505b6001600061256f61365f565b1461259e5760405162461bcd60e51b815260040161258c90614c2b565b6040518091039061259b6135f4565b50505b6001600160a01b0382166000908152600b60205260409020611ee061365f565b60007f00000000000000000000000000000000000000000000000000000000000000006001600160a01b03165a63996d79a5598160e01b8152602081600483336000905af158600e01573d6000803e3d6000fd5b3d6001141558600a015760016000f35b8051925060005b604081101561264057600082820152602001612629565b5050506001600160a01b0316141561267c5760405162461bcd60e51b815260040161266a90614e38565b604051809103906126796135f4565b50505b6001600061268861365f565b146126b75760405162461bcd60e51b81526004016126a590614c2b565b604051809103906126b46135f4565b50505b6001600160a01b03831660009081526004602052604090206001600160a01b0383166000908152602091909152604090206126f061365f565b9392505050565b60007f00000000000000000000000000000000000000000000000000000000000000006001600160a01b03165a63996d79a5598160e01b8152602081600483336000905af158600e01573d6000803e3d6000fd5b3d6001141558600a015760016000f35b8051925060005b604081101561277957600082820152602001612762565b5050506001600160a01b031614156127b55760405162461bcd60e51b81526004016127a390614e38565b604051809103906127b26135f4565b50505b600160006127c161365f565b146127f05760405162461bcd60e51b81526004016127de90614c2b565b604051809103906127ed6135f4565b50505b60006001610b9161365f565b61280461390f565b7f00000000000000000000000000000000000000000000000000000000000000006001600160a01b03165a63996d79a5598160e01b8152602081600483336000905af158600e01573d6000803e3d6000fd5b3d6001141558600a015760016000f35b8051925060005b60408110156128845760008282015260200161286d565b5050506001600160a01b031614156128c05760405162461bcd60e51b81526004016128ae90614e38565b604051809103906128bd6135f4565b50505b600160006128cc61365f565b146128fb5760405162461bcd60e51b81526004016128e990614c2b565b604051809103906128f86135f4565b50505b600660405160a0810160405290818161291261365f565b81526020016001820161292361365f565b81526020016002820161293461365f565b81526020016003820161294561365f565b81526020016004820161295661365f565b905250905090565b600061296861365f565b81565b60008160405160200161297e9190614f40565b6040516020818303038152906040528051906020012092915050565b6000816001600160a01b03166129b08585612e61565b6001600160a01b031614949350505050565b6000828201838110156126f05760405162461bcd60e51b815260206004820152601b60248201527f536166654d6174683a206164646974696f6e206f766572666c6f770000000000604482015260640160405180910390612a216135f4565b50509392505050565b60005b6002811015612a7a57600082518260028110612a4557fe5b602002015190508015612a7157612a718484602001518460028110612a6657fe5b602002015183612e79565b50600101612a2d565b505050565b6001806000612a7a6136ba565b60008160405160200161297e9190614f2d565b60005a612aaa61372d565b6009612ab461365f565b11158015612ad25750600a612ac761365f565b5a612ad061372d565b105b905090565b6001600160a01b0381166000908152600560205260408120611ee061365f565b6001600160a01b0381166000908152600560205260408120612b1761365f565b6001600160a01b0383166000908152600360205260409020612b3761365f565b612b4084612ef9565b010392915050565b6000828201838110156126f0576000195b949350505050565b60006126f082612b7085612ef9565b612ff3565b60006126f0838360405160408082019052601e81527f536166654d6174683a207375627472616374696f6e206f766572666c6f7700006020820152613009565b612bbf83826130a9565b612bca8383836130dd565b612a7a5760405162461bcd60e51b8152600401612be69061495e565b60405180910390610db76135f4565b612c358484808060200260200160405190810160405280939291908181526020018383602002808284376000920191909152508692508591506131069050565b612c605760405162461bcd60e51b8152600401612c5190614c62565b604051809103906118626135f4565b50505050565b6001600160a01b03161590565b6000612cc185858585604051602401612c8e9392919061475d565b604051601f198183030181526040919091526323b872dd60e01b6020820180516001600160e01b031690911790526131af565b95945050505050565b60008086604051602001612cdf9291906147f1565b604051602081830303815290604052805190602001209050612d4885858080601f0160208091040260200160405190810160405281815292919060208401838380828437600092019190915250612d409250505060408a0160208b01613c70565b83919061299a565b612d765760405162461bcd60e51b8152600401612d6490614dc2565b60405180910390612d736135f4565b50505b612dbf83838080601f0160208091040260200160405190810160405281815292919060208401838380828437600092019190915250612d409250505060608a0160408b01613c70565b612ded5760405162461bcd60e51b8152600401612ddb90614995565b60405180910390612dea6135f4565b50505b50505050505050565b60006009612ac761365f565b600082612e1157506000611ee0565b82820282848281612e1e57fe5b04146126f05760405162461bcd60e51b81526004018080602001828103825260218152602001806151c66021913960400191505060405180910390612a216135f4565b600080612e6d8461327d565b9050612b598184613290565b6001600160a01b03831660009081526004602052612ebe908290604090206001600160a01b038516600090815260209190915260409020612eb861365f565b90612b48565b6001600160a01b03841660009081526004602052604090206001600160a01b03841660009081526020919091526040902081906118626136ba565b6000816001600160a01b03166370a082315a63996d79a5598160e01b8152602081600483336000905af158600e01573d6000803e3d6000fd5b3d6001141558600a015760016000f35b8051925060005b6040811015612f6057600082820152602001612f49565b5050506040518263ffffffff1660e01b8152600401612f7f91906145ce565b6020604051808303818680612f926137b9565b158015612fa757600080612fa46135f4565b50505b505a612fb1613805565b5050505050158015612fd0573d6000803e3d6000612fcd6135f4565b50505b50505050604051601f3d908101601f19168201604052611ee0919081019061419e565b600081831061300257816126f0565b5090919050565b600081848411156130a15760405162461bcd60e51b81526004018080602001828103825283818151815260200191508051906020019080838360005b8381101561305d578082015183820152602001613045565b50505050905090810190601f16801561308a5780820380516001836020036101000a031916815260200191505b50925050506040518091039061309e6135f4565b50505b505050900390565b6001600160a01b03821660009081526003602052819060409020600082826130cf61365f565b019250508190610db76136ba565b60006130e884612c66565b6130fc576130f78484846134bc565b612b59565b612b5983836134c9565b600081815b85518110156131a457600086828151811061312257fe5b60200260200101519050808311613169578281604051602001808381526020018281526020019250505060405160208183030381529060405280519060200120925061319b565b808360405160200180838152602001828152602001925050506040516020818303038152906040528051906020012092505b5060010161310b565b509092149392505050565b60006131ba8361354e565b6131e85760405162461bcd60e51b81526004016131d690614c00565b604051809103906131e56135f4565b50505b600080846001600160a01b031684604051613203919061457e565b6000604051808303816000865a61321861393c565b5050505050509150503d806000811461324d576040513d603f01601f191681016040523d815291503d6000602084013e613252565b606091505b50915091506132618282613591565b80511580612cc15750602081018151810190612cc19190613d5d565b60008160405160200161297e919061459a565b600081516041146132f05760405162461bcd60e51b815260206004820152601f60248201527f45434453413a20696e76616c6964207369676e6174757265206c656e677468006044820152606401604051809103906132ed6135f4565b50505b60008060006020850151925060408501519150606085015160001a90507f7fffffffffffffffffffffffffffffff5d576e7357a4501ddfe92f46681b20a08211156133755760405162461bcd60e51b815260040180806020018281038252602281526020018061518260229139604001915050604051809103906133726135f4565b50505b8060ff16601b1415801561338d57508060ff16601c14155b156133d25760405162461bcd60e51b81526004018080602001828103825260228152602001806151a460229139604001915050604051809103906133cf6135f4565b50505b600060018783868660405160008152602001604052604051808581526020018460ff1681526020018381526020018281526020019450505050506020604051602081039080840390855a613424613805565b5050505050158015613443573d6000803e3d60006134406135f4565b50505b5050506020604051035190506001600160a01b0381166134b25760405162461bcd60e51b815260206004820152601860248201527f45434453413a20696e76616c6964207369676e617475726500000000000000006044820152606401604051809103906134af6135f4565b50505b9695505050505050565b6000612b598484846135a8565b6000806000846001600160a01b0316846040516134e5906145cb565b60006040518083038185875a6134f961393c565b505050505050925050503d806000811461352f576040513d603f01601f191681016040523d815291503d6000602084013e613534565b606091505b50915091506135438282613591565b506001949350505050565b6000807fc5d2460186f7233c927e7db2dcc703c0e500b653ca82273b7bfad8045d85a4708361357b613a02565b9150808214158015612b59575050151592915050565b816135a457805160208201612c606135f4565b5050565b6000612b598484846040516024016135c1929190614781565b604051601f1981830301815260409190915263a9059cbb60e01b6020820180516001600160e01b031690911790526131af565b632a2a7adb598160e01b8152600481016020815285602082015260005b8681101561362c578086015182820160400152602001613611565b506020828760640184336000905af158600e01573d6000803e3d6000fd5b3d6001141558600a015760016000f35b505050565b6303daa959598160e01b8152836004820152602081602483336000905af158600e01573d6000803e3d6000fd5b3d6001141558600a015760016000f35b8051935060005b6040811015612a7a576000828201526020016136a3565b6322bd64c0598160e01b8152836004820152846024820152600081604483336000905af158600e01573d6000803e3d6000fd5b3d6001141558600a015760016000f35b6000815260206136a3565b604051806040016040528061371b613a4e565b8152602001613728613a4e565b905290565b63bdbf8c36598160e01b8152602081600483336000905af158600e01573d6000803e3d6000fd5b3d6001141558600a015760016000f35b805160008252935060206136a3565b6373509064598160e01b8152602081600483336000905af158600e01573d6000803e3d6000fd5b3d6001141558600a015760016000f35b805160008252935060206136a3565b638435035b598160e01b8152836004820152602081602483336000905af158600e01573d6000803e3d6000fd5b3d6001141558600a015760016000f35b805160008252935060206136a3565b638540661f598160e01b8152613836565b8080831115611ee0575090919050565b8080831015611ee0575090919050565b836004820152846024820152606060448201528660648201526084810160005b8881101561386e578088015182820152602001613856565b506060828960a40184336000905af158600e01573d6000803e3d6000fd5b3d6001141558600a015760016000f35b815160408301513d6000853e8b8b82606087013350600060045af150596138c38d3d613826565b8c016138cf8187613816565b5b828110156138e457600081526020016138d0565b50929c50505050505050565b6040516060810160409081526000808352602083018190529082015290565b60405160a08101604090815260008083526020830181905290820181905260608201819052608082015290565b6385979f76598160e01b8152836004820152846024820152606060448201528760648201526084810160005b89811015613980578089015182820152602001613968565b506060828a60a40184336000905af158600e01573d6000803e3d6000fd5b3d6001141558600a015760016000f35b815160408301513d6000853e8c8c82606087013350600060045af150596139d58e3d613826565b8d016139e18187613816565b5b828110156139f657600081526020016139e2565b50929d50505050505050565b6324749d5c598160e01b8152836004820152602081602483336000905af158600e01573d6000803e3d6000fd5b3d6001141558600a015760016000f35b805160008252935060206136a3565b60405160408082018152600290829080368337509192915050565b8035610f1881615163565b60008083601f840112613a8e578182613a8b6135f4565b50505b5081356001600160401b03811115613aad578182613aaa6135f4565b50505b6020830191508360208083028501011115613ad057600080613acd6135f4565b50505b9250929050565b600082601f830112613af0578081613aed6135f4565b50505b604051604081018181106001600160401b0382111715613b0c57fe5b8060405250808385604086011115613b2b578384613b286135f4565b50505b835b6002811015613b56578135613b4181615163565b83526020928301929190910190600101613b2d565b509195945050505050565b600082601f830112613b7a578081613b776135f4565b50505b604051604081018181106001600160401b0382111715613b9657fe5b8060405250808385604086011115613bb5578384613bb26135f4565b50505b835b6002811015613b56578151613bcb81615163565b83526020928301929190910190600101613bb7565b60008083601f840112613bfa578182613bf76135f4565b50505b5081356001600160401b03811115613c19578182613c166135f4565b50505b602083019150836020828501011115613ad057600080613acd6135f4565b60006101608284031215613c52578081613c4f6135f4565b50505b50919050565b60006101808284031215613c52578081613c4f6135f4565b600060208284031215613c8a578081613c876135f4565b50505b81356126f081615163565b60008060408385031215613cb0578081613cad6135f4565b50505b8235613cbb81615163565b91506020830135613ccb81615163565b809150509250929050565b600080600060608486031215613cf3578081613cf06135f4565b50505b8335613cfe81615163565b92506020840135613d0e81615163565b91506040840135613d1e81615163565b809150509250925092565b60008060408385031215613d44578182613d416135f4565b50505b8235613d4f81615163565b946020939093013593505050565b600060208284031215613d77578081613d746135f4565b50505b815180151581146126f0578182612a216135f4565b600060208284031215613da6578081613da36135f4565b50505b5035919050565b600060808284031215613dc7578081613dc46135f4565b50505b604051604081018181106001600160401b0382111715613de357fe5b604052601f83018413613dfd578182613dfa6135f4565b50505b6002613e10613e0b8261505f565b615038565b80856040870188811115613e2b578687613e286135f4565b50505b865b85811015613e4b578235855260209485019490920191600101613e2d565b50828652613e598982613ad7565b60208701525093979650505050505050565b600060808284031215613e85578081613e826135f4565b50505b604051604081018181106001600160401b0382111715613ea157fe5b604052601f83018413613ebb578182613eb86135f4565b50505b6002613ec9613e0b8261505f565b80856040870188811115613ee4578687613ee16135f4565b50505b865b85811015613f0557825185526020948501949290920191600101613ee6565b50828652613e598982613b61565b600080600080600060608688031215613f33578283613f306135f4565b50505b85356001600160401b0380821115613f52578485613f4f6135f4565b50505b613f5e89838a01613c37565b96506020880135915080821115613f7c578485613f796135f4565b50505b613f8889838a01613a74565b90965094506040880135915080821115613fa9578283613fa66135f4565b50505b50613fb688828901613a74565b969995985093965092949392505050565b600080600080600060608688031215613fe7578283613fe46135f4565b50505b85356001600160401b03808211156140065784856140036135f4565b50505b61401289838a01613c37565b9650602088013591508082111561403057848561402d6135f4565b50505b61403c89838a01613be0565b9096509450604088013591508082111561405d57828361405a6135f4565b50505b50613fb688828901613be0565b60008060006101a084860312156140885780816140856135f4565b50505b6140928585613c58565b92506101808401356001600160401b038111156140b65781826140b36135f4565b50505b6140c286828701613a74565b9497909650939450505050565b60008060008060008060006101e0888a0312156140f35784856140f06135f4565b50505b6140fd8989613c58565b96506101808801356001600160401b038082111561412257868761411f6135f4565b50505b61412e8b838c01613be0565b90985096506101a08a013591508082111561415057838461414d6135f4565b50505b61415c8b838c01613be0565b90965094506101c08a013591508082111561417e57838461417b6135f4565b50505b5061418b8a828b01613be0565b989b979a50959850939692959293505050565b6000602082840312156141b85780816141b56135f4565b50505b81519392505050565b6001600160a01b0316815260200190565b6001600160a01b03169052565b60008284526020808501945082825b8581101561421c57813561420181615163565b6001600160a01b0316875295820195908201906001016141ee565b509495945050505050565b600082845260208401935081815b8481101561425a5761424786836142cb565b6080958601959190910190600101614235565b5093949350505050565b81835260006001600160fb1b038311156142855780816142826135f4565b50505b6020830280836020870137939093016020019283525090919050565b60008284528282602086013780602084860101526020601f19601f85011685010190509392505050565b604081833760006040838101828152908301915b6002811015610db75782356142f381615163565b6001600160a01b03168252602092830192909101906001016142df565b8061431961365f565b82526001810161432761365f565b60208301526002810161433861365f565b60408301526003810161434961365f565b60608301526004810161435a61365f565b60808301525050565b600061016061437a8461437585613a69565b6141d2565b61438660208401613a69565b61439360208601826141d2565b506143a060408401613a69565b6143ad60408601826141d2565b506143bb6060840184615079565b8260608701526143ce83870182846141df565b925050506143df60808401846150d8565b85830360808701526143f2838284614227565b9250505061440360a0840184615079565b85830360a0870152614416838284614264565b9250505061442760c0840184615079565b85830360c087015261443a838284614264565b9250505061444b60e0840184615079565b85830360e087015261445e838284614264565b6101008681013590880152610120808701359088015261014095860135959096019490945250929392505050565b803561449781615163565b6001600160a01b039081168352602082810135908401526040820135906144bd82615163565b1660408301526144cf60608201613a69565b6144dc60608401826141d2565b506144e960808201613a69565b6144f660808401826141d2565b5061450360a08201613a69565b61451060a08401826141d2565b5061452160c0830160c083016142cb565b610140818101359083015261016090810135910152565b8061454161365f565b82526001810161454f61365f565b602083015260ff6002820161456261365f565b16151560408301525050565b6000828483379101908152919050565b60008251614590818460208701615137565b9190910192915050565b7f16566563746f72205369676e6564204d6573736167653a0a33320000000000008152601a810191909152603a0190565b90565b6001600160a01b0391909116815260200190565b6001600160a01b038416815260e06020820181905260009061460690830185614363565b9050612b596040830184614310565b6001600160a01b03861681526101006020820181905260009061463a83820188614363565b90506146496040840187614310565b82810360e084015261465c8185876141df565b98975050505050505050565b6001600160a01b03841681526102008101614686602083018561448c565b612b596101a0830184614538565b6001600160a01b038916815260006102c060206146b38185018c61448c565b6146c16101a085018b614538565b816102008501526146d5828501898b6142a1565b91508382036102208501526146eb8287896142a1565b9250610240840191508451916000905b600282101561471a5783518152928201926001919091019082016146fb565b5050808501519150610280840160005b600281101561474c5761473e8285516141c1565b93830193915060010161472a565b505050509998505050505050505050565b6001600160a01b039384168152919092166020820152604081019190915260600190565b6001600160a01b03929092168252602082015260400190565b60006060825286518060608401526147b9816080850160208b01615137565b601f01601f19168201828103608090810160208501526147dc90820187896142a1565b9050828103604084015261465c8185876142a1565b60408101600284106147ff57fe5b9281526020015290565b60208082526024908201527f434d4341646a7564696361746f723a20494e56414c49445f4348414e4e454c5f60408201526309082a6960e31b606082015260800190565b6020808252601e908201527f434d4341646a7564696361746f723a20494e4445585f4d49534d415443480000604082015260600190565b6020808252601d908201527f434d4341646a7564696361746f723a20494e56414c49445f5048415345000000604082015260600190565b6020808252818101527f434d4341646a7564696361746f723a20494e56414c49445f5452414e53464552604082015260600190565b6020808252601f908201527f434d43436f72653a204944454e544943414c5f5041525449434950414e545300604082015260600190565b6020808252601d908201527f434d4341646a7564696361746f723a20494e56414c49445f4e4f4e4345000000604082015260600190565b60208082526019908201527f434d4341737365743a205452414e534645525f4641494c454400000000000000604082015260600190565b6020808252601f908201527f434d4341646a7564696361746f723a20494e56414c49445f424f425f53494700604082015260600190565b60208082526029908201527f434d4341646a7564696361746f723a205452414e534645525f414c524541445960408201526817d11151955391115160ba1b606082015260800190565b6020808252601f908201527f434d4341646a7564696361746f723a204e4f5f4153534554535f474956454e00604082015260600190565b6020808252601f908201527f434d4341646a7564696361746f723a20494e56414c49445f4348414e4e454c00604082015260600190565b60208082526028908201527f434d4341646a7564696361746f723a204348414e4e454c5f414c52454144595f604082015267111151955391115160c21b606082015260800190565b6020808252601c908201527f434d43436f72653a20494e56414c49445f5041525449434950414e5400000000604082015260600190565b60208082526021908201527f434d434465706f7369743a2045524332305f5452414e534645525f4641494c456040820152601160fa1b606082015260800190565b6020808252601a908201527f434d434465706f7369743a2056414c55455f4d49534d41544348000000000000604082015260600190565b60208082526021908201527f434d434465706f7369743a204554485f574954485f4552435f5452414e5346456040820152602960f91b606082015260800190565b60208082526025908201527f434d4341646a7564696361746f723a205452414e534645525f4e4f545f444953604082015264141555115160da1b606082015260800190565b6020808252601190820152704c696245524332303a204e4f5f434f444560781b604082015260600190565b6020808252601f908201527f5265656e7472616e637947756172643a205245454e5452414e545f43414c4c00604082015260600190565b60208082526024908201527f434d4341646a7564696361746f723a20494e56414c49445f4d45524b4c455f506040820152632927a7a360e11b606082015260800190565b6020808252600f908201526e0434d4341737365743a204e4f5f4f5608c1b604082015260600190565b60208082526029908201527f434d4341646a7564696361746f723a205452414e534645525f414c524541445960408201526817d11254d41555115160ba1b606082015260800190565b60208082526018908201527f434d4341737365743a204f574e45525f4d49534d415443480000000000000000604082015260600190565b6020808252601690820152750434d43436f72653a20414c52454144595f53455455560541b604082015260600190565b60208082526023908201527f434d4341646a7564696361746f723a2057524f4e475f41525241595f4c454e4760408201526254485360e81b606082015260800190565b60208082526021908201527f434d4341646a7564696361746f723a20494e56414c49445f414c4943455f53496040820152604760f81b606082015260800190565b6020808252818101527f434d4341646a7564696361746f723a20494e56414c49445f5245534f4c564552604082015260600190565b6020808252601a908201527f4d6173746572636f70793a204f4e4c595f5649415f50524f5859000000000000604082015260600190565b6020808252818101527f434d4341646a7564696361746f723a20494e56414c49445f42414c414e434553604082015260600190565b60208082526025908201527f434d4341646a7564696361746f723a20494e56414c49445f5452414e534645526040820152640be9082a6960db1b606082015260800190565b60808101611ee082846142cb565b60a08101825182526020830151602083015260408301516040830152606083015160608301526080830151608083015292915050565b6000602082526126f06020830184614363565b6101808101611ee0828461448c565b60608101825182526020830151602083015260408301511515604083015292915050565b90815260200190565b6000808335601e19843603018112614f9b578283614f986135f4565b50505b8301803591506001600160401b03821115614fbd578283614fba6135f4565b50505b6020908101925081023603821315613ad057600080613acd6135f4565b6000808335601e19843603018112614ff9578283614ff66135f4565b50505b8301803591506001600160401b0382111561501b5782836150186135f4565b50505b6020019150608081023603821315613ad057600080613acd6135f4565b600060405190508181018181106001600160401b038211171561505757fe5b604052919050565b60006001600160401b0382111561507257fe5b5060200290565b6000808335601e198436030181126150985782836150956135f4565b50505b83016020810192503590506001600160401b038111156150c0576000806150bd6135f4565b50505b602081023603831315613ad057600080613acd6135f4565b6000808335601e198436030181126150f75782836150f46135f4565b50505b83016020810192503590506001600160401b0381111561511f5760008061511c6135f4565b50505b608081023603831315613ad057600080613acd6135f4565b60005b8381101561515257808201518382015260200161513a565b83811115612c605750506000910152565b6001600160a01b038116811461517e57600080612a7a6135f4565b5056fe45434453413a20696e76616c6964207369676e6174757265202773272076616c756545434453413a20696e76616c6964207369676e6174757265202776272076616c7565536166654d6174683a206d756c7469706c69636174696f6e206f766572666c6f77",
  "linkReferences": {},
  "deployedLinkReferences": {}
}