{
  "_format": "hh-sol-artifact-1",
  "contractName": "TestChannel",
  "sourceName": "src.sol/testing/TestChannel.sol",
  "abi": [
    {
      "anonymous": false,
      "inputs": [
        {
          "indexed": false,
          "internalType": "address",
          "name": "assetId",
          "type": "address"
        },
        {
          "indexed": false,
          "internalType": "uint256",
          "name": "amount",
          "type": "uint256"
        }
      ],
      "name": "AliceDeposited",
      "type": "event"
    },
    {
      "anonymous": false,
      "inputs": [
        {
          "indexed": false,
          "internalType": "address",
          "name": "defunder",
          "type": "address"
        },
        {
          "components": [
            {
              "internalType": "address",
              "name": "channelAddress",
              "type": "address"
            },
            {
              "internalType": "address",
              "name": "alice",
              "type": "address"
            },
            {
              "internalType": "address",
              "name": "bob",
              "type": "address"
            },
            {
              "internalType": "address[]",
              "name": "assetIds",
              "type": "address[]"
            },
            {
              "components": [
                {
                  "internalType": "uint256[2]",
                  "name": "amount",
                  "type": "uint256[2]"
                },
                {
                  "internalType": "address payable[2]",
                  "name": "to",
                  "type": "address[2]"
                }
              ],
              "internalType": "struct Balance[]",
              "name": "balances",
              "type": "tuple[]"
            },
            {
              "internalType": "uint256[]",
              "name": "processedDepositsA",
              "type": "uint256[]"
            },
            {
              "internalType": "uint256[]",
              "name": "processedDepositsB",
              "type": "uint256[]"
            },
            {
              "internalType": "uint256[]",
              "name": "defundNonces",
              "type": "uint256[]"
            },
            {
              "internalType": "uint256",
              "name": "timeout",
              "type": "uint256"
            },
            {
              "internalType": "uint256",
              "name": "nonce",
              "type": "uint256"
            },
            {
              "internalType": "bytes32",
              "name": "merkleRoot",
              "type": "bytes32"
            }
          ],
          "indexed": false,
          "internalType": "struct ICMCAdjudicator.CoreChannelState",
          "name": "state",
          "type": "tuple"
        },
        {
          "components": [
            {
              "internalType": "bytes32",
              "name": "channelStateHash",
              "type": "bytes32"
            },
            {
              "internalType": "uint256",
              "name": "nonce",
              "type": "uint256"
            },
            {
              "internalType": "bytes32",
              "name": "merkleRoot",
              "type": "bytes32"
            },
            {
              "internalType": "uint256",
              "name": "consensusExpiry",
              "type": "uint256"
            },
            {
              "internalType": "uint256",
              "name": "defundExpiry",
              "type": "uint256"
            }
          ],
          "indexed": false,
          "internalType": "struct ICMCAdjudicator.ChannelDispute",
          "name": "dispute",
          "type": "tuple"
        },
        {
          "indexed": false,
          "internalType": "address[]",
          "name": "assetIds",
          "type": "address[]"
        }
      ],
      "name": "ChannelDefunded",
      "type": "event"
    },
    {
      "anonymous": false,
      "inputs": [
        {
          "indexed": false,
          "internalType": "address",
          "name": "disputer",
          "type": "address"
        },
        {
          "components": [
            {
              "internalType": "address",
              "name": "channelAddress",
              "type": "address"
            },
            {
              "internalType": "address",
              "name": "alice",
              "type": "address"
            },
            {
              "internalType": "address",
              "name": "bob",
              "type": "address"
            },
            {
              "internalType": "address[]",
              "name": "assetIds",
              "type": "address[]"
            },
            {
              "components": [
                {
                  "internalType": "uint256[2]",
                  "name": "amount",
                  "type": "uint256[2]"
                },
                {
                  "internalType": "address payable[2]",
                  "name": "to",
                  "type": "address[2]"
                }
              ],
              "internalType": "struct Balance[]",
              "name": "balances",
              "type": "tuple[]"
            },
            {
              "internalType": "uint256[]",
              "name": "processedDepositsA",
              "type": "uint256[]"
            },
            {
              "internalType": "uint256[]",
              "name": "processedDepositsB",
              "type": "uint256[]"
            },
            {
              "internalType": "uint256[]",
              "name": "defundNonces",
              "type": "uint256[]"
            },
            {
              "internalType": "uint256",
              "name": "timeout",
              "type": "uint256"
            },
            {
              "internalType": "uint256",
              "name": "nonce",
              "type": "uint256"
            },
            {
              "internalType": "bytes32",
              "name": "merkleRoot",
              "type": "bytes32"
            }
          ],
          "indexed": false,
          "internalType": "struct ICMCAdjudicator.CoreChannelState",
          "name": "state",
          "type": "tuple"
        },
        {
          "components": [
            {
              "internalType": "bytes32",
              "name": "channelStateHash",
              "type": "bytes32"
            },
            {
              "internalType": "uint256",
              "name": "nonce",
              "type": "uint256"
            },
            {
              "internalType": "bytes32",
              "name": "merkleRoot",
              "type": "bytes32"
            },
            {
              "internalType": "uint256",
              "name": "consensusExpiry",
              "type": "uint256"
            },
            {
              "internalType": "uint256",
              "name": "defundExpiry",
              "type": "uint256"
            }
          ],
          "indexed": false,
          "internalType": "struct ICMCAdjudicator.ChannelDispute",
          "name": "dispute",
          "type": "tuple"
        }
      ],
      "name": "ChannelDisputed",
      "type": "event"
    },
    {
      "anonymous": false,
      "inputs": [
        {
          "indexed": false,
          "internalType": "address",
          "name": "defunder",
          "type": "address"
        },
        {
          "components": [
            {
              "internalType": "address",
              "name": "channelAddress",
              "type": "address"
            },
            {
              "internalType": "bytes32",
              "name": "transferId",
              "type": "bytes32"
            },
            {
              "internalType": "address",
              "name": "transferDefinition",
              "type": "address"
            },
            {
              "internalType": "address",
              "name": "initiator",
              "type": "address"
            },
            {
              "internalType": "address",
              "name": "responder",
              "type": "address"
            },
            {
              "internalType": "address",
              "name": "assetId",
              "type": "address"
            },
            {
              "components": [
                {
                  "internalType": "uint256[2]",
                  "name": "amount",
                  "type": "uint256[2]"
                },
                {
                  "internalType": "address payable[2]",
                  "name": "to",
                  "type": "address[2]"
                }
              ],
              "internalType": "struct Balance",
              "name": "balance",
              "type": "tuple"
            },
            {
              "internalType": "uint256",
              "name": "transferTimeout",
              "type": "uint256"
            },
            {
              "internalType": "bytes32",
              "name": "initialStateHash",
              "type": "bytes32"
            }
          ],
          "indexed": false,
          "internalType": "struct ICMCAdjudicator.CoreTransferState",
          "name": "state",
          "type": "tuple"
        },
        {
          "components": [
            {
              "internalType": "bytes32",
              "name": "transferStateHash",
              "type": "bytes32"
            },
            {
              "internalType": "uint256",
              "name": "transferDisputeExpiry",
              "type": "uint256"
            },
            {
              "internalType": "bool",
              "name": "isDefunded",
              "type": "bool"
            }
          ],
          "indexed": false,
          "internalType": "struct ICMCAdjudicator.TransferDispute",
          "name": "dispute",
          "type": "tuple"
        },
        {
          "indexed": false,
          "internalType": "bytes",
          "name": "encodedInitialState",
          "type": "bytes"
        },
        {
          "indexed": false,
          "internalType": "bytes",
          "name": "encodedResolver",
          "type": "bytes"
        },
        {
          "components": [
            {
              "internalType": "uint256[2]",
              "name": "amount",
              "type": "uint256[2]"
            },
            {
              "internalType": "address payable[2]",
              "name": "to",
              "type": "address[2]"
            }
          ],
          "indexed": false,
          "internalType": "struct Balance",
          "name": "balance",
          "type": "tuple"
        }
      ],
      "name": "TransferDefunded",
      "type": "event"
    },
    {
      "anonymous": false,
      "inputs": [
        {
          "indexed": false,
          "internalType": "address",
          "name": "disputer",
          "type": "address"
        },
        {
          "components": [
            {
              "internalType": "address",
              "name": "channelAddress",
              "type": "address"
            },
            {
              "internalType": "bytes32",
              "name": "transferId",
              "type": "bytes32"
            },
            {
              "internalType": "address",
              "name": "transferDefinition",
              "type": "address"
            },
            {
              "internalType": "address",
              "name": "initiator",
              "type": "address"
            },
            {
              "internalType": "address",
              "name": "responder",
              "type": "address"
            },
            {
              "internalType": "address",
              "name": "assetId",
              "type": "address"
            },
            {
              "components": [
                {
                  "internalType": "uint256[2]",
                  "name": "amount",
                  "type": "uint256[2]"
                },
                {
                  "internalType": "address payable[2]",
                  "name": "to",
                  "type": "address[2]"
                }
              ],
              "internalType": "struct Balance",
              "name": "balance",
              "type": "tuple"
            },
            {
              "internalType": "uint256",
              "name": "transferTimeout",
              "type": "uint256"
            },
            {
              "internalType": "bytes32",
              "name": "initialStateHash",
              "type": "bytes32"
            }
          ],
          "indexed": false,
          "internalType": "struct ICMCAdjudicator.CoreTransferState",
          "name": "state",
          "type": "tuple"
        },
        {
          "components": [
            {
              "internalType": "bytes32",
              "name": "transferStateHash",
              "type": "bytes32"
            },
            {
              "internalType": "uint256",
              "name": "transferDisputeExpiry",
              "type": "uint256"
            },
            {
              "internalType": "bool",
              "name": "isDefunded",
              "type": "bool"
            }
          ],
          "indexed": false,
          "internalType": "struct ICMCAdjudicator.TransferDispute",
          "name": "dispute",
          "type": "tuple"
        }
      ],
      "name": "TransferDisputed",
      "type": "event"
    },
    {
      "inputs": [
        {
          "components": [
            {
              "internalType": "address",
              "name": "channelAddress",
              "type": "address"
            },
            {
              "internalType": "address",
              "name": "alice",
              "type": "address"
            },
            {
              "internalType": "address",
              "name": "bob",
              "type": "address"
            },
            {
              "internalType": "address[]",
              "name": "assetIds",
              "type": "address[]"
            },
            {
              "components": [
                {
                  "internalType": "uint256[2]",
                  "name": "amount",
                  "type": "uint256[2]"
                },
                {
                  "internalType": "address payable[2]",
                  "name": "to",
                  "type": "address[2]"
                }
              ],
              "internalType": "struct Balance[]",
              "name": "balances",
              "type": "tuple[]"
            },
            {
              "internalType": "uint256[]",
              "name": "processedDepositsA",
              "type": "uint256[]"
            },
            {
              "internalType": "uint256[]",
              "name": "processedDepositsB",
              "type": "uint256[]"
            },
            {
              "internalType": "uint256[]",
              "name": "defundNonces",
              "type": "uint256[]"
            },
            {
              "internalType": "uint256",
              "name": "timeout",
              "type": "uint256"
            },
            {
              "internalType": "uint256",
              "name": "nonce",
              "type": "uint256"
            },
            {
              "internalType": "bytes32",
              "name": "merkleRoot",
              "type": "bytes32"
            }
          ],
          "internalType": "struct ICMCAdjudicator.CoreChannelState",
          "name": "ccs",
          "type": "tuple"
        },
        {
          "internalType": "address[]",
          "name": "assetIds",
          "type": "address[]"
        },
        {
          "internalType": "uint256[]",
          "name": "indices",
          "type": "uint256[]"
        }
      ],
      "name": "defundChannel",
      "outputs": [],
      "stateMutability": "nonpayable",
      "type": "function"
    },
    {
      "inputs": [
        {
          "components": [
            {
              "internalType": "address",
              "name": "channelAddress",
              "type": "address"
            },
            {
              "internalType": "bytes32",
              "name": "transferId",
              "type": "bytes32"
            },
            {
              "internalType": "address",
              "name": "transferDefinition",
              "type": "address"
            },
            {
              "internalType": "address",
              "name": "initiator",
              "type": "address"
            },
            {
              "internalType": "address",
              "name": "responder",
              "type": "address"
            },
            {
              "internalType": "address",
              "name": "assetId",
              "type": "address"
            },
            {
              "components": [
                {
                  "internalType": "uint256[2]",
                  "name": "amount",
                  "type": "uint256[2]"
                },
                {
                  "internalType": "address payable[2]",
                  "name": "to",
                  "type": "address[2]"
                }
              ],
              "internalType": "struct Balance",
              "name": "balance",
              "type": "tuple"
            },
            {
              "internalType": "uint256",
              "name": "transferTimeout",
              "type": "uint256"
            },
            {
              "internalType": "bytes32",
              "name": "initialStateHash",
              "type": "bytes32"
            }
          ],
          "internalType": "struct ICMCAdjudicator.CoreTransferState",
          "name": "cts",
          "type": "tuple"
        },
        {
          "internalType": "bytes",
          "name": "encodedInitialTransferState",
          "type": "bytes"
        },
        {
          "internalType": "bytes",
          "name": "encodedTransferResolver",
          "type": "bytes"
        },
        {
          "internalType": "bytes",
          "name": "responderSignature",
          "type": "bytes"
        }
      ],
      "name": "defundTransfer",
      "outputs": [],
      "stateMutability": "nonpayable",
      "type": "function"
    },
    {
      "inputs": [
        {
          "internalType": "address",
          "name": "assetId",
          "type": "address"
        },
        {
          "internalType": "uint256",
          "name": "amount",
          "type": "uint256"
        }
      ],
      "name": "depositAlice",
      "outputs": [],
      "stateMutability": "payable",
      "type": "function"
    },
    {
      "inputs": [
        {
          "components": [
            {
              "internalType": "address",
              "name": "channelAddress",
              "type": "address"
            },
            {
              "internalType": "address",
              "name": "alice",
              "type": "address"
            },
            {
              "internalType": "address",
              "name": "bob",
              "type": "address"
            },
            {
              "internalType": "address[]",
              "name": "assetIds",
              "type": "address[]"
            },
            {
              "components": [
                {
                  "internalType": "uint256[2]",
                  "name": "amount",
                  "type": "uint256[2]"
                },
                {
                  "internalType": "address payable[2]",
                  "name": "to",
                  "type": "address[2]"
                }
              ],
              "internalType": "struct Balance[]",
              "name": "balances",
              "type": "tuple[]"
            },
            {
              "internalType": "uint256[]",
              "name": "processedDepositsA",
              "type": "uint256[]"
            },
            {
              "internalType": "uint256[]",
              "name": "processedDepositsB",
              "type": "uint256[]"
            },
            {
              "internalType": "uint256[]",
              "name": "defundNonces",
              "type": "uint256[]"
            },
            {
              "internalType": "uint256",
              "name": "timeout",
              "type": "uint256"
            },
            {
              "internalType": "uint256",
              "name": "nonce",
              "type": "uint256"
            },
            {
              "internalType": "bytes32",
              "name": "merkleRoot",
              "type": "bytes32"
            }
          ],
          "internalType": "struct ICMCAdjudicator.CoreChannelState",
          "name": "ccs",
          "type": "tuple"
        },
        {
          "internalType": "bytes",
          "name": "aliceSignature",
          "type": "bytes"
        },
        {
          "internalType": "bytes",
          "name": "bobSignature",
          "type": "bytes"
        }
      ],
      "name": "disputeChannel",
      "outputs": [],
      "stateMutability": "nonpayable",
      "type": "function"
    },
    {
      "inputs": [
        {
          "components": [
            {
              "internalType": "address",
              "name": "channelAddress",
              "type": "address"
            },
            {
              "internalType": "bytes32",
              "name": "transferId",
              "type": "bytes32"
            },
            {
              "internalType": "address",
              "name": "transferDefinition",
              "type": "address"
            },
            {
              "internalType": "address",
              "name": "initiator",
              "type": "address"
            },
            {
              "internalType": "address",
              "name": "responder",
              "type": "address"
            },
            {
              "internalType": "address",
              "name": "assetId",
              "type": "address"
            },
            {
              "components": [
                {
                  "internalType": "uint256[2]",
                  "name": "amount",
                  "type": "uint256[2]"
                },
                {
                  "internalType": "address payable[2]",
                  "name": "to",
                  "type": "address[2]"
                }
              ],
              "internalType": "struct Balance",
              "name": "balance",
              "type": "tuple"
            },
            {
              "internalType": "uint256",
              "name": "transferTimeout",
              "type": "uint256"
            },
            {
              "internalType": "bytes32",
              "name": "initialStateHash",
              "type": "bytes32"
            }
          ],
          "internalType": "struct ICMCAdjudicator.CoreTransferState",
          "name": "cts",
          "type": "tuple"
        },
        {
          "internalType": "bytes32[]",
          "name": "merkleProofData",
          "type": "bytes32[]"
        }
      ],
      "name": "disputeTransfer",
      "outputs": [],
      "stateMutability": "nonpayable",
      "type": "function"
    },
    {
      "inputs": [
        {
          "internalType": "address",
          "name": "assetId",
          "type": "address"
        },
        {
          "internalType": "address",
          "name": "owner",
          "type": "address"
        },
        {
          "internalType": "address payable",
          "name": "recipient",
          "type": "address"
        }
      ],
      "name": "exit",
      "outputs": [],
      "stateMutability": "nonpayable",
      "type": "function"
    },
    {
      "inputs": [],
      "name": "getAlice",
      "outputs": [
        {
          "internalType": "address",
          "name": "",
          "type": "address"
        }
      ],
      "stateMutability": "view",
      "type": "function"
    },
    {
      "inputs": [],
      "name": "getBob",
      "outputs": [
        {
          "internalType": "address",
          "name": "",
          "type": "address"
        }
      ],
      "stateMutability": "view",
      "type": "function"
    },
    {
      "inputs": [],
      "name": "getChannelDispute",
      "outputs": [
        {
          "components": [
            {
              "internalType": "bytes32",
              "name": "channelStateHash",
              "type": "bytes32"
            },
            {
              "internalType": "uint256",
              "name": "nonce",
              "type": "uint256"
            },
            {
              "internalType": "bytes32",
              "name": "merkleRoot",
              "type": "bytes32"
            },
            {
              "internalType": "uint256",
              "name": "consensusExpiry",
              "type": "uint256"
            },
            {
              "internalType": "uint256",
              "name": "defundExpiry",
              "type": "uint256"
            }
          ],
          "internalType": "struct ICMCAdjudicator.ChannelDispute",
          "name": "",
          "type": "tuple"
        }
      ],
      "stateMutability": "view",
      "type": "function"
    },
    {
      "inputs": [
        {
          "internalType": "address",
          "name": "assetId",
          "type": "address"
        }
      ],
      "name": "getDefundNonce",
      "outputs": [
        {
          "internalType": "uint256",
          "name": "",
          "type": "uint256"
        }
      ],
      "stateMutability": "view",
      "type": "function"
    },
    {
      "inputs": [
        {
          "internalType": "address",
          "name": "assetId",
          "type": "address"
        },
        {
          "internalType": "address",
          "name": "owner",
          "type": "address"
        }
      ],
      "name": "getExitableAmount",
      "outputs": [
        {
          "internalType": "uint256",
          "name": "",
          "type": "uint256"
        }
      ],
      "stateMutability": "view",
      "type": "function"
    },
    {
      "inputs": [
        {
          "internalType": "address",
          "name": "assetId",
          "type": "address"
        }
      ],
      "name": "getTotalDepositsAlice",
      "outputs": [
        {
          "internalType": "uint256",
          "name": "",
          "type": "uint256"
        }
      ],
      "stateMutability": "view",
      "type": "function"
    },
    {
      "inputs": [
        {
          "internalType": "address",
          "name": "assetId",
          "type": "address"
        }
      ],
      "name": "getTotalDepositsBob",
      "outputs": [
        {
          "internalType": "uint256",
          "name": "",
          "type": "uint256"
        }
      ],
      "stateMutability": "view",
      "type": "function"
    },
    {
      "inputs": [
        {
          "internalType": "address",
          "name": "assetId",
          "type": "address"
        }
      ],
      "name": "getTotalTransferred",
      "outputs": [
        {
          "internalType": "uint256",
          "name": "",
          "type": "uint256"
        }
      ],
      "stateMutability": "view",
      "type": "function"
    },
    {
      "inputs": [
        {
          "internalType": "bytes32",
          "name": "transferId",
          "type": "bytes32"
        }
      ],
      "name": "getTransferDispute",
      "outputs": [
        {
          "components": [
            {
              "internalType": "bytes32",
              "name": "transferStateHash",
              "type": "bytes32"
            },
            {
              "internalType": "uint256",
              "name": "transferDisputeExpiry",
              "type": "uint256"
            },
            {
              "internalType": "bool",
              "name": "isDefunded",
              "type": "bool"
            }
          ],
          "internalType": "struct ICMCAdjudicator.TransferDispute",
          "name": "",
          "type": "tuple"
        }
      ],
      "stateMutability": "view",
      "type": "function"
    },
    {
      "inputs": [
        {
          "components": [
            {
              "internalType": "address",
              "name": "channelAddress",
              "type": "address"
            },
            {
              "internalType": "address",
              "name": "assetId",
              "type": "address"
            },
            {
              "internalType": "address payable",
              "name": "recipient",
              "type": "address"
            },
            {
              "internalType": "uint256",
              "name": "amount",
              "type": "uint256"
            },
            {
              "internalType": "uint256",
              "name": "nonce",
              "type": "uint256"
            },
            {
              "internalType": "address",
              "name": "callTo",
              "type": "address"
            },
            {
              "internalType": "bytes",
              "name": "callData",
              "type": "bytes"
            }
          ],
          "internalType": "struct WithdrawData",
          "name": "wd",
          "type": "tuple"
        }
      ],
      "name": "getWithdrawalTransactionRecord",
      "outputs": [
        {
          "internalType": "bool",
          "name": "",
          "type": "bool"
        }
      ],
      "stateMutability": "view",
      "type": "function"
    },
    {
      "inputs": [],
      "name": "lock",
      "outputs": [
        {
          "internalType": "uint256",
          "name": "",
          "type": "uint256"
        }
      ],
      "stateMutability": "view",
      "type": "function"
    },
    {
      "inputs": [
        {
          "internalType": "address",
          "name": "_alice",
          "type": "address"
        },
        {
          "internalType": "address",
          "name": "_bob",
          "type": "address"
        }
      ],
      "name": "setup",
      "outputs": [],
      "stateMutability": "nonpayable",
      "type": "function"
    },
    {
      "inputs": [
        {
          "internalType": "address",
          "name": "assetId",
          "type": "address"
        },
        {
          "components": [
            {
              "internalType": "uint256[2]",
              "name": "amount",
              "type": "uint256[2]"
            },
            {
              "internalType": "address payable[2]",
              "name": "to",
              "type": "address[2]"
            }
          ],
          "internalType": "struct Balance",
          "name": "balance",
          "type": "tuple"
        }
      ],
      "name": "testMakeBalanceExitable",
      "outputs": [],
      "stateMutability": "nonpayable",
      "type": "function"
    },
    {
      "inputs": [
        {
          "internalType": "address",
          "name": "assetId",
          "type": "address"
        },
        {
          "internalType": "address payable",
          "name": "recipient",
          "type": "address"
        },
        {
          "internalType": "uint256",
          "name": "maxAmount",
          "type": "uint256"
        }
      ],
      "name": "testMakeExitable",
      "outputs": [],
      "stateMutability": "nonpayable",
      "type": "function"
    },
    {
      "inputs": [
        {
          "components": [
            {
              "internalType": "address",
              "name": "channelAddress",
              "type": "address"
            },
            {
              "internalType": "address",
              "name": "assetId",
              "type": "address"
            },
            {
              "internalType": "address payable",
              "name": "recipient",
              "type": "address"
            },
            {
              "internalType": "uint256",
              "name": "amount",
              "type": "uint256"
            },
            {
              "internalType": "uint256",
              "name": "nonce",
              "type": "uint256"
            },
            {
              "internalType": "address",
              "name": "callTo",
              "type": "address"
            },
            {
              "internalType": "bytes",
              "name": "callData",
              "type": "bytes"
            }
          ],
          "internalType": "struct WithdrawData",
          "name": "wd",
          "type": "tuple"
        },
        {
          "internalType": "bytes",
          "name": "aliceSignature",
          "type": "bytes"
        },
        {
          "internalType": "bytes",
          "name": "bobSignature",
          "type": "bytes"
        }
      ],
      "name": "withdraw",
      "outputs": [],
      "stateMutability": "nonpayable",
      "type": "function"
    },
    {
      "stateMutability": "payable",
      "type": "receive"
    }
  ],
  "bytecode": "0x60a060405234801561001057600080fd5b5030606081901b60805261412461008b6000398061013e5280610471528061081d52806108985280610acc5280610bea5280610c96528061119f5280611314528061147c52806115c7528061165152806116e55280611769528061196d52806119f65280611a7f5280611b185280611b9b52506141246000f3fe60806040526004361061012e5760003560e01c80637b037295116100ab578063cefa51221161006f578063cefa5122146103ba578063e7283a8d146103da578063e9852569146103fa578063eeb30fea1461041a578063f19eb10e1461042f578063f83d08ba14610451576101ae565b80637b0372951461030d5780638c048fc21461032d578063b081e9c81461035a578063c55e1dac1461037a578063c60939be1461039a576101ae565b80634d3fcbda116100f25780634d3fcbda1461026d5780635bc9d96d1461028d5780635fd334d9146102ad578063635ae901146102cd5780636f33389e146102e0576101ae565b8063072f25fd146101b3578063241686a0146101d55780632c889aa1146102005780632d34ba79146102205780633ff0da1614610240576101ae565b366101ae57306001600160a01b037f00000000000000000000000000000000000000000000000000000000000000001614156101855760405162461bcd60e51b815260040161017c90613df1565b60405180910390fd5b6001600054146101a75760405162461bcd60e51b815260040161017c90613bad565b6001600055005b600080fd5b3480156101bf57600080fd5b506101d36101ce366004612cf9565b610466565b005b3480156101e157600080fd5b506101ea610810565b6040516101f791906132f6565b60405180910390f35b34801561020c57600080fd5b506101d361021b366004612dd6565b61088d565b34801561022c57600080fd5b506101d361023b366004612988565b610ac1565b34801561024c57600080fd5b5061026061025b366004612aca565b610bd7565b6040516101f79190613f0c565b34801561027957600080fd5b506101d3610288366004612b97565b610c8b565b34801561029957600080fd5b506101d36102a8366004612a00565b611194565b3480156102b957600080fd5b506101d36102c8366004612ca6565b611309565b6101d36102db366004612a7f565b611471565b3480156102ec57600080fd5b506103006102fb36600461296c565b6115ba565b6040516101f79190613f64565b34801561031957600080fd5b506101d3610328366004612a4a565b611636565b34801561033957600080fd5b5061034d610348366004612da4565b611644565b6040516101f791906134c1565b34801561036657600080fd5b5061030061037536600461296c565b6116d8565b34801561038657600080fd5b506101d36103953660046129c0565b61174e565b3480156103a657600080fd5b506101d36103b5366004612c27565b61175e565b3480156103c657600080fd5b506103006103d536600461296c565b611960565b3480156103e657600080fd5b506103006103f536600461296c565b6119e9565b34801561040657600080fd5b50610300610415366004612988565b611a72565b34801561042657600080fd5b506101ea611b0b565b34801561043b57600080fd5b50610444611b88565b6040516101f79190613eb0565b34801561045d57600080fd5b50610300611c30565b306001600160a01b037f00000000000000000000000000000000000000000000000000000000000000001614156104af5760405162461bcd60e51b815260040161017c90613df1565b6001600054146104d15760405162461bcd60e51b815260040161017c90613bad565b600260005586306104e5602083018361296c565b6001600160a01b03161461050b5760405162461bcd60e51b815260040161017c906136d3565b6020808901356000908152600d9091526040902060018101546105405760405162461bcd60e51b815260040161017c90613afc565b805461054b8a611c36565b146105685760405162461bcd60e51b815260040161017c90613e5d565b600281015460ff161561058d5760405162461bcd60e51b815260040161017c9061381b565b60028101805460ff191660011790556105a4612684565b816001015442101561078c5789610160013589896040516105c6929190613296565b6040518091039020146105eb5760405162461bcd60e51b815260040161017c90613e5d565b6105fb60a08b0160808c0161296c565b6001600160a01b0316336001600160a01b0316148061066c575061066c85858080601f01602080910402602001604051908101604052809392919081815260200183838082843760009201919091525061065f9250505060a08d0160808e0161296c565b6101608d01359190611c66565b6106885760405162461bcd60e51b815260040161017c90613dbc565b600061069a60608c0160408d0161296c565b9050806001600160a01b0316638ef98a7e8c60c0016040516020016106bf9190613ea2565b6040516020818303038152906040528c8c8c8c6040518663ffffffff1660e01b81526004016106f29594939291906134ea565b60806040518083038186803b15801561070a57600080fd5b505afa15801561071e573d6000803e3d6000fd5b505050506040513d601f19601f820116820180604052508101906107429190612afd565b915061075660c08c013560e08d0135611c8e565b82516020810151905161076891611c8e565b11156107865760405162461bcd60e51b815260040161017c90613e28565b506107a1565b61079e368b90038b0160c08c01612ae2565b90505b6107ba6107b460c08c0160a08d0161296c565b82611cba565b7f93f6b8187e81bd7d01ce234c043cd6ae4feda2e2ae91daae0962c68a656da8c7338b848c8c8c8c886040516107f79897969594939291906133bc565b60405180910390a1505060016000555050505050505050565b6000306001600160a01b037f000000000000000000000000000000000000000000000000000000000000000016141561085b5760405162461bcd60e51b815260040161017c90613df1565b60016000541461087d5760405162461bcd60e51b815260040161017c90613bad565b506002546001600160a01b031690565b306001600160a01b037f00000000000000000000000000000000000000000000000000000000000000001614156108d65760405162461bcd60e51b815260040161017c90613df1565b6001600054146108f85760405162461bcd60e51b815260040161017c90613bad565b6002600055843061090c602083018361296c565b6001600160a01b0316146109325760405162461bcd60e51b815260040161017c90613602565b600061093d87611d0b565b905061094c8187878787611d1e565b60008181526006602052604090205460ff161561097b5760405162461bcd60e51b815260040161017c90613a0b565b6000818152600660209081526040808320805460ff191660011790556109b3916109a9918b01908b0161296c565b8960600135611e28565b905060008111806109dd575060006109d160c08a0160a08b0161296c565b6001600160a01b031614155b6109f95760405162461bcd60e51b815260040161017c90613639565b610a22610a0c60408a0160208b0161296c565b610a1c60608b0160408c0161296c565b83611e3c565b6000610a3460c08a0160a08b0161296c565b6001600160a01b031614610ab257610a5260c0890160a08a0161296c565b6001600160a01b031663f50cd32c89836040518363ffffffff1660e01b8152600401610a7f929190613f42565b600060405180830381600087803b158015610a9957600080fd5b505af1158015610aad573d6000803e3d6000fd5b505050505b50506001600055505050505050565b306001600160a01b037f0000000000000000000000000000000000000000000000000000000000000000161415610b0a5760405162461bcd60e51b815260040161017c90613df1565b6001546001600160a01b031615610b335760405162461bcd60e51b815260040161017c90613d08565b6001600160a01b03821615801590610b5357506001600160a01b03811615155b610b6f5760405162461bcd60e51b815260040161017c90613993565b806001600160a01b0316826001600160a01b03161415610ba15760405162461bcd60e51b815260040161017c90613708565b610ba9611e6d565b600180546001600160a01b039384166001600160a01b03199182161790915560028054929093169116179055565b610bdf6126a9565b306001600160a01b037f0000000000000000000000000000000000000000000000000000000000000000161415610c285760405162461bcd60e51b815260040161017c90613df1565b600160005414610c4a5760405162461bcd60e51b815260040161017c90613bad565b506000818152600d60209081526040918290208251606081018452815481526001820154928101929092526002015460ff161515918101919091525b919050565b306001600160a01b037f0000000000000000000000000000000000000000000000000000000000000000161415610cd45760405162461bcd60e51b815260040161017c90613df1565b600160005414610cf65760405162461bcd60e51b815260040161017c90613bad565b60026000558430610d0a602083018361296c565b6001600160a01b0316148015610d4257506001546001600160a01b0316610d37604083016020840161296c565b6001600160a01b0316145b8015610d7057506002546001600160a01b0316610d65606083016040840161296c565b6001600160a01b0316145b610d8c5760405162461bcd60e51b815260040161017c9061389b565b83610da95760405162461bcd60e51b815260040161017c90613864565b83821115610dc95760405162461bcd60e51b815260040161017c90613d38565b600754610dd587611e74565b14610df25760405162461bcd60e51b815260040161017c90613587565b610dfa611e87565b610e165760405162461bcd60e51b815260040161017c9061369c565b60005b84811015611146576000868683818110610e2f57fe5b9050602002016020810190610e44919061296c565b9050600084831015610ec957858584818110610e5c57fe5b905060200201359050888060600190610e759190613f6d565b82818110610e7f57fe5b9050602002016020810190610e94919061296c565b6001600160a01b0316826001600160a01b031614610ec45760405162461bcd60e51b815260040161017c906135cb565b610f35565b5060005b610eda60608a018a613f6d565b9050811015610f3557610ef060608a018a613f6d565b82818110610efa57fe5b9050602002016020810190610f0f919061296c565b6001600160a01b0316826001600160a01b03161415610f2d57610f35565b600101610ecd565b6000610f4460608b018b613f6d565b90508214610f6f57610f5960e08b018b613f6d565b83818110610f6357fe5b90506020020135610f72565b60015b6001600160a01b0384166000908152600c60205260409020549091508111610fac5760405162461bcd60e51b815260040161017c90613914565b6001600160a01b0383166000908152600c6020526040812091909155610fd183611ea4565b90506000610fde84611ebf565b9050610fe8612684565b610ff560608d018d613f6d565b905084141561107f576040518060400160405280604051806040016040528086815260200185815250815260200160405180604001604052808f6020016020810190611041919061296c565b6001600160a01b03166001600160a01b031681526020018f604001602081019061106b919061296c565b6001600160a01b031690529052905061112b565b61108c60808d018d613fb3565b8581811061109657fe5b9050608002018036038101906110ac9190612ae2565b90506110ed6110be60a08e018e613f6d565b868181106110c857fe5b90506020020135840382600001516000600281106110e257fe5b602002015190611ef4565b81515261112461110060c08e018e613f6d565b8681811061110a57fe5b90506020020135830382600001516001600281106110e257fe5b8151602001525b6111358582611cba565b505060019093019250610e19915050565b507f49cbb28c69ffbdb6b3893f83d64557662a5dd43ffd6045b6a5180ab0a027f22433876007888860405161117f95949392919061333d565b60405180910390a15050600160005550505050565b306001600160a01b037f00000000000000000000000000000000000000000000000000000000000000001614156111dd5760405162461bcd60e51b815260040161017c90613df1565b6001600054146111ff5760405162461bcd60e51b815260040161017c90613bad565b6002600055336001600160a01b038316148061122c5750806001600160a01b0316826001600160a01b0316145b6112485760405162461bcd60e51b815260040161017c90613cd1565b6001600160a01b03808416600090815260046020908152604080832093861683529290529081205461127b908590611e28565b90506000811161129d5760405162461bcd60e51b815260040161017c90613c28565b6001600160a01b038085166000908152600460209081526040808320938716835292905220546112cd9082611f0d565b6001600160a01b038086166000908152600460209081526040808320938816835292905220556112fe848383611e3c565b505060016000555050565b306001600160a01b037f00000000000000000000000000000000000000000000000000000000000000001614156113525760405162461bcd60e51b815260040161017c90613df1565b6001600054146113745760405162461bcd60e51b815260040161017c90613bad565b60026000558230611388602083018361296c565b6001600160a01b0316146113ae5760405162461bcd60e51b815260040161017c906136d3565b60006113b985611c36565b90506113cc848460076002015484611f4f565b6113d4611e87565b6113f05760405162461bcd60e51b815260040161017c9061369c565b6020808601356000908152600d909152604090206001810154156114265760405162461bcd60e51b815260040161017c90613c88565b81815561143842610140880135611c8e565b60018201556040517f87b348a76dd4ef431d45553a1d8c5934db960e64201a5776ab64e3eb397f4cfa9061117f90339089908590613390565b306001600160a01b037f00000000000000000000000000000000000000000000000000000000000000001614156114ba5760405162461bcd60e51b815260040161017c90613df1565b6001600054146114dc5760405162461bcd60e51b815260040161017c90613bad565b60026000556114ea82611fb1565b156115135780341461150e5760405162461bcd60e51b815260040161017c90613a42565b611559565b34156115315760405162461bcd60e51b815260040161017c90613abb565b61153d82333084611fbe565b6115595760405162461bcd60e51b815260040161017c906139ca565b6001600160a01b03821660009081526005602052604090819020805483019055517fb52926ac8ed62d53d4b88d81b71c48639bd63aa53950fcf3e1d7676ca7c26140906115a990849084906134a8565b60405180910390a150506001600055565b6000306001600160a01b037f00000000000000000000000000000000000000000000000000000000000000001614156116055760405162461bcd60e51b815260040161017c90613df1565b6001600054146116275760405162461bcd60e51b815260040161017c90613bad565b61163082611ea4565b92915050565b6116408282611cba565b5050565b6000306001600160a01b037f000000000000000000000000000000000000000000000000000000000000000016141561168f5760405162461bcd60e51b815260040161017c90613df1565b6001600054146116b15760405162461bcd60e51b815260040161017c90613bad565b600660006116be84611d0b565b815260208101919091526040016000205460ff1692915050565b6000306001600160a01b037f00000000000000000000000000000000000000000000000000000000000000001614156117235760405162461bcd60e51b815260040161017c90613df1565b6001600054146117455760405162461bcd60e51b815260040161017c90613bad565b61163082611ebf565b611759838383612011565b505050565b306001600160a01b037f00000000000000000000000000000000000000000000000000000000000000001614156117a75760405162461bcd60e51b815260040161017c90613df1565b6001600054146117c95760405162461bcd60e51b815260040161017c90613bad565b600260005584306117dd602083018361296c565b6001600160a01b031614801561181557506001546001600160a01b031661180a604083016020840161296c565b6001600160a01b0316145b801561184357506002546001600160a01b0316611838606083016040840161296c565b6001600160a01b0316145b61185f5760405162461bcd60e51b815260040161017c9061389b565b600061186a87611e74565b905061187a878288888888612072565b611882611e87565b1561189f5760405162461bcd60e51b815260040161017c9061369c565b600854610120880135116118c55760405162461bcd60e51b815260040161017c9061373f565b6118cd61217c565b611901576118e042610100890135611c8e565b600a556118fd6118f66101008901356002612184565b4290611c8e565b600b555b60078181556101208801356008556101408801356009556040517fef03cf86f2e77e1a0ae5cb25b50519e55b94788b920ace71f92341df2dab97ed9161194a9133918b9161330a565b60405180910390a1505060016000555050505050565b6000306001600160a01b037f00000000000000000000000000000000000000000000000000000000000000001614156119ab5760405162461bcd60e51b815260040161017c90613df1565b6001600054146119cd5760405162461bcd60e51b815260040161017c90613bad565b506001600160a01b031660009081526003602052604090205490565b6000306001600160a01b037f0000000000000000000000000000000000000000000000000000000000000000161415611a345760405162461bcd60e51b815260040161017c90613df1565b600160005414611a565760405162461bcd60e51b815260040161017c90613bad565b506001600160a01b03166000908152600c602052604090205490565b6000306001600160a01b037f0000000000000000000000000000000000000000000000000000000000000000161415611abd5760405162461bcd60e51b815260040161017c90613df1565b600160005414611adf5760405162461bcd60e51b815260040161017c90613bad565b506001600160a01b03918216600090815260046020908152604080832093909416825291909152205490565b6000306001600160a01b037f0000000000000000000000000000000000000000000000000000000000000000161415611b565760405162461bcd60e51b815260040161017c90613df1565b600160005414611b785760405162461bcd60e51b815260040161017c90613bad565b506001546001600160a01b031690565b611b906126c9565b306001600160a01b037f0000000000000000000000000000000000000000000000000000000000000000161415611bd95760405162461bcd60e51b815260040161017c90613df1565b600160005414611bfb5760405162461bcd60e51b815260040161017c90613bad565b506040805160a0810182526007548152600854602082015260095491810191909152600a546060820152600b54608082015290565b60005481565b600081604051602001611c499190613efd565b604051602081830303815290604052805190602001209050919050565b6000816001600160a01b0316611c7c85856121be565b6001600160a01b031614949350505050565b600082820183811015611cb35760405162461bcd60e51b815260040161017c906137e4565b9392505050565b60005b60028110156117595781516000908260028110611cd657fe5b602002015190508015611d0257611d028484602001518460028110611cf757fe5b602002015183612011565b50600101611cbd565b600081604051602001611c499190613f2f565b6000600186604051602001611d34929190613525565b604051602081830303815290604052805190602001209050611d9a85858080601f01602080910402602001604051908101604052809392919081815260200183838082843760009201919091525050600154859392506001600160a01b03169050611c66565b611db65760405162461bcd60e51b815260040161017c90613c51565b611e0483838080601f01602080910402602001604051908101604052809392919081815260200183838082843760009201919091525050600254859392506001600160a01b03169050611c66565b611e205760405162461bcd60e51b815260040161017c9061395c565b505050505050565b6000611cb382611e37856121d6565b612255565b611e46838261226b565b611e5183838361228d565b6117595760405162461bcd60e51b815260040161017c90613776565b6001600055565b600081604051602001611c499190613eea565b60004260076003015411158015611e9f5750600b5442105b905090565b6001600160a01b031660009081526005602052604090205490565b6001600160a01b0381166000908152600560209081526040808320546003909252822054611eec846121d6565b010392915050565b600082820183811015611cb3576000195b949350505050565b6000611cb383836040518060400160405280601e81526020017f536166654d6174683a207375627472616374696f6e206f766572666c6f7700008152506122b6565b611f8f8484808060200260200160405190810160405280939291908181526020018383602002808284376000920191909152508692508591506122e29050565b611fab5760405162461bcd60e51b815260040161017c90613be4565b50505050565b6001600160a01b03161590565b600061200885858585604051602401611fd993929190613484565b60408051601f198184030181529190526020810180516001600160e01b03166323b872dd60e01b17905261237f565b95945050505050565b6001600160a01b038084166000908152600460209081526040808320938616835292905220546120419082611ef4565b6001600160a01b03938416600090815260046020908152604080832095909616825293909352929091209190915550565b60008086604051602001612087929190613525565b6040516020818303038152906040528051906020012090506120f185858080601f0160208091040260200160405190810160405280939291908181526020018383808284376000920191909152506120e99250505060408a0160208b0161296c565b839190611c66565b61210d5760405162461bcd60e51b815260040161017c90613d7b565b61215783838080601f0160208091040260200160405190810160405280939291908181526020018383808284376000920191909152506120e99250505060608a0160408b0161296c565b6121735760405162461bcd60e51b815260040161017c906137ad565b50505050505050565b600a54421090565b60008261219357506000611630565b828202828482816121a057fe5b0414611cb35760405162461bcd60e51b815260040161017c90613b41565b6000806121ca84612430565b9050611f058184612443565b6040516370a0823160e01b81526000906001600160a01b038316906370a08231906122059030906004016132f6565b60206040518083038186803b15801561221d57600080fd5b505afa158015612231573d6000803e3d6000fd5b505050506040513d601f19601f820116820180604052508101906116309190612e0f565b60008183106122645781611cb3565b5090919050565b6001600160a01b03909116600090815260036020526040902080549091019055565b600061229884611fb1565b6122ac576122a7848484612571565b611f05565b611f05838361257e565b600081848411156122da5760405162461bcd60e51b815260040161017c919061353d565b505050900390565b600081815b85518110156123745760008682815181106122fe57fe5b6020026020010151905080831161233f578281604051602001612322929190613288565b60405160208183030381529060405280519060200120925061236b565b8083604051602001612352929190613288565b6040516020818303038152906040528051906020012092505b506001016122e7565b509092149392505050565b600061238a836125f6565b6123a65760405162461bcd60e51b815260040161017c90613b82565b60006060846001600160a01b0316846040516123c291906132a6565b6000604051808303816000865af19150503d80600081146123ff576040519150601f19603f3d011682016040523d82523d6000602084013e612404565b606091505b5091509150612413828261262f565b805115806120085750808060200190518101906120089190612aaa565b600081604051602001611c4991906132c2565b600081516041146124665760405162461bcd60e51b815260040161017c90613665565b60208201516040830151606084015160001a7f7fffffffffffffffffffffffffffffff5d576e7357a4501ddfe92f46681b20a08211156124b85760405162461bcd60e51b815260040161017c906138d2565b8060ff16601b141580156124d057508060ff16601c14155b156124ed5760405162461bcd60e51b815260040161017c90613a79565b60006001878386866040516000815260200160405260405161251294939291906134cc565b6020604051602081039080840390855afa158015612534573d6000803e3d6000fd5b5050604051601f1901519150506001600160a01b0381166125675760405162461bcd60e51b815260040161017c90613550565b9695505050505050565b6000611f0584848461263c565b6000806060846001600160a01b03168460405161259a906132f3565b60006040518083038185875af1925050503d80600081146125d7576040519150601f19603f3d011682016040523d82523d6000602084013e6125dc565b606091505b50915091506125eb828261262f565b506001949350505050565b6000813f7fc5d2460186f7233c927e7db2dcc703c0e500b653ca82273b7bfad8045d85a470818114801590611f05575050151592915050565b8161164057805160208201fd5b6000611f058484846040516024016126559291906134a8565b60408051601f198184030181529190526020810180516001600160e01b031663a9059cbb60e01b17905261237f565b60405180604001604052806126976126f7565b81526020016126a46126f7565b905290565b604080516060810182526000808252602082018190529181019190915290565b6040805160a08101825260008082526020820181905291810182905260608101829052608081019190915290565b60405180604001604052806002906020820280368337509192915050565b8035610c86816140d6565b60008083601f840112612731578182fd5b5081356001600160401b03811115612747578182fd5b602083019150836020808302850101111561276157600080fd5b9250929050565b600082601f830112612778578081fd5b604051604081018181106001600160401b038211171561279457fe5b806040525080915082846040850111156127ad57600080fd5b60005b60028110156127d95781356127c4816140d6565b835260209283019291909101906001016127b0565b50505092915050565b600082601f8301126127f2578081fd5b604051604081018181106001600160401b038211171561280e57fe5b8060405250809150828460408501111561282757600080fd5b60005b60028110156127d957815161283e816140d6565b8352602092830192919091019060010161282a565b60008083601f840112612864578182fd5b5081356001600160401b0381111561287a578182fd5b60208301915083602082850101111561276157600080fd5b6000608082840312156128a3578081fd5b604051604081018181106001600160401b03821117156128bf57fe5b604052905080601f830184136128d457600080fd5b6128de6040613ff9565b808460408601878111156128f157600080fd5b60005b60028110156129135782358552602094850194909201916001016128f4565b508285526129218882612768565b6020860152505050505092915050565b60006101608284031215612943578081fd5b50919050565b60006101808284031215612943578081fd5b600060e08284031215612943578081fd5b60006020828403121561297d578081fd5b8135611cb3816140d6565b6000806040838503121561299a578081fd5b82356129a5816140d6565b915060208301356129b5816140d6565b809150509250929050565b6000806000606084860312156129d4578081fd5b83356129df816140d6565b925060208401356129ef816140d6565b929592945050506040919091013590565b600080600060608486031215612a14578081fd5b8335612a1f816140d6565b92506020840135612a2f816140d6565b91506040840135612a3f816140d6565b809150509250925092565b60008060a08385031215612a5c578182fd5b8235612a67816140d6565b9150612a768460208501612892565b90509250929050565b60008060408385031215612a91578182fd5b8235612a9c816140d6565b946020939093013593505050565b600060208284031215612abb578081fd5b81518015158114611cb3578182fd5b600060208284031215612adb578081fd5b5035919050565b600060808284031215612af3578081fd5b611cb38383612892565b600060808284031215612b0e578081fd5b604051604081018181106001600160401b0382111715612b2a57fe5b604052601f83018413612b3b578182fd5b612b456040613ff9565b80846040860187811115612b57578586fd5b855b6002811015612b78578251855260209485019490920191600101612b59565b50828552612b8688826127e2565b602086015250929695505050505050565b600080600080600060608688031215612bae578283fd5b85356001600160401b0380821115612bc4578485fd5b612bd089838a01612931565b96506020880135915080821115612be5578485fd5b612bf189838a01612720565b90965094506040880135915080821115612c09578283fd5b50612c1688828901612720565b969995985093965092949392505050565b600080600080600060608688031215612c3e578283fd5b85356001600160401b0380821115612c54578485fd5b612c6089838a01612931565b96506020880135915080821115612c75578485fd5b612c8189838a01612853565b90965094506040880135915080821115612c99578283fd5b50612c1688828901612853565b60008060006101a08486031215612cbb578081fd5b612cc58585612949565b92506101808401356001600160401b03811115612ce0578182fd5b612cec86828701612720565b9497909650939450505050565b60008060008060008060006101e0888a031215612d14578485fd5b612d1e8989612949565b96506101808801356001600160401b0380821115612d3a578687fd5b612d468b838c01612853565b90985096506101a08a0135915080821115612d5f578384fd5b612d6b8b838c01612853565b90965094506101c08a0135915080821115612d84578384fd5b50612d918a828b01612853565b989b979a50959850939692959293505050565b600060208284031215612db5578081fd5b81356001600160401b03811115612dca578182fd5b611f058482850161295b565b600080600080600060608688031215612ded578283fd5b85356001600160401b0380821115612e03578485fd5b612c6089838a0161295b565b600060208284031215612e20578081fd5b5051919050565b6001600160a01b0316815260200190565b6001600160a01b03169052565b60008284526020808501945082825b85811015612e82578135612e67816140d6565b6001600160a01b031687529582019590820190600101612e54565b509495945050505050565b600082845260208401935081815b84811015612ec057612ead8683612f54565b6080958601959190910190600101612e9b565b5093949350505050565b81835260006001600160fb1b03831115612ee2578081fd5b6020830280836020870137939093016020019283525090919050565b60008284528282602086013780602084860101526020601f19601f85011685010190509392505050565b60008151808452612f408160208601602086016140aa565b601f01601f19169290920160200192915050565b604081833760006040838101828152908301915b6002811015612f99578235612f7c816140d6565b6001600160a01b0316825260209283019290910190600101612f68565b5050505050565b8054825260018101546020830152600281015460408301526003810154606083015260040154608090910152565b6000610160612fe584612fe085612715565b612e38565b612ff160208401612715565b612ffe6020860182612e38565b5061300b60408401612715565b6130186040860182612e38565b50613026606084018461401c565b8260608701526130398387018284612e45565b9250505061304a6080840184614063565b858303608087015261305d838284612e8d565b9250505061306e60a084018461401c565b85830360a0870152613081838284612eca565b9250505061309260c084018461401c565b85830360c08701526130a5838284612eca565b925050506130b660e084018461401c565b85830360e08701526130c9838284612eca565b6101008681013590880152610120808701359088015261014095860135959096019490945250929392505050565b8035613102816140d6565b6001600160a01b03908116835260208281013590840152604082013590613128826140d6565b16604083015261313a60608201612715565b6131476060840182612e38565b5061315460808201612715565b6131616080840182612e38565b5061316e60a08201612715565b61317b60a0840182612e38565b5061318c60c0830160c08301612f54565b610140818101359083015261016090810135910152565b80548252600181015460208301526002015460ff161515604090910152565b600081356131cf816140d6565b6001600160a01b0390811684526020830135906131eb826140d6565b9081166020850152604083013590613202826140d6565b8082166040860152606084013560608601526080840135608086015260a0840135915061322e826140d6565b1660a084015260c082013536839003601e1901811261324b578182fd5b820180356001600160401b03811115613262578283fd5b803603841315613270578283fd5b60e060c086015261200860e086018260208501612efe565b918252602082015260400190565b6000828483379101908152919050565b600082516132b88184602087016140aa565b9190910192915050565b7f16566563746f72205369676e6564204d6573736167653a0a33320000000000008152601a810191909152603a0190565b90565b6001600160a01b0391909116815260200190565b6001600160a01b038416815260e06020820181905260009061332e90830185612fce565b9050611f056040830184612fa0565b6001600160a01b03861681526101006020820181905260009061336283820188612fce565b90506133716040840187612fa0565b82810360e0840152613384818587612e45565b98975050505050505050565b6001600160a01b038416815261020081016133ae60208301856130f7565b611f056101a08301846131a3565b6001600160a01b038916815260006102c060206133db8185018c6130f7565b6133e96101a085018b6131a3565b816102008501526133fd828501898b612efe565b9150838203610220850152613413828789612efe565b85519093509150600061024085015b6002821015613441578351815292820192600191909101908201613422565b5050808501519150610280840160005b600281101561347357613465828551612e27565b938301939150600101613451565b505050509998505050505050505050565b6001600160a01b039384168152919092166020820152604081019190915260600190565b6001600160a01b03929092168252602082015260400190565b901515815260200190565b93845260ff9290921660208401526040830152606082015260800190565b6000606082526134fd6060830188612f28565b8281036020840152613510818789612efe565b90508281036040840152613384818587612efe565b604081016002841061353357fe5b9281526020015290565b600060208252611cb36020830184612f28565b60208082526018908201527f45434453413a20696e76616c6964207369676e61747572650000000000000000604082015260600190565b60208082526024908201527f434d4341646a7564696361746f723a20494e56414c49445f4348414e4e454c5f60408201526309082a6960e31b606082015260800190565b6020808252601e908201527f434d4341646a7564696361746f723a20494e4445585f4d49534d415443480000604082015260600190565b6020808252601d908201527f434d4357697468647261773a204348414e4e454c5f4d49534d41544348000000604082015260600190565b6020808252601290820152710434d4357697468647261773a204e4f5f4f560741b604082015260600190565b6020808252601f908201527f45434453413a20696e76616c6964207369676e6174757265206c656e67746800604082015260600190565b6020808252601d908201527f434d4341646a7564696361746f723a20494e56414c49445f5048415345000000604082015260600190565b6020808252818101527f434d4341646a7564696361746f723a20494e56414c49445f5452414e53464552604082015260600190565b6020808252601f908201527f434d43436f72653a204944454e544943414c5f5041525449434950414e545300604082015260600190565b6020808252601d908201527f434d4341646a7564696361746f723a20494e56414c49445f4e4f4e4345000000604082015260600190565b60208082526019908201527f434d4341737365743a205452414e534645525f4641494c454400000000000000604082015260600190565b6020808252601f908201527f434d4341646a7564696361746f723a20494e56414c49445f424f425f53494700604082015260600190565b6020808252601b908201527f536166654d6174683a206164646974696f6e206f766572666c6f770000000000604082015260600190565b60208082526029908201527f434d4341646a7564696361746f723a205452414e534645525f414c524541445960408201526817d11151955391115160ba1b606082015260800190565b6020808252601f908201527f434d4341646a7564696361746f723a204e4f5f4153534554535f474956454e00604082015260600190565b6020808252601f908201527f434d4341646a7564696361746f723a20494e56414c49445f4348414e4e454c00604082015260600190565b60208082526022908201527f45434453413a20696e76616c6964207369676e6174757265202773272076616c604082015261756560f01b606082015260800190565b60208082526028908201527f434d4341646a7564696361746f723a204348414e4e454c5f414c52454144595f604082015267111151955391115160c21b606082015260800190565b6020808252601c908201527f434d4357697468647261773a20494e56414c49445f424f425f53494700000000604082015260600190565b6020808252601c908201527f434d43436f72653a20494e56414c49445f5041525449434950414e5400000000604082015260600190565b60208082526021908201527f434d434465706f7369743a2045524332305f5452414e534645525f4641494c456040820152601160fa1b606082015260800190565b6020808252601d908201527f434d4357697468647261773a20414c52454144595f4558454355544544000000604082015260600190565b6020808252601a908201527f434d434465706f7369743a2056414c55455f4d49534d41544348000000000000604082015260600190565b60208082526022908201527f45434453413a20696e76616c6964207369676e6174757265202776272076616c604082015261756560f01b606082015260800190565b60208082526021908201527f434d434465706f7369743a204554485f574954485f4552435f5452414e5346456040820152602960f91b606082015260800190565b60208082526025908201527f434d4341646a7564696361746f723a205452414e534645525f4e4f545f444953604082015264141555115160da1b606082015260800190565b60208082526021908201527f536166654d6174683a206d756c7469706c69636174696f6e206f766572666c6f6040820152607760f81b606082015260800190565b6020808252601190820152704c696245524332303a204e4f5f434f444560781b604082015260600190565b6020808252601f908201527f5265656e7472616e637947756172643a205245454e5452414e545f43414c4c00604082015260600190565b60208082526024908201527f434d4341646a7564696361746f723a20494e56414c49445f4d45524b4c455f506040820152632927a7a360e11b606082015260800190565b6020808252600f908201526e0434d4341737365743a204e4f5f4f5608c1b604082015260600190565b6020808252601e908201527f434d4357697468647261773a20494e56414c49445f414c4943455f5349470000604082015260600190565b60208082526029908201527f434d4341646a7564696361746f723a205452414e534645525f414c524541445960408201526817d11254d41555115160ba1b606082015260800190565b60208082526018908201527f434d4341737365743a204f574e45525f4d49534d415443480000000000000000604082015260600190565b6020808252601690820152750434d43436f72653a20414c52454144595f53455455560541b604082015260600190565b60208082526023908201527f434d4341646a7564696361746f723a2057524f4e475f41525241595f4c454e4760408201526254485360e81b606082015260800190565b60208082526021908201527f434d4341646a7564696361746f723a20494e56414c49445f414c4943455f53496040820152604760f81b606082015260800190565b6020808252818101527f434d4341646a7564696361746f723a20494e56414c49445f5245534f4c564552604082015260600190565b6020808252601a908201527f4d6173746572636f70793a204f4e4c595f5649415f50524f5859000000000000604082015260600190565b6020808252818101527f434d4341646a7564696361746f723a20494e56414c49445f42414c414e434553604082015260600190565b60208082526025908201527f434d4341646a7564696361746f723a20494e56414c49445f5452414e534645526040820152640be9082a6960db1b606082015260800190565b608081016116308284612f54565b600060a082019050825182526020830151602083015260408301516040830152606083015160608301526080830151608083015292915050565b600060208252611cb36020830184612fce565b610180810161163082846130f7565b815181526020808301519082015260409182015115159181019190915260600190565b600060208252611cb360208301846131c2565b600060408252613f5560408301856131c2565b90508260208301529392505050565b90815260200190565b6000808335601e19843603018112613f83578283fd5b8301803591506001600160401b03821115613f9c578283fd5b602090810192508102360382131561276157600080fd5b6000808335601e19843603018112613fc9578283fd5b8301803591506001600160401b03821115613fe2578283fd5b602001915060808102360382131561276157600080fd5b6040518181016001600160401b038111828210171561401457fe5b604052919050565b6000808335601e19843603018112614032578283fd5b83016020810192503590506001600160401b0381111561405157600080fd5b60208102360383131561276157600080fd5b6000808335601e19843603018112614079578283fd5b83016020810192503590506001600160401b0381111561409857600080fd5b60808102360383131561276157600080fd5b60005b838110156140c55781810151838201526020016140ad565b83811115611fab5750506000910152565b6001600160a01b03811681146140eb57600080fd5b5056fea264697066735822122067dc3b80ff3723d9a39bee1db002c22c4bf7ad57959d5329600c159501966dc764736f6c63430007030033",
  "linkReferences": {},
  "deployedLinkReferences": {}
}