{
  "_format": "hh-sol-artifact-1",
  "contractName": "TestChannel.ovm",
  "sourceName": "src.sol/testing/TestChannel.sol",
  "abi": [
    {
      "anonymous": false,
      "inputs": [
        {
          "indexed": false,
          "internalType": "address",
          "name": "assetId",
          "type": "address"
        },
        {
          "indexed": false,
          "internalType": "uint256",
          "name": "amount",
          "type": "uint256"
        }
      ],
      "name": "AliceDeposited",
      "type": "event"
    },
    {
      "anonymous": false,
      "inputs": [
        {
          "indexed": false,
          "internalType": "address",
          "name": "defunder",
          "type": "address"
        },
        {
          "components": [
            {
              "internalType": "address",
              "name": "channelAddress",
              "type": "address"
            },
            {
              "internalType": "address",
              "name": "alice",
              "type": "address"
            },
            {
              "internalType": "address",
              "name": "bob",
              "type": "address"
            },
            {
              "internalType": "address[]",
              "name": "assetIds",
              "type": "address[]"
            },
            {
              "components": [
                {
                  "internalType": "uint256[2]",
                  "name": "amount",
                  "type": "uint256[2]"
                },
                {
                  "internalType": "address payable[2]",
                  "name": "to",
                  "type": "address[2]"
                }
              ],
              "internalType": "struct Balance[]",
              "name": "balances",
              "type": "tuple[]"
            },
            {
              "internalType": "uint256[]",
              "name": "processedDepositsA",
              "type": "uint256[]"
            },
            {
              "internalType": "uint256[]",
              "name": "processedDepositsB",
              "type": "uint256[]"
            },
            {
              "internalType": "uint256[]",
              "name": "defundNonces",
              "type": "uint256[]"
            },
            {
              "internalType": "uint256",
              "name": "timeout",
              "type": "uint256"
            },
            {
              "internalType": "uint256",
              "name": "nonce",
              "type": "uint256"
            },
            {
              "internalType": "bytes32",
              "name": "merkleRoot",
              "type": "bytes32"
            }
          ],
          "indexed": false,
          "internalType": "struct ICMCAdjudicator.CoreChannelState",
          "name": "state",
          "type": "tuple"
        },
        {
          "components": [
            {
              "internalType": "bytes32",
              "name": "channelStateHash",
              "type": "bytes32"
            },
            {
              "internalType": "uint256",
              "name": "nonce",
              "type": "uint256"
            },
            {
              "internalType": "bytes32",
              "name": "merkleRoot",
              "type": "bytes32"
            },
            {
              "internalType": "uint256",
              "name": "consensusExpiry",
              "type": "uint256"
            },
            {
              "internalType": "uint256",
              "name": "defundExpiry",
              "type": "uint256"
            }
          ],
          "indexed": false,
          "internalType": "struct ICMCAdjudicator.ChannelDispute",
          "name": "dispute",
          "type": "tuple"
        },
        {
          "indexed": false,
          "internalType": "address[]",
          "name": "assetIds",
          "type": "address[]"
        }
      ],
      "name": "ChannelDefunded",
      "type": "event"
    },
    {
      "anonymous": false,
      "inputs": [
        {
          "indexed": false,
          "internalType": "address",
          "name": "disputer",
          "type": "address"
        },
        {
          "components": [
            {
              "internalType": "address",
              "name": "channelAddress",
              "type": "address"
            },
            {
              "internalType": "address",
              "name": "alice",
              "type": "address"
            },
            {
              "internalType": "address",
              "name": "bob",
              "type": "address"
            },
            {
              "internalType": "address[]",
              "name": "assetIds",
              "type": "address[]"
            },
            {
              "components": [
                {
                  "internalType": "uint256[2]",
                  "name": "amount",
                  "type": "uint256[2]"
                },
                {
                  "internalType": "address payable[2]",
                  "name": "to",
                  "type": "address[2]"
                }
              ],
              "internalType": "struct Balance[]",
              "name": "balances",
              "type": "tuple[]"
            },
            {
              "internalType": "uint256[]",
              "name": "processedDepositsA",
              "type": "uint256[]"
            },
            {
              "internalType": "uint256[]",
              "name": "processedDepositsB",
              "type": "uint256[]"
            },
            {
              "internalType": "uint256[]",
              "name": "defundNonces",
              "type": "uint256[]"
            },
            {
              "internalType": "uint256",
              "name": "timeout",
              "type": "uint256"
            },
            {
              "internalType": "uint256",
              "name": "nonce",
              "type": "uint256"
            },
            {
              "internalType": "bytes32",
              "name": "merkleRoot",
              "type": "bytes32"
            }
          ],
          "indexed": false,
          "internalType": "struct ICMCAdjudicator.CoreChannelState",
          "name": "state",
          "type": "tuple"
        },
        {
          "components": [
            {
              "internalType": "bytes32",
              "name": "channelStateHash",
              "type": "bytes32"
            },
            {
              "internalType": "uint256",
              "name": "nonce",
              "type": "uint256"
            },
            {
              "internalType": "bytes32",
              "name": "merkleRoot",
              "type": "bytes32"
            },
            {
              "internalType": "uint256",
              "name": "consensusExpiry",
              "type": "uint256"
            },
            {
              "internalType": "uint256",
              "name": "defundExpiry",
              "type": "uint256"
            }
          ],
          "indexed": false,
          "internalType": "struct ICMCAdjudicator.ChannelDispute",
          "name": "dispute",
          "type": "tuple"
        }
      ],
      "name": "ChannelDisputed",
      "type": "event"
    },
    {
      "anonymous": false,
      "inputs": [
        {
          "indexed": false,
          "internalType": "address",
          "name": "defunder",
          "type": "address"
        },
        {
          "components": [
            {
              "internalType": "address",
              "name": "channelAddress",
              "type": "address"
            },
            {
              "internalType": "bytes32",
              "name": "transferId",
              "type": "bytes32"
            },
            {
              "internalType": "address",
              "name": "transferDefinition",
              "type": "address"
            },
            {
              "internalType": "address",
              "name": "initiator",
              "type": "address"
            },
            {
              "internalType": "address",
              "name": "responder",
              "type": "address"
            },
            {
              "internalType": "address",
              "name": "assetId",
              "type": "address"
            },
            {
              "components": [
                {
                  "internalType": "uint256[2]",
                  "name": "amount",
                  "type": "uint256[2]"
                },
                {
                  "internalType": "address payable[2]",
                  "name": "to",
                  "type": "address[2]"
                }
              ],
              "internalType": "struct Balance",
              "name": "balance",
              "type": "tuple"
            },
            {
              "internalType": "uint256",
              "name": "transferTimeout",
              "type": "uint256"
            },
            {
              "internalType": "bytes32",
              "name": "initialStateHash",
              "type": "bytes32"
            }
          ],
          "indexed": false,
          "internalType": "struct ICMCAdjudicator.CoreTransferState",
          "name": "state",
          "type": "tuple"
        },
        {
          "components": [
            {
              "internalType": "bytes32",
              "name": "transferStateHash",
              "type": "bytes32"
            },
            {
              "internalType": "uint256",
              "name": "transferDisputeExpiry",
              "type": "uint256"
            },
            {
              "internalType": "bool",
              "name": "isDefunded",
              "type": "bool"
            }
          ],
          "indexed": false,
          "internalType": "struct ICMCAdjudicator.TransferDispute",
          "name": "dispute",
          "type": "tuple"
        },
        {
          "indexed": false,
          "internalType": "bytes",
          "name": "encodedInitialState",
          "type": "bytes"
        },
        {
          "indexed": false,
          "internalType": "bytes",
          "name": "encodedResolver",
          "type": "bytes"
        },
        {
          "components": [
            {
              "internalType": "uint256[2]",
              "name": "amount",
              "type": "uint256[2]"
            },
            {
              "internalType": "address payable[2]",
              "name": "to",
              "type": "address[2]"
            }
          ],
          "indexed": false,
          "internalType": "struct Balance",
          "name": "balance",
          "type": "tuple"
        }
      ],
      "name": "TransferDefunded",
      "type": "event"
    },
    {
      "anonymous": false,
      "inputs": [
        {
          "indexed": false,
          "internalType": "address",
          "name": "disputer",
          "type": "address"
        },
        {
          "components": [
            {
              "internalType": "address",
              "name": "channelAddress",
              "type": "address"
            },
            {
              "internalType": "bytes32",
              "name": "transferId",
              "type": "bytes32"
            },
            {
              "internalType": "address",
              "name": "transferDefinition",
              "type": "address"
            },
            {
              "internalType": "address",
              "name": "initiator",
              "type": "address"
            },
            {
              "internalType": "address",
              "name": "responder",
              "type": "address"
            },
            {
              "internalType": "address",
              "name": "assetId",
              "type": "address"
            },
            {
              "components": [
                {
                  "internalType": "uint256[2]",
                  "name": "amount",
                  "type": "uint256[2]"
                },
                {
                  "internalType": "address payable[2]",
                  "name": "to",
                  "type": "address[2]"
                }
              ],
              "internalType": "struct Balance",
              "name": "balance",
              "type": "tuple"
            },
            {
              "internalType": "uint256",
              "name": "transferTimeout",
              "type": "uint256"
            },
            {
              "internalType": "bytes32",
              "name": "initialStateHash",
              "type": "bytes32"
            }
          ],
          "indexed": false,
          "internalType": "struct ICMCAdjudicator.CoreTransferState",
          "name": "state",
          "type": "tuple"
        },
        {
          "components": [
            {
              "internalType": "bytes32",
              "name": "transferStateHash",
              "type": "bytes32"
            },
            {
              "internalType": "uint256",
              "name": "transferDisputeExpiry",
              "type": "uint256"
            },
            {
              "internalType": "bool",
              "name": "isDefunded",
              "type": "bool"
            }
          ],
          "indexed": false,
          "internalType": "struct ICMCAdjudicator.TransferDispute",
          "name": "dispute",
          "type": "tuple"
        }
      ],
      "name": "TransferDisputed",
      "type": "event"
    },
    {
      "inputs": [
        {
          "components": [
            {
              "internalType": "address",
              "name": "channelAddress",
              "type": "address"
            },
            {
              "internalType": "address",
              "name": "alice",
              "type": "address"
            },
            {
              "internalType": "address",
              "name": "bob",
              "type": "address"
            },
            {
              "internalType": "address[]",
              "name": "assetIds",
              "type": "address[]"
            },
            {
              "components": [
                {
                  "internalType": "uint256[2]",
                  "name": "amount",
                  "type": "uint256[2]"
                },
                {
                  "internalType": "address payable[2]",
                  "name": "to",
                  "type": "address[2]"
                }
              ],
              "internalType": "struct Balance[]",
              "name": "balances",
              "type": "tuple[]"
            },
            {
              "internalType": "uint256[]",
              "name": "processedDepositsA",
              "type": "uint256[]"
            },
            {
              "internalType": "uint256[]",
              "name": "processedDepositsB",
              "type": "uint256[]"
            },
            {
              "internalType": "uint256[]",
              "name": "defundNonces",
              "type": "uint256[]"
            },
            {
              "internalType": "uint256",
              "name": "timeout",
              "type": "uint256"
            },
            {
              "internalType": "uint256",
              "name": "nonce",
              "type": "uint256"
            },
            {
              "internalType": "bytes32",
              "name": "merkleRoot",
              "type": "bytes32"
            }
          ],
          "internalType": "struct ICMCAdjudicator.CoreChannelState",
          "name": "ccs",
          "type": "tuple"
        },
        {
          "internalType": "address[]",
          "name": "assetIds",
          "type": "address[]"
        },
        {
          "internalType": "uint256[]",
          "name": "indices",
          "type": "uint256[]"
        }
      ],
      "name": "defundChannel",
      "outputs": [],
      "stateMutability": "nonpayable",
      "type": "function"
    },
    {
      "inputs": [
        {
          "components": [
            {
              "internalType": "address",
              "name": "channelAddress",
              "type": "address"
            },
            {
              "internalType": "bytes32",
              "name": "transferId",
              "type": "bytes32"
            },
            {
              "internalType": "address",
              "name": "transferDefinition",
              "type": "address"
            },
            {
              "internalType": "address",
              "name": "initiator",
              "type": "address"
            },
            {
              "internalType": "address",
              "name": "responder",
              "type": "address"
            },
            {
              "internalType": "address",
              "name": "assetId",
              "type": "address"
            },
            {
              "components": [
                {
                  "internalType": "uint256[2]",
                  "name": "amount",
                  "type": "uint256[2]"
                },
                {
                  "internalType": "address payable[2]",
                  "name": "to",
                  "type": "address[2]"
                }
              ],
              "internalType": "struct Balance",
              "name": "balance",
              "type": "tuple"
            },
            {
              "internalType": "uint256",
              "name": "transferTimeout",
              "type": "uint256"
            },
            {
              "internalType": "bytes32",
              "name": "initialStateHash",
              "type": "bytes32"
            }
          ],
          "internalType": "struct ICMCAdjudicator.CoreTransferState",
          "name": "cts",
          "type": "tuple"
        },
        {
          "internalType": "bytes",
          "name": "encodedInitialTransferState",
          "type": "bytes"
        },
        {
          "internalType": "bytes",
          "name": "encodedTransferResolver",
          "type": "bytes"
        },
        {
          "internalType": "bytes",
          "name": "responderSignature",
          "type": "bytes"
        }
      ],
      "name": "defundTransfer",
      "outputs": [],
      "stateMutability": "nonpayable",
      "type": "function"
    },
    {
      "inputs": [
        {
          "internalType": "address",
          "name": "assetId",
          "type": "address"
        },
        {
          "internalType": "uint256",
          "name": "amount",
          "type": "uint256"
        }
      ],
      "name": "depositAlice",
      "outputs": [],
      "stateMutability": "payable",
      "type": "function"
    },
    {
      "inputs": [
        {
          "components": [
            {
              "internalType": "address",
              "name": "channelAddress",
              "type": "address"
            },
            {
              "internalType": "address",
              "name": "alice",
              "type": "address"
            },
            {
              "internalType": "address",
              "name": "bob",
              "type": "address"
            },
            {
              "internalType": "address[]",
              "name": "assetIds",
              "type": "address[]"
            },
            {
              "components": [
                {
                  "internalType": "uint256[2]",
                  "name": "amount",
                  "type": "uint256[2]"
                },
                {
                  "internalType": "address payable[2]",
                  "name": "to",
                  "type": "address[2]"
                }
              ],
              "internalType": "struct Balance[]",
              "name": "balances",
              "type": "tuple[]"
            },
            {
              "internalType": "uint256[]",
              "name": "processedDepositsA",
              "type": "uint256[]"
            },
            {
              "internalType": "uint256[]",
              "name": "processedDepositsB",
              "type": "uint256[]"
            },
            {
              "internalType": "uint256[]",
              "name": "defundNonces",
              "type": "uint256[]"
            },
            {
              "internalType": "uint256",
              "name": "timeout",
              "type": "uint256"
            },
            {
              "internalType": "uint256",
              "name": "nonce",
              "type": "uint256"
            },
            {
              "internalType": "bytes32",
              "name": "merkleRoot",
              "type": "bytes32"
            }
          ],
          "internalType": "struct ICMCAdjudicator.CoreChannelState",
          "name": "ccs",
          "type": "tuple"
        },
        {
          "internalType": "bytes",
          "name": "aliceSignature",
          "type": "bytes"
        },
        {
          "internalType": "bytes",
          "name": "bobSignature",
          "type": "bytes"
        }
      ],
      "name": "disputeChannel",
      "outputs": [],
      "stateMutability": "nonpayable",
      "type": "function"
    },
    {
      "inputs": [
        {
          "components": [
            {
              "internalType": "address",
              "name": "channelAddress",
              "type": "address"
            },
            {
              "internalType": "bytes32",
              "name": "transferId",
              "type": "bytes32"
            },
            {
              "internalType": "address",
              "name": "transferDefinition",
              "type": "address"
            },
            {
              "internalType": "address",
              "name": "initiator",
              "type": "address"
            },
            {
              "internalType": "address",
              "name": "responder",
              "type": "address"
            },
            {
              "internalType": "address",
              "name": "assetId",
              "type": "address"
            },
            {
              "components": [
                {
                  "internalType": "uint256[2]",
                  "name": "amount",
                  "type": "uint256[2]"
                },
                {
                  "internalType": "address payable[2]",
                  "name": "to",
                  "type": "address[2]"
                }
              ],
              "internalType": "struct Balance",
              "name": "balance",
              "type": "tuple"
            },
            {
              "internalType": "uint256",
              "name": "transferTimeout",
              "type": "uint256"
            },
            {
              "internalType": "bytes32",
              "name": "initialStateHash",
              "type": "bytes32"
            }
          ],
          "internalType": "struct ICMCAdjudicator.CoreTransferState",
          "name": "cts",
          "type": "tuple"
        },
        {
          "internalType": "bytes32[]",
          "name": "merkleProofData",
          "type": "bytes32[]"
        }
      ],
      "name": "disputeTransfer",
      "outputs": [],
      "stateMutability": "nonpayable",
      "type": "function"
    },
    {
      "inputs": [
        {
          "internalType": "address",
          "name": "assetId",
          "type": "address"
        },
        {
          "internalType": "address",
          "name": "owner",
          "type": "address"
        },
        {
          "internalType": "address payable",
          "name": "recipient",
          "type": "address"
        }
      ],
      "name": "exit",
      "outputs": [],
      "stateMutability": "nonpayable",
      "type": "function"
    },
    {
      "inputs": [],
      "name": "getAlice",
      "outputs": [
        {
          "internalType": "address",
          "name": "",
          "type": "address"
        }
      ],
      "stateMutability": "view",
      "type": "function"
    },
    {
      "inputs": [],
      "name": "getBob",
      "outputs": [
        {
          "internalType": "address",
          "name": "",
          "type": "address"
        }
      ],
      "stateMutability": "view",
      "type": "function"
    },
    {
      "inputs": [],
      "name": "getChannelDispute",
      "outputs": [
        {
          "components": [
            {
              "internalType": "bytes32",
              "name": "channelStateHash",
              "type": "bytes32"
            },
            {
              "internalType": "uint256",
              "name": "nonce",
              "type": "uint256"
            },
            {
              "internalType": "bytes32",
              "name": "merkleRoot",
              "type": "bytes32"
            },
            {
              "internalType": "uint256",
              "name": "consensusExpiry",
              "type": "uint256"
            },
            {
              "internalType": "uint256",
              "name": "defundExpiry",
              "type": "uint256"
            }
          ],
          "internalType": "struct ICMCAdjudicator.ChannelDispute",
          "name": "",
          "type": "tuple"
        }
      ],
      "stateMutability": "view",
      "type": "function"
    },
    {
      "inputs": [
        {
          "internalType": "address",
          "name": "assetId",
          "type": "address"
        }
      ],
      "name": "getDefundNonce",
      "outputs": [
        {
          "internalType": "uint256",
          "name": "",
          "type": "uint256"
        }
      ],
      "stateMutability": "view",
      "type": "function"
    },
    {
      "inputs": [
        {
          "internalType": "address",
          "name": "assetId",
          "type": "address"
        },
        {
          "internalType": "address",
          "name": "owner",
          "type": "address"
        }
      ],
      "name": "getExitableAmount",
      "outputs": [
        {
          "internalType": "uint256",
          "name": "",
          "type": "uint256"
        }
      ],
      "stateMutability": "view",
      "type": "function"
    },
    {
      "inputs": [
        {
          "internalType": "address",
          "name": "assetId",
          "type": "address"
        }
      ],
      "name": "getTotalDepositsAlice",
      "outputs": [
        {
          "internalType": "uint256",
          "name": "",
          "type": "uint256"
        }
      ],
      "stateMutability": "view",
      "type": "function"
    },
    {
      "inputs": [
        {
          "internalType": "address",
          "name": "assetId",
          "type": "address"
        }
      ],
      "name": "getTotalDepositsBob",
      "outputs": [
        {
          "internalType": "uint256",
          "name": "",
          "type": "uint256"
        }
      ],
      "stateMutability": "view",
      "type": "function"
    },
    {
      "inputs": [
        {
          "internalType": "address",
          "name": "assetId",
          "type": "address"
        }
      ],
      "name": "getTotalTransferred",
      "outputs": [
        {
          "internalType": "uint256",
          "name": "",
          "type": "uint256"
        }
      ],
      "stateMutability": "view",
      "type": "function"
    },
    {
      "inputs": [
        {
          "internalType": "bytes32",
          "name": "transferId",
          "type": "bytes32"
        }
      ],
      "name": "getTransferDispute",
      "outputs": [
        {
          "components": [
            {
              "internalType": "bytes32",
              "name": "transferStateHash",
              "type": "bytes32"
            },
            {
              "internalType": "uint256",
              "name": "transferDisputeExpiry",
              "type": "uint256"
            },
            {
              "internalType": "bool",
              "name": "isDefunded",
              "type": "bool"
            }
          ],
          "internalType": "struct ICMCAdjudicator.TransferDispute",
          "name": "",
          "type": "tuple"
        }
      ],
      "stateMutability": "view",
      "type": "function"
    },
    {
      "inputs": [
        {
          "components": [
            {
              "internalType": "address",
              "name": "channelAddress",
              "type": "address"
            },
            {
              "internalType": "address",
              "name": "assetId",
              "type": "address"
            },
            {
              "internalType": "address payable",
              "name": "recipient",
              "type": "address"
            },
            {
              "internalType": "uint256",
              "name": "amount",
              "type": "uint256"
            },
            {
              "internalType": "uint256",
              "name": "nonce",
              "type": "uint256"
            },
            {
              "internalType": "address",
              "name": "callTo",
              "type": "address"
            },
            {
              "internalType": "bytes",
              "name": "callData",
              "type": "bytes"
            }
          ],
          "internalType": "struct WithdrawData",
          "name": "wd",
          "type": "tuple"
        }
      ],
      "name": "getWithdrawalTransactionRecord",
      "outputs": [
        {
          "internalType": "bool",
          "name": "",
          "type": "bool"
        }
      ],
      "stateMutability": "view",
      "type": "function"
    },
    {
      "inputs": [],
      "name": "lock",
      "outputs": [
        {
          "internalType": "uint256",
          "name": "",
          "type": "uint256"
        }
      ],
      "stateMutability": "view",
      "type": "function"
    },
    {
      "inputs": [
        {
          "internalType": "address",
          "name": "_alice",
          "type": "address"
        },
        {
          "internalType": "address",
          "name": "_bob",
          "type": "address"
        }
      ],
      "name": "setup",
      "outputs": [],
      "stateMutability": "nonpayable",
      "type": "function"
    },
    {
      "inputs": [
        {
          "internalType": "address",
          "name": "assetId",
          "type": "address"
        },
        {
          "components": [
            {
              "internalType": "uint256[2]",
              "name": "amount",
              "type": "uint256[2]"
            },
            {
              "internalType": "address payable[2]",
              "name": "to",
              "type": "address[2]"
            }
          ],
          "internalType": "struct Balance",
          "name": "balance",
          "type": "tuple"
        }
      ],
      "name": "testMakeBalanceExitable",
      "outputs": [],
      "stateMutability": "nonpayable",
      "type": "function"
    },
    {
      "inputs": [
        {
          "internalType": "address",
          "name": "assetId",
          "type": "address"
        },
        {
          "internalType": "address payable",
          "name": "recipient",
          "type": "address"
        },
        {
          "internalType": "uint256",
          "name": "maxAmount",
          "type": "uint256"
        }
      ],
      "name": "testMakeExitable",
      "outputs": [],
      "stateMutability": "nonpayable",
      "type": "function"
    },
    {
      "inputs": [
        {
          "components": [
            {
              "internalType": "address",
              "name": "channelAddress",
              "type": "address"
            },
            {
              "internalType": "address",
              "name": "assetId",
              "type": "address"
            },
            {
              "internalType": "address payable",
              "name": "recipient",
              "type": "address"
            },
            {
              "internalType": "uint256",
              "name": "amount",
              "type": "uint256"
            },
            {
              "internalType": "uint256",
              "name": "nonce",
              "type": "uint256"
            },
            {
              "internalType": "address",
              "name": "callTo",
              "type": "address"
            },
            {
              "internalType": "bytes",
              "name": "callData",
              "type": "bytes"
            }
          ],
          "internalType": "struct WithdrawData",
          "name": "wd",
          "type": "tuple"
        },
        {
          "internalType": "bytes",
          "name": "aliceSignature",
          "type": "bytes"
        },
        {
          "internalType": "bytes",
          "name": "bobSignature",
          "type": "bytes"
        }
      ],
      "name": "withdraw",
      "outputs": [],
      "stateMutability": "nonpayable",
      "type": "function"
    },
    {
      "stateMutability": "payable",
      "type": "receive"
    }
  ],
  "bytecode": "0x60a06040523480156200001c57600080620000196200008e565b50505b505a63996d79a5598160e01b8152602081600483336000905af158600e01573d6000803e3d6000fd5b3d6001141558600a015760016000f35b8051925060005b604081101562000075576000828201526020016200005c565b50505060601b6001600160601b031916608052620000fb565b632a2a7adb598160e01b8152600481016020815285602082015260005b86811015620000c8578086015182820160400152602001620000ab565b506020828760640184336000905af158600e01573d6000803e3d6000fd5b3d6001141558600a015760016000f35b505050565b60805160601c615c6f620001736000398061013552806105c45280610b6d5280610c855280611047528061126752806113be5280611a795280611d015280611fe35280612277528061238d52806124bd52806125cd52806129735280612a8c5280612ba55280612cde5280612de95250615c6f6000f3fe60806040526004361061012e5760003560e01c80637b037295116100ab578063cefa51221161006f578063cefa5122146104e0578063e7283a8d14610509578063e985256914610532578063eeb30fea1461055b578063f19eb10e14610579578063f83d08ba146105a45761024d565b80637b037295146104065780638c048fc21461042f578063b081e9c814610465578063c55e1dac1461048e578063c60939be146104b75761024d565b80634d3fcbda116100f25780634d3fcbda146103425780635bc9d96d1461036b5780635fd334d914610394578063635ae901146103bd5780636f33389e146103d05761024d565b8063072f25fd1461025b578063241686a0146102865780632c889aa1146102ba5780632d34ba79146102e35780633ff0da161461030c5761024d565b3661024d577f00000000000000000000000000000000000000000000000000000000000000006001600160a01b03165a63996d79a5598160e01b8152602081600483336000905af158600e01573d6000803e3d6000fd5b3d6001141558600a015760016000f35b8051925060005b60408110156101b35760008282015260200161019c565b5050506001600160a01b031614156101ef5760405162461bcd60e51b81526004016101dd9061582f565b604051809103906101ec613d10565b50505b600160006101fb613d7b565b1461022a5760405162461bcd60e51b8152600401610218906155eb565b60405180910390610227613d10565b50505b6002806000610237613dd6565b505050600160008190610248613dd6565b505050005b600080610258613d10565b50505b3480156102705760008061026d613d10565b50505b5061028461027f36600461488b565b6105c2565b005b34801561029b57600080610298613d10565b50505b506102a4610b69565b6040516102b19190614eb2565b60405180910390f35b3480156102cf576000806102cc613d10565b50505b506102846102de36600461499e565b610c83565b3480156102f8576000806102f5613d10565b50505b50610284610307366004614452565b611045565b3480156103215760008061031e613d10565b50505b506103356103303660046145d0565b61125d565b6040516102b19190615946565b34801561035757600080610354613d10565b50505b506102846103663660046146cf565b6113bc565b3480156103805760008061037d613d10565b50505b5061028461038f3660046144dc565b611a77565b3480156103a9576000806103a6613d10565b50505b506102846103b8366004614826565b611cff565b6102846103cb36600461456d565b611fe1565b3480156103e5576000806103e2613d10565b50505b506103f96103f436600461442d565b612273565b6040516102b1919061599f565b34801561041b57600080610418613d10565b50505b5061028461042a36600461452f565b61237b565b34801561044457600080610441613d10565b50505b5061045861045336600461495a565b612389565b6040516102b1919061507e565b34801561047a57600080610477613d10565b50505b506103f961048936600461442d565b6124b9565b3480156104a3576000806104a0613d10565b50505b506102846104b2366004614493565b6125bb565b3480156104cc576000806104c9613d10565b50505b506102846104db366004614783565b6125cb565b3480156104f5576000806104f2613d10565b50505b506103f961050436600461442d565b61296f565b34801561051e5760008061051b613d10565b50505b506103f961052d36600461442d565b612a88565b34801561054757600080610544613d10565b50505b506103f9610556366004614452565b612ba1565b3480156105705760008061056d613d10565b50505b506102a4612cda565b34801561058e5760008061058b613d10565b50505b50610597612ddf565b6040516102b191906158ee565b3480156105b9576000806105b6613d10565b50505b506103f9612f41565b7f00000000000000000000000000000000000000000000000000000000000000006001600160a01b03165a63996d79a5598160e01b8152602081600483336000905af158600e01573d6000803e3d6000fd5b3d6001141558600a015760016000f35b8051925060005b60408110156106425760008282015260200161062b565b5050506001600160a01b0316141561067e5760405162461bcd60e51b815260040161066c9061582f565b6040518091039061067b613d10565b50505b6001600061068a613d7b565b146106b95760405162461bcd60e51b81526004016106a7906155eb565b604051809103906106b6613d10565b50505b60028060006106c6613dd6565b505050865a63996d79a5598160e01b8152602081600483336000905af158600e01573d6000803e3d6000fd5b3d6001141558600a015760016000f35b8051925060005b604081101561072057600082820152602001610709565b5050506001600160a01b0316610739602083018361442d565b6001600160a01b0316146107715760405162461bcd60e51b815260040161075f9061520d565b6040518091039061076e613d10565b50505b6020808901356000908152600d90915260408120905080600101610793613d7b565b6107c15760405162461bcd60e51b81526004016107af9061557b565b604051809103906107be613d10565b50505b806107ca613d7b565b6107d38a612f4e565b146108025760405162461bcd60e51b81526004016107f09061589b565b604051809103906107ff613d10565b50505b600060028201610810613d7b565b906101000a900460ff16156108495760405162461bcd60e51b81526004016108379061531e565b60405180910390610846613d10565b50505b6001600282018181610859613d7b565b8160ff0219169083151502179061086e613dd6565b505050610879613e24565b81600101610885613d7b565b5a61088e613e49565b1015610ad15789610160013589896040516108aa929190614e52565b6040518091039020146108e15760405162461bcd60e51b81526004016108cf9061589b565b604051809103906108de613d10565b50505b6108f160a08b0160808c0161442d565b6001600160a01b03165a610903613e8f565b6001600160a01b03161480610969575061096985858080601f016020809104026020016040519081016040528181529291906020840183838082843760009201919091525061095c9250505060a08d0160808e0161442d565b6101608d01359190612f7d565b6109975760405162461bcd60e51b8152600401610985906157fa565b60405180910390610994613d10565b50505b60006109a960608c0160408d0161442d565b9050806001600160a01b0316638ef98a7e8c60c0016040516020016109ce91906158e0565b6040516020818303038152906040528c8c8c8c6040518663ffffffff1660e01b8152600401610a01959493929190615089565b6080604051808303818680610a14613ed5565b158015610a2957600080610a26613d10565b50505b505a610a33613f21565b5050505050158015610a52573d6000803e3d6000610a4f613d10565b50505b50505050604051601f3d908101601f19168201604052610a759190810190614615565b9150610a8960c08c013560e08d0135612fa5565b610a9b83516020015184515190612fa5565b1115610acb5760405162461bcd60e51b8152600401610ab990615866565b60405180910390610ac8613d10565b50505b50610ae6565b610ae3368b90038b0160c08c016145f1565b90505b610aff610af960c08c0160a08d0161442d565b8261300d565b7f93f6b8187e81bd7d01ce234c043cd6ae4feda2e2ae91daae0962c68a656da8c75a610b29613e8f565b8b848c8c8c8c88604051610b44989796959493929190614f78565b60405180910390a1505050600160008190610b5d613dd6565b50505050505050505050565b60007f00000000000000000000000000000000000000000000000000000000000000006001600160a01b03165a63996d79a5598160e01b8152602081600483336000905af158600e01573d6000803e3d6000fd5b3d6001141558600a015760016000f35b8051925060005b6040811015610beb57600082820152602001610bd4565b5050506001600160a01b03161415610c275760405162461bcd60e51b8152600401610c159061582f565b60405180910390610c24613d10565b50505b60016000610c33613d7b565b14610c625760405162461bcd60e51b8152600401610c50906155eb565b60405180910390610c5f613d10565b50505b60006002610c6e613d7b565b906101000a90046001600160a01b0316905090565b7f00000000000000000000000000000000000000000000000000000000000000006001600160a01b03165a63996d79a5598160e01b8152602081600483336000905af158600e01573d6000803e3d6000fd5b3d6001141558600a015760016000f35b8051925060005b6040811015610d0357600082820152602001610cec565b5050506001600160a01b03161415610d3f5760405162461bcd60e51b8152600401610d2d9061582f565b60405180910390610d3c613d10565b50505b60016000610d4b613d7b565b14610d7a5760405162461bcd60e51b8152600401610d68906155eb565b60405180910390610d77613d10565b50505b6002806000610d87613dd6565b505050845a63996d79a5598160e01b8152602081600483336000905af158600e01573d6000803e3d6000fd5b3d6001141558600a015760016000f35b8051925060005b6040811015610de157600082820152602001610dca565b5050506001600160a01b0316610dfa602083018361442d565b6001600160a01b031614610e325760405162461bcd60e51b8152600401610e2090615173565b60405180910390610e2f613d10565b50505b6000610e3d8761305d565b9050610e4c8187878787613070565b6000818152600660205260409020600090610e65613d7b565b906101000a900460ff1615610e9e5760405162461bcd60e51b8152600401610e8c906154cc565b60405180910390610e9b613d10565b50505b6000818152600660205260019060409020600181610eba613d7b565b8160ff02191690831515021790610ecf613dd6565b5060009150610ef39050610ee960408a0160208b0161442d565b896060013561319f565b90506000811180610f1d57506000610f1160c08a0160a08b0161442d565b6001600160a01b031614155b610f4b5760405162461bcd60e51b8152600401610f39906151aa565b60405180910390610f48613d10565b50505b610f74610f5e60408a0160208b0161442d565b610f6e60608b0160408c0161442d565b836131b3565b6000610f8660c08a0160a08b0161442d565b6001600160a01b03161461102a57610fa460c0890160a08a0161442d565b6001600160a01b031663f50cd32c89836040518363ffffffff1660e01b8152600401610fd192919061597d565b60006040518083038160008780610fe6613ed5565b158015610ffb57600080610ff8613d10565b50505b505a61100561400c565b505050505050158015611025573d6000803e3d6000611022613d10565b50505b505050505b50505060016000819061103b613dd6565b5050505050505050565b7f00000000000000000000000000000000000000000000000000000000000000006001600160a01b03165a63996d79a5598160e01b8152602081600483336000905af158600e01573d6000803e3d6000fd5b3d6001141558600a015760016000f35b8051925060005b60408110156110c5576000828201526020016110ae565b5050506001600160a01b031614156111015760405162461bcd60e51b81526004016110ef9061582f565b604051809103906110fe613d10565b50505b600080600161110e613d7b565b906101000a90046001600160a01b03166001600160a01b0316146111565760405162461bcd60e51b815260040161114490615746565b60405180910390611153613d10565b50505b6001600160a01b0382161580159061117657506001600160a01b03811615155b6111a45760405162461bcd60e51b815260040161119290615454565b604051809103906111a1613d10565b50505b806001600160a01b0316826001600160a01b031614156111e85760405162461bcd60e51b81526004016111d690615242565b604051809103906111e5613d10565b50505b6111f06131f3565b81600180806111fd613d7b565b816001600160a01b0302191690836001600160a01b031602179061121f613dd6565b50505080600260006101000a81611234613d7b565b816001600160a01b0302191690836001600160a01b0316021790611256613dd6565b5050505050565b6112656140d2565b7f00000000000000000000000000000000000000000000000000000000000000006001600160a01b03165a63996d79a5598160e01b8152602081600483336000905af158600e01573d6000803e3d6000fd5b3d6001141558600a015760016000f35b8051925060005b60408110156112e5576000828201526020016112ce565b5050506001600160a01b031614156113215760405162461bcd60e51b815260040161130f9061582f565b6040518091039061131e613d10565b50505b6001600061132d613d7b565b1461135c5760405162461bcd60e51b815260040161134a906155eb565b60405180910390611359613d10565b50505b6000828152600d602052604090206040516060810160405290818161137f613d7b565b815260200160018201611390613d7b565b81526020016000600283016113a3613d7b565b60ff6101009290920a900416151590525090505b919050565b7f00000000000000000000000000000000000000000000000000000000000000006001600160a01b03165a63996d79a5598160e01b8152602081600483336000905af158600e01573d6000803e3d6000fd5b3d6001141558600a015760016000f35b8051925060005b604081101561143c57600082820152602001611425565b5050506001600160a01b031614156114785760405162461bcd60e51b81526004016114669061582f565b60405180910390611475613d10565b50505b60016000611484613d7b565b146114b35760405162461bcd60e51b81526004016114a1906155eb565b604051809103906114b0613d10565b50505b60028060006114c0613dd6565b505050845a63996d79a5598160e01b8152602081600483336000905af158600e01573d6000803e3d6000fd5b3d6001141558600a015760016000f35b8051925060005b604081101561151a57600082820152602001611503565b5050506001600160a01b0316611533602083018361442d565b6001600160a01b031614801561157d575060006001611550613d7b565b6001600160a01b036101009290920a900416611572604083016020840161442d565b6001600160a01b0316145b80156115bd575060006002611590613d7b565b6001600160a01b036101009290920a9004166115b2606083016040840161442d565b6001600160a01b0316145b6115eb5760405162461bcd60e51b81526004016115d99061539e565b604051809103906115e8613d10565b50505b8361161a5760405162461bcd60e51b815260040161160890615367565b60405180910390611617613d10565b50505b8382111561164c5760405162461bcd60e51b815260040161163a90615776565b60405180910390611649613d10565b50505b6007611656613d7b565b61165f87613200565b1461168e5760405162461bcd60e51b815260040161167c906150f8565b6040518091039061168b613d10565b50505b611696613213565b6116c45760405162461bcd60e51b81526004016116b2906151d6565b604051809103906116c1613d10565b50505b60005b84811015611a205760008686838181106116dd57fe5b90506020020160208101906116f2919061442d565b90506000848310156117895785858481811061170a57fe5b90506020020135905088806060019061172391906159a8565b8281811061172d57fe5b9050602002016020810190611742919061442d565b6001600160a01b0316826001600160a01b0316146117845760405162461bcd60e51b81526004016117729061513c565b60405180910390611781613d10565b50505b6117f5565b5060005b61179a60608a018a6159a8565b90508110156117f5576117b060608a018a6159a8565b828181106117ba57fe5b90506020020160208101906117cf919061442d565b6001600160a01b0316826001600160a01b031614156117ed576117f5565b60010161178d565b600061180460608b018b6159a8565b9050821461182f5761181960e08b018b6159a8565b8381811061182357fe5b90506020020135611832565b60015b6001600160a01b0384166000908152600c602052909150819060409020611857613d7b565b106118865760405162461bcd60e51b8152600401611874906153d5565b60405180910390611883613d10565b50505b6001600160a01b0383166000908152600c60205281906040902081906118aa613dd6565b5050505060006118b98361324b565b905060006118c68461326b565b90506118d0613e24565b6118dd60608d018d6159a8565b9050841415611967576040518060400160405280604051806040016040528086815260200185815250815260200160405180604001604052808f6020016020810190611929919061442d565b6001600160a01b03166001600160a01b031681526020018f6040016020810190611953919061442d565b6001600160a01b0316905290529050611a05565b61197460808d018d615a06565b8581811061197e57fe5b90506080020180360381019061199491906145f1565b90506119cc6119a660a08e018e6159a8565b868181106119b057fe5b905060200201358403826000015160005b6020020151906132bc565b8151526119fe6119df60c08e018e6159a8565b868181106119e957fe5b905060200201358303826000015160016119c1565b8151602001525b611a0f858261300d565b5050600190930192506116c7915050565b507f49cbb28c69ffbdb6b3893f83d64557662a5dd43ffd6045b6a5180ab0a027f2245a611a4b613e8f565b8760078888604051611a61959493929190614ef9565b60405180910390a150600180600061103b613dd6565b7f00000000000000000000000000000000000000000000000000000000000000006001600160a01b03165a63996d79a5598160e01b8152602081600483336000905af158600e01573d6000803e3d6000fd5b3d6001141558600a015760016000f35b8051925060005b6040811015611af757600082820152602001611ae0565b5050506001600160a01b03161415611b335760405162461bcd60e51b8152600401611b219061582f565b60405180910390611b30613d10565b50505b60016000611b3f613d7b565b14611b6e5760405162461bcd60e51b8152600401611b5c906155eb565b60405180910390611b6b613d10565b50505b6002806000611b7b613dd6565b505050816001600160a01b03165a611b91613e8f565b6001600160a01b03161480611bb75750806001600160a01b0316826001600160a01b0316145b611be55760405162461bcd60e51b8152600401611bd39061570f565b60405180910390611be2613d10565b50505b6001600160a01b03831660009081526004602052611c2784604083206001600160a01b038616600090815260209190915260409020611c22613d7b565b61319f565b905060008111611c5b5760405162461bcd60e51b8152600401611c4990615666565b60405180910390611c58613d10565b50505b6001600160a01b03841660009081526004602052611ca0908290604090206001600160a01b038616600090815260209190915260409020611c9a613d7b565b906132d5565b6001600160a01b03851660009081526004602052604090206001600160a01b0385166000908152602091909152604090208190611cdb613dd6565b505050611ce98483836131b3565b506001806000611cf7613dd6565b505050505050565b7f00000000000000000000000000000000000000000000000000000000000000006001600160a01b03165a63996d79a5598160e01b8152602081600483336000905af158600e01573d6000803e3d6000fd5b3d6001141558600a015760016000f35b8051925060005b6040811015611d7f57600082820152602001611d68565b5050506001600160a01b03161415611dbb5760405162461bcd60e51b8152600401611da99061582f565b60405180910390611db8613d10565b50505b60016000611dc7613d7b565b14611df65760405162461bcd60e51b8152600401611de4906155eb565b60405180910390611df3613d10565b50505b6002806000611e03613dd6565b505050825a63996d79a5598160e01b8152602081600483336000905af158600e01573d6000803e3d6000fd5b3d6001141558600a015760016000f35b8051925060005b6040811015611e5d57600082820152602001611e46565b5050506001600160a01b0316611e76602083018361442d565b6001600160a01b031614611eae5760405162461bcd60e51b8152600401611e9c9061520d565b60405180910390611eab613d10565b50505b6000611eb985612f4e565b9050611ed084846009611eca613d7b565b84613315565b611ed8613213565b611f065760405162461bcd60e51b8152600401611ef4906151d6565b60405180910390611f03613d10565b50505b6020808601356000908152600d90915260408120905080600101611f28613d7b565b15611f575760405162461bcd60e51b8152600401611f45906156c6565b60405180910390611f54613d10565b50505b818082611f62613dd6565b505050611f7d8661014001355a611f77613e49565b90612fa5565b8060018301611f8a613dd6565b5050507f87b348a76dd4ef431d45553a1d8c5934db960e64201a5776ab64e3eb397f4cfa5a611fb7613e8f565b8783604051611fc893929190614f4c565b60405180910390a1505050600160008190611cf7613dd6565b7f00000000000000000000000000000000000000000000000000000000000000006001600160a01b03165a63996d79a5598160e01b8152602081600483336000905af158600e01573d6000803e3d6000fd5b3d6001141558600a015760016000f35b8051925060005b60408110156120615760008282015260200161204a565b5050506001600160a01b0316141561209d5760405162461bcd60e51b815260040161208b9061582f565b6040518091039061209a613d10565b50505b600160006120a9613d7b565b146120d85760405162461bcd60e51b81526004016120c6906155eb565b604051809103906120d5613d10565b50505b60028060006120e5613dd6565b5050506120f182613386565b1561212c578034146121275760405162461bcd60e51b815260040161211590615503565b60405180910390612124613d10565b50505b6121f6565b341561215c5760405162461bcd60e51b815260040161214a9061553a565b60405180910390612159613d10565b50505b6121c8825a612169613e8f565b5a63996d79a5598160e01b8152602081600483336000905af158600e01573d6000803e3d6000fd5b3d6001141558600a015760016000f35b8051925060005b60408110156121bf576000828201526020016121a8565b50505084613393565b6121f65760405162461bcd60e51b81526004016121e49061548b565b604051809103906121f3613d10565b50505b6001600160a01b038216600090815260056020528190604090206000828261221c613d7b565b01925050819061222a613dd6565b5050507fb52926ac8ed62d53d4b88d81b71c48639bd63aa53950fcf3e1d7676ca7c26140828260405161225e929190615065565b60405180910390a16001806000611256613dd6565b60007f00000000000000000000000000000000000000000000000000000000000000006001600160a01b03165a63996d79a5598160e01b8152602081600483336000905af158600e01573d6000803e3d6000fd5b3d6001141558600a015760016000f35b8051925060005b60408110156122f5576000828201526020016122de565b5050506001600160a01b031614156123315760405162461bcd60e51b815260040161231f9061582f565b6040518091039061232e613d10565b50505b6001600061233d613d7b565b1461236c5760405162461bcd60e51b815260040161235a906155eb565b60405180910390612369613d10565b50505b6123758261324b565b92915050565b612385828261300d565b5050565b60007f00000000000000000000000000000000000000000000000000000000000000006001600160a01b03165a63996d79a5598160e01b8152602081600483336000905af158600e01573d6000803e3d6000fd5b3d6001141558600a015760016000f35b8051925060005b604081101561240b576000828201526020016123f4565b5050506001600160a01b031614156124475760405162461bcd60e51b81526004016124359061582f565b60405180910390612444613d10565b50505b60016000612453613d7b565b146124825760405162461bcd60e51b8152600401612470906155eb565b6040518091039061247f613d10565b50505b6006600061248f8461305d565b81526020019081526020016000206000906124a8613d7b565b906101000a900460ff169050919050565b60007f00000000000000000000000000000000000000000000000000000000000000006001600160a01b03165a63996d79a5598160e01b8152602081600483336000905af158600e01573d6000803e3d6000fd5b3d6001141558600a015760016000f35b8051925060005b604081101561253b57600082820152602001612524565b5050506001600160a01b031614156125775760405162461bcd60e51b81526004016125659061582f565b60405180910390612574613d10565b50505b60016000612583613d7b565b146125b25760405162461bcd60e51b81526004016125a0906155eb565b604051809103906125af613d10565b50505b6123758261326b565b6125c68383836133ea565b505050565b7f00000000000000000000000000000000000000000000000000000000000000006001600160a01b03165a63996d79a5598160e01b8152602081600483336000905af158600e01573d6000803e3d6000fd5b3d6001141558600a015760016000f35b8051925060005b604081101561264b57600082820152602001612634565b5050506001600160a01b031614156126875760405162461bcd60e51b81526004016126759061582f565b60405180910390612684613d10565b50505b60016000612693613d7b565b146126c25760405162461bcd60e51b81526004016126b0906155eb565b604051809103906126bf613d10565b50505b60028060006126cf613dd6565b505050845a63996d79a5598160e01b8152602081600483336000905af158600e01573d6000803e3d6000fd5b3d6001141558600a015760016000f35b8051925060005b604081101561272957600082820152602001612712565b5050506001600160a01b0316612742602083018361442d565b6001600160a01b031614801561278c57506000600161275f613d7b565b6001600160a01b036101009290920a900416612781604083016020840161442d565b6001600160a01b0316145b80156127cc57506000600261279f613d7b565b6001600160a01b036101009290920a9004166127c1606083016040840161442d565b6001600160a01b0316145b6127fa5760405162461bcd60e51b81526004016127e89061539e565b604051809103906127f7613d10565b50505b600061280587613200565b905061281587828888888861346a565b61281d613213565b1561284c5760405162461bcd60e51b815260040161283a906151d6565b60405180910390612849613d10565b50505b610120870135600861285c613d7b565b1061288b5760405162461bcd60e51b815260040161287990615279565b60405180910390612888613d10565b50505b612893613596565b6128e4576128a98761010001355a611f77613e49565b80600a6128b4613dd6565b506128d591506128cc905061010089013560026135a2565b5a611f77613e49565b80600b6128e0613dd6565b5050505b808060076128f0613dd6565b505050610120870135806008612904613dd6565b505050610140870135806009612918613dd6565b5050507fef03cf86f2e77e1a0ae5cb25b50519e55b94788b920ace71f92341df2dab97ed5a612945613e8f565b88600760405161295793929190614ec6565b60405180910390a1505060016000819061103b613dd6565b60007f00000000000000000000000000000000000000000000000000000000000000006001600160a01b03165a63996d79a5598160e01b8152602081600483336000905af158600e01573d6000803e3d6000fd5b3d6001141558600a015760016000f35b8051925060005b60408110156129f1576000828201526020016129da565b5050506001600160a01b03161415612a2d5760405162461bcd60e51b8152600401612a1b9061582f565b60405180910390612a2a613d10565b50505b60016000612a39613d7b565b14612a685760405162461bcd60e51b8152600401612a56906155eb565b60405180910390612a65613d10565b50505b6001600160a01b0382166000908152600360205260409020612375613d7b565b60007f00000000000000000000000000000000000000000000000000000000000000006001600160a01b03165a63996d79a5598160e01b8152602081600483336000905af158600e01573d6000803e3d6000fd5b3d6001141558600a015760016000f35b8051925060005b6040811015612b0a57600082820152602001612af3565b5050506001600160a01b03161415612b465760405162461bcd60e51b8152600401612b349061582f565b60405180910390612b43613d10565b50505b60016000612b52613d7b565b14612b815760405162461bcd60e51b8152600401612b6f906155eb565b60405180910390612b7e613d10565b50505b6001600160a01b0382166000908152600c60205260409020612375613d7b565b60007f00000000000000000000000000000000000000000000000000000000000000006001600160a01b03165a63996d79a5598160e01b8152602081600483336000905af158600e01573d6000803e3d6000fd5b3d6001141558600a015760016000f35b8051925060005b6040811015612c2357600082820152602001612c0c565b5050506001600160a01b03161415612c5f5760405162461bcd60e51b8152600401612c4d9061582f565b60405180910390612c5c613d10565b50505b60016000612c6b613d7b565b14612c9a5760405162461bcd60e51b8152600401612c88906155eb565b60405180910390612c97613d10565b50505b6001600160a01b03831660009081526004602052604090206001600160a01b038316600090815260209190915260409020612cd3613d7b565b9392505050565b60007f00000000000000000000000000000000000000000000000000000000000000006001600160a01b03165a63996d79a5598160e01b8152602081600483336000905af158600e01573d6000803e3d6000fd5b3d6001141558600a015760016000f35b8051925060005b6040811015612d5c57600082820152602001612d45565b5050506001600160a01b03161415612d985760405162461bcd60e51b8152600401612d869061582f565b60405180910390612d95613d10565b50505b60016000612da4613d7b565b14612dd35760405162461bcd60e51b8152600401612dc1906155eb565b60405180910390612dd0613d10565b50505b60006001610c6e613d7b565b612de76140f1565b7f00000000000000000000000000000000000000000000000000000000000000006001600160a01b03165a63996d79a5598160e01b8152602081600483336000905af158600e01573d6000803e3d6000fd5b3d6001141558600a015760016000f35b8051925060005b6040811015612e6757600082820152602001612e50565b5050506001600160a01b03161415612ea35760405162461bcd60e51b8152600401612e919061582f565b60405180910390612ea0613d10565b50505b60016000612eaf613d7b565b14612ede5760405162461bcd60e51b8152600401612ecc906155eb565b60405180910390612edb613d10565b50505b600760405160a08101604052908181612ef5613d7b565b815260200160018201612f06613d7b565b815260200160028201612f17613d7b565b815260200160038201612f28613d7b565b815260200160048201612f39613d7b565b905250905090565b6000612f4b613d7b565b81565b600081604051602001612f619190615937565b6040516020818303038152906040528051906020012092915050565b6000816001600160a01b0316612f938585613601565b6001600160a01b031614949350505050565b600082820183811015612cd35760405162461bcd60e51b815260206004820152601b60248201527f536166654d6174683a206164646974696f6e206f766572666c6f770000000000604482015260640160405180910390613004613d10565b50509392505050565b60005b60028110156125c65760008251826002811061302857fe5b60200201519050801561305457613054848460200151846002811061304957fe5b6020020151836133ea565b50600101613010565b600081604051602001612f61919061596a565b60006001866040516020016130869291906150e0565b60405160208183030381529060405280519060200120905061310285858080601f016020809104026020016040519081016040528181529291906020840183838082843760009201829052509250600191506130e29050613d7b565b906101000a90046001600160a01b031683612f7d9092919063ffffffff16565b6131305760405162461bcd60e51b815260040161311e9061568f565b6040518091039061312d613d10565b50505b61317483838080601f016020809104026020016040519081016040528181529291906020840183838082843760009201829052509250600291506130e29050613d7b565b611cf75760405162461bcd60e51b81526004016131909061541d565b6040518091039061103b613d10565b6000612cd3826131ae85613619565b613713565b6131bd8382613729565b6131c883838361375d565b6125c65760405162461bcd60e51b81526004016131e4906152b0565b60405180910390611256613d10565b60018060006125c6613dd6565b600081604051602001612f619190615924565b60005a61321e613e49565b600a613228613d7b565b111580156132465750600b61323b613d7b565b5a613244613e49565b105b905090565b6001600160a01b0381166000908152600560205260408120612375613d7b565b6001600160a01b038116600090815260056020526040812061328b613d7b565b6001600160a01b03831660009081526003602052604090206132ab613d7b565b6132b484613619565b010392915050565b600082820183811015612cd3576000195b949350505050565b6000612cd3838360405160408082019052601e81527f536166654d6174683a207375627472616374696f6e206f766572666c6f7700006020820152613786565b6133558484808060200260200160405190810160405280939291908181526020018383602002808284376000920191909152508692508591506138269050565b6133805760405162461bcd60e51b815260040161337190615622565b60405180910390611cf7613d10565b50505050565b6001600160a01b03161590565b60006133e1858585856040516024016133ae93929190615041565b604051601f198183030181526040919091526323b872dd60e01b6020820180516001600160e01b031690911790526138cf565b95945050505050565b6001600160a01b0383166000908152600460205261342f908290604090206001600160a01b038516600090815260209190915260409020613429613d7b565b906132bc565b6001600160a01b03841660009081526004602052604090206001600160a01b0384166000908152602091909152604090208190611cf7613dd6565b6000808660405160200161347f9291906150e0565b6040516020818303038152906040528051906020012090506134e885858080601f01602080910402602001604051908101604052818152929190602084018383808284376000920191909152506134e09250505060408a0160208b0161442d565b839190612f7d565b6135165760405162461bcd60e51b8152600401613504906157b9565b60405180910390613513613d10565b50505b61355f83838080601f01602080910402602001604051908101604052818152929190602084018383808284376000920191909152506134e09250505060608a0160408b0161442d565b61358d5760405162461bcd60e51b815260040161357b906152e7565b6040518091039061358a613d10565b50505b50505050505050565b6000600a61323b613d7b565b6000826135b157506000612375565b828202828482816135be57fe5b0414612cd35760405162461bcd60e51b8152600401808060200182810382526021815260200180615c4e6021913960400191505060405180910390613004613d10565b60008061360d8461399d565b90506132cd81846139b0565b6000816001600160a01b03166370a082315a63996d79a5598160e01b8152602081600483336000905af158600e01573d6000803e3d6000fd5b3d6001141558600a015760016000f35b8051925060005b604081101561368057600082820152602001613669565b5050506040518263ffffffff1660e01b815260040161369f9190614eb2565b60206040518083038186806136b2613ed5565b1580156136c7576000806136c4613d10565b50505b505a6136d1613f21565b50505050501580156136f0573d6000803e3d60006136ed613d10565b50505b50505050604051601f3d908101601f1916820160405261237591908101906149e9565b60008183106137225781612cd3565b5090919050565b6001600160a01b038216600090815260036020528190604090206000828261374f613d7b565b019250508190611256613dd6565b600061376884613386565b61377c57613777848484613bdc565b6132cd565b6132cd8383613be9565b6000818484111561381e5760405162461bcd60e51b81526004018080602001828103825283818151815260200191508051906020019080838360005b838110156137da5780820151838201526020016137c2565b50505050905090810190601f1680156138075780820380516001836020036101000a031916815260200191505b50925050506040518091039061381b613d10565b50505b505050900390565b600081815b85518110156138c457600086828151811061384257fe5b6020026020010151905080831161388957828160405160200180838152602001828152602001925050506040516020818303038152906040528051906020012092506138bb565b808360405160200180838152602001828152602001925050506040516020818303038152906040528051906020012092505b5060010161382b565b509092149392505050565b60006138da83613c6e565b6139085760405162461bcd60e51b81526004016138f6906155c0565b60405180910390613905613d10565b50505b600080846001600160a01b0316846040516139239190614e62565b6000604051808303816000865a61393861400c565b5050505050509150503d806000811461396d576040513d603f01601f191681016040523d815291503d6000602084013e613972565b606091505b50915091506139818282613cb1565b805115806133e157506020810181518101906133e191906145a1565b600081604051602001612f619190614e7e565b60008151604114613a105760405162461bcd60e51b815260206004820152601f60248201527f45434453413a20696e76616c6964207369676e6174757265206c656e67746800604482015260640160405180910390613a0d613d10565b50505b60008060006020850151925060408501519150606085015160001a90507f7fffffffffffffffffffffffffffffff5d576e7357a4501ddfe92f46681b20a0821115613a955760405162461bcd60e51b8152600401808060200182810382526022815260200180615c0a6022913960400191505060405180910390613a92613d10565b50505b8060ff16601b14158015613aad57508060ff16601c14155b15613af25760405162461bcd60e51b8152600401808060200182810382526022815260200180615c2c6022913960400191505060405180910390613aef613d10565b50505b600060018783868660405160008152602001604052604051808581526020018460ff1681526020018381526020018281526020019450505050506020604051602081039080840390855a613b44613f21565b5050505050158015613b63573d6000803e3d6000613b60613d10565b50505b5050506020604051035190506001600160a01b038116613bd25760405162461bcd60e51b815260206004820152601860248201527f45434453413a20696e76616c6964207369676e61747572650000000000000000604482015260640160405180910390613bcf613d10565b50505b9695505050505050565b60006132cd848484613cc4565b6000806000846001600160a01b031684604051613c0590614eaf565b60006040518083038185875a613c1961400c565b505050505050925050503d8060008114613c4f576040513d603f01601f191681016040523d815291503d6000602084013e613c54565b606091505b5091509150613c638282613cb1565b506001949350505050565b6000807fc5d2460186f7233c927e7db2dcc703c0e500b653ca82273b7bfad8045d85a47083613c9b61411e565b91508082141580156132cd575050151592915050565b8161238557805160208201613380613d10565b60006132cd848484604051602401613cdd929190615065565b604051601f1981830301815260409190915263a9059cbb60e01b6020820180516001600160e01b031690911790526138cf565b632a2a7adb598160e01b8152600481016020815285602082015260005b86811015613d48578086015182820160400152602001613d2d565b506020828760640184336000905af158600e01573d6000803e3d6000fd5b3d6001141558600a015760016000f35b505050565b6303daa959598160e01b8152836004820152602081602483336000905af158600e01573d6000803e3d6000fd5b3d6001141558600a015760016000f35b8051935060005b60408110156125c657600082820152602001613dbf565b6322bd64c0598160e01b8152836004820152846024820152600081604483336000905af158600e01573d6000803e3d6000fd5b3d6001141558600a015760016000f35b600081526020613dbf565b6040518060400160405280613e3761416a565b8152602001613e4461416a565b905290565b63bdbf8c36598160e01b8152602081600483336000905af158600e01573d6000803e3d6000fd5b3d6001141558600a015760016000f35b80516000825293506020613dbf565b6373509064598160e01b8152602081600483336000905af158600e01573d6000803e3d6000fd5b3d6001141558600a015760016000f35b80516000825293506020613dbf565b638435035b598160e01b8152836004820152602081602483336000905af158600e01573d6000803e3d6000fd5b3d6001141558600a015760016000f35b80516000825293506020613dbf565b638540661f598160e01b8152613f52565b8080831115612375575090919050565b8080831015612375575090919050565b836004820152846024820152606060448201528660648201526084810160005b88811015613f8a578088015182820152602001613f72565b506060828960a40184336000905af158600e01573d6000803e3d6000fd5b3d6001141558600a015760016000f35b815160408301513d6000853e8b8b82606087013350600060045af15059613fdf8d3d613f42565b8c01613feb8187613f32565b5b828110156140005760008152602001613fec565b50929c50505050505050565b6385979f76598160e01b8152836004820152846024820152606060448201528760648201526084810160005b89811015614050578089015182820152602001614038565b506060828a60a40184336000905af158600e01573d6000803e3d6000fd5b3d6001141558600a015760016000f35b815160408301513d6000853e8c8c82606087013350600060045af150596140a58e3d613f42565b8d016140b18187613f32565b5b828110156140c657600081526020016140b2565b50929d50505050505050565b6040516060810160409081526000808352602083018190529082015290565b60405160a08101604090815260008083526020830181905290820181905260608201819052608082015290565b6324749d5c598160e01b8152836004820152602081602483336000905af158600e01573d6000803e3d6000fd5b3d6001141558600a015760016000f35b80516000825293506020613dbf565b60405160408082018152600290829080368337509192915050565b80356113b781615beb565b60008083601f8401126141aa5781826141a7613d10565b50505b5081356001600160401b038111156141c95781826141c6613d10565b50505b60208301915083602080830285010111156141ec576000806141e9613d10565b50505b9250929050565b600082601f83011261420c578081614209613d10565b50505b6002602061421a6040615a64565b808587604088011115614234578586614231613d10565b50505b855b85811015613bcf57813561424981615beb565b84529284019290840190600101614236565b600082601f830112614274578081614271613d10565b50505b600260206142826040615a64565b80858760408801111561429c578586614299613d10565b50505b855b85811015613bcf5781516142b181615beb565b8452928401929084019060010161429e565b60008083601f8401126142dd5781826142da613d10565b50505b5081356001600160401b038111156142fc5781826142f9613d10565b50505b6020830191508360208285010111156141ec576000806141e9613d10565b600060808284031215614334578081614331613d10565b50505b604051604081018181106001600160401b038211171561435057fe5b604052905080601f8301841361436e5760008061436b613d10565b50505b600261438161437c82615a8b565b615a64565b8085604087018881111561439d5760008061439a613d10565b50505b60005b858110156143be5782358552602094850194909201916001016143a0565b508286526143cc89826141f3565b602087015250505050505092915050565b600061016082840312156143f85780816143f5613d10565b50505b50919050565b600061018082840312156143f85780816143f5613d10565b600060e082840312156143f85780816143f5613d10565b600060208284031215614447578081614444613d10565b50505b8135612cd381615beb565b6000806040838503121561446d57808161446a613d10565b50505b823561447881615beb565b9150602083013561448881615beb565b809150509250929050565b6000806000606084860312156144b05780816144ad613d10565b50505b83356144bb81615beb565b925060208401356144cb81615beb565b929592945050506040919091013590565b6000806000606084860312156144f95780816144f6613d10565b50505b833561450481615beb565b9250602084013561451481615beb565b9150604084013561452481615beb565b809150509250925092565b60008060a0838503121561454a578182614547613d10565b50505b823561455581615beb565b9150614564846020850161431a565b90509250929050565b60008060408385031215614588578182614585613d10565b50505b823561459381615beb565b946020939093013593505050565b6000602082840312156145bb5780816145b8613d10565b50505b81518015158114612cd3578182613004613d10565b6000602082840312156145ea5780816145e7613d10565b50505b5035919050565b60006080828403121561460b578081614608613d10565b50505b612cd3838361431a565b60006080828403121561462f57808161462c613d10565b50505b604051604081018181106001600160401b038211171561464b57fe5b604052601f83018413614665578182614662613d10565b50505b600261467361437c82615a8b565b8085604087018881111561468e57868761468b613d10565b50505b865b858110156146af57825185526020948501949290920191600101614690565b508286526146bd898261425b565b60208701525093979650505050505050565b6000806000806000606086880312156146ef5782836146ec613d10565b50505b85356001600160401b038082111561470e57848561470b613d10565b50505b61471a89838a016143dd565b96506020880135915080821115614738578485614735613d10565b50505b61474489838a01614190565b90965094506040880135915080821115614765578283614762613d10565b50505b5061477288828901614190565b969995985093965092949392505050565b6000806000806000606086880312156147a35782836147a0613d10565b50505b85356001600160401b03808211156147c25784856147bf613d10565b50505b6147ce89838a016143dd565b965060208801359150808211156147ec5784856147e9613d10565b50505b6147f889838a016142c3565b90965094506040880135915080821115614819578283614816613d10565b50505b50614772888289016142c3565b60008060006101a08486031215614844578081614841613d10565b50505b61484e85856143fe565b92506101808401356001600160401b0381111561487257818261486f613d10565b50505b61487e86828701614190565b9497909650939450505050565b60008060008060008060006101e0888a0312156148af5784856148ac613d10565b50505b6148b989896143fe565b96506101808801356001600160401b03808211156148de5786876148db613d10565b50505b6148ea8b838c016142c3565b90985096506101a08a013591508082111561490c578384614909613d10565b50505b6149188b838c016142c3565b90965094506101c08a013591508082111561493a578384614937613d10565b50505b506149478a828b016142c3565b989b979a50959850939692959293505050565b600060208284031215614974578081614971613d10565b50505b81356001600160401b0381111561499257818261498f613d10565b50505b6132cd84828501614416565b6000806000806000606086880312156149be5782836149bb613d10565b50505b85356001600160401b03808211156149dd5784856149da613d10565b50505b6147ce89838a01614416565b600060208284031215614a03578081614a00613d10565b50505b81519392505050565b6001600160a01b0316815260200190565b6001600160a01b03169052565b60008284526020808501945082825b85811015614a67578135614a4c81615beb565b6001600160a01b031687529582019590820190600101614a39565b509495945050505050565b600082845260208401935081815b84811015614aa557614a928683614b16565b6080958601959190910190600101614a80565b5093949350505050565b81835260006001600160fb1b03831115614ad0578081614acd613d10565b50505b6020830280836020870137939093016020019283525090919050565b60008284528282602086013780602084860101526020601f19601f85011685010190509392505050565b604081833760006040838101828152908301915b6002811015611256578235614b3e81615beb565b6001600160a01b0316825260209283019290910190600101614b2a565b80614b64613d7b565b825260018101614b72613d7b565b602083015260028101614b83613d7b565b604083015260038101614b94613d7b565b606083015260048101614ba5613d7b565b60808301525050565b6000610160614bc584614bc085614185565b614a1d565b614bd160208401614185565b614bde6020860182614a1d565b50614beb60408401614185565b614bf86040860182614a1d565b50614c066060840184615aa5565b826060870152614c198387018284614a2a565b92505050614c2a6080840184615b04565b8583036080870152614c3d838284614a72565b92505050614c4e60a0840184615aa5565b85830360a0870152614c61838284614aaf565b92505050614c7260c0840184615aa5565b85830360c0870152614c85838284614aaf565b92505050614c9660e0840184615aa5565b85830360e0870152614ca9838284614aaf565b6101008681013590880152610120808701359088015261014095860135959096019490945250929392505050565b8035614ce281615beb565b6001600160a01b0316825260208181013590830152614d0360408201614185565b614d106040840182614a1d565b50614d1d60608201614185565b614d2a6060840182614a1d565b50614d3760808201614185565b614d446080840182614a1d565b50614d5160a08201614185565b614d5e60a0840182614a1d565b50614d6f60c0830160c08301614b16565b610140818101359083015261016090810135910152565b80614d8f613d7b565b825260018101614d9d613d7b565b602083015260ff60028201614db0613d7b565b16151560408301525050565b60008135614dc981615beb565b6001600160a01b039081168452602083013590614de582615beb565b9081166020850152604083013590614dfc82615beb565b1660408401526060828101359084015260808083013590840152614e2260a08301614185565b614e2f60a0850182614a1d565b50614e3d60c0830183615b63565b60e060c08601526133e160e086018284614aec565b6000828483379101908152919050565b60008251614e74818460208701615bbf565b9190910192915050565b7f16566563746f72205369676e6564204d6573736167653a0a33320000000000008152601a810191909152603a0190565b90565b6001600160a01b0391909116815260200190565b6001600160a01b038416815260e060208201819052600090614eea90830185614bae565b90506132cd6040830184614b5b565b6001600160a01b038616815261010060208201819052600090614f1e83820188614bae565b9050614f2d6040840187614b5b565b82810360e0840152614f40818587614a2a565b98975050505050505050565b6001600160a01b03841681526102008101614f6a6020830185614cd7565b6132cd6101a0830184614d86565b6001600160a01b038916815260006102c06020614f978185018c614cd7565b614fa56101a085018b614d86565b81610200850152614fb9828501898b614aec565b9150838203610220850152614fcf828789614aec565b9250610240840191508451916000905b6002821015614ffe578351815292820192600191909101908201614fdf565b5050808501519150610280840160005b600281101561503057615022828551614a0c565b93830193915060010161500e565b505050509998505050505050505050565b6001600160a01b039384168152919092166020820152604081019190915260600190565b6001600160a01b03929092168252602082015260400190565b901515815260200190565b60006060825286518060608401526150a8816080850160208b01615bbf565b601f01601f19168201828103608090810160208501526150cb9082018789614aec565b90508281036040840152614f40818587614aec565b60408101600284106150ee57fe5b9281526020015290565b60208082526024908201527f434d4341646a7564696361746f723a20494e56414c49445f4348414e4e454c5f60408201526309082a6960e31b606082015260800190565b6020808252601e908201527f434d4341646a7564696361746f723a20494e4445585f4d49534d415443480000604082015260600190565b6020808252601d908201527f434d4357697468647261773a204348414e4e454c5f4d49534d41544348000000604082015260600190565b6020808252601290820152710434d4357697468647261773a204e4f5f4f560741b604082015260600190565b6020808252601d908201527f434d4341646a7564696361746f723a20494e56414c49445f5048415345000000604082015260600190565b6020808252818101527f434d4341646a7564696361746f723a20494e56414c49445f5452414e53464552604082015260600190565b6020808252601f908201527f434d43436f72653a204944454e544943414c5f5041525449434950414e545300604082015260600190565b6020808252601d908201527f434d4341646a7564696361746f723a20494e56414c49445f4e4f4e4345000000604082015260600190565b60208082526019908201527f434d4341737365743a205452414e534645525f4641494c454400000000000000604082015260600190565b6020808252601f908201527f434d4341646a7564696361746f723a20494e56414c49445f424f425f53494700604082015260600190565b60208082526029908201527f434d4341646a7564696361746f723a205452414e534645525f414c524541445960408201526817d11151955391115160ba1b606082015260800190565b6020808252601f908201527f434d4341646a7564696361746f723a204e4f5f4153534554535f474956454e00604082015260600190565b6020808252601f908201527f434d4341646a7564696361746f723a20494e56414c49445f4348414e4e454c00604082015260600190565b60208082526028908201527f434d4341646a7564696361746f723a204348414e4e454c5f414c52454144595f604082015267111151955391115160c21b606082015260800190565b6020808252601c908201527f434d4357697468647261773a20494e56414c49445f424f425f53494700000000604082015260600190565b6020808252601c908201527f434d43436f72653a20494e56414c49445f5041525449434950414e5400000000604082015260600190565b60208082526021908201527f434d434465706f7369743a2045524332305f5452414e534645525f4641494c456040820152601160fa1b606082015260800190565b6020808252601d908201527f434d4357697468647261773a20414c52454144595f4558454355544544000000604082015260600190565b6020808252601a908201527f434d434465706f7369743a2056414c55455f4d49534d41544348000000000000604082015260600190565b60208082526021908201527f434d434465706f7369743a204554485f574954485f4552435f5452414e5346456040820152602960f91b606082015260800190565b60208082526025908201527f434d4341646a7564696361746f723a205452414e534645525f4e4f545f444953604082015264141555115160da1b606082015260800190565b6020808252601190820152704c696245524332303a204e4f5f434f444560781b604082015260600190565b6020808252601f908201527f5265656e7472616e637947756172643a205245454e5452414e545f43414c4c00604082015260600190565b60208082526024908201527f434d4341646a7564696361746f723a20494e56414c49445f4d45524b4c455f506040820152632927a7a360e11b606082015260800190565b6020808252600f908201526e0434d4341737365743a204e4f5f4f5608c1b604082015260600190565b6020808252601e908201527f434d4357697468647261773a20494e56414c49445f414c4943455f5349470000604082015260600190565b60208082526029908201527f434d4341646a7564696361746f723a205452414e534645525f414c524541445960408201526817d11254d41555115160ba1b606082015260800190565b60208082526018908201527f434d4341737365743a204f574e45525f4d49534d415443480000000000000000604082015260600190565b6020808252601690820152750434d43436f72653a20414c52454144595f53455455560541b604082015260600190565b60208082526023908201527f434d4341646a7564696361746f723a2057524f4e475f41525241595f4c454e4760408201526254485360e81b606082015260800190565b60208082526021908201527f434d4341646a7564696361746f723a20494e56414c49445f414c4943455f53496040820152604760f81b606082015260800190565b6020808252818101527f434d4341646a7564696361746f723a20494e56414c49445f5245534f4c564552604082015260600190565b6020808252601a908201527f4d6173746572636f70793a204f4e4c595f5649415f50524f5859000000000000604082015260600190565b6020808252818101527f434d4341646a7564696361746f723a20494e56414c49445f42414c414e434553604082015260600190565b60208082526025908201527f434d4341646a7564696361746f723a20494e56414c49445f5452414e534645526040820152640be9082a6960db1b606082015260800190565b608081016123758284614b16565b60a08101825182526020830151602083015260408301516040830152606083015160608301526080830151608083015292915050565b600060208252612cd36020830184614bae565b61018081016123758284614cd7565b60608101825182526020830151602083015260408301511515604083015292915050565b600060208252612cd36020830184614dbc565b6000604082526159906040830185614dbc565b90508260208301529392505050565b90815260200190565b6000808335601e198436030181126159c75782836159c4613d10565b50505b8301803591506001600160401b038211156159e95782836159e6613d10565b50505b60209081019250810236038213156141ec576000806141e9613d10565b6000808335601e19843603018112615a25578283615a22613d10565b50505b8301803591506001600160401b03821115615a47578283615a44613d10565b50505b60200191506080810236038213156141ec576000806141e9613d10565b600060405190508181018181106001600160401b0382111715615a8357fe5b604052919050565b60006001600160401b03821115615a9e57fe5b5060200290565b6000808335601e19843603018112615ac4578283615ac1613d10565b50505b83016020810192503590506001600160401b03811115615aec57600080615ae9613d10565b50505b6020810236038313156141ec576000806141e9613d10565b6000808335601e19843603018112615b23578283615b20613d10565b50505b83016020810192503590506001600160401b03811115615b4b57600080615b48613d10565b50505b6080810236038313156141ec576000806141e9613d10565b6000808335601e19843603018112615b82578283615b7f613d10565b50505b83016020810192503590506001600160401b03811115615baa57600080615ba7613d10565b50505b8036038313156141ec576000806141e9613d10565b60005b83811015615bda578082015183820152602001615bc2565b838111156133805750506000910152565b6001600160a01b0381168114615c06576000806125c6613d10565b5056fe45434453413a20696e76616c6964207369676e6174757265202773272076616c756545434453413a20696e76616c6964207369676e6174757265202776272076616c7565536166654d6174683a206d756c7469706c69636174696f6e206f766572666c6f77",
  "linkReferences": {},
  "deployedLinkReferences": {}
}