{
  "_format": "hh-sol-artifact-1",
  "contractName": "FailingToken.ovm",
  "sourceName": "src.sol/testing/FailingToken.sol",
  "abi": [
    {
      "inputs": [],
      "stateMutability": "nonpayable",
      "type": "constructor"
    },
    {
      "anonymous": false,
      "inputs": [
        {
          "indexed": true,
          "internalType": "address",
          "name": "owner",
          "type": "address"
        },
        {
          "indexed": true,
          "internalType": "address",
          "name": "spender",
          "type": "address"
        },
        {
          "indexed": false,
          "internalType": "uint256",
          "name": "value",
          "type": "uint256"
        }
      ],
      "name": "Approval",
      "type": "event"
    },
    {
      "anonymous": false,
      "inputs": [
        {
          "indexed": true,
          "internalType": "address",
          "name": "from",
          "type": "address"
        },
        {
          "indexed": true,
          "internalType": "address",
          "name": "to",
          "type": "address"
        },
        {
          "indexed": false,
          "internalType": "uint256",
          "name": "value",
          "type": "uint256"
        }
      ],
      "name": "Transfer",
      "type": "event"
    },
    {
      "inputs": [
        {
          "internalType": "address",
          "name": "owner",
          "type": "address"
        },
        {
          "internalType": "address",
          "name": "spender",
          "type": "address"
        }
      ],
      "name": "allowance",
      "outputs": [
        {
          "internalType": "uint256",
          "name": "",
          "type": "uint256"
        }
      ],
      "stateMutability": "view",
      "type": "function"
    },
    {
      "inputs": [
        {
          "internalType": "address",
          "name": "spender",
          "type": "address"
        },
        {
          "internalType": "uint256",
          "name": "amount",
          "type": "uint256"
        }
      ],
      "name": "approve",
      "outputs": [
        {
          "internalType": "bool",
          "name": "",
          "type": "bool"
        }
      ],
      "stateMutability": "nonpayable",
      "type": "function"
    },
    {
      "inputs": [
        {
          "internalType": "address",
          "name": "account",
          "type": "address"
        }
      ],
      "name": "balanceOf",
      "outputs": [
        {
          "internalType": "uint256",
          "name": "",
          "type": "uint256"
        }
      ],
      "stateMutability": "view",
      "type": "function"
    },
    {
      "inputs": [
        {
          "internalType": "address",
          "name": "account",
          "type": "address"
        },
        {
          "internalType": "uint256",
          "name": "amount",
          "type": "uint256"
        }
      ],
      "name": "burn",
      "outputs": [],
      "stateMutability": "nonpayable",
      "type": "function"
    },
    {
      "inputs": [],
      "name": "decimals",
      "outputs": [
        {
          "internalType": "uint8",
          "name": "",
          "type": "uint8"
        }
      ],
      "stateMutability": "view",
      "type": "function"
    },
    {
      "inputs": [
        {
          "internalType": "address",
          "name": "spender",
          "type": "address"
        },
        {
          "internalType": "uint256",
          "name": "subtractedValue",
          "type": "uint256"
        }
      ],
      "name": "decreaseAllowance",
      "outputs": [
        {
          "internalType": "bool",
          "name": "",
          "type": "bool"
        }
      ],
      "stateMutability": "nonpayable",
      "type": "function"
    },
    {
      "inputs": [
        {
          "internalType": "address",
          "name": "spender",
          "type": "address"
        },
        {
          "internalType": "uint256",
          "name": "addedValue",
          "type": "uint256"
        }
      ],
      "name": "increaseAllowance",
      "outputs": [
        {
          "internalType": "bool",
          "name": "",
          "type": "bool"
        }
      ],
      "stateMutability": "nonpayable",
      "type": "function"
    },
    {
      "inputs": [
        {
          "internalType": "address",
          "name": "account",
          "type": "address"
        },
        {
          "internalType": "uint256",
          "name": "amount",
          "type": "uint256"
        }
      ],
      "name": "mint",
      "outputs": [],
      "stateMutability": "nonpayable",
      "type": "function"
    },
    {
      "inputs": [],
      "name": "name",
      "outputs": [
        {
          "internalType": "string",
          "name": "",
          "type": "string"
        }
      ],
      "stateMutability": "view",
      "type": "function"
    },
    {
      "inputs": [],
      "name": "rejectEther",
      "outputs": [
        {
          "internalType": "bool",
          "name": "",
          "type": "bool"
        }
      ],
      "stateMutability": "view",
      "type": "function"
    },
    {
      "inputs": [
        {
          "internalType": "bool",
          "name": "_rejectEther",
          "type": "bool"
        }
      ],
      "name": "setRejectEther",
      "outputs": [
        {
          "internalType": "bool",
          "name": "",
          "type": "bool"
        }
      ],
      "stateMutability": "nonpayable",
      "type": "function"
    },
    {
      "inputs": [
        {
          "internalType": "bool",
          "name": "_transferShouldFail",
          "type": "bool"
        }
      ],
      "name": "setTransferShouldFail",
      "outputs": [
        {
          "internalType": "bool",
          "name": "",
          "type": "bool"
        }
      ],
      "stateMutability": "nonpayable",
      "type": "function"
    },
    {
      "inputs": [
        {
          "internalType": "bool",
          "name": "_transferShouldRevert",
          "type": "bool"
        }
      ],
      "name": "setTransferShouldRevert",
      "outputs": [
        {
          "internalType": "bool",
          "name": "",
          "type": "bool"
        }
      ],
      "stateMutability": "nonpayable",
      "type": "function"
    },
    {
      "inputs": [
        {
          "internalType": "address",
          "name": "recipient",
          "type": "address"
        },
        {
          "internalType": "uint256",
          "name": "amount",
          "type": "uint256"
        }
      ],
      "name": "succeedingTransfer",
      "outputs": [
        {
          "internalType": "bool",
          "name": "",
          "type": "bool"
        }
      ],
      "stateMutability": "nonpayable",
      "type": "function"
    },
    {
      "inputs": [],
      "name": "symbol",
      "outputs": [
        {
          "internalType": "string",
          "name": "",
          "type": "string"
        }
      ],
      "stateMutability": "view",
      "type": "function"
    },
    {
      "inputs": [],
      "name": "totalSupply",
      "outputs": [
        {
          "internalType": "uint256",
          "name": "",
          "type": "uint256"
        }
      ],
      "stateMutability": "view",
      "type": "function"
    },
    {
      "inputs": [
        {
          "internalType": "address",
          "name": "recipient",
          "type": "address"
        },
        {
          "internalType": "uint256",
          "name": "amount",
          "type": "uint256"
        }
      ],
      "name": "transfer",
      "outputs": [
        {
          "internalType": "bool",
          "name": "",
          "type": "bool"
        }
      ],
      "stateMutability": "nonpayable",
      "type": "function"
    },
    {
      "inputs": [
        {
          "internalType": "address",
          "name": "sender",
          "type": "address"
        },
        {
          "internalType": "address",
          "name": "recipient",
          "type": "address"
        },
        {
          "internalType": "uint256",
          "name": "amount",
          "type": "uint256"
        }
      ],
      "name": "transferFrom",
      "outputs": [
        {
          "internalType": "bool",
          "name": "",
          "type": "bool"
        }
      ],
      "stateMutability": "nonpayable",
      "type": "function"
    },
    {
      "inputs": [],
      "name": "transferShouldFail",
      "outputs": [
        {
          "internalType": "bool",
          "name": "",
          "type": "bool"
        }
      ],
      "stateMutability": "view",
      "type": "function"
    },
    {
      "inputs": [],
      "name": "transferShouldRevert",
      "outputs": [
        {
          "internalType": "bool",
          "name": "",
          "type": "bool"
        }
      ],
      "stateMutability": "view",
      "type": "function"
    },
    {
      "stateMutability": "payable",
      "type": "receive"
    }
  ],
  "bytecode": "0x60806040523480156200001c5760008062000019620002b6565b50505b5060405160408082018152600d82526c2330b4b634b733902a37b5b2b760991b6020830152516040808201905260048152631190525360e21b602082015260038280516200006f92916020019062000323565b5060048180516200008592916020019062000323565b506012600560018162000097620003e5565b8160ff021916908360ff16021790620000af62000442565b50505050506001600560016101000a81620000c9620003e5565b8160ff02191690831515021790620000e062000442565b505050620001035a620000f262000491565b69d3c21bcecceda100000062000109565b620004fb565b6001600160a01b0382166200016f5760405162461bcd60e51b815260206004820152601f60248201527f45524332303a206d696e7420746f20746865207a65726f2061646472657373006044820152606401604051809103906200016c620002b6565b50505b6200017d6000838362000245565b620001a28160026200018e620003e5565b6200024a60201b62000c061790919060201c565b806002620001af62000442565b5050506001600160a01b03821660009081526020819052620001db908290604090206200018e620003e5565b6001600160a01b03831660009081526020819052604090208190620001ff62000442565b5050506001600160a01b03821660007fddf252ad1be2c89b69c2b068fc378daa952ba7f163c4a11628f55a4df523b3ef8360405190815260200160405180910390a35050565b505050565b600082820183811015620002af5760405162461bcd60e51b815260206004820152601b60248201527f536166654d6174683a206164646974696f6e206f766572666c6f770000000000604482015260640160405180910390620002ac620002b6565b50505b9392505050565b632a2a7adb598160e01b8152600481016020815285602082015260005b86811015620002f0578086015182820160400152602001620002d3565b506020828760640184336000905af158600e01573d6000803e3d6000fd5b3d6001141558600a015760016000f35b505050565b82806200032f620003e5565b600181600116156101000203166002900490600052602060002090601f0160209004810192826200036f576000856200036762000442565b5050620003d3565b82601f106200038d57805160ff191683800117856200036762000442565b828001600101856200039e62000442565b50508215620003d3579182015b82811115620003d357825182620003c162000442565b505091602001919060010190620003ab565b50620003e1929150620004d8565b5090565b6303daa959598160e01b8152836004820152602081602483336000905af158600e01573d6000803e3d6000fd5b3d6001141558600a015760016000f35b8051935060005b6040811015620002455760008282015260200162000429565b6322bd64c0598160e01b8152836004820152846024820152600081604483336000905af158600e01573d6000803e3d6000fd5b3d6001141558600a015760016000f35b60008152602062000429565b6373509064598160e01b8152602081600483336000905af158600e01573d6000803e3d6000fd5b3d6001141558600a015760016000f35b8051600082529350602062000429565b80821115620003e15760008082620004ef62000442565b505050600101620004d8565b611598806200050b6000396000f3fe6080604052600436106101235760003560e01c806370a08231116100a0578063a457c2d711610064578063a457c2d714610594578063a9059cbb146105df578063c38b79ef1461062a578063dd62ed3e14610668578063ff0a8570146106b557610192565b806370a08231146104aa578063805c44ae146104ef5780639299dc731461050d57806395d89b411461052b5780639dc29fac1461054957610192565b806323b872dd116100e757806323b872dd1461034d578063313ce567146103a257806339509351146103d657806340c10f1914610421578063468c15a91461046c57610192565b806306fdde03146101a0578063095ea7b3146102355780630cf96c3b1461029457806318160ddd146102d25780631f7fbbee1461030257610192565b3661019257600360056101346112f9565b906101000a900460ff16156101905760405162461bcd60e51b8152602060048201526015602482015274115490cc8c0e88115512115497d491529150d51151605a1b60448201526064016040518091039061018d611354565b50505b005b60008061019d611354565b50505b3480156101b5576000806101b2611354565b50505b506101be6106d3565b60405160208082528190810183818151815260200191508051906020019080838360005b838110156101fa5780820151838201526020016101e2565b50505050905090810190601f1680156102275780820380516001836020036101000a031916815260200191505b509250505060405180910390f35b34801561024a57600080610247611354565b50505b506102806004803603604081101561026a57600080610267611354565b50505b506001600160a01b038135169060200135610790565b604051901515815260200160405180910390f35b3480156102a9576000806102a6611354565b50505b50610280600480360360208110156102c9576000806102c6611354565b50505b503515156107ae565b3480156102e7576000806102e4611354565b50505b506102f06107f6565b60405190815260200160405180910390f35b34801561031757600080610314611354565b50505b506102806004803603604081101561033757600080610334611354565b50505b506001600160a01b038135169060200135610807565b3480156103625760008061035f611354565b50505b50610280600480360360608110156103825760008061037f611354565b50505b506001600160a01b0381358116916020810135909116906040013561081a565b3480156103b7576000806103b4611354565b50505b506103c06108b8565b60405160ff909116815260200160405180910390f35b3480156103eb576000806103e8611354565b50505b506102806004803603604081101561040b57600080610408611354565b50505b506001600160a01b0381351690602001356108d4565b34801561043657600080610433611354565b50505b506101906004803603604081101561045657600080610453611354565b50505b506001600160a01b03813516906020013561093e565b3480156104815760008061047e611354565b50505b50610280600480360360208110156104a15760008061049e611354565b50505b5035151561094c565b3480156104bf576000806104bc611354565b50505b506102f0600480360360208110156104df576000806104dc611354565b50505b50356001600160a01b0316610982565b34801561050457600080610501611354565b50505b506102806109a2565b3480156105225760008061051f611354565b50505b506102806109bb565b3480156105405760008061053d611354565b50505b506101be6109c7565b34801561055e5760008061055b611354565b50505b506101906004803603604081101561057e5760008061057b611354565b50505b506001600160a01b038135169060200135610a6d565b3480156105a9576000806105a6611354565b50505b50610280600480360360408110156105c9576000806105c6611354565b50505b506001600160a01b038135169060200135610a77565b3480156105f4576000806105f1611354565b50505b506102806004803603604081101561061457600080610611611354565b50505b506001600160a01b038135169060200135610af4565b34801561063f5760008061063c611354565b50505b506102806004803603602081101561065f5760008061065c611354565b50505b50351515610b89565b34801561067d5760008061067a611354565b50505b506102f06004803603604081101561069d5760008061069a611354565b50505b506001600160a01b0381358116916020013516610bc1565b3480156106ca576000806106c7611354565b50505b50610280610bfa565b60606003806106e06112f9565b600181600116156101000203166002900480601f01602080910402602001604051908101604052818152919060208301828061071a6112f9565b600181600116156101000203166002900480156107865780601f106107545761010080836107466112f9565b040283529160200191610786565b820191906000526020600020905b8161076b6112f9565b8152906001019060200180831161076257829003601f168201915b5050505050905090565b60006107a461079d610c6e565b8484610c79565b5060015b92915050565b600081600562010000816107c06112f9565b8160ff021916908315150217906107d56113bf565b50505060056002906107e56112f9565b906101000a900460ff169050919050565b600060026108026112f9565b905090565b60006108138383610da1565b9392505050565b6000600160056108286112f9565b906101000a900460ff16156108825760405162461bcd60e51b81526020600482015260136024820152722320a4a61d102330b4b634b733903a37b5b2b760691b60448201526064016040518091039061087f611354565b50505b6002600561088e6112f9565b906101000a900460ff16156108a557506000610813565b6108b0848484610db5565b949350505050565b60008060056108c56112f9565b906101000a900460ff16905090565b60006107a46108e1610c6e565b8461093985600160006108f2610c6e565b6001600160a01b03166001600160a01b031681526020019081526020016000206001600160a01b0389166000908152602091909152604090206109336112f9565b90610c06565b610c79565b6109488282610e3d565b5050565b60008160056101008161095d6112f9565b8160ff021916908315150217906109726113bf565b50505060056001906107e56112f9565b6001600160a01b03811660009081526020819052604081206107a86112f9565b600360056109ae6112f9565b906101000a900460ff1681565b600160056109ae6112f9565b60606004806109d46112f9565b600181600116156101000203166002900480601f016020809104026020016040519081016040528181529190602083018280610a0e6112f9565b600181600116156101000203166002900480156107865780601f10610a3a5761010080836107466112f9565b820191906000526020600020905b81610a516112f9565b81529060010190602001808311610a4857509395945050505050565b6109488282610f56565b60006107a4610a84610c6e565b8461093985604051606081016040526025808252611573602083013960016000610aac610c6e565b6001600160a01b03166001600160a01b031681526020019081526020016000206001600160a01b038a16600090815260209190915260409020610aed6112f9565b9190611076565b600060016005610b026112f9565b906101000a900460ff1615610b5c5760405162461bcd60e51b81526020600482015260136024820152722320a4a61d102330b4b634b733903a37b5b2b760691b604482015260640160405180910390610b59611354565b50505b60026005610b686112f9565b906101000a900460ff1615610b7f575060006107a8565b6108138383610da1565b6000816005630100000081610b9c6112f9565b8160ff02191690831515021790610bb16113bf565b50505060056003906107e56112f9565b6001600160a01b03821660009081526001602052604081206001600160a01b0383166000908152602091909152604090206108136112f9565b600260056109ae6112f9565b6000828201838110156108135760405162461bcd60e51b815260206004820152601b60248201527f536166654d6174683a206164646974696f6e206f766572666c6f770000000000604482015260640160405180910390610c65611354565b50509392505050565b60005a61080261140d565b6001600160a01b038316610cc75760405162461bcd60e51b815260040180806020018281038252602481526020018061154f6024913960400191505060405180910390610cc4611354565b50505b6001600160a01b038216610d155760405162461bcd60e51b81526004018080602001828103825260228152602001806114996022913960400191505060405180910390610d12611354565b50505b6001600160a01b038316600090815260016020528190604090206001600160a01b0384166000908152602091909152604090208190610d526113bf565b505050816001600160a01b0316836001600160a01b03167f8c5be1e5ebec7d5bd14f71427d1e84f3dd0314c0f7b2291e5b200ac8c7c3b9258360405190815260200160405180910390a3505050565b60006107a4610dae610c6e565b8484611116565b6000610dc2848484611116565b610e3384610dce610c6e565b610939856040516060810160405260288082526114e160208301396001600160a01b038a1660009081526001602052604090206000610e0b610c6e565b6001600160a01b03166001600160a01b03168152602001908152602001600020610aed6112f9565b5060019392505050565b6001600160a01b038216610ea05760405162461bcd60e51b815260206004820152601f60248201527f45524332303a206d696e7420746f20746865207a65726f206164647265737300604482015260640160405180910390610e9d611354565b50505b610eac600083836112b4565b610eba8160026109336112f9565b806002610ec56113bf565b5050506001600160a01b03821660009081526020819052610eee908290604090206109336112f9565b6001600160a01b03831660009081526020819052604090208190610f106113bf565b5050506001600160a01b03821660007fddf252ad1be2c89b69c2b068fc378daa952ba7f163c4a11628f55a4df523b3ef8360405190815260200160405180910390a35050565b6001600160a01b038216610fa45760405162461bcd60e51b81526004018080602001828103825260218152602001806115096021913960400191505060405180910390610fa1611354565b50505b610fb0826000836112b4565b610feb8160405160608101604052602280825261147760208301396001600160a01b0385166000908152602081905260409020610aed6112f9565b6001600160a01b0383166000908152602081905260409020819061100d6113bf565b50505061102481600261101e6112f9565b906112b9565b80600261102f6113bf565b5060009150506001600160a01b0383167fddf252ad1be2c89b69c2b068fc378daa952ba7f163c4a11628f55a4df523b3ef8360405190815260200160405180910390a35050565b6000818484111561110e5760405162461bcd60e51b81526004018080602001828103825283818151815260200191508051906020019080838360005b838110156110ca5780820151838201526020016110b2565b50505050905090810190601f1680156110f75780820380516001836020036101000a031916815260200191505b50925050506040518091039061110b611354565b50505b505050900390565b6001600160a01b0383166111645760405162461bcd60e51b815260040180806020018281038252602581526020018061152a6025913960400191505060405180910390611161611354565b50505b6001600160a01b0382166111b25760405162461bcd60e51b815260040180806020018281038252602381526020018061145460239139604001915050604051809103906111af611354565b50505b6111bd8383836112b4565b6111f8816040516060810160405260268082526114bb60208301396001600160a01b0386166000908152602081905260409020610aed6112f9565b6001600160a01b0384166000908152602081905260409020819061121a6113bf565b5050506001600160a01b03821660009081526020819052611243908290604090206109336112f9565b6001600160a01b038316600090815260208190526040902081906112656113bf565b505050816001600160a01b0316836001600160a01b03167fddf252ad1be2c89b69c2b068fc378daa952ba7f163c4a11628f55a4df523b3ef8360405190815260200160405180910390a3505050565b505050565b6000610813838360405160408082019052601e81527f536166654d6174683a207375627472616374696f6e206f766572666c6f7700006020820152611076565b6303daa959598160e01b8152836004820152602081602483336000905af158600e01573d6000803e3d6000fd5b3d6001141558600a015760016000f35b8051935060005b60408110156112b45760008282015260200161133d565b632a2a7adb598160e01b8152600481016020815285602082015260005b8681101561138c578086015182820160400152602001611371565b506020828760640184336000905af158600e01573d6000803e3d6000fd5b3d6001141558600a015760016000f35b505050565b6322bd64c0598160e01b8152836004820152846024820152600081604483336000905af158600e01573d6000803e3d6000fd5b3d6001141558600a015760016000f35b60008152602061133d565b6373509064598160e01b8152602081600483336000905af158600e01573d6000803e3d6000fd5b3d6001141558600a015760016000f35b8051600082529350602061133d56fe45524332303a207472616e7366657220746f20746865207a65726f206164647265737345524332303a206275726e20616d6f756e7420657863656564732062616c616e636545524332303a20617070726f766520746f20746865207a65726f206164647265737345524332303a207472616e7366657220616d6f756e7420657863656564732062616c616e636545524332303a207472616e7366657220616d6f756e74206578636565647320616c6c6f77616e636545524332303a206275726e2066726f6d20746865207a65726f206164647265737345524332303a207472616e736665722066726f6d20746865207a65726f206164647265737345524332303a20617070726f76652066726f6d20746865207a65726f206164647265737345524332303a2064656372656173656420616c6c6f77616e63652062656c6f77207a65726f",
  "linkReferences": {},
  "deployedLinkReferences": {}
}