{
  "_format": "hh-sol-artifact-1",
  "contractName": "ReentrancyGuard.ovm",
  "sourceName": "src.sol/ReentrancyGuard.sol",
  "abi": [
    {
      "inputs": [],
      "name": "lock",
      "outputs": [
        {
          "internalType": "uint256",
          "name": "",
          "type": "uint256"
        }
      ],
      "stateMutability": "view",
      "type": "function"
    }
  ],
  "bytecode": "0x60806040523480156100195760008061001661001f565b50505b5061008a565b632a2a7adb598160e01b8152600481016020815285602082015260005b8681101561005757808601518282016040015260200161003c565b506020828760640184336000905af158600e01573d6000803e3d6000fd5b3d6001141558600a015760016000f35b505050565b610141806100996000396000f3fe60806040523480156100195760008061001661006d565b50505b50600436106100345760003560e01c8063f83d08ba14610042575b60008061003f61006d565b50505b61004a610060565b6040516100579190610138565b60405180910390f35b600061006a6100d8565b81565b632a2a7adb598160e01b8152600481016020815285602082015260005b868110156100a557808601518282016040015260200161008a565b506020828760640184336000905af158600e01573d6000803e3d6000fd5b3d6001141558600a015760016000f35b505050565b6303daa959598160e01b8152836004820152602081602483336000905af158600e01573d6000803e3d6000fd5b3d6001141558600a015760016000f35b8051935060005b60408110156101335760008282015260200161011c565b505050565b9081526020019056",
  "linkReferences": {},
  "deployedLinkReferences": {}
}