{
  "_format": "hh-sol-artifact-1",
  "contractName": "ReentrancyGuard",
  "sourceName": "src.sol/ReentrancyGuard.sol",
  "abi": [
    {
      "inputs": [],
      "name": "lock",
      "outputs": [
        {
          "internalType": "uint256",
          "name": "",
          "type": "uint256"
        }
      ],
      "stateMutability": "view",
      "type": "function"
    }
  ],
  "bytecode": "0x6080604052348015600f57600080fd5b50608c8061001e6000396000f3fe6080604052348015600f57600080fd5b506004361060285760003560e01c8063f83d08ba14602d575b600080fd5b60336047565b604051603e9190604d565b60405180910390f35b60005481565b9081526020019056fea2646970667358221220a323dc0a02444a8a9c99fc90818b364500a26828666f6cedc7b0ec1a732356ea64736f6c63430007030033",
  "linkReferences": {},
  "deployedLinkReferences": {}
}