{
  "_format": "hh-sol-artifact-1",
  "contractName": "ChannelMastercopy.ovm",
  "sourceName": "src.sol/ChannelMastercopy.sol",
  "abi": [
    {
      "anonymous": false,
      "inputs": [
        {
          "indexed": false,
          "internalType": "address",
          "name": "assetId",
          "type": "address"
        },
        {
          "indexed": false,
          "internalType": "uint256",
          "name": "amount",
          "type": "uint256"
        }
      ],
      "name": "AliceDeposited",
      "type": "event"
    },
    {
      "anonymous": false,
      "inputs": [
        {
          "indexed": false,
          "internalType": "address",
          "name": "defunder",
          "type": "address"
        },
        {
          "components": [
            {
              "internalType": "address",
              "name": "channelAddress",
              "type": "address"
            },
            {
              "internalType": "address",
              "name": "alice",
              "type": "address"
            },
            {
              "internalType": "address",
              "name": "bob",
              "type": "address"
            },
            {
              "internalType": "address[]",
              "name": "assetIds",
              "type": "address[]"
            },
            {
              "components": [
                {
                  "internalType": "uint256[2]",
                  "name": "amount",
                  "type": "uint256[2]"
                },
                {
                  "internalType": "address payable[2]",
                  "name": "to",
                  "type": "address[2]"
                }
              ],
              "internalType": "struct Balance[]",
              "name": "balances",
              "type": "tuple[]"
            },
            {
              "internalType": "uint256[]",
              "name": "processedDepositsA",
              "type": "uint256[]"
            },
            {
              "internalType": "uint256[]",
              "name": "processedDepositsB",
              "type": "uint256[]"
            },
            {
              "internalType": "uint256[]",
              "name": "defundNonces",
              "type": "uint256[]"
            },
            {
              "internalType": "uint256",
              "name": "timeout",
              "type": "uint256"
            },
            {
              "internalType": "uint256",
              "name": "nonce",
              "type": "uint256"
            },
            {
              "internalType": "bytes32",
              "name": "merkleRoot",
              "type": "bytes32"
            }
          ],
          "indexed": false,
          "internalType": "struct ICMCAdjudicator.CoreChannelState",
          "name": "state",
          "type": "tuple"
        },
        {
          "components": [
            {
              "internalType": "bytes32",
              "name": "channelStateHash",
              "type": "bytes32"
            },
            {
              "internalType": "uint256",
              "name": "nonce",
              "type": "uint256"
            },
            {
              "internalType": "bytes32",
              "name": "merkleRoot",
              "type": "bytes32"
            },
            {
              "internalType": "uint256",
              "name": "consensusExpiry",
              "type": "uint256"
            },
            {
              "internalType": "uint256",
              "name": "defundExpiry",
              "type": "uint256"
            }
          ],
          "indexed": false,
          "internalType": "struct ICMCAdjudicator.ChannelDispute",
          "name": "dispute",
          "type": "tuple"
        },
        {
          "indexed": false,
          "internalType": "address[]",
          "name": "assetIds",
          "type": "address[]"
        }
      ],
      "name": "ChannelDefunded",
      "type": "event"
    },
    {
      "anonymous": false,
      "inputs": [
        {
          "indexed": false,
          "internalType": "address",
          "name": "disputer",
          "type": "address"
        },
        {
          "components": [
            {
              "internalType": "address",
              "name": "channelAddress",
              "type": "address"
            },
            {
              "internalType": "address",
              "name": "alice",
              "type": "address"
            },
            {
              "internalType": "address",
              "name": "bob",
              "type": "address"
            },
            {
              "internalType": "address[]",
              "name": "assetIds",
              "type": "address[]"
            },
            {
              "components": [
                {
                  "internalType": "uint256[2]",
                  "name": "amount",
                  "type": "uint256[2]"
                },
                {
                  "internalType": "address payable[2]",
                  "name": "to",
                  "type": "address[2]"
                }
              ],
              "internalType": "struct Balance[]",
              "name": "balances",
              "type": "tuple[]"
            },
            {
              "internalType": "uint256[]",
              "name": "processedDepositsA",
              "type": "uint256[]"
            },
            {
              "internalType": "uint256[]",
              "name": "processedDepositsB",
              "type": "uint256[]"
            },
            {
              "internalType": "uint256[]",
              "name": "defundNonces",
              "type": "uint256[]"
            },
            {
              "internalType": "uint256",
              "name": "timeout",
              "type": "uint256"
            },
            {
              "internalType": "uint256",
              "name": "nonce",
              "type": "uint256"
            },
            {
              "internalType": "bytes32",
              "name": "merkleRoot",
              "type": "bytes32"
            }
          ],
          "indexed": false,
          "internalType": "struct ICMCAdjudicator.CoreChannelState",
          "name": "state",
          "type": "tuple"
        },
        {
          "components": [
            {
              "internalType": "bytes32",
              "name": "channelStateHash",
              "type": "bytes32"
            },
            {
              "internalType": "uint256",
              "name": "nonce",
              "type": "uint256"
            },
            {
              "internalType": "bytes32",
              "name": "merkleRoot",
              "type": "bytes32"
            },
            {
              "internalType": "uint256",
              "name": "consensusExpiry",
              "type": "uint256"
            },
            {
              "internalType": "uint256",
              "name": "defundExpiry",
              "type": "uint256"
            }
          ],
          "indexed": false,
          "internalType": "struct ICMCAdjudicator.ChannelDispute",
          "name": "dispute",
          "type": "tuple"
        }
      ],
      "name": "ChannelDisputed",
      "type": "event"
    },
    {
      "anonymous": false,
      "inputs": [
        {
          "indexed": false,
          "internalType": "address",
          "name": "defunder",
          "type": "address"
        },
        {
          "components": [
            {
              "internalType": "address",
              "name": "channelAddress",
              "type": "address"
            },
            {
              "internalType": "bytes32",
              "name": "transferId",
              "type": "bytes32"
            },
            {
              "internalType": "address",
              "name": "transferDefinition",
              "type": "address"
            },
            {
              "internalType": "address",
              "name": "initiator",
              "type": "address"
            },
            {
              "internalType": "address",
              "name": "responder",
              "type": "address"
            },
            {
              "internalType": "address",
              "name": "assetId",
              "type": "address"
            },
            {
              "components": [
                {
                  "internalType": "uint256[2]",
                  "name": "amount",
                  "type": "uint256[2]"
                },
                {
                  "internalType": "address payable[2]",
                  "name": "to",
                  "type": "address[2]"
                }
              ],
              "internalType": "struct Balance",
              "name": "balance",
              "type": "tuple"
            },
            {
              "internalType": "uint256",
              "name": "transferTimeout",
              "type": "uint256"
            },
            {
              "internalType": "bytes32",
              "name": "initialStateHash",
              "type": "bytes32"
            }
          ],
          "indexed": false,
          "internalType": "struct ICMCAdjudicator.CoreTransferState",
          "name": "state",
          "type": "tuple"
        },
        {
          "components": [
            {
              "internalType": "bytes32",
              "name": "transferStateHash",
              "type": "bytes32"
            },
            {
              "internalType": "uint256",
              "name": "transferDisputeExpiry",
              "type": "uint256"
            },
            {
              "internalType": "bool",
              "name": "isDefunded",
              "type": "bool"
            }
          ],
          "indexed": false,
          "internalType": "struct ICMCAdjudicator.TransferDispute",
          "name": "dispute",
          "type": "tuple"
        },
        {
          "indexed": false,
          "internalType": "bytes",
          "name": "encodedInitialState",
          "type": "bytes"
        },
        {
          "indexed": false,
          "internalType": "bytes",
          "name": "encodedResolver",
          "type": "bytes"
        },
        {
          "components": [
            {
              "internalType": "uint256[2]",
              "name": "amount",
              "type": "uint256[2]"
            },
            {
              "internalType": "address payable[2]",
              "name": "to",
              "type": "address[2]"
            }
          ],
          "indexed": false,
          "internalType": "struct Balance",
          "name": "balance",
          "type": "tuple"
        }
      ],
      "name": "TransferDefunded",
      "type": "event"
    },
    {
      "anonymous": false,
      "inputs": [
        {
          "indexed": false,
          "internalType": "address",
          "name": "disputer",
          "type": "address"
        },
        {
          "components": [
            {
              "internalType": "address",
              "name": "channelAddress",
              "type": "address"
            },
            {
              "internalType": "bytes32",
              "name": "transferId",
              "type": "bytes32"
            },
            {
              "internalType": "address",
              "name": "transferDefinition",
              "type": "address"
            },
            {
              "internalType": "address",
              "name": "initiator",
              "type": "address"
            },
            {
              "internalType": "address",
              "name": "responder",
              "type": "address"
            },
            {
              "internalType": "address",
              "name": "assetId",
              "type": "address"
            },
            {
              "components": [
                {
                  "internalType": "uint256[2]",
                  "name": "amount",
                  "type": "uint256[2]"
                },
                {
                  "internalType": "address payable[2]",
                  "name": "to",
                  "type": "address[2]"
                }
              ],
              "internalType": "struct Balance",
              "name": "balance",
              "type": "tuple"
            },
            {
              "internalType": "uint256",
              "name": "transferTimeout",
              "type": "uint256"
            },
            {
              "internalType": "bytes32",
              "name": "initialStateHash",
              "type": "bytes32"
            }
          ],
          "indexed": false,
          "internalType": "struct ICMCAdjudicator.CoreTransferState",
          "name": "state",
          "type": "tuple"
        },
        {
          "components": [
            {
              "internalType": "bytes32",
              "name": "transferStateHash",
              "type": "bytes32"
            },
            {
              "internalType": "uint256",
              "name": "transferDisputeExpiry",
              "type": "uint256"
            },
            {
              "internalType": "bool",
              "name": "isDefunded",
              "type": "bool"
            }
          ],
          "indexed": false,
          "internalType": "struct ICMCAdjudicator.TransferDispute",
          "name": "dispute",
          "type": "tuple"
        }
      ],
      "name": "TransferDisputed",
      "type": "event"
    },
    {
      "inputs": [
        {
          "components": [
            {
              "internalType": "address",
              "name": "channelAddress",
              "type": "address"
            },
            {
              "internalType": "address",
              "name": "alice",
              "type": "address"
            },
            {
              "internalType": "address",
              "name": "bob",
              "type": "address"
            },
            {
              "internalType": "address[]",
              "name": "assetIds",
              "type": "address[]"
            },
            {
              "components": [
                {
                  "internalType": "uint256[2]",
                  "name": "amount",
                  "type": "uint256[2]"
                },
                {
                  "internalType": "address payable[2]",
                  "name": "to",
                  "type": "address[2]"
                }
              ],
              "internalType": "struct Balance[]",
              "name": "balances",
              "type": "tuple[]"
            },
            {
              "internalType": "uint256[]",
              "name": "processedDepositsA",
              "type": "uint256[]"
            },
            {
              "internalType": "uint256[]",
              "name": "processedDepositsB",
              "type": "uint256[]"
            },
            {
              "internalType": "uint256[]",
              "name": "defundNonces",
              "type": "uint256[]"
            },
            {
              "internalType": "uint256",
              "name": "timeout",
              "type": "uint256"
            },
            {
              "internalType": "uint256",
              "name": "nonce",
              "type": "uint256"
            },
            {
              "internalType": "bytes32",
              "name": "merkleRoot",
              "type": "bytes32"
            }
          ],
          "internalType": "struct ICMCAdjudicator.CoreChannelState",
          "name": "ccs",
          "type": "tuple"
        },
        {
          "internalType": "address[]",
          "name": "assetIds",
          "type": "address[]"
        },
        {
          "internalType": "uint256[]",
          "name": "indices",
          "type": "uint256[]"
        }
      ],
      "name": "defundChannel",
      "outputs": [],
      "stateMutability": "nonpayable",
      "type": "function"
    },
    {
      "inputs": [
        {
          "components": [
            {
              "internalType": "address",
              "name": "channelAddress",
              "type": "address"
            },
            {
              "internalType": "bytes32",
              "name": "transferId",
              "type": "bytes32"
            },
            {
              "internalType": "address",
              "name": "transferDefinition",
              "type": "address"
            },
            {
              "internalType": "address",
              "name": "initiator",
              "type": "address"
            },
            {
              "internalType": "address",
              "name": "responder",
              "type": "address"
            },
            {
              "internalType": "address",
              "name": "assetId",
              "type": "address"
            },
            {
              "components": [
                {
                  "internalType": "uint256[2]",
                  "name": "amount",
                  "type": "uint256[2]"
                },
                {
                  "internalType": "address payable[2]",
                  "name": "to",
                  "type": "address[2]"
                }
              ],
              "internalType": "struct Balance",
              "name": "balance",
              "type": "tuple"
            },
            {
              "internalType": "uint256",
              "name": "transferTimeout",
              "type": "uint256"
            },
            {
              "internalType": "bytes32",
              "name": "initialStateHash",
              "type": "bytes32"
            }
          ],
          "internalType": "struct ICMCAdjudicator.CoreTransferState",
          "name": "cts",
          "type": "tuple"
        },
        {
          "internalType": "bytes",
          "name": "encodedInitialTransferState",
          "type": "bytes"
        },
        {
          "internalType": "bytes",
          "name": "encodedTransferResolver",
          "type": "bytes"
        },
        {
          "internalType": "bytes",
          "name": "responderSignature",
          "type": "bytes"
        }
      ],
      "name": "defundTransfer",
      "outputs": [],
      "stateMutability": "nonpayable",
      "type": "function"
    },
    {
      "inputs": [
        {
          "internalType": "address",
          "name": "assetId",
          "type": "address"
        },
        {
          "internalType": "uint256",
          "name": "amount",
          "type": "uint256"
        }
      ],
      "name": "depositAlice",
      "outputs": [],
      "stateMutability": "payable",
      "type": "function"
    },
    {
      "inputs": [
        {
          "components": [
            {
              "internalType": "address",
              "name": "channelAddress",
              "type": "address"
            },
            {
              "internalType": "address",
              "name": "alice",
              "type": "address"
            },
            {
              "internalType": "address",
              "name": "bob",
              "type": "address"
            },
            {
              "internalType": "address[]",
              "name": "assetIds",
              "type": "address[]"
            },
            {
              "components": [
                {
                  "internalType": "uint256[2]",
                  "name": "amount",
                  "type": "uint256[2]"
                },
                {
                  "internalType": "address payable[2]",
                  "name": "to",
                  "type": "address[2]"
                }
              ],
              "internalType": "struct Balance[]",
              "name": "balances",
              "type": "tuple[]"
            },
            {
              "internalType": "uint256[]",
              "name": "processedDepositsA",
              "type": "uint256[]"
            },
            {
              "internalType": "uint256[]",
              "name": "processedDepositsB",
              "type": "uint256[]"
            },
            {
              "internalType": "uint256[]",
              "name": "defundNonces",
              "type": "uint256[]"
            },
            {
              "internalType": "uint256",
              "name": "timeout",
              "type": "uint256"
            },
            {
              "internalType": "uint256",
              "name": "nonce",
              "type": "uint256"
            },
            {
              "internalType": "bytes32",
              "name": "merkleRoot",
              "type": "bytes32"
            }
          ],
          "internalType": "struct ICMCAdjudicator.CoreChannelState",
          "name": "ccs",
          "type": "tuple"
        },
        {
          "internalType": "bytes",
          "name": "aliceSignature",
          "type": "bytes"
        },
        {
          "internalType": "bytes",
          "name": "bobSignature",
          "type": "bytes"
        }
      ],
      "name": "disputeChannel",
      "outputs": [],
      "stateMutability": "nonpayable",
      "type": "function"
    },
    {
      "inputs": [
        {
          "components": [
            {
              "internalType": "address",
              "name": "channelAddress",
              "type": "address"
            },
            {
              "internalType": "bytes32",
              "name": "transferId",
              "type": "bytes32"
            },
            {
              "internalType": "address",
              "name": "transferDefinition",
              "type": "address"
            },
            {
              "internalType": "address",
              "name": "initiator",
              "type": "address"
            },
            {
              "internalType": "address",
              "name": "responder",
              "type": "address"
            },
            {
              "internalType": "address",
              "name": "assetId",
              "type": "address"
            },
            {
              "components": [
                {
                  "internalType": "uint256[2]",
                  "name": "amount",
                  "type": "uint256[2]"
                },
                {
                  "internalType": "address payable[2]",
                  "name": "to",
                  "type": "address[2]"
                }
              ],
              "internalType": "struct Balance",
              "name": "balance",
              "type": "tuple"
            },
            {
              "internalType": "uint256",
              "name": "transferTimeout",
              "type": "uint256"
            },
            {
              "internalType": "bytes32",
              "name": "initialStateHash",
              "type": "bytes32"
            }
          ],
          "internalType": "struct ICMCAdjudicator.CoreTransferState",
          "name": "cts",
          "type": "tuple"
        },
        {
          "internalType": "bytes32[]",
          "name": "merkleProofData",
          "type": "bytes32[]"
        }
      ],
      "name": "disputeTransfer",
      "outputs": [],
      "stateMutability": "nonpayable",
      "type": "function"
    },
    {
      "inputs": [
        {
          "internalType": "address",
          "name": "assetId",
          "type": "address"
        },
        {
          "internalType": "address",
          "name": "owner",
          "type": "address"
        },
        {
          "internalType": "address payable",
          "name": "recipient",
          "type": "address"
        }
      ],
      "name": "exit",
      "outputs": [],
      "stateMutability": "nonpayable",
      "type": "function"
    },
    {
      "inputs": [],
      "name": "getAlice",
      "outputs": [
        {
          "internalType": "address",
          "name": "",
          "type": "address"
        }
      ],
      "stateMutability": "view",
      "type": "function"
    },
    {
      "inputs": [],
      "name": "getBob",
      "outputs": [
        {
          "internalType": "address",
          "name": "",
          "type": "address"
        }
      ],
      "stateMutability": "view",
      "type": "function"
    },
    {
      "inputs": [],
      "name": "getChannelDispute",
      "outputs": [
        {
          "components": [
            {
              "internalType": "bytes32",
              "name": "channelStateHash",
              "type": "bytes32"
            },
            {
              "internalType": "uint256",
              "name": "nonce",
              "type": "uint256"
            },
            {
              "internalType": "bytes32",
              "name": "merkleRoot",
              "type": "bytes32"
            },
            {
              "internalType": "uint256",
              "name": "consensusExpiry",
              "type": "uint256"
            },
            {
              "internalType": "uint256",
              "name": "defundExpiry",
              "type": "uint256"
            }
          ],
          "internalType": "struct ICMCAdjudicator.ChannelDispute",
          "name": "",
          "type": "tuple"
        }
      ],
      "stateMutability": "view",
      "type": "function"
    },
    {
      "inputs": [
        {
          "internalType": "address",
          "name": "assetId",
          "type": "address"
        }
      ],
      "name": "getDefundNonce",
      "outputs": [
        {
          "internalType": "uint256",
          "name": "",
          "type": "uint256"
        }
      ],
      "stateMutability": "view",
      "type": "function"
    },
    {
      "inputs": [
        {
          "internalType": "address",
          "name": "assetId",
          "type": "address"
        },
        {
          "internalType": "address",
          "name": "owner",
          "type": "address"
        }
      ],
      "name": "getExitableAmount",
      "outputs": [
        {
          "internalType": "uint256",
          "name": "",
          "type": "uint256"
        }
      ],
      "stateMutability": "view",
      "type": "function"
    },
    {
      "inputs": [
        {
          "internalType": "address",
          "name": "assetId",
          "type": "address"
        }
      ],
      "name": "getTotalDepositsAlice",
      "outputs": [
        {
          "internalType": "uint256",
          "name": "",
          "type": "uint256"
        }
      ],
      "stateMutability": "view",
      "type": "function"
    },
    {
      "inputs": [
        {
          "internalType": "address",
          "name": "assetId",
          "type": "address"
        }
      ],
      "name": "getTotalDepositsBob",
      "outputs": [
        {
          "internalType": "uint256",
          "name": "",
          "type": "uint256"
        }
      ],
      "stateMutability": "view",
      "type": "function"
    },
    {
      "inputs": [
        {
          "internalType": "address",
          "name": "assetId",
          "type": "address"
        }
      ],
      "name": "getTotalTransferred",
      "outputs": [
        {
          "internalType": "uint256",
          "name": "",
          "type": "uint256"
        }
      ],
      "stateMutability": "view",
      "type": "function"
    },
    {
      "inputs": [
        {
          "internalType": "bytes32",
          "name": "transferId",
          "type": "bytes32"
        }
      ],
      "name": "getTransferDispute",
      "outputs": [
        {
          "components": [
            {
              "internalType": "bytes32",
              "name": "transferStateHash",
              "type": "bytes32"
            },
            {
              "internalType": "uint256",
              "name": "transferDisputeExpiry",
              "type": "uint256"
            },
            {
              "internalType": "bool",
              "name": "isDefunded",
              "type": "bool"
            }
          ],
          "internalType": "struct ICMCAdjudicator.TransferDispute",
          "name": "",
          "type": "tuple"
        }
      ],
      "stateMutability": "view",
      "type": "function"
    },
    {
      "inputs": [
        {
          "components": [
            {
              "internalType": "address",
              "name": "channelAddress",
              "type": "address"
            },
            {
              "internalType": "address",
              "name": "assetId",
              "type": "address"
            },
            {
              "internalType": "address payable",
              "name": "recipient",
              "type": "address"
            },
            {
              "internalType": "uint256",
              "name": "amount",
              "type": "uint256"
            },
            {
              "internalType": "uint256",
              "name": "nonce",
              "type": "uint256"
            },
            {
              "internalType": "address",
              "name": "callTo",
              "type": "address"
            },
            {
              "internalType": "bytes",
              "name": "callData",
              "type": "bytes"
            }
          ],
          "internalType": "struct WithdrawData",
          "name": "wd",
          "type": "tuple"
        }
      ],
      "name": "getWithdrawalTransactionRecord",
      "outputs": [
        {
          "internalType": "bool",
          "name": "",
          "type": "bool"
        }
      ],
      "stateMutability": "view",
      "type": "function"
    },
    {
      "inputs": [],
      "name": "lock",
      "outputs": [
        {
          "internalType": "uint256",
          "name": "",
          "type": "uint256"
        }
      ],
      "stateMutability": "view",
      "type": "function"
    },
    {
      "inputs": [
        {
          "internalType": "address",
          "name": "_alice",
          "type": "address"
        },
        {
          "internalType": "address",
          "name": "_bob",
          "type": "address"
        }
      ],
      "name": "setup",
      "outputs": [],
      "stateMutability": "nonpayable",
      "type": "function"
    },
    {
      "inputs": [
        {
          "components": [
            {
              "internalType": "address",
              "name": "channelAddress",
              "type": "address"
            },
            {
              "internalType": "address",
              "name": "assetId",
              "type": "address"
            },
            {
              "internalType": "address payable",
              "name": "recipient",
              "type": "address"
            },
            {
              "internalType": "uint256",
              "name": "amount",
              "type": "uint256"
            },
            {
              "internalType": "uint256",
              "name": "nonce",
              "type": "uint256"
            },
            {
              "internalType": "address",
              "name": "callTo",
              "type": "address"
            },
            {
              "internalType": "bytes",
              "name": "callData",
              "type": "bytes"
            }
          ],
          "internalType": "struct WithdrawData",
          "name": "wd",
          "type": "tuple"
        },
        {
          "internalType": "bytes",
          "name": "aliceSignature",
          "type": "bytes"
        },
        {
          "internalType": "bytes",
          "name": "bobSignature",
          "type": "bytes"
        }
      ],
      "name": "withdraw",
      "outputs": [],
      "stateMutability": "nonpayable",
      "type": "function"
    },
    {
      "stateMutability": "payable",
      "type": "receive"
    }
  ],
  "bytecode": "0x60a06040523480156200001c57600080620000196200008e565b50505b505a63996d79a5598160e01b8152602081600483336000905af158600e01573d6000803e3d6000fd5b3d6001141558600a015760016000f35b8051925060005b604081101562000075576000828201526020016200005c565b50505060601b6001600160601b031916608052620000fb565b632a2a7adb598160e01b8152600481016020815285602082015260005b86811015620000c8578086015182820160400152602001620000ab565b506020828760640184336000905af158600e01573d6000803e3d6000fd5b3d6001141558600a015760016000f35b505050565b60805160601c615b55620001736000398061011f528061055c5280610b055280610c1d5280610fdf52806111ff52806113565280611a115280611c995280611f7b528061220f52806123175280612447528061254752806128ed5280612a065280612b1f5280612c585280612d635250615b556000f3fe6080604052600436106101185760003560e01c80636f33389e116100a0578063e7283a8d11610064578063e7283a8d146104a1578063e9852569146104ca578063eeb30fea146104f3578063f19eb10e14610511578063f83d08ba1461053c57610237565b80636f33389e146103ba5780638c048fc2146103f0578063b081e9c814610426578063c60939be1461044f578063cefa51221461047857610237565b80633ff0da16116100e75780633ff0da16146102f65780634d3fcbda1461032c5780635bc9d96d146103555780635fd334d91461037e578063635ae901146103a757610237565b8063072f25fd14610245578063241686a0146102705780632c889aa1146102a45780632d34ba79146102cd57610237565b36610237577f00000000000000000000000000000000000000000000000000000000000000006001600160a01b03165a63996d79a5598160e01b8152602081600483336000905af158600e01573d6000803e3d6000fd5b3d6001141558600a015760016000f35b8051925060005b604081101561019d57600082820152602001610186565b5050506001600160a01b031614156101d95760405162461bcd60e51b81526004016101c790615771565b604051809103906101d6613c93565b50505b600160006101e5613cfe565b146102145760405162461bcd60e51b81526004016102029061552d565b60405180910390610211613c93565b50505b6002806000610221613d59565b505050600160008190610232613d59565b505050005b600080610242613c93565b50505b34801561025a57600080610257613c93565b50505b5061026e610269366004614785565b61055a565b005b34801561028557600080610282613c93565b50505b5061028e610b01565b60405161029b9190614df4565b60405180910390f35b3480156102b9576000806102b6613c93565b50505b5061026e6102c8366004614898565b610c1b565b3480156102e2576000806102df613c93565b50505b5061026e6102f136600461434b565b610fdd565b34801561030b57600080610308613c93565b50505b5061031f61031a366004614442565b6111f5565b60405161029b9190615888565b3480156103415760008061033e613c93565b50505b5061026e6103503660046145c9565b611354565b34801561036a57600080610367613c93565b50505b5061026e61037936600461438c565b611a0f565b34801561039357600080610390613c93565b50505b5061026e6103a2366004614720565b611c97565b61026e6103b53660046143df565b611f79565b3480156103cf576000806103cc613c93565b50505b506103e36103de366004614326565b61220b565b60405161029b91906158e1565b34801561040557600080610402613c93565b50505b50610419610414366004614854565b612313565b60405161029b9190614fc0565b34801561043b57600080610438613c93565b50505b506103e361044a366004614326565b612443565b34801561046457600080610461613c93565b50505b5061026e61047336600461467d565b612545565b34801561048d5760008061048a613c93565b50505b506103e361049c366004614326565b6128e9565b3480156104b6576000806104b3613c93565b50505b506103e36104c5366004614326565b612a02565b3480156104df576000806104dc613c93565b50505b506103e36104ee36600461434b565b612b1b565b34801561050857600080610505613c93565b50505b5061028e612c54565b34801561052657600080610523613c93565b50505b5061052f612d59565b60405161029b9190615830565b3480156105515760008061054e613c93565b50505b506103e3612ebb565b7f00000000000000000000000000000000000000000000000000000000000000006001600160a01b03165a63996d79a5598160e01b8152602081600483336000905af158600e01573d6000803e3d6000fd5b3d6001141558600a015760016000f35b8051925060005b60408110156105da576000828201526020016105c3565b5050506001600160a01b031614156106165760405162461bcd60e51b815260040161060490615771565b60405180910390610613613c93565b50505b60016000610622613cfe565b146106515760405162461bcd60e51b815260040161063f9061552d565b6040518091039061064e613c93565b50505b600280600061065e613d59565b505050865a63996d79a5598160e01b8152602081600483336000905af158600e01573d6000803e3d6000fd5b3d6001141558600a015760016000f35b8051925060005b60408110156106b8576000828201526020016106a1565b5050506001600160a01b03166106d16020830183614326565b6001600160a01b0316146107095760405162461bcd60e51b81526004016106f79061514f565b60405180910390610706613c93565b50505b6020808901356000908152600d9091526040812090508060010161072b613cfe565b6107595760405162461bcd60e51b8152600401610747906154bd565b60405180910390610756613c93565b50505b80610762613cfe565b61076b8a612ec8565b1461079a5760405162461bcd60e51b8152600401610788906157dd565b60405180910390610797613c93565b50505b6000600282016107a8613cfe565b906101000a900460ff16156107e15760405162461bcd60e51b81526004016107cf90615260565b604051809103906107de613c93565b50505b60016002820181816107f1613cfe565b8160ff02191690831515021790610806613d59565b505050610811613da7565b8160010161081d613cfe565b5a610826613dcc565b1015610a69578961016001358989604051610842929190614d94565b6040518091039020146108795760405162461bcd60e51b8152600401610867906157dd565b60405180910390610876613c93565b50505b61088960a08b0160808c01614326565b6001600160a01b03165a61089b613e12565b6001600160a01b03161480610901575061090185858080601f01602080910402602001604051908101604052818152929190602084018383808284376000920191909152506108f49250505060a08d0160808e01614326565b6101608d01359190612ef7565b61092f5760405162461bcd60e51b815260040161091d9061573c565b6040518091039061092c613c93565b50505b600061094160608c0160408d01614326565b9050806001600160a01b0316638ef98a7e8c60c0016040516020016109669190615822565b6040516020818303038152906040528c8c8c8c6040518663ffffffff1660e01b8152600401610999959493929190614fcb565b60806040518083038186806109ac613e58565b1580156109c1576000806109be613c93565b50505b505a6109cb613ea4565b50505050501580156109ea573d6000803e3d60006109e7613c93565b50505b50505050604051601f3d908101601f19168201604052610a0d9190810190614521565b9150610a2160c08c013560e08d0135612f1f565b610a3383516020015184515190612f1f565b1115610a635760405162461bcd60e51b8152600401610a51906157a8565b60405180910390610a60613c93565b50505b50610a7e565b610a7b368b90038b0160c08c01614463565b90505b610a97610a9160c08c0160a08d01614326565b82612f87565b7f93f6b8187e81bd7d01ce234c043cd6ae4feda2e2ae91daae0962c68a656da8c75a610ac1613e12565b8b848c8c8c8c88604051610adc989796959493929190614eba565b60405180910390a1505050600160008190610af5613d59565b50505050505050505050565b60007f00000000000000000000000000000000000000000000000000000000000000006001600160a01b03165a63996d79a5598160e01b8152602081600483336000905af158600e01573d6000803e3d6000fd5b3d6001141558600a015760016000f35b8051925060005b6040811015610b8357600082820152602001610b6c565b5050506001600160a01b03161415610bbf5760405162461bcd60e51b8152600401610bad90615771565b60405180910390610bbc613c93565b50505b60016000610bcb613cfe565b14610bfa5760405162461bcd60e51b8152600401610be89061552d565b60405180910390610bf7613c93565b50505b60006002610c06613cfe565b906101000a90046001600160a01b0316905090565b7f00000000000000000000000000000000000000000000000000000000000000006001600160a01b03165a63996d79a5598160e01b8152602081600483336000905af158600e01573d6000803e3d6000fd5b3d6001141558600a015760016000f35b8051925060005b6040811015610c9b57600082820152602001610c84565b5050506001600160a01b03161415610cd75760405162461bcd60e51b8152600401610cc590615771565b60405180910390610cd4613c93565b50505b60016000610ce3613cfe565b14610d125760405162461bcd60e51b8152600401610d009061552d565b60405180910390610d0f613c93565b50505b6002806000610d1f613d59565b505050845a63996d79a5598160e01b8152602081600483336000905af158600e01573d6000803e3d6000fd5b3d6001141558600a015760016000f35b8051925060005b6040811015610d7957600082820152602001610d62565b5050506001600160a01b0316610d926020830183614326565b6001600160a01b031614610dca5760405162461bcd60e51b8152600401610db8906150b5565b60405180910390610dc7613c93565b50505b6000610dd587612fdc565b9050610de48187878787612fef565b6000818152600660205260409020600090610dfd613cfe565b906101000a900460ff1615610e365760405162461bcd60e51b8152600401610e249061540e565b60405180910390610e33613c93565b50505b6000818152600660205260019060409020600181610e52613cfe565b8160ff02191690831515021790610e67613d59565b5060009150610e8b9050610e8160408a0160208b01614326565b896060013561311e565b90506000811180610eb557506000610ea960c08a0160a08b01614326565b6001600160a01b031614155b610ee35760405162461bcd60e51b8152600401610ed1906150ec565b60405180910390610ee0613c93565b50505b610f0c610ef660408a0160208b01614326565b610f0660608b0160408c01614326565b83613132565b6000610f1e60c08a0160a08b01614326565b6001600160a01b031614610fc257610f3c60c0890160a08a01614326565b6001600160a01b031663f50cd32c89836040518363ffffffff1660e01b8152600401610f699291906158bf565b60006040518083038160008780610f7e613e58565b158015610f9357600080610f90613c93565b50505b505a610f9d613f8f565b505050505050158015610fbd573d6000803e3d6000610fba613c93565b50505b505050505b505050600160008190610fd3613d59565b5050505050505050565b7f00000000000000000000000000000000000000000000000000000000000000006001600160a01b03165a63996d79a5598160e01b8152602081600483336000905af158600e01573d6000803e3d6000fd5b3d6001141558600a015760016000f35b8051925060005b604081101561105d57600082820152602001611046565b5050506001600160a01b031614156110995760405162461bcd60e51b815260040161108790615771565b60405180910390611096613c93565b50505b60008060016110a6613cfe565b906101000a90046001600160a01b03166001600160a01b0316146110ee5760405162461bcd60e51b81526004016110dc90615688565b604051809103906110eb613c93565b50505b6001600160a01b0382161580159061110e57506001600160a01b03811615155b61113c5760405162461bcd60e51b815260040161112a90615396565b60405180910390611139613c93565b50505b806001600160a01b0316826001600160a01b031614156111805760405162461bcd60e51b815260040161116e90615184565b6040518091039061117d613c93565b50505b611188613172565b8160018080611195613cfe565b816001600160a01b0302191690836001600160a01b03160217906111b7613d59565b50505080600260006101000a816111cc613cfe565b816001600160a01b0302191690836001600160a01b03160217906111ee613d59565b5050505050565b6111fd614055565b7f00000000000000000000000000000000000000000000000000000000000000006001600160a01b03165a63996d79a5598160e01b8152602081600483336000905af158600e01573d6000803e3d6000fd5b3d6001141558600a015760016000f35b8051925060005b604081101561127d57600082820152602001611266565b5050506001600160a01b031614156112b95760405162461bcd60e51b81526004016112a790615771565b604051809103906112b6613c93565b50505b600160006112c5613cfe565b146112f45760405162461bcd60e51b81526004016112e29061552d565b604051809103906112f1613c93565b50505b6000828152600d6020526040902060405160608101604052908181611317613cfe565b815260200160018201611328613cfe565b815260200160006002830161133b613cfe565b60ff6101009290920a900416151590525090505b919050565b7f00000000000000000000000000000000000000000000000000000000000000006001600160a01b03165a63996d79a5598160e01b8152602081600483336000905af158600e01573d6000803e3d6000fd5b3d6001141558600a015760016000f35b8051925060005b60408110156113d4576000828201526020016113bd565b5050506001600160a01b031614156114105760405162461bcd60e51b81526004016113fe90615771565b6040518091039061140d613c93565b50505b6001600061141c613cfe565b1461144b5760405162461bcd60e51b81526004016114399061552d565b60405180910390611448613c93565b50505b6002806000611458613d59565b505050845a63996d79a5598160e01b8152602081600483336000905af158600e01573d6000803e3d6000fd5b3d6001141558600a015760016000f35b8051925060005b60408110156114b25760008282015260200161149b565b5050506001600160a01b03166114cb6020830183614326565b6001600160a01b03161480156115155750600060016114e8613cfe565b6001600160a01b036101009290920a90041661150a6040830160208401614326565b6001600160a01b0316145b8015611555575060006002611528613cfe565b6001600160a01b036101009290920a90041661154a6060830160408401614326565b6001600160a01b0316145b6115835760405162461bcd60e51b8152600401611571906152e0565b60405180910390611580613c93565b50505b836115b25760405162461bcd60e51b81526004016115a0906152a9565b604051809103906115af613c93565b50505b838211156115e45760405162461bcd60e51b81526004016115d2906156b8565b604051809103906115e1613c93565b50505b60076115ee613cfe565b6115f78761317f565b146116265760405162461bcd60e51b81526004016116149061503a565b60405180910390611623613c93565b50505b61162e613192565b61165c5760405162461bcd60e51b815260040161164a90615118565b60405180910390611659613c93565b50505b60005b848110156119b857600086868381811061167557fe5b905060200201602081019061168a9190614326565b9050600084831015611721578585848181106116a257fe5b9050602002013590508880606001906116bb91906158ea565b828181106116c557fe5b90506020020160208101906116da9190614326565b6001600160a01b0316826001600160a01b03161461171c5760405162461bcd60e51b815260040161170a9061507e565b60405180910390611719613c93565b50505b61178d565b5060005b61173260608a018a6158ea565b905081101561178d5761174860608a018a6158ea565b8281811061175257fe5b90506020020160208101906117679190614326565b6001600160a01b0316826001600160a01b031614156117855761178d565b600101611725565b600061179c60608b018b6158ea565b905082146117c7576117b160e08b018b6158ea565b838181106117bb57fe5b905060200201356117ca565b60015b6001600160a01b0384166000908152600c6020529091508190604090206117ef613cfe565b1061181e5760405162461bcd60e51b815260040161180c90615317565b6040518091039061181b613c93565b50505b6001600160a01b0383166000908152600c6020528190604090208190611842613d59565b505050506000611851836131ca565b9050600061185e846131ea565b9050611868613da7565b61187560608d018d6158ea565b90508414156118ff576040518060400160405280604051806040016040528086815260200185815250815260200160405180604001604052808f60200160208101906118c19190614326565b6001600160a01b03166001600160a01b031681526020018f60400160208101906118eb9190614326565b6001600160a01b031690529052905061199d565b61190c60808d018d615948565b8581811061191657fe5b90506080020180360381019061192c9190614463565b905061196461193e60a08e018e6158ea565b8681811061194857fe5b905060200201358403826000015160005b60200201519061323b565b81515261199661197760c08e018e6158ea565b8681811061198157fe5b90506020020135830382600001516001611959565b8151602001525b6119a78582612f87565b50506001909301925061165f915050565b507f49cbb28c69ffbdb6b3893f83d64557662a5dd43ffd6045b6a5180ab0a027f2245a6119e3613e12565b87600788886040516119f9959493929190614e3b565b60405180910390a1506001806000610fd3613d59565b7f00000000000000000000000000000000000000000000000000000000000000006001600160a01b03165a63996d79a5598160e01b8152602081600483336000905af158600e01573d6000803e3d6000fd5b3d6001141558600a015760016000f35b8051925060005b6040811015611a8f57600082820152602001611a78565b5050506001600160a01b03161415611acb5760405162461bcd60e51b8152600401611ab990615771565b60405180910390611ac8613c93565b50505b60016000611ad7613cfe565b14611b065760405162461bcd60e51b8152600401611af49061552d565b60405180910390611b03613c93565b50505b6002806000611b13613d59565b505050816001600160a01b03165a611b29613e12565b6001600160a01b03161480611b4f5750806001600160a01b0316826001600160a01b0316145b611b7d5760405162461bcd60e51b8152600401611b6b90615651565b60405180910390611b7a613c93565b50505b6001600160a01b03831660009081526004602052611bbf84604083206001600160a01b038616600090815260209190915260409020611bba613cfe565b61311e565b905060008111611bf35760405162461bcd60e51b8152600401611be1906155a8565b60405180910390611bf0613c93565b50505b6001600160a01b03841660009081526004602052611c38908290604090206001600160a01b038616600090815260209190915260409020611c32613cfe565b90613254565b6001600160a01b03851660009081526004602052604090206001600160a01b0385166000908152602091909152604090208190611c73613d59565b505050611c81848383613132565b506001806000611c8f613d59565b505050505050565b7f00000000000000000000000000000000000000000000000000000000000000006001600160a01b03165a63996d79a5598160e01b8152602081600483336000905af158600e01573d6000803e3d6000fd5b3d6001141558600a015760016000f35b8051925060005b6040811015611d1757600082820152602001611d00565b5050506001600160a01b03161415611d535760405162461bcd60e51b8152600401611d4190615771565b60405180910390611d50613c93565b50505b60016000611d5f613cfe565b14611d8e5760405162461bcd60e51b8152600401611d7c9061552d565b60405180910390611d8b613c93565b50505b6002806000611d9b613d59565b505050825a63996d79a5598160e01b8152602081600483336000905af158600e01573d6000803e3d6000fd5b3d6001141558600a015760016000f35b8051925060005b6040811015611df557600082820152602001611dde565b5050506001600160a01b0316611e0e6020830183614326565b6001600160a01b031614611e465760405162461bcd60e51b8152600401611e349061514f565b60405180910390611e43613c93565b50505b6000611e5185612ec8565b9050611e6884846009611e62613cfe565b84613294565b611e70613192565b611e9e5760405162461bcd60e51b8152600401611e8c90615118565b60405180910390611e9b613c93565b50505b6020808601356000908152600d90915260408120905080600101611ec0613cfe565b15611eef5760405162461bcd60e51b8152600401611edd90615608565b60405180910390611eec613c93565b50505b818082611efa613d59565b505050611f158661014001355a611f0f613dcc565b90612f1f565b8060018301611f22613d59565b5050507f87b348a76dd4ef431d45553a1d8c5934db960e64201a5776ab64e3eb397f4cfa5a611f4f613e12565b8783604051611f6093929190614e8e565b60405180910390a1505050600160008190611c8f613d59565b7f00000000000000000000000000000000000000000000000000000000000000006001600160a01b03165a63996d79a5598160e01b8152602081600483336000905af158600e01573d6000803e3d6000fd5b3d6001141558600a015760016000f35b8051925060005b6040811015611ff957600082820152602001611fe2565b5050506001600160a01b031614156120355760405162461bcd60e51b815260040161202390615771565b60405180910390612032613c93565b50505b60016000612041613cfe565b146120705760405162461bcd60e51b815260040161205e9061552d565b6040518091039061206d613c93565b50505b600280600061207d613d59565b50505061208982613305565b156120c4578034146120bf5760405162461bcd60e51b81526004016120ad90615445565b604051809103906120bc613c93565b50505b61218e565b34156120f45760405162461bcd60e51b81526004016120e29061547c565b604051809103906120f1613c93565b50505b612160825a612101613e12565b5a63996d79a5598160e01b8152602081600483336000905af158600e01573d6000803e3d6000fd5b3d6001141558600a015760016000f35b8051925060005b604081101561215757600082820152602001612140565b50505084613312565b61218e5760405162461bcd60e51b815260040161217c906153cd565b6040518091039061218b613c93565b50505b6001600160a01b03821660009081526005602052819060409020600082826121b4613cfe565b0192505081906121c2613d59565b5050507fb52926ac8ed62d53d4b88d81b71c48639bd63aa53950fcf3e1d7676ca7c2614082826040516121f6929190614fa7565b60405180910390a160018060006111ee613d59565b60007f00000000000000000000000000000000000000000000000000000000000000006001600160a01b03165a63996d79a5598160e01b8152602081600483336000905af158600e01573d6000803e3d6000fd5b3d6001141558600a015760016000f35b8051925060005b604081101561228d57600082820152602001612276565b5050506001600160a01b031614156122c95760405162461bcd60e51b81526004016122b790615771565b604051809103906122c6613c93565b50505b600160006122d5613cfe565b146123045760405162461bcd60e51b81526004016122f29061552d565b60405180910390612301613c93565b50505b61230d826131ca565b92915050565b60007f00000000000000000000000000000000000000000000000000000000000000006001600160a01b03165a63996d79a5598160e01b8152602081600483336000905af158600e01573d6000803e3d6000fd5b3d6001141558600a015760016000f35b8051925060005b60408110156123955760008282015260200161237e565b5050506001600160a01b031614156123d15760405162461bcd60e51b81526004016123bf90615771565b604051809103906123ce613c93565b50505b600160006123dd613cfe565b1461240c5760405162461bcd60e51b81526004016123fa9061552d565b60405180910390612409613c93565b50505b6006600061241984612fdc565b8152602001908152602001600020600090612432613cfe565b906101000a900460ff169050919050565b60007f00000000000000000000000000000000000000000000000000000000000000006001600160a01b03165a63996d79a5598160e01b8152602081600483336000905af158600e01573d6000803e3d6000fd5b3d6001141558600a015760016000f35b8051925060005b60408110156124c5576000828201526020016124ae565b5050506001600160a01b031614156125015760405162461bcd60e51b81526004016124ef90615771565b604051809103906124fe613c93565b50505b6001600061250d613cfe565b1461253c5760405162461bcd60e51b815260040161252a9061552d565b60405180910390612539613c93565b50505b61230d826131ea565b7f00000000000000000000000000000000000000000000000000000000000000006001600160a01b03165a63996d79a5598160e01b8152602081600483336000905af158600e01573d6000803e3d6000fd5b3d6001141558600a015760016000f35b8051925060005b60408110156125c5576000828201526020016125ae565b5050506001600160a01b031614156126015760405162461bcd60e51b81526004016125ef90615771565b604051809103906125fe613c93565b50505b6001600061260d613cfe565b1461263c5760405162461bcd60e51b815260040161262a9061552d565b60405180910390612639613c93565b50505b6002806000612649613d59565b505050845a63996d79a5598160e01b8152602081600483336000905af158600e01573d6000803e3d6000fd5b3d6001141558600a015760016000f35b8051925060005b60408110156126a35760008282015260200161268c565b5050506001600160a01b03166126bc6020830183614326565b6001600160a01b03161480156127065750600060016126d9613cfe565b6001600160a01b036101009290920a9004166126fb6040830160208401614326565b6001600160a01b0316145b8015612746575060006002612719613cfe565b6001600160a01b036101009290920a90041661273b6060830160408401614326565b6001600160a01b0316145b6127745760405162461bcd60e51b8152600401612762906152e0565b60405180910390612771613c93565b50505b600061277f8761317f565b905061278f878288888888613369565b612797613192565b156127c65760405162461bcd60e51b81526004016127b490615118565b604051809103906127c3613c93565b50505b61012087013560086127d6613cfe565b106128055760405162461bcd60e51b81526004016127f3906151bb565b60405180910390612802613c93565b50505b61280d613495565b61285e576128238761010001355a611f0f613dcc565b80600a61282e613d59565b5061284f9150612846905061010089013560026134a1565b5a611f0f613dcc565b80600b61285a613d59565b5050505b8080600761286a613d59565b50505061012087013580600861287e613d59565b505050610140870135806009612892613d59565b5050507fef03cf86f2e77e1a0ae5cb25b50519e55b94788b920ace71f92341df2dab97ed5a6128bf613e12565b8860076040516128d193929190614e08565b60405180910390a15050600160008190610fd3613d59565b60007f00000000000000000000000000000000000000000000000000000000000000006001600160a01b03165a63996d79a5598160e01b8152602081600483336000905af158600e01573d6000803e3d6000fd5b3d6001141558600a015760016000f35b8051925060005b604081101561296b57600082820152602001612954565b5050506001600160a01b031614156129a75760405162461bcd60e51b815260040161299590615771565b604051809103906129a4613c93565b50505b600160006129b3613cfe565b146129e25760405162461bcd60e51b81526004016129d09061552d565b604051809103906129df613c93565b50505b6001600160a01b038216600090815260036020526040902061230d613cfe565b60007f00000000000000000000000000000000000000000000000000000000000000006001600160a01b03165a63996d79a5598160e01b8152602081600483336000905af158600e01573d6000803e3d6000fd5b3d6001141558600a015760016000f35b8051925060005b6040811015612a8457600082820152602001612a6d565b5050506001600160a01b03161415612ac05760405162461bcd60e51b8152600401612aae90615771565b60405180910390612abd613c93565b50505b60016000612acc613cfe565b14612afb5760405162461bcd60e51b8152600401612ae99061552d565b60405180910390612af8613c93565b50505b6001600160a01b0382166000908152600c6020526040902061230d613cfe565b60007f00000000000000000000000000000000000000000000000000000000000000006001600160a01b03165a63996d79a5598160e01b8152602081600483336000905af158600e01573d6000803e3d6000fd5b3d6001141558600a015760016000f35b8051925060005b6040811015612b9d57600082820152602001612b86565b5050506001600160a01b03161415612bd95760405162461bcd60e51b8152600401612bc790615771565b60405180910390612bd6613c93565b50505b60016000612be5613cfe565b14612c145760405162461bcd60e51b8152600401612c029061552d565b60405180910390612c11613c93565b50505b6001600160a01b03831660009081526004602052604090206001600160a01b038316600090815260209190915260409020612c4d613cfe565b9392505050565b60007f00000000000000000000000000000000000000000000000000000000000000006001600160a01b03165a63996d79a5598160e01b8152602081600483336000905af158600e01573d6000803e3d6000fd5b3d6001141558600a015760016000f35b8051925060005b6040811015612cd657600082820152602001612cbf565b5050506001600160a01b03161415612d125760405162461bcd60e51b8152600401612d0090615771565b60405180910390612d0f613c93565b50505b60016000612d1e613cfe565b14612d4d5760405162461bcd60e51b8152600401612d3b9061552d565b60405180910390612d4a613c93565b50505b60006001610c06613cfe565b612d61614074565b7f00000000000000000000000000000000000000000000000000000000000000006001600160a01b03165a63996d79a5598160e01b8152602081600483336000905af158600e01573d6000803e3d6000fd5b3d6001141558600a015760016000f35b8051925060005b6040811015612de157600082820152602001612dca565b5050506001600160a01b03161415612e1d5760405162461bcd60e51b8152600401612e0b90615771565b60405180910390612e1a613c93565b50505b60016000612e29613cfe565b14612e585760405162461bcd60e51b8152600401612e469061552d565b60405180910390612e55613c93565b50505b600760405160a08101604052908181612e6f613cfe565b815260200160018201612e80613cfe565b815260200160028201612e91613cfe565b815260200160038201612ea2613cfe565b815260200160048201612eb3613cfe565b905250905090565b6000612ec5613cfe565b81565b600081604051602001612edb9190615879565b6040516020818303038152906040528051906020012092915050565b6000816001600160a01b0316612f0d8585613500565b6001600160a01b031614949350505050565b600082820183811015612c4d5760405162461bcd60e51b815260206004820152601b60248201527f536166654d6174683a206164646974696f6e206f766572666c6f770000000000604482015260640160405180910390612f7e613c93565b50509392505050565b60005b6002811015612fd757600082518260028110612fa257fe5b602002015190508015612fce57612fce8484602001518460028110612fc357fe5b602002015183613518565b50600101612f8a565b505050565b600081604051602001612edb91906158ac565b6000600186604051602001613005929190615022565b60405160208183030381529060405280519060200120905061308185858080601f016020809104026020016040519081016040528181529291906020840183838082843760009201829052509250600191506130619050613cfe565b906101000a90046001600160a01b031683612ef79092919063ffffffff16565b6130af5760405162461bcd60e51b815260040161309d906155d1565b604051809103906130ac613c93565b50505b6130f383838080601f016020809104026020016040519081016040528181529291906020840183838082843760009201829052509250600291506130619050613cfe565b611c8f5760405162461bcd60e51b815260040161310f9061535f565b60405180910390610fd3613c93565b6000612c4d8261312d85613598565b613692565b61313c83826136a8565b6131478383836136dc565b612fd75760405162461bcd60e51b8152600401613163906151f2565b604051809103906111ee613c93565b6001806000612fd7613d59565b600081604051602001612edb9190615866565b60005a61319d613dcc565b600a6131a7613cfe565b111580156131c55750600b6131ba613cfe565b5a6131c3613dcc565b105b905090565b6001600160a01b038116600090815260056020526040812061230d613cfe565b6001600160a01b038116600090815260056020526040812061320a613cfe565b6001600160a01b038316600090815260036020526040902061322a613cfe565b61323384613598565b010392915050565b600082820183811015612c4d576000195b949350505050565b6000612c4d838360405160408082019052601e81527f536166654d6174683a207375627472616374696f6e206f766572666c6f7700006020820152613705565b6132d48484808060200260200160405190810160405280939291908181526020018383602002808284376000920191909152508692508591506137a59050565b6132ff5760405162461bcd60e51b81526004016132f090615564565b60405180910390611c8f613c93565b50505050565b6001600160a01b03161590565b60006133608585858560405160240161332d93929190614f83565b604051601f198183030181526040919091526323b872dd60e01b6020820180516001600160e01b0316909117905261384e565b95945050505050565b6000808660405160200161337e929190615022565b6040516020818303038152906040528051906020012090506133e785858080601f01602080910402602001604051908101604052818152929190602084018383808284376000920191909152506133df9250505060408a0160208b01614326565b839190612ef7565b6134155760405162461bcd60e51b8152600401613403906156fb565b60405180910390613412613c93565b50505b61345e83838080601f01602080910402602001604051908101604052818152929190602084018383808284376000920191909152506133df9250505060608a0160408b01614326565b61348c5760405162461bcd60e51b815260040161347a90615229565b60405180910390613489613c93565b50505b50505050505050565b6000600a6131ba613cfe565b6000826134b05750600061230d565b828202828482816134bd57fe5b0414612c4d5760405162461bcd60e51b8152600401808060200182810382526021815260200180615b346021913960400191505060405180910390612f7e613c93565b60008061350c8461391c565b905061324c818461392f565b6001600160a01b0383166000908152600460205261355d908290604090206001600160a01b038516600090815260209190915260409020613557613cfe565b9061323b565b6001600160a01b03841660009081526004602052604090206001600160a01b0384166000908152602091909152604090208190611c8f613d59565b6000816001600160a01b03166370a082315a63996d79a5598160e01b8152602081600483336000905af158600e01573d6000803e3d6000fd5b3d6001141558600a015760016000f35b8051925060005b60408110156135ff576000828201526020016135e8565b5050506040518263ffffffff1660e01b815260040161361e9190614df4565b6020604051808303818680613631613e58565b15801561364657600080613643613c93565b50505b505a613650613ea4565b505050505015801561366f573d6000803e3d600061366c613c93565b50505b50505050604051601f3d908101601f1916820160405261230d91908101906148e3565b60008183106136a15781612c4d565b5090919050565b6001600160a01b03821660009081526003602052819060409020600082826136ce613cfe565b0192505081906111ee613d59565b60006136e784613305565b6136fb576136f6848484613b5b565b61324c565b61324c8383613b68565b6000818484111561379d5760405162461bcd60e51b81526004018080602001828103825283818151815260200191508051906020019080838360005b83811015613759578082015183820152602001613741565b50505050905090810190601f1680156137865780820380516001836020036101000a031916815260200191505b50925050506040518091039061379a613c93565b50505b505050900390565b600081815b85518110156138435760008682815181106137c157fe5b60200260200101519050808311613808578281604051602001808381526020018281526020019250505060405160208183030381529060405280519060200120925061383a565b808360405160200180838152602001828152602001925050506040516020818303038152906040528051906020012092505b506001016137aa565b509092149392505050565b600061385983613bed565b6138875760405162461bcd60e51b815260040161387590615502565b60405180910390613884613c93565b50505b600080846001600160a01b0316846040516138a29190614da4565b6000604051808303816000865a6138b7613f8f565b5050505050509150503d80600081146138ec576040513d603f01601f191681016040523d815291503d6000602084013e6138f1565b606091505b50915091506139008282613c30565b8051158061336057506020810181518101906133609190614413565b600081604051602001612edb9190614dc0565b6000815160411461398f5760405162461bcd60e51b815260206004820152601f60248201527f45434453413a20696e76616c6964207369676e6174757265206c656e6774680060448201526064016040518091039061398c613c93565b50505b60008060006020850151925060408501519150606085015160001a90507f7fffffffffffffffffffffffffffffff5d576e7357a4501ddfe92f46681b20a0821115613a145760405162461bcd60e51b8152600401808060200182810382526022815260200180615af06022913960400191505060405180910390613a11613c93565b50505b8060ff16601b14158015613a2c57508060ff16601c14155b15613a715760405162461bcd60e51b8152600401808060200182810382526022815260200180615b126022913960400191505060405180910390613a6e613c93565b50505b600060018783868660405160008152602001604052604051808581526020018460ff1681526020018381526020018281526020019450505050506020604051602081039080840390855a613ac3613ea4565b5050505050158015613ae2573d6000803e3d6000613adf613c93565b50505b5050506020604051035190506001600160a01b038116613b515760405162461bcd60e51b815260206004820152601860248201527f45434453413a20696e76616c6964207369676e61747572650000000000000000604482015260640160405180910390613b4e613c93565b50505b9695505050505050565b600061324c848484613c47565b6000806000846001600160a01b031684604051613b8490614df1565b60006040518083038185875a613b98613f8f565b505050505050925050503d8060008114613bce576040513d603f01601f191681016040523d815291503d6000602084013e613bd3565b606091505b5091509150613be28282613c30565b506001949350505050565b6000807fc5d2460186f7233c927e7db2dcc703c0e500b653ca82273b7bfad8045d85a47083613c1a6140a1565b915080821415801561324c575050151592915050565b81613c43578051602082016132ff613c93565b5050565b600061324c848484604051602401613c60929190614fa7565b604051601f1981830301815260409190915263a9059cbb60e01b6020820180516001600160e01b0316909117905261384e565b632a2a7adb598160e01b8152600481016020815285602082015260005b86811015613ccb578086015182820160400152602001613cb0565b506020828760640184336000905af158600e01573d6000803e3d6000fd5b3d6001141558600a015760016000f35b505050565b6303daa959598160e01b8152836004820152602081602483336000905af158600e01573d6000803e3d6000fd5b3d6001141558600a015760016000f35b8051935060005b6040811015612fd757600082820152602001613d42565b6322bd64c0598160e01b8152836004820152846024820152600081604483336000905af158600e01573d6000803e3d6000fd5b3d6001141558600a015760016000f35b600081526020613d42565b6040518060400160405280613dba6140ed565b8152602001613dc76140ed565b905290565b63bdbf8c36598160e01b8152602081600483336000905af158600e01573d6000803e3d6000fd5b3d6001141558600a015760016000f35b80516000825293506020613d42565b6373509064598160e01b8152602081600483336000905af158600e01573d6000803e3d6000fd5b3d6001141558600a015760016000f35b80516000825293506020613d42565b638435035b598160e01b8152836004820152602081602483336000905af158600e01573d6000803e3d6000fd5b3d6001141558600a015760016000f35b80516000825293506020613d42565b638540661f598160e01b8152613ed5565b808083111561230d575090919050565b808083101561230d575090919050565b836004820152846024820152606060448201528660648201526084810160005b88811015613f0d578088015182820152602001613ef5565b506060828960a40184336000905af158600e01573d6000803e3d6000fd5b3d6001141558600a015760016000f35b815160408301513d6000853e8b8b82606087013350600060045af15059613f628d3d613ec5565b8c01613f6e8187613eb5565b5b82811015613f835760008152602001613f6f565b50929c50505050505050565b6385979f76598160e01b8152836004820152846024820152606060448201528760648201526084810160005b89811015613fd3578089015182820152602001613fbb565b506060828a60a40184336000905af158600e01573d6000803e3d6000fd5b3d6001141558600a015760016000f35b815160408301513d6000853e8c8c82606087013350600060045af150596140288e3d613ec5565b8d016140348187613eb5565b5b828110156140495760008152602001614035565b50929d50505050505050565b6040516060810160409081526000808352602083018190529082015290565b60405160a08101604090815260008083526020830181905290820181905260608201819052608082015290565b6324749d5c598160e01b8152836004820152602081602483336000905af158600e01573d6000803e3d6000fd5b3d6001141558600a015760016000f35b80516000825293506020613d42565b60405160408082018152600290829080368337509192915050565b803561134f81615ad1565b60008083601f84011261412d57818261412a613c93565b50505b5081356001600160401b0381111561414c578182614149613c93565b50505b602083019150836020808302850101111561416f5760008061416c613c93565b50505b9250929050565b600082601f83011261418f57808161418c613c93565b50505b604051604081018181106001600160401b03821117156141ab57fe5b80604052508083856040860111156141ca5783846141c7613c93565b50505b835b60028110156141f55781356141e081615ad1565b835260209283019291909101906001016141cc565b509195945050505050565b600082601f830112614219578081614216613c93565b50505b604051604081018181106001600160401b038211171561423557fe5b8060405250808385604086011115614254578384614251613c93565b50505b835b60028110156141f557815161426a81615ad1565b83526020928301929190910190600101614256565b60008083601f840112614299578182614296613c93565b50505b5081356001600160401b038111156142b85781826142b5613c93565b50505b60208301915083602082850101111561416f5760008061416c613c93565b600061016082840312156142f15780816142ee613c93565b50505b50919050565b600061018082840312156142f15780816142ee613c93565b600060e082840312156142f15780816142ee613c93565b60006020828403121561434057808161433d613c93565b50505b8135612c4d81615ad1565b60008060408385031215614366578081614363613c93565b50505b823561437181615ad1565b9150602083013561438181615ad1565b809150509250929050565b6000806000606084860312156143a95780816143a6613c93565b50505b83356143b481615ad1565b925060208401356143c481615ad1565b915060408401356143d481615ad1565b809150509250925092565b600080604083850312156143fa5781826143f7613c93565b50505b823561440581615ad1565b946020939093013593505050565b60006020828403121561442d57808161442a613c93565b50505b81518015158114612c4d578182612f7e613c93565b60006020828403121561445c578081614459613c93565b50505b5035919050565b60006080828403121561447d57808161447a613c93565b50505b604051604081018181106001600160401b038211171561449957fe5b604052601f830184136144b35781826144b0613c93565b50505b60026144c66144c1826159cd565b6159a6565b808560408701888111156144e15786876144de613c93565b50505b865b858110156145015782358552602094850194909201916001016144e3565b5082865261450f8982614176565b60208701525093979650505050505050565b60006080828403121561453b578081614538613c93565b50505b604051604081018181106001600160401b038211171561455757fe5b604052601f8301841361457157818261456e613c93565b50505b600261457f6144c1826159cd565b8085604087018881111561459a578687614597613c93565b50505b865b858110156145bb5782518552602094850194929092019160010161459c565b5082865261450f8982614200565b6000806000806000606086880312156145e95782836145e6613c93565b50505b85356001600160401b0380821115614608578485614605613c93565b50505b61461489838a016142d6565b9650602088013591508082111561463257848561462f613c93565b50505b61463e89838a01614113565b9096509450604088013591508082111561465f57828361465c613c93565b50505b5061466c88828901614113565b969995985093965092949392505050565b60008060008060006060868803121561469d57828361469a613c93565b50505b85356001600160401b03808211156146bc5784856146b9613c93565b50505b6146c889838a016142d6565b965060208801359150808211156146e65784856146e3613c93565b50505b6146f289838a0161427f565b90965094506040880135915080821115614713578283614710613c93565b50505b5061466c8882890161427f565b60008060006101a0848603121561473e57808161473b613c93565b50505b61474885856142f7565b92506101808401356001600160401b0381111561476c578182614769613c93565b50505b61477886828701614113565b9497909650939450505050565b60008060008060008060006101e0888a0312156147a95784856147a6613c93565b50505b6147b389896142f7565b96506101808801356001600160401b03808211156147d85786876147d5613c93565b50505b6147e48b838c0161427f565b90985096506101a08a0135915080821115614806578384614803613c93565b50505b6148128b838c0161427f565b90965094506101c08a0135915080821115614834578384614831613c93565b50505b506148418a828b0161427f565b989b979a50959850939692959293505050565b60006020828403121561486e57808161486b613c93565b50505b81356001600160401b0381111561488c578182614889613c93565b50505b61324c8482850161430f565b6000806000806000606086880312156148b85782836148b5613c93565b50505b85356001600160401b03808211156148d75784856148d4613c93565b50505b6146c889838a0161430f565b6000602082840312156148fd5780816148fa613c93565b50505b81519392505050565b6001600160a01b0316815260200190565b6001600160a01b03169052565b60008284526020808501945082825b8581101561496157813561494681615ad1565b6001600160a01b031687529582019590820190600101614933565b509495945050505050565b600082845260208401935081815b8481101561499f5761498c8683614a10565b608095860195919091019060010161497a565b5093949350505050565b81835260006001600160fb1b038311156149ca5780816149c7613c93565b50505b6020830280836020870137939093016020019283525090919050565b60008284528282602086013780602084860101526020601f19601f85011685010190509392505050565b604081833760006040838101828152908301915b60028110156111ee578235614a3881615ad1565b6001600160a01b0316825260209283019290910190600101614a24565b80614a5e613cfe565b825260018101614a6c613cfe565b602083015260028101614a7d613cfe565b604083015260038101614a8e613cfe565b606083015260048101614a9f613cfe565b60808301525050565b6000610160614abf84614aba85614108565b614917565b614acb60208401614108565b614ad86020860182614917565b50614ae560408401614108565b614af26040860182614917565b50614b0060608401846159e7565b826060870152614b138387018284614924565b92505050614b246080840184615a46565b8583036080870152614b3783828461496c565b92505050614b4860a08401846159e7565b85830360a0870152614b5b8382846149a9565b92505050614b6c60c08401846159e7565b85830360c0870152614b7f8382846149a9565b92505050614b9060e08401846159e7565b85830360e0870152614ba38382846149a9565b6101008681013590880152610120808701359088015261014095860135959096019490945250929392505050565b8035614bdc81615ad1565b6001600160a01b03908116835260208281013590840152604082013590614c0282615ad1565b166040830152614c1460608201614108565b614c216060840182614917565b50614c2e60808201614108565b614c3b6080840182614917565b50614c4860a08201614108565b614c5560a0840182614917565b50614c6660c0830160c08301614a10565b610140818101359083015261016090810135910152565b80614c86613cfe565b825260018101614c94613cfe565b602083015260ff60028201614ca7613cfe565b16151560408301525050565b60008135614cc081615ad1565b6001600160a01b039081168452602083013590614cdc82615ad1565b9081166020850152604083013590614cf382615ad1565b8082166040860152606084013560608601526080840135608086015260a08401359150614d1f82615ad1565b1660a084015260c082013536839003601e19018112614d45578182614d42613c93565b50505b820180356001600160401b03811115614d65578283614d62613c93565b50505b803603841315614d7c578283614d79613c93565b50505b60e060c086015261336060e0860182602085016149e6565b6000828483379101908152919050565b60008251614db6818460208701615aa5565b9190910192915050565b7f16566563746f72205369676e6564204d6573736167653a0a33320000000000008152601a810191909152603a0190565b90565b6001600160a01b0391909116815260200190565b6001600160a01b038416815260e060208201819052600090614e2c90830185614aa8565b905061324c6040830184614a55565b6001600160a01b038616815261010060208201819052600090614e6083820188614aa8565b9050614e6f6040840187614a55565b82810360e0840152614e82818587614924565b98975050505050505050565b6001600160a01b03841681526102008101614eac6020830185614bd1565b61324c6101a0830184614c7d565b6001600160a01b038916815260006102c06020614ed98185018c614bd1565b614ee76101a085018b614c7d565b81610200850152614efb828501898b6149e6565b9150838203610220850152614f118287896149e6565b9250610240840191508451916000905b6002821015614f40578351815292820192600191909101908201614f21565b5050808501519150610280840160005b6002811015614f7257614f64828551614906565b938301939150600101614f50565b505050509998505050505050505050565b6001600160a01b039384168152919092166020820152604081019190915260600190565b6001600160a01b03929092168252602082015260400190565b901515815260200190565b6000606082528651806060840152614fea816080850160208b01615aa5565b601f01601f191682018281036080908101602085015261500d90820187896149e6565b90508281036040840152614e828185876149e6565b604081016002841061503057fe5b9281526020015290565b60208082526024908201527f434d4341646a7564696361746f723a20494e56414c49445f4348414e4e454c5f60408201526309082a6960e31b606082015260800190565b6020808252601e908201527f434d4341646a7564696361746f723a20494e4445585f4d49534d415443480000604082015260600190565b6020808252601d908201527f434d4357697468647261773a204348414e4e454c5f4d49534d41544348000000604082015260600190565b6020808252601290820152710434d4357697468647261773a204e4f5f4f560741b604082015260600190565b6020808252601d908201527f434d4341646a7564696361746f723a20494e56414c49445f5048415345000000604082015260600190565b6020808252818101527f434d4341646a7564696361746f723a20494e56414c49445f5452414e53464552604082015260600190565b6020808252601f908201527f434d43436f72653a204944454e544943414c5f5041525449434950414e545300604082015260600190565b6020808252601d908201527f434d4341646a7564696361746f723a20494e56414c49445f4e4f4e4345000000604082015260600190565b60208082526019908201527f434d4341737365743a205452414e534645525f4641494c454400000000000000604082015260600190565b6020808252601f908201527f434d4341646a7564696361746f723a20494e56414c49445f424f425f53494700604082015260600190565b60208082526029908201527f434d4341646a7564696361746f723a205452414e534645525f414c524541445960408201526817d11151955391115160ba1b606082015260800190565b6020808252601f908201527f434d4341646a7564696361746f723a204e4f5f4153534554535f474956454e00604082015260600190565b6020808252601f908201527f434d4341646a7564696361746f723a20494e56414c49445f4348414e4e454c00604082015260600190565b60208082526028908201527f434d4341646a7564696361746f723a204348414e4e454c5f414c52454144595f604082015267111151955391115160c21b606082015260800190565b6020808252601c908201527f434d4357697468647261773a20494e56414c49445f424f425f53494700000000604082015260600190565b6020808252601c908201527f434d43436f72653a20494e56414c49445f5041525449434950414e5400000000604082015260600190565b60208082526021908201527f434d434465706f7369743a2045524332305f5452414e534645525f4641494c456040820152601160fa1b606082015260800190565b6020808252601d908201527f434d4357697468647261773a20414c52454144595f4558454355544544000000604082015260600190565b6020808252601a908201527f434d434465706f7369743a2056414c55455f4d49534d41544348000000000000604082015260600190565b60208082526021908201527f434d434465706f7369743a204554485f574954485f4552435f5452414e5346456040820152602960f91b606082015260800190565b60208082526025908201527f434d4341646a7564696361746f723a205452414e534645525f4e4f545f444953604082015264141555115160da1b606082015260800190565b6020808252601190820152704c696245524332303a204e4f5f434f444560781b604082015260600190565b6020808252601f908201527f5265656e7472616e637947756172643a205245454e5452414e545f43414c4c00604082015260600190565b60208082526024908201527f434d4341646a7564696361746f723a20494e56414c49445f4d45524b4c455f506040820152632927a7a360e11b606082015260800190565b6020808252600f908201526e0434d4341737365743a204e4f5f4f5608c1b604082015260600190565b6020808252601e908201527f434d4357697468647261773a20494e56414c49445f414c4943455f5349470000604082015260600190565b60208082526029908201527f434d4341646a7564696361746f723a205452414e534645525f414c524541445960408201526817d11254d41555115160ba1b606082015260800190565b60208082526018908201527f434d4341737365743a204f574e45525f4d49534d415443480000000000000000604082015260600190565b6020808252601690820152750434d43436f72653a20414c52454144595f53455455560541b604082015260600190565b60208082526023908201527f434d4341646a7564696361746f723a2057524f4e475f41525241595f4c454e4760408201526254485360e81b606082015260800190565b60208082526021908201527f434d4341646a7564696361746f723a20494e56414c49445f414c4943455f53496040820152604760f81b606082015260800190565b6020808252818101527f434d4341646a7564696361746f723a20494e56414c49445f5245534f4c564552604082015260600190565b6020808252601a908201527f4d6173746572636f70793a204f4e4c595f5649415f50524f5859000000000000604082015260600190565b6020808252818101527f434d4341646a7564696361746f723a20494e56414c49445f42414c414e434553604082015260600190565b60208082526025908201527f434d4341646a7564696361746f723a20494e56414c49445f5452414e534645526040820152640be9082a6960db1b606082015260800190565b6080810161230d8284614a10565b60a08101825182526020830151602083015260408301516040830152606083015160608301526080830151608083015292915050565b600060208252612c4d6020830184614aa8565b610180810161230d8284614bd1565b60608101825182526020830151602083015260408301511515604083015292915050565b600060208252612c4d6020830184614cb3565b6000604082526158d26040830185614cb3565b90508260208301529392505050565b90815260200190565b6000808335601e19843603018112615909578283615906613c93565b50505b8301803591506001600160401b0382111561592b578283615928613c93565b50505b602090810192508102360382131561416f5760008061416c613c93565b6000808335601e19843603018112615967578283615964613c93565b50505b8301803591506001600160401b03821115615989578283615986613c93565b50505b602001915060808102360382131561416f5760008061416c613c93565b600060405190508181018181106001600160401b03821117156159c557fe5b604052919050565b60006001600160401b038211156159e057fe5b5060200290565b6000808335601e19843603018112615a06578283615a03613c93565b50505b83016020810192503590506001600160401b03811115615a2e57600080615a2b613c93565b50505b60208102360383131561416f5760008061416c613c93565b6000808335601e19843603018112615a65578283615a62613c93565b50505b83016020810192503590506001600160401b03811115615a8d57600080615a8a613c93565b50505b60808102360383131561416f5760008061416c613c93565b60005b83811015615ac0578082015183820152602001615aa8565b838111156132ff5750506000910152565b6001600160a01b0381168114615aec57600080612fd7613c93565b5056fe45434453413a20696e76616c6964207369676e6174757265202773272076616c756545434453413a20696e76616c6964207369676e6174757265202776272076616c7565536166654d6174683a206d756c7469706c69636174696f6e206f766572666c6f77",
  "linkReferences": {},
  "deployedLinkReferences": {}
}