{
  "_format": "hh-sol-artifact-1",
  "contractName": "CMCCore.ovm",
  "sourceName": "src.sol/CMCCore.sol",
  "abi": [
    {
      "inputs": [],
      "stateMutability": "nonpayable",
      "type": "constructor"
    },
    {
      "inputs": [],
      "name": "getAlice",
      "outputs": [
        {
          "internalType": "address",
          "name": "",
          "type": "address"
        }
      ],
      "stateMutability": "view",
      "type": "function"
    },
    {
      "inputs": [],
      "name": "getBob",
      "outputs": [
        {
          "internalType": "address",
          "name": "",
          "type": "address"
        }
      ],
      "stateMutability": "view",
      "type": "function"
    },
    {
      "inputs": [],
      "name": "lock",
      "outputs": [
        {
          "internalType": "uint256",
          "name": "",
          "type": "uint256"
        }
      ],
      "stateMutability": "view",
      "type": "function"
    },
    {
      "inputs": [
        {
          "internalType": "address",
          "name": "_alice",
          "type": "address"
        },
        {
          "internalType": "address",
          "name": "_bob",
          "type": "address"
        }
      ],
      "name": "setup",
      "outputs": [],
      "stateMutability": "nonpayable",
      "type": "function"
    }
  ],
  "bytecode": "0x60a060405234801561001957600080610016610088565b50505b505a63996d79a5598160e01b8152602081600483336000905af158600e01573d6000803e3d6000fd5b3d6001141558600a015760016000f35b8051925060005b604081101561007057600082820152602001610059565b50505060601b6001600160601b0319166080526100f3565b632a2a7adb598160e01b8152600481016020815285602082015260005b868110156100c05780860151828201604001526020016100a5565b506020828760640184336000905af158600e01573d6000803e3d6000fd5b3d6001141558600a015760016000f35b505050565b60805160601c6107a66101196000398060b752806101cf52806103e952506107a66000f3fe608060405234801561001957600080610016610509565b50505b50600436106100555760003560e01c8063241686a0146100635780632d34ba7914610081578063eeb30fea14610096578063f83d08ba1461009e575b600080610060610509565b50505b61006b6100b3565b604051610078919061067d565b60405180910390f35b61009461008f366004610642565b6101cd565b005b61006b6103e5565b6100a66104ea565b604051610078919061079d565b60007f00000000000000000000000000000000000000000000000000000000000000006001600160a01b03165a63996d79a5598160e01b8152602081600483336000905af158600e01573d6000803e3d6000fd5b3d6001141558600a015760016000f35b8051925060005b60408110156101355760008282015260200161011e565b5050506001600160a01b031614156101715760405162461bcd60e51b815260040161015f90610766565b6040518091039061016e610509565b50505b6001600061017d610574565b146101ac5760405162461bcd60e51b815260040161019a906106ff565b604051809103906101a9610509565b50505b600060026101b8610574565b906101000a90046001600160a01b0316905090565b7f00000000000000000000000000000000000000000000000000000000000000006001600160a01b03165a63996d79a5598160e01b8152602081600483336000905af158600e01573d6000803e3d6000fd5b3d6001141558600a015760016000f35b8051925060005b604081101561024d57600082820152602001610236565b5050506001600160a01b031614156102895760405162461bcd60e51b815260040161027790610766565b60405180910390610286610509565b50505b6000806001610296610574565b906101000a90046001600160a01b03166001600160a01b0316146102de5760405162461bcd60e51b81526004016102cc90610736565b604051809103906102db610509565b50505b6001600160a01b038216158015906102fe57506001600160a01b03811615155b61032c5760405162461bcd60e51b815260040161031a906106c8565b60405180910390610329610509565b50505b806001600160a01b0316826001600160a01b031614156103705760405162461bcd60e51b815260040161035e90610691565b6040518091039061036d610509565b50505b6103786104f7565b8160018080610385610574565b816001600160a01b0302191690836001600160a01b03160217906103a76105cf565b50505080600260006101000a816103bc610574565b816001600160a01b0302191690836001600160a01b03160217906103de6105cf565b5050505050565b60007f00000000000000000000000000000000000000000000000000000000000000006001600160a01b03165a63996d79a5598160e01b8152602081600483336000905af158600e01573d6000803e3d6000fd5b3d6001141558600a015760016000f35b8051925060005b604081101561046757600082820152602001610450565b5050506001600160a01b031614156104a35760405162461bcd60e51b815260040161049190610766565b604051809103906104a0610509565b50505b600160006104af610574565b146104de5760405162461bcd60e51b81526004016104cc906106ff565b604051809103906104db610509565b50505b600060016101b8610574565b60006104f4610574565b81565b60018060006105046105cf565b505050565b632a2a7adb598160e01b8152600481016020815285602082015260005b86811015610541578086015182820160400152602001610526565b506020828760640184336000905af158600e01573d6000803e3d6000fd5b3d6001141558600a015760016000f35b505050565b6303daa959598160e01b8152836004820152602081602483336000905af158600e01573d6000803e3d6000fd5b3d6001141558600a015760016000f35b8051935060005b6040811015610504576000828201526020016105b8565b6322bd64c0598160e01b8152836004820152846024820152600081604483336000905af158600e01573d6000803e3d6000fd5b3d6001141558600a015760016000f35b6000815260206105b8565b80356001600160a01b038116811461063d5760008061063a610509565b50505b919050565b6000806040838503121561065d57818261065a610509565b50505b6106668361061d565b91506106746020840161061d565b90509250929050565b6001600160a01b0391909116815260200190565b6020808252601f908201527f434d43436f72653a204944454e544943414c5f5041525449434950414e545300604082015260600190565b6020808252601c908201527f434d43436f72653a20494e56414c49445f5041525449434950414e5400000000604082015260600190565b6020808252601f908201527f5265656e7472616e637947756172643a205245454e5452414e545f43414c4c00604082015260600190565b6020808252601690820152750434d43436f72653a20414c52454144595f53455455560541b604082015260600190565b6020808252601a908201527f4d6173746572636f70793a204f4e4c595f5649415f50524f5859000000000000604082015260600190565b9081526020019056",
  "linkReferences": {},
  "deployedLinkReferences": {}
}