{
  "_format": "hh-sol-artifact-1",
  "contractName": "TransferRegistry.ovm",
  "sourceName": "src.sol/TransferRegistry.sol",
  "abi": [
    {
      "anonymous": false,
      "inputs": [
        {
          "indexed": true,
          "internalType": "address",
          "name": "previousOwner",
          "type": "address"
        },
        {
          "indexed": true,
          "internalType": "address",
          "name": "newOwner",
          "type": "address"
        }
      ],
      "name": "OwnershipTransferred",
      "type": "event"
    },
    {
      "anonymous": false,
      "inputs": [
        {
          "components": [
            {
              "internalType": "string",
              "name": "name",
              "type": "string"
            },
            {
              "internalType": "address",
              "name": "definition",
              "type": "address"
            },
            {
              "internalType": "string",
              "name": "stateEncoding",
              "type": "string"
            },
            {
              "internalType": "string",
              "name": "resolverEncoding",
              "type": "string"
            },
            {
              "internalType": "bytes",
              "name": "encodedCancel",
              "type": "bytes"
            }
          ],
          "indexed": false,
          "internalType": "struct RegisteredTransfer",
          "name": "transfer",
          "type": "tuple"
        }
      ],
      "name": "TransferAdded",
      "type": "event"
    },
    {
      "anonymous": false,
      "inputs": [
        {
          "components": [
            {
              "internalType": "string",
              "name": "name",
              "type": "string"
            },
            {
              "internalType": "address",
              "name": "definition",
              "type": "address"
            },
            {
              "internalType": "string",
              "name": "stateEncoding",
              "type": "string"
            },
            {
              "internalType": "string",
              "name": "resolverEncoding",
              "type": "string"
            },
            {
              "internalType": "bytes",
              "name": "encodedCancel",
              "type": "bytes"
            }
          ],
          "indexed": false,
          "internalType": "struct RegisteredTransfer",
          "name": "transfer",
          "type": "tuple"
        }
      ],
      "name": "TransferRemoved",
      "type": "event"
    },
    {
      "inputs": [
        {
          "components": [
            {
              "internalType": "string",
              "name": "name",
              "type": "string"
            },
            {
              "internalType": "address",
              "name": "definition",
              "type": "address"
            },
            {
              "internalType": "string",
              "name": "stateEncoding",
              "type": "string"
            },
            {
              "internalType": "string",
              "name": "resolverEncoding",
              "type": "string"
            },
            {
              "internalType": "bytes",
              "name": "encodedCancel",
              "type": "bytes"
            }
          ],
          "internalType": "struct RegisteredTransfer",
          "name": "definition",
          "type": "tuple"
        }
      ],
      "name": "addTransferDefinition",
      "outputs": [],
      "stateMutability": "nonpayable",
      "type": "function"
    },
    {
      "inputs": [],
      "name": "getTransferDefinitions",
      "outputs": [
        {
          "components": [
            {
              "internalType": "string",
              "name": "name",
              "type": "string"
            },
            {
              "internalType": "address",
              "name": "definition",
              "type": "address"
            },
            {
              "internalType": "string",
              "name": "stateEncoding",
              "type": "string"
            },
            {
              "internalType": "string",
              "name": "resolverEncoding",
              "type": "string"
            },
            {
              "internalType": "bytes",
              "name": "encodedCancel",
              "type": "bytes"
            }
          ],
          "internalType": "struct RegisteredTransfer[]",
          "name": "",
          "type": "tuple[]"
        }
      ],
      "stateMutability": "view",
      "type": "function"
    },
    {
      "inputs": [],
      "name": "owner",
      "outputs": [
        {
          "internalType": "address",
          "name": "",
          "type": "address"
        }
      ],
      "stateMutability": "view",
      "type": "function"
    },
    {
      "inputs": [
        {
          "internalType": "string",
          "name": "name",
          "type": "string"
        }
      ],
      "name": "removeTransferDefinition",
      "outputs": [],
      "stateMutability": "nonpayable",
      "type": "function"
    },
    {
      "inputs": [],
      "name": "renounceOwnership",
      "outputs": [],
      "stateMutability": "nonpayable",
      "type": "function"
    },
    {
      "inputs": [
        {
          "internalType": "address",
          "name": "newOwner",
          "type": "address"
        }
      ],
      "name": "transferOwnership",
      "outputs": [],
      "stateMutability": "nonpayable",
      "type": "function"
    }
  ],
  "bytecode": "0x60806040523480156200001c5760008062000019620000b3565b50505b50600062000029620000a1565b90508060006001816200003b62000120565b816001600160a01b0302191690836001600160a01b03160217906200005f62000182565b5050506001600160a01b03811660007f8be0079c531659141344cd1fd0a4f28419497f9722a3daafe3b4186f6b6457e060405160405180910390a35062000218565b60005a620000ae620001d1565b905090565b632a2a7adb598160e01b8152600481016020815285602082015260005b86811015620000ed578086015182820160400152602001620000d0565b506020828760640184336000905af158600e01573d6000803e3d6000fd5b3d6001141558600a015760016000f35b505050565b6303daa959598160e01b8152836004820152602081602483336000905af158600e01573d6000803e3d6000fd5b3d6001141558600a015760016000f35b8051935060005b60408110156200017d5760008282015260200162000164565b505050565b6322bd64c0598160e01b8152836004820152846024820152600081604483336000905af158600e01573d6000803e3d6000fd5b3d6001141558600a015760016000f35b60008152602062000164565b6373509064598160e01b8152602081600483336000905af158600e01573d6000803e3d6000fd5b3d6001141558600a015760016000f35b8051600082529350602062000164565b611f5b80620002286000396000f3fe608060405234801561001957600080610016611679565b50505b506004361061006b5760003560e01c806355304c3f14610079578063715018a61461008e5780638da5cb5b14610096578063961bf9b1146100b4578063c9ff4d25146100c7578063f2fde38b146100dc575b600080610076611679565b50505b61008c610087366004611ad3565b6100ef565b005b61008c6101ca565b61009e6102cd565b6040516100ab9190611d39565b60405180910390f35b61008c6100c2366004611a86565b6102ee565b6100cf6103b4565b6040516100ab9190611d4d565b61008c6100ea366004611a63565b6103c5565b6100f7610520565b6001600160a01b031660008061010b6116e4565b906101000a90046001600160a01b03166001600160a01b03161461016c5760405162461bcd60e51b81526020600482018190526024820152600080516020611f3b833981519152604482015260640160405180910390610169611679565b50505b6000610178600161052b565b9050610185600183610543565b7fcdbba5dd6bffbe47d5f74dbed3cf4a2174815c7186eaa49b32f97af4c47543bf6101b16001836106f3565b6040516101be9190611ead565b60405180910390a15050565b6101d2610520565b6001600160a01b03166000806101e66116e4565b906101000a90046001600160a01b03166001600160a01b0316146102475760405162461bcd60e51b81526020600482018190526024820152600080516020611f3b833981519152604482015260640160405180910390610244611679565b50505b600080806102536116e4565b906101000a90046001600160a01b03166001600160a01b03167f8be0079c531659141344cd1fd0a4f28419497f9722a3daafe3b4186f6b6457e060405160405180910390a36000806001816102a66116e4565b816001600160a01b0302191690836001600160a01b03160217906102c861173f565b505050565b600080806102d96116e4565b906101000a90046001600160a01b0316905090565b6102f6610520565b6001600160a01b031660008061030a6116e4565b906101000a90046001600160a01b03166001600160a01b03161461036b5760405162461bcd60e51b81526020600482018190526024820152600080516020611f3b833981519152604482015260640160405180910390610368611679565b50505b6000610378600183610aa0565b9050610385600183610e10565b7fdc44d9d985df00268149ae57add485c612e57109279f8485035dbe2b2251222b816040516101be9190611ead565b60606103c060016110c7565b905090565b6103cd610520565b6001600160a01b03166000806103e16116e4565b906101000a90046001600160a01b03166001600160a01b0316146104425760405162461bcd60e51b81526020600482018190526024820152600080516020611f3b83398151915260448201526064016040518091039061043f611679565b50505b6001600160a01b0381166104905760405162461bcd60e51b8152600401808060200182810382526026815260200180611f15602691396040019150506040518091039061048d611679565b50505b806001600160a01b03166000806104a56116e4565b906101000a90046001600160a01b03166001600160a01b03167f8be0079c531659141344cd1fd0a4f28419497f9722a3daafe3b4186f6b6457e060405160405180910390a38060006001816104f86116e4565b816001600160a01b0302191690836001600160a01b031602179061051a61173f565b50505050565b60005a6103c061178d565b6000816001018061053a6116e4565b9150505b919050565b600081519050610552816114cb565b156105815760405162461bcd60e51b815260040161056f90611df3565b6040518091039061057e611679565b50505b61058b83826114ea565b156105ba5760405162461bcd60e51b81526004016105a890611dad565b604051809103906105b7611679565b50505b604051806040016040528083815260200184600101806105d86116e4565b9091525083826040516105eb9190611ca1565b90815260200160405180910390208151818151819080516106109291602001906117d3565b506020820151600180830190816106256116e4565b816001600160a01b0302191690836001600160a01b031602179061064761173f565b5050506040820151816002019080516106649291602001906117d3565b5060608201518160030190805161067f9291602001906117d3565b5060808201518160040190805161069a929160200190611883565b5050506020820151816005016106ae61173f565b5050905050826001018190806001816106c56116e4565b0180826106d061173f565b50506000928352600019019160209150200190805161051a9291602001906117d3565b6106fb61191c565b82600101806107086116e4565b9050821061073a5760405162461bcd60e51b815260040161072890611e2a565b60405180910390610737611679565b50505b826001810183816107496116e4565b811061075157fe5b906000526020600020016040516107689190611cbd565b908152602001604051809103902060405160a081016040529081818061078c6116e4565b600181600116156101000203166002900480601f0160208091040260200160405190810160405281815291906020830182806107c66116e4565b600181600116156101000203166002900480156108325780601f106108005761010080836107f26116e4565b040283529160200191610832565b820191906000526020600020905b816108176116e4565b8152906001019060200180831161080e57829003601f168201915b505050505081526020016001820160009061084b6116e4565b6001600160a01b036101009290920a9004168152602001600282018061086f6116e4565b600181600116156101000203166002900480601f0160208091040260200160405190810160405281815291906020830182806108a96116e4565b600181600116156101000203166002900480156109155780601f106108e35761010080836108d56116e4565b040283529160200191610915565b820191906000526020600020905b816108fa6116e4565b815290600101906020018083116108f157829003601f168201915b50505050508152602001600382018061092c6116e4565b600181600116156101000203166002900480601f0160208091040260200160405190810160405281815291906020830182806109666116e4565b600181600116156101000203166002900480156109d25780601f106109a05761010080836109926116e4565b0402835291602001916109d2565b820191906000526020600020905b816109b76116e4565b815290600101906020018083116109ae57829003601f168201915b5050505050815260200160048201806109e96116e4565b600181600116156101000203166002900480601f016020809104026020016040519081016040528181529190602083018280610a236116e4565b60018160011615610100020316600290048015610a8f5780601f10610a5d576101008083610a4f6116e4565b040283529160200191610a8f565b820191906000526020600020905b81610a746116e4565b81529060010190602001808311610a6b57829003601f168201915b505050505081525050905092915050565b610aa861191c565b610ab283836114ea565b610ae05760405162461bcd60e51b8152600401610ace90611e6b565b60405180910390610add611679565b50505b8282604051610aef9190611ca1565b908152602001604051809103902060405160a0810160405290818180610b136116e4565b600181600116156101000203166002900480601f016020809104026020016040519081016040528181529190602083018280610b4d6116e4565b60018160011615610100020316600290048015610bb95780601f10610b87576101008083610b796116e4565b040283529160200191610bb9565b820191906000526020600020905b81610b9e6116e4565b81529060010190602001808311610b9557829003601f168201915b5050505050815260200160018201600090610bd26116e4565b6001600160a01b036101009290920a90041681526020016002820180610bf66116e4565b600181600116156101000203166002900480601f016020809104026020016040519081016040528181529190602083018280610c306116e4565b60018160011615610100020316600290048015610c9c5780601f10610c6a576101008083610c5c6116e4565b040283529160200191610c9c565b820191906000526020600020905b81610c816116e4565b81529060010190602001808311610c7857829003601f168201915b505050505081526020016003820180610cb36116e4565b600181600116156101000203166002900480601f016020809104026020016040519081016040528181529190602083018280610ced6116e4565b60018160011615610100020316600290048015610d595780601f10610d27576101008083610d196116e4565b040283529160200191610d59565b820191906000526020600020905b81610d3e6116e4565b81529060010190602001808311610d3557829003601f168201915b505050505081526020016004820180610d706116e4565b600181600116156101000203166002900480601f016020809104026020016040519081016040528181529190602083018280610daa6116e4565b60018160011615610100020316600290048015610a8f5780601f10610dd6576101008083610a4f6116e4565b820191906000526020600020905b81610ded6116e4565b81529060010190602001808311610de45750505091909252509195945050505050565b610e19816114cb565b15610e485760405162461bcd60e51b8152600401610e3690611df3565b60405180910390610e45611679565b50505b610e5282826114ea565b610e805760405162461bcd60e51b8152600401610e6e90611e6b565b60405180910390610e7d611679565b50505b60008282604051610e919190611ca1565b9081526020016040518091039020600501610eaa6116e4565b905060006001808501908180610ebe6116e4565b90500381610eca6116e4565b8110610ed257fe5b9060005260206000200180610ee56116e4565b600181600116156101000203166002900480601f016020809104026020016040519081016040528181529190602083018280610f1f6116e4565b60018160011615610100020316600290048015610f8b5780601f10610f59576101008083610f4b6116e4565b040283529160200191610f8b565b820191906000526020600020905b81610f706116e4565b81529060010190602001808311610f6757829003601f168201915b50505050509050818460000182604051610fa59190611ca1565b90815260200160405180910390206005018190610fc061173f565b50505080846001018381610fd26116e4565b8110610fda57fe5b90600052602060002001908051610ff59291602001906117d3565b5083836040516110059190611ca1565b9081526020016040518091039020600081816110218282611954565b600182810190816110306116e4565b906001600160a01b030219169061104561173f565b506110569050600283016000611954565b611064600383016000611954565b611072600483016000611954565b50506005820160009061108361173f565b5050505083600101806110946116e4565b8061109b57fe5b6001900381819060005260206000206110b691016000611954565b906110bf61173f565b505050505050565b6060600082600101806110d86116e4565b9050905060008167ffffffffffffffff811180156110fe576000806110fb611679565b50505b5060405190808252806020026020018201604052801561113857816020015b61112561191c565b81526020019060019003908161111d5790505b50905060005b828110156114c357846001810182816111556116e4565b811061115d57fe5b906000526020600020016040516111749190611cbd565b908152602001604051809103902060405160a08101604052908181806111986116e4565b600181600116156101000203166002900480601f0160208091040260200160405190810160405281815291906020830182806111d26116e4565b6001816001161561010002031660029004801561123e5780601f1061120c5761010080836111fe6116e4565b04028352916020019161123e565b820191906000526020600020905b816112236116e4565b8152906001019060200180831161121a57829003601f168201915b50505050508152602001600182016000906112576116e4565b6001600160a01b036101009290920a9004168152602001600282018061127b6116e4565b600181600116156101000203166002900480601f0160208091040260200160405190810160405281815291906020830182806112b56116e4565b600181600116156101000203166002900480156113215780601f106112ef5761010080836112e16116e4565b040283529160200191611321565b820191906000526020600020905b816113066116e4565b815290600101906020018083116112fd57829003601f168201915b5050505050815260200160038201806113386116e4565b600181600116156101000203166002900480601f0160208091040260200160405190810160405281815291906020830182806113726116e4565b600181600116156101000203166002900480156113de5780601f106113ac57610100808361139e6116e4565b0402835291602001916113de565b820191906000526020600020905b816113c36116e4565b815290600101906020018083116113ba57829003601f168201915b5050505050815260200160048201806113f56116e4565b600181600116156101000203166002900480601f01602080910402602001604051908101604052818152919060208301828061142f6116e4565b6001816001161561010002031660029004801561149b5780601f1061146957610100808361145b6116e4565b04028352916020019161149b565b820191906000526020600020905b816114806116e4565b8152906001019060200180831161147757829003601f168201915b5050505050815250508282815181106114b057fe5b602090810291909101015260010161113e565b509392505050565b60006114e4826040516020810160405260008152611621565b92915050565b60006114f5826114cb565b15801561150f5750826001018061150a6116e4565b151590505b801561161a575061161a60018401848460405161152c9190611ca1565b90815260200160405180910390206005016115456116e4565b8161154e6116e4565b811061155657fe5b90600052602060002001806115696116e4565b600181600116156101000203166002900480601f0160208091040260200160405190810160405281815291906020830182806115a36116e4565b6001816001161561010002031660029004801561160f5780601f106115dd5761010080836115cf6116e4565b04028352916020019161160f565b820191906000526020600020905b816115f46116e4565b815290600101906020018083116115eb57829003601f168201915b505050505083611621565b9392505050565b6000816040516020016116349190611ca1565b604051602081830303815290604052805190602001208360405160200161165b9190611ca1565b60405160208183030381529060405280519060200120149392505050565b632a2a7adb598160e01b8152600481016020815285602082015260005b868110156116b1578086015182820160400152602001611696565b506020828760640184336000905af158600e01573d6000803e3d6000fd5b3d6001141558600a015760016000f35b505050565b6303daa959598160e01b8152836004820152602081602483336000905af158600e01573d6000803e3d6000fd5b3d6001141558600a015760016000f35b8051935060005b60408110156102c857600082820152602001611728565b6322bd64c0598160e01b8152836004820152846024820152600081604483336000905af158600e01573d6000803e3d6000fd5b3d6001141558600a015760016000f35b600081526020611728565b6373509064598160e01b8152602081600483336000905af158600e01573d6000803e3d6000fd5b3d6001141558600a015760016000f35b80516000825293506020611728565b82806117dd6116e4565b600181600116156101000203166002900490600052602060002090601f0160209004810192826118195760008561181261173f565b5050611873565b82601f1061183457805160ff1916838001178561181261173f565b8280016001018561184361173f565b50508215611873579182015b828111156118735782518261186261173f565b50509160200191906001019061184f565b5061187f9291506119a9565b5090565b828061188d6116e4565b600181600116156101000203166002900490600052602060002090601f0160209004810192826118c25760008561181261173f565b82601f106118dd57805160ff1916838001178561181261173f565b828001600101856118ec61173f565b50508215611873579182015b828111156118735782518261190b61173f565b5050916020019190600101906118f8565b6040518060a001604052806060815260200160006001600160a01b031681526020016060815260200160608152602001606081525090565b508061195e6116e4565b600181600116156101000203166002900460008261197a61173f565b505080601f1061198a57506119a6565b601f01602090049060005260206000206119a6918101906119a9565b50565b8082111561187f57600080826119bd61173f565b5050506001016119a9565b80356001600160a01b038116811461053e576000806119e5611679565b5050919050565b600082601f830112611a05578081611a02611679565b50505b813567ffffffffffffffff811115611a1957fe5b611a2c601f8201601f1916602001611ec0565b818152846020838601011115611a49578283611a46611679565b50505b816020850160208301379081016020019190915292915050565b600060208284031215611a7d578081611a7a611679565b50505b61161a826119c8565b600060208284031215611aa0578081611a9d611679565b50505b813567ffffffffffffffff811115611abf578182611abc611679565b50505b611acb848285016119ec565b949350505050565b600060208284031215611aed578081611aea611679565b50505b813567ffffffffffffffff80821115611b0d578283611b0a611679565b50505b9083019060a08286031215611b29578283611b26611679565b50505b611b3360a0611ec0565b823582811115611b4a578485611b47611679565b50505b611b56878286016119ec565b825250611b65602084016119c8565b6020820152604083013582811115611b84578485611b81611679565b50505b611b90878286016119ec565b604083015250606083013582811115611bb0578485611bad611679565b50505b611bbc878286016119ec565b606083015250608083013582811115611bdc578485611bd9611679565b50505b611be8878286016119ec565b60808301525095945050505050565b60008151808452611c0f816020860160208601611ee8565b601f01601f19169290920160200192915050565b6000815160a08452611c3860a0850182611bf7565b90506001600160a01b03602084015116602085015260408301518482036040860152611c648282611bf7565b91505060608301518482036060860152611c7e8282611bf7565b91505060808301518482036080860152611c988282611bf7565b95945050505050565b60008251611cb3818460208701611ee8565b9190910192915050565b60008083611cc96116e4565b60018181168015611ce15760018114611cf857611d2e565b60ff198316865260028304607f1686019350611d2e565b600283048786526020808720875b83811015611d265781611d176116e4565b8a820152908501908201611d06565b505050860193505b509195945050505050565b6001600160a01b0391909116815260200190565b6000602080830181845280855180835260408601915060408482028701019250838701855b82811015611da057878503603f19018452611d8e858351611c23565b94509285019290850190600101611d72565b5092979650505050505050565b60208082526026908201527f4c69624974657261626c654d617070696e673a204e414d455f414c524541445960408201526517d05111115160d21b606082015260800190565b6020808252601e908201527f4c69624974657261626c654d617070696e673a20454d5054595f4e414d450000604082015260600190565b60208082526021908201527f4c69624974657261626c654d617070696e673a20494e56414c49445f494e44456040820152600b60fb1b606082015260800190565b60208082526022908201527f4c69624974657261626c654d617070696e673a204e414d455f4e4f545f464f55604082015261139160f21b606082015260800190565b60006020825261161a6020830184611c23565b6000604051905081810181811067ffffffffffffffff82111715611ee057fe5b604052919050565b60005b83811015611f03578082015183820152602001611eeb565b8381111561051a575050600091015256fe4f776e61626c653a206e6577206f776e657220697320746865207a65726f20616464726573734f776e61626c653a2063616c6c6572206973206e6f7420746865206f776e6572",
  "linkReferences": {},
  "deployedLinkReferences": {}
}