{
  "_format": "hh-sol-artifact-1",
  "contractName": "TestLibIterableMapping.ovm",
  "sourceName": "src.sol/testing/TestLibIterableMapping.sol",
  "abi": [
    {
      "inputs": [],
      "stateMutability": "nonpayable",
      "type": "constructor"
    },
    {
      "inputs": [
        {
          "components": [
            {
              "internalType": "string",
              "name": "name",
              "type": "string"
            },
            {
              "internalType": "address",
              "name": "definition",
              "type": "address"
            },
            {
              "internalType": "string",
              "name": "stateEncoding",
              "type": "string"
            },
            {
              "internalType": "string",
              "name": "resolverEncoding",
              "type": "string"
            },
            {
              "internalType": "bytes",
              "name": "encodedCancel",
              "type": "bytes"
            }
          ],
          "internalType": "struct RegisteredTransfer",
          "name": "transfer",
          "type": "tuple"
        }
      ],
      "name": "addTransferDefinition",
      "outputs": [],
      "stateMutability": "nonpayable",
      "type": "function"
    },
    {
      "inputs": [
        {
          "internalType": "uint256",
          "name": "index",
          "type": "uint256"
        }
      ],
      "name": "getTransferDefinitionByIndex",
      "outputs": [
        {
          "components": [
            {
              "internalType": "string",
              "name": "name",
              "type": "string"
            },
            {
              "internalType": "address",
              "name": "definition",
              "type": "address"
            },
            {
              "internalType": "string",
              "name": "stateEncoding",
              "type": "string"
            },
            {
              "internalType": "string",
              "name": "resolverEncoding",
              "type": "string"
            },
            {
              "internalType": "bytes",
              "name": "encodedCancel",
              "type": "bytes"
            }
          ],
          "internalType": "struct RegisteredTransfer",
          "name": "",
          "type": "tuple"
        }
      ],
      "stateMutability": "view",
      "type": "function"
    },
    {
      "inputs": [
        {
          "internalType": "string",
          "name": "name",
          "type": "string"
        }
      ],
      "name": "getTransferDefinitionByName",
      "outputs": [
        {
          "components": [
            {
              "internalType": "string",
              "name": "name",
              "type": "string"
            },
            {
              "internalType": "address",
              "name": "definition",
              "type": "address"
            },
            {
              "internalType": "string",
              "name": "stateEncoding",
              "type": "string"
            },
            {
              "internalType": "string",
              "name": "resolverEncoding",
              "type": "string"
            },
            {
              "internalType": "bytes",
              "name": "encodedCancel",
              "type": "bytes"
            }
          ],
          "internalType": "struct RegisteredTransfer",
          "name": "",
          "type": "tuple"
        }
      ],
      "stateMutability": "view",
      "type": "function"
    },
    {
      "inputs": [],
      "name": "getTransferDefinitions",
      "outputs": [
        {
          "components": [
            {
              "internalType": "string",
              "name": "name",
              "type": "string"
            },
            {
              "internalType": "address",
              "name": "definition",
              "type": "address"
            },
            {
              "internalType": "string",
              "name": "stateEncoding",
              "type": "string"
            },
            {
              "internalType": "string",
              "name": "resolverEncoding",
              "type": "string"
            },
            {
              "internalType": "bytes",
              "name": "encodedCancel",
              "type": "bytes"
            }
          ],
          "internalType": "struct RegisteredTransfer[]",
          "name": "",
          "type": "tuple[]"
        }
      ],
      "stateMutability": "view",
      "type": "function"
    },
    {
      "inputs": [
        {
          "internalType": "string",
          "name": "s",
          "type": "string"
        }
      ],
      "name": "isEmptyString",
      "outputs": [
        {
          "internalType": "bool",
          "name": "",
          "type": "bool"
        }
      ],
      "stateMutability": "pure",
      "type": "function"
    },
    {
      "inputs": [],
      "name": "length",
      "outputs": [
        {
          "internalType": "uint256",
          "name": "",
          "type": "uint256"
        }
      ],
      "stateMutability": "view",
      "type": "function"
    },
    {
      "inputs": [
        {
          "internalType": "string",
          "name": "name",
          "type": "string"
        }
      ],
      "name": "nameExists",
      "outputs": [
        {
          "internalType": "bool",
          "name": "",
          "type": "bool"
        }
      ],
      "stateMutability": "view",
      "type": "function"
    },
    {
      "inputs": [
        {
          "internalType": "string",
          "name": "name",
          "type": "string"
        }
      ],
      "name": "removeTransferDefinition",
      "outputs": [],
      "stateMutability": "nonpayable",
      "type": "function"
    },
    {
      "inputs": [
        {
          "internalType": "string",
          "name": "s",
          "type": "string"
        },
        {
          "internalType": "string",
          "name": "t",
          "type": "string"
        }
      ],
      "name": "stringEqual",
      "outputs": [
        {
          "internalType": "bool",
          "name": "",
          "type": "bool"
        }
      ],
      "stateMutability": "pure",
      "type": "function"
    }
  ],
  "bytecode": "0x60806040523480156100195760008061001661001f565b50505b5061008a565b632a2a7adb598160e01b8152600481016020815285602082015260005b8681101561005757808601518282016040015260200161003c565b506020828760640184336000905af158600e01573d6000803e3d6000fd5b3d6001141558600a015760016000f35b505050565b611c18806100996000396000f3fe60806040523480156100195760008061001661134b565b50505b506004361061009c5760003560e01c8063a45f379e1161006f578063a45f379e14610110578063c981ccc314610123578063c9ff4d2514610143578063cc637afe14610158578063e61311171461016b5761009c565b80631f7b6d32146100aa57806355304c3f146100c8578063961bf9b1146100dd578063a1298368146100f0575b6000806100a761134b565b50505b6100b261017e565b6040516100bf9190611bbb565b60405180910390f35b6100db6100d63660046117b6565b61018f565b005b6100db6100eb3660046116ed565b61019d565b6101036100fe36600461173a565b6101a8565b6040516100bf9190611a9d565b61010361011e3660046116ed565b6101bb565b6101366101313660046118da565b6101ce565b6040516100bf9190611ba8565b61014b6101e1565b6040516100bf9190611a3d565b6101036101663660046116ed565b6101ed565b6101366101793660046116ed565b6101fa565b600061018a600061020d565b905090565b61019a60008261021c565b50565b61019a6000826103d2565b60006101b48383610689565b9392505050565b60006101c6826106e1565b90505b919050565b6101d66113b6565b6101c66000836106fa565b606061018a6000610aa7565b60006101c6600083610eab565b6102026113b6565b6101c6600083610fdb565b600081600101806101b46113ee565b60008151905061022b816106e1565b1561025a5760405162461bcd60e51b815260040161024890611aee565b6040518091039061025761134b565b50505b6102648382610eab565b156102935760405162461bcd60e51b815260040161028190611aa8565b6040518091039061029061134b565b50505b604051806040016040528083815260200184600101806102b16113ee565b9091525083826040516102c491906119a5565b90815260200160405180910390208151818151819080516102e992916020019061144e565b506020820151600180830190816102fe6113ee565b816001600160a01b0302191690836001600160a01b03160217906103206114fe565b50505060408201518160020190805161033d92916020019061144e565b5060608201518160030190805161035892916020019061144e565b5060808201518160040190805161037392916020019061154c565b5050506020820151816005016103876114fe565b50509050508260010181908060018161039e6113ee565b0180826103a96114fe565b5050600092835260001901916020915020019080516103cc92916020019061144e565b50505050565b6103db816106e1565b1561040a5760405162461bcd60e51b81526004016103f890611aee565b6040518091039061040761134b565b50505b6104148282610eab565b6104425760405162461bcd60e51b815260040161043090611b66565b6040518091039061043f61134b565b50505b6000828260405161045391906119a5565b908152602001604051809103902060050161046c6113ee565b9050600060018085019081806104806113ee565b9050038161048c6113ee565b811061049457fe5b90600052602060002001806104a76113ee565b600181600116156101000203166002900480601f0160208091040260200160405190810160405281815291906020830182806104e16113ee565b6001816001161561010002031660029004801561054d5780601f1061051b57610100808361050d6113ee565b04028352916020019161054d565b820191906000526020600020905b816105326113ee565b8152906001019060200180831161052957829003601f168201915b5050505050905081846000018260405161056791906119a5565b908152602001604051809103902060050181906105826114fe565b505050808460010183816105946113ee565b811061059c57fe5b906000526020600020019080516105b792916020019061144e565b5083836040516105c791906119a5565b9081526020016040518091039020600081816105e382826115e5565b600182810190816105f26113ee565b906001600160a01b03021916906106076114fe565b5061061890506002830160006115e5565b6106266003830160006115e5565b6106346004830160006115e5565b5050600582016000906106456114fe565b5050505083600101806106566113ee565b8061065d57fe5b600190038181906000526020600020610678910160006115e5565b906106816114fe565b505050505050565b60008160405160200161069c91906119a5565b60405160208183030381529060405280519060200120836040516020016106c391906119a5565b60405160208183030381529060405280519060200120149392505050565b60006101c6826040516020810160405260008152610689565b6107026113b6565b826001018061070f6113ee565b905082106107415760405162461bcd60e51b815260040161072f90611b25565b6040518091039061073e61134b565b50505b826001810183816107506113ee565b811061075857fe5b9060005260206000200160405161076f91906119c1565b908152602001604051809103902060405160a08101604052908181806107936113ee565b600181600116156101000203166002900480601f0160208091040260200160405190810160405281815291906020830182806107cd6113ee565b600181600116156101000203166002900480156108395780601f106108075761010080836107f96113ee565b040283529160200191610839565b820191906000526020600020905b8161081e6113ee565b8152906001019060200180831161081557829003601f168201915b50505050508152602001600182016000906108526113ee565b6001600160a01b036101009290920a900416815260200160028201806108766113ee565b600181600116156101000203166002900480601f0160208091040260200160405190810160405281815291906020830182806108b06113ee565b6001816001161561010002031660029004801561091c5780601f106108ea5761010080836108dc6113ee565b04028352916020019161091c565b820191906000526020600020905b816109016113ee565b815290600101906020018083116108f857829003601f168201915b5050505050815260200160038201806109336113ee565b600181600116156101000203166002900480601f01602080910402602001604051908101604052818152919060208301828061096d6113ee565b600181600116156101000203166002900480156109d95780601f106109a75761010080836109996113ee565b0402835291602001916109d9565b820191906000526020600020905b816109be6113ee565b815290600101906020018083116109b557829003601f168201915b5050505050815260200160048201806109f06113ee565b600181600116156101000203166002900480601f016020809104026020016040519081016040528181529190602083018280610a2a6113ee565b60018160011615610100020316600290048015610a965780601f10610a64576101008083610a566113ee565b040283529160200191610a96565b820191906000526020600020905b81610a7b6113ee565b81529060010190602001808311610a7257829003601f168201915b505050505081525050905092915050565b606060008260010180610ab86113ee565b9050905060008167ffffffffffffffff81118015610ade57600080610adb61134b565b50505b50604051908082528060200260200182016040528015610b1857816020015b610b056113b6565b815260200190600190039081610afd5790505b50905060005b82811015610ea35784600181018281610b356113ee565b8110610b3d57fe5b90600052602060002001604051610b5491906119c1565b908152602001604051809103902060405160a0810160405290818180610b786113ee565b600181600116156101000203166002900480601f016020809104026020016040519081016040528181529190602083018280610bb26113ee565b60018160011615610100020316600290048015610c1e5780601f10610bec576101008083610bde6113ee565b040283529160200191610c1e565b820191906000526020600020905b81610c036113ee565b81529060010190602001808311610bfa57829003601f168201915b5050505050815260200160018201600090610c376113ee565b6001600160a01b036101009290920a90041681526020016002820180610c5b6113ee565b600181600116156101000203166002900480601f016020809104026020016040519081016040528181529190602083018280610c956113ee565b60018160011615610100020316600290048015610d015780601f10610ccf576101008083610cc16113ee565b040283529160200191610d01565b820191906000526020600020905b81610ce66113ee565b81529060010190602001808311610cdd57829003601f168201915b505050505081526020016003820180610d186113ee565b600181600116156101000203166002900480601f016020809104026020016040519081016040528181529190602083018280610d526113ee565b60018160011615610100020316600290048015610dbe5780601f10610d8c576101008083610d7e6113ee565b040283529160200191610dbe565b820191906000526020600020905b81610da36113ee565b81529060010190602001808311610d9a57829003601f168201915b505050505081526020016004820180610dd56113ee565b600181600116156101000203166002900480601f016020809104026020016040519081016040528181529190602083018280610e0f6113ee565b60018160011615610100020316600290048015610e7b5780601f10610e49576101008083610e3b6113ee565b040283529160200191610e7b565b820191906000526020600020905b81610e606113ee565b81529060010190602001808311610e5757829003601f168201915b505050505081525050828281518110610e9057fe5b6020908102919091010152600101610b1e565b509392505050565b6000610eb6826106e1565b158015610ed057508260010180610ecb6113ee565b151590505b80156101b457506101b4600184018484604051610eed91906119a5565b9081526020016040518091039020600501610f066113ee565b81610f0f6113ee565b8110610f1757fe5b9060005260206000200180610f2a6113ee565b600181600116156101000203166002900480601f016020809104026020016040519081016040528181529190602083018280610f646113ee565b60018160011615610100020316600290048015610fd05780601f10610f9e576101008083610f906113ee565b040283529160200191610fd0565b820191906000526020600020905b81610fb56113ee565b81529060010190602001808311610fac57829003601f168201915b505050505083610689565b610fe36113b6565b610fed8383610eab565b61101b5760405162461bcd60e51b815260040161100990611b66565b6040518091039061101861134b565b50505b828260405161102a91906119a5565b908152602001604051809103902060405160a081016040529081818061104e6113ee565b600181600116156101000203166002900480601f0160208091040260200160405190810160405281815291906020830182806110886113ee565b600181600116156101000203166002900480156110f45780601f106110c25761010080836110b46113ee565b0402835291602001916110f4565b820191906000526020600020905b816110d96113ee565b815290600101906020018083116110d057829003601f168201915b505050505081526020016001820160009061110d6113ee565b6001600160a01b036101009290920a900416815260200160028201806111316113ee565b600181600116156101000203166002900480601f01602080910402602001604051908101604052818152919060208301828061116b6113ee565b600181600116156101000203166002900480156111d75780601f106111a55761010080836111976113ee565b0402835291602001916111d7565b820191906000526020600020905b816111bc6113ee565b815290600101906020018083116111b357829003601f168201915b5050505050815260200160038201806111ee6113ee565b600181600116156101000203166002900480601f0160208091040260200160405190810160405281815291906020830182806112286113ee565b600181600116156101000203166002900480156112945780601f106112625761010080836112546113ee565b040283529160200191611294565b820191906000526020600020905b816112796113ee565b8152906001019060200180831161127057829003601f168201915b5050505050815260200160048201806112ab6113ee565b600181600116156101000203166002900480601f0160208091040260200160405190810160405281815291906020830182806112e56113ee565b60018160011615610100020316600290048015610a965780601f10611311576101008083610a566113ee565b820191906000526020600020905b816113286113ee565b8152906001019060200180831161131f5750505091909252509195945050505050565b632a2a7adb598160e01b8152600481016020815285602082015260005b86811015611383578086015182820160400152602001611368565b506020828760640184336000905af158600e01573d6000803e3d6000fd5b3d6001141558600a015760016000f35b505050565b6040518060a001604052806060815260200160006001600160a01b031681526020016060815260200160608152602001606081525090565b6303daa959598160e01b8152836004820152602081602483336000905af158600e01573d6000803e3d6000fd5b3d6001141558600a015760016000f35b8051935060005b604081101561144957600082820152602001611432565b505050565b82806114586113ee565b600181600116156101000203166002900490600052602060002090601f0160209004810192826114945760008561148d6114fe565b50506114ee565b82601f106114af57805160ff1916838001178561148d6114fe565b828001600101856114be6114fe565b505082156114ee579182015b828111156114ee578251826114dd6114fe565b5050916020019190600101906114ca565b506114fa929150611633565b5090565b6322bd64c0598160e01b8152836004820152846024820152600081604483336000905af158600e01573d6000803e3d6000fd5b3d6001141558600a015760016000f35b600081526020611432565b82806115566113ee565b600181600116156101000203166002900490600052602060002090601f01602090048101928261158b5760008561148d6114fe565b82601f106115a657805160ff1916838001178561148d6114fe565b828001600101856115b56114fe565b505082156114ee579182015b828111156114ee578251826115d46114fe565b5050916020019190600101906115c1565b50806115ef6113ee565b600181600116156101000203166002900460008261160b6114fe565b505080601f1061161b575061019a565b601f016020900490600052602060002061019a918101905b808211156114fa57600080826116476114fe565b505050600101611633565b80356001600160a01b03811681146101c95760008061166f61134b565b5050919050565b600082601f83011261168f57808161168c61134b565b50505b813567ffffffffffffffff8111156116a357fe5b6116b6601f8201601f1916602001611bc4565b8181528460208386010111156116d35782836116d061134b565b50505b816020850160208301379081016020019190915292915050565b60006020828403121561170757808161170461134b565b50505b813567ffffffffffffffff81111561172657818261172361134b565b50505b61173284828501611676565b949350505050565b6000806040838503121561175557808161175261134b565b50505b823567ffffffffffffffff8082111561177557828361177261134b565b50505b61178186838701611676565b9350602085013591508082111561179f57828361179c61134b565b50505b506117ac85828601611676565b9150509250929050565b6000602082840312156117d05780816117cd61134b565b50505b813567ffffffffffffffff808211156117f05782836117ed61134b565b50505b9083019060a0828603121561180c57828361180961134b565b50505b61181660a0611bc4565b82358281111561182d57848561182a61134b565b50505b61183987828601611676565b82525061184860208401611652565b602082015260408301358281111561186757848561186461134b565b50505b61187387828601611676565b60408301525060608301358281111561189357848561189061134b565b50505b61189f87828601611676565b6060830152506080830135828111156118bf5784856118bc61134b565b50505b6118cb87828601611676565b60808301525095945050505050565b6000602082840312156118f45780816118f161134b565b50505b5035919050565b60008151808452611913816020860160208601611bec565b601f01601f19169290920160200192915050565b6000815160a0845261193c60a08501826118fb565b90506001600160a01b0360208401511660208501526040830151848203604086015261196882826118fb565b9150506060830151848203606086015261198282826118fb565b9150506080830151848203608086015261199c82826118fb565b95945050505050565b600082516119b7818460208701611bec565b9190910192915050565b600080836119cd6113ee565b600181811680156119e557600181146119fc57611a32565b60ff198316865260028304607f1686019350611a32565b600283048786526020808720875b83811015611a2a5781611a1b6113ee565b8a820152908501908201611a0a565b505050860193505b509195945050505050565b6000602080830181845280855180835260408601915060408482028701019250838701855b82811015611a9057878503603f19018452611a7e858351611927565b94509285019290850190600101611a62565b5092979650505050505050565b901515815260200190565b60208082526026908201527f4c69624974657261626c654d617070696e673a204e414d455f414c524541445960408201526517d05111115160d21b606082015260800190565b6020808252601e908201527f4c69624974657261626c654d617070696e673a20454d5054595f4e414d450000604082015260600190565b60208082526021908201527f4c69624974657261626c654d617070696e673a20494e56414c49445f494e44456040820152600b60fb1b606082015260800190565b60208082526022908201527f4c69624974657261626c654d617070696e673a204e414d455f4e4f545f464f55604082015261139160f21b606082015260800190565b6000602082526101b46020830184611927565b90815260200190565b6000604051905081810181811067ffffffffffffffff82111715611be457fe5b604052919050565b60005b83811015611c07578082015183820152602001611bef565b838111156103cc575050600091015256",
  "linkReferences": {},
  "deployedLinkReferences": {}
}