{
  "_format": "hh-sol-artifact-1",
  "contractName": "ChannelFactory.ovm",
  "sourceName": "src.sol/ChannelFactory.sol",
  "abi": [
    {
      "inputs": [
        {
          "internalType": "address",
          "name": "_mastercopy",
          "type": "address"
        },
        {
          "internalType": "uint256",
          "name": "_chainId",
          "type": "uint256"
        }
      ],
      "stateMutability": "nonpayable",
      "type": "constructor"
    },
    {
      "anonymous": false,
      "inputs": [
        {
          "indexed": false,
          "internalType": "address",
          "name": "channel",
          "type": "address"
        }
      ],
      "name": "ChannelCreation",
      "type": "event"
    },
    {
      "inputs": [
        {
          "internalType": "address",
          "name": "alice",
          "type": "address"
        },
        {
          "internalType": "address",
          "name": "bob",
          "type": "address"
        }
      ],
      "name": "createChannel",
      "outputs": [
        {
          "internalType": "address",
          "name": "channel",
          "type": "address"
        }
      ],
      "stateMutability": "nonpayable",
      "type": "function"
    },
    {
      "inputs": [
        {
          "internalType": "address",
          "name": "alice",
          "type": "address"
        },
        {
          "internalType": "address",
          "name": "bob",
          "type": "address"
        },
        {
          "internalType": "address",
          "name": "assetId",
          "type": "address"
        },
        {
          "internalType": "uint256",
          "name": "amount",
          "type": "uint256"
        }
      ],
      "name": "createChannelAndDepositAlice",
      "outputs": [
        {
          "internalType": "address",
          "name": "channel",
          "type": "address"
        }
      ],
      "stateMutability": "payable",
      "type": "function"
    },
    {
      "inputs": [],
      "name": "getChainId",
      "outputs": [
        {
          "internalType": "uint256",
          "name": "_chainId",
          "type": "uint256"
        }
      ],
      "stateMutability": "view",
      "type": "function"
    },
    {
      "inputs": [
        {
          "internalType": "address",
          "name": "alice",
          "type": "address"
        },
        {
          "internalType": "address",
          "name": "bob",
          "type": "address"
        }
      ],
      "name": "getChannelAddress",
      "outputs": [
        {
          "internalType": "address",
          "name": "",
          "type": "address"
        }
      ],
      "stateMutability": "view",
      "type": "function"
    },
    {
      "inputs": [],
      "name": "getMastercopy",
      "outputs": [
        {
          "internalType": "address",
          "name": "",
          "type": "address"
        }
      ],
      "stateMutability": "view",
      "type": "function"
    },
    {
      "inputs": [],
      "name": "getProxyCreationCode",
      "outputs": [
        {
          "internalType": "bytes",
          "name": "",
          "type": "bytes"
        }
      ],
      "stateMutability": "view",
      "type": "function"
    },
    {
      "inputs": [],
      "name": "getStoredChainId",
      "outputs": [
        {
          "internalType": "uint256",
          "name": "",
          "type": "uint256"
        }
      ],
      "stateMutability": "view",
      "type": "function"
    }
  ],
  "bytecode": "0x60c06040523480156200001c576000806200001962000104565b50505b506040516200124b3803806200124b8339810160408190526200003f91620001d5565b6001600160601b0319606083901b1660805260a0819052620000618262000080565b805190602001208060006200007562000171565b50505050506200029a565b606060405160408082018152601482527f3d602d80600a3d3981f3363d3d373d3d3d363d73000000000000000000000000602083015283905160408082018152600f82526e5af43d82803e903d91602b57fd5bf360881b602083015251602001620000ee9392919062000262565b6040516020818303038152906040529050919050565b632a2a7adb598160e01b8152600481016020815285602082015260005b868110156200013e57808601518282016040015260200162000121565b506020828760640184336000905af158600e01573d6000803e3d6000fd5b3d6001141558600a015760016000f35b505050565b6322bd64c0598160e01b8152836004820152846024820152600081604483336000905af158600e01573d6000803e3d6000fd5b3d6001141558600a015760016000f35b60005b6040811015620001d057600082820152602001620001b7565b505050565b60008060408385031215620001f3578182620001f062000104565b50505b82516001600160a01b0381168114620002155782836200021262000104565b50505b9150602083015190509250929050565b60008151815b81811015620002485760208185010151858201526020016200022b565b81811115620002575782828601525b509290920192915050565b600062000270828662000225565b606085901b6001600160601b031916815262000290601482018562000225565b9695505050505050565b60805160601c60a051610f80620002cb600039806101bd52806101e352508061019252806103195250610f806000f3fe6080604052600436106100705760003560e01c806335a1ba6f1161004e57806335a1ba6f146100fb578063e617aaac14610131578063efe436931461015a578063fe4545011461017857610070565b806315727e911461007e57806332a130c9146100b25780633408e470146100dd575b60008061007b61091a565b50505b3480156100935760008061009061091a565b50505b5061009c61018b565b6040516100a99190610e64565b60405180910390f35b3480156100c7576000806100c461091a565b50505b506100d06101bb565b6040516100a99190610f4b565b3480156100f2576000806100ef61091a565b50505b506100d06101df565b3480156101105760008061010d61091a565b50505b5061012461011f366004610ca6565b61021f565b6040516100a99190610df9565b3480156101465760008061014361091a565b50505b50610124610155366004610ca6565b6102f0565b34801561016f5760008061016c61091a565b50505b50610124610317565b610124610186366004610ce1565b61033b565b60606101b67f00000000000000000000000000000000000000000000000000000000000000006104b8565b905090565b7f000000000000000000000000000000000000000000000000000000000000000090565b60007f000000000000000000000000000000000000000000000000000000000000000080610217575a610210610985565b915061021b565b8091505b5090565b600061022b8383610532565b9050806001600160a01b0316632d34ba7984846040518363ffffffff1660e01b815260040161025b929190610e0d565b600060405180830381600087806102706109df565b1580156102855760008061028261091a565b50505b505a61028f610a2b565b5050505050501580156102af573d6000803e3d60006102ac61091a565b50505b505050507fa79ba8cc5fdc29196c8d65701a02433c92328f38f0ffbea3908335b80d81409d816040516102e29190610df9565b60405180910390a192915050565b600061030e6102ff848461055c565b6000610309610b16565b610597565b90505b92915050565b7f000000000000000000000000000000000000000000000000000000000000000090565b6000610347858561021f565b9050610352836105fc565b610429576103c2835a610363610b62565b5a63996d79a5598160e01b8152602081600483336000905af158600e01573d6000803e3d6000fd5b3d6001141558600a015760016000f35b8051925060005b60408110156103b9576000828201526020016103a2565b50505085610609565b6103f05760405162461bcd60e51b81526004016103de90610f06565b604051809103906103ed61091a565b50505b6103fb838284610660565b6104295760405162461bcd60e51b815260040161041790610ec2565b6040518091039061042661091a565b50505b806001600160a01b031663635ae9013485856040518463ffffffff1660e01b8152600401610458929190610e4b565b60006040518083038185888061046c6109df565b1580156104815760008061047e61091a565b50505b505a61048b610a2b565b5050505050501580156104ab573d6000803e3d60006104a861091a565b50505b5050505050949350505050565b60606040516040808201815260148252733d602d80600a3d3981f3363d3d373d3d3d363d7360601b602083015283905160408082018152600f82526e5af43d82803e903d91602b57fd5bf360881b60208301525160200161051b93929190610db2565b60405160208183030381529060405290505b919050565b60008061053f848461055c565b905061055460008261054f61018b565b6106ac565b949350505050565b600082826105686101df565b60405160200161057a93929190610d6d565b604051602081830303815290604052805190602001209392505050565b600061030e83835a63996d79a5598160e01b8152602081600483336000905af158600e01573d6000803e3d6000fd5b3d6001141558600a015760016000f35b8051925060005b60408110156105f4576000828201526020016105dd565b50505061078a565b6001600160a01b03161590565b60006106578585858560405160240161062493929190610e27565b604051601f198183030181526040919091526323b872dd60e01b6020820180516001600160e01b031690911790526107ef565b95945050505050565b6000610554848484604051602401610679929190610e4b565b604051601f1981830301815260409190915263095ea7b360e01b6020820180516001600160e01b031690911790526107ef565b600080825161070a5760405162461bcd60e51b815260206004820181905260248201527f437265617465323a2062797465636f6465206c656e677468206973207a65726f60448201526064016040518091039061070761091a565b50505b838351602085018761071a610ba8565b5091925050506001600160a01b0381166105545760405162461bcd60e51b815260206004820152601960248201527f437265617465323a204661696c6564206f6e206465706c6f790000000000000060448201526064016040518091039061078061091a565b5050949350505050565b6000806001600160f81b03198386866040516001600160f81b031994909416602085015260609290921b6001600160601b0319166021840152603583015260558201526075016040516020818303038152906040528051906020012095945050505050565b60006107fa836108bd565b6108285760405162461bcd60e51b815260040161081690610e97565b6040518091039061082561091a565b50505b600080846001600160a01b0316846040516108439190610d96565b6000604051808303816000865a610858610a2b565b5050505050509150503d806000811461088d576040513d603f01601f191681016040523d815291503d6000602084013e610892565b606091505b50915091506108a18282610900565b8051158061065757506020810181518101906106579190610d34565b6000807fc5d2460186f7233c927e7db2dcc703c0e500b653ca82273b7bfad8045d85a470836108ea610c36565b9150808214158015610554575050151592915050565b816109165780516020820161091361091a565b50505b5050565b632a2a7adb598160e01b8152600481016020815285602082015260005b86811015610952578086015182820160400152602001610937565b506020828760640184336000905af158600e01573d6000803e3d6000fd5b3d6001141558600a015760016000f35b505050565b6390580256598160e01b8152602081600483336000905af158600e01573d6000803e3d6000fd5b3d6001141558600a015760016000f35b8051935060005b60408110156109da576000828201526020016109c3565b505050565b638435035b598160e01b8152836004820152602081602483336000905af158600e01573d6000803e3d6000fd5b3d6001141558600a015760016000f35b805160008252935060206109c3565b6385979f76598160e01b8152610a5c565b8080831115610311575090919050565b8080831015610311575090919050565b836004820152846024820152606060448201528760648201526084810160005b89811015610a94578089015182820152602001610a7c565b506060828a60a40184336000905af158600e01573d6000803e3d6000fd5b3d6001141558600a015760016000f35b815160408301513d6000853e8c8c82606087013350600060045af15059610ae98e3d610a4c565b8d01610af58187610a3c565b5b82811015610b0a5760008152602001610af6565b50929d50505050505050565b6303daa959598160e01b8152836004820152602081602483336000905af158600e01573d6000803e3d6000fd5b3d6001141558600a015760016000f35b805160008252935060206109c3565b6373509064598160e01b8152602081600483336000905af158600e01573d6000803e3d6000fd5b3d6001141558600a015760016000f35b805160008252935060206109c3565b6399ccd98b598160e01b8152600481016040815287602082015286604082015260005b87811015610be6578087015182820160600152602001610bcb565b506020828860840184336000905af158600e01573d6000803e3d6000fd5b3d6001141558600a015760016000f35b8151975059825b81811015610c2f5760008152602001610c1b565b5050505050565b6324749d5c598160e01b8152836004820152602081602483336000905af158600e01573d6000803e3d6000fd5b3d6001141558600a015760016000f35b805160008252935060206109c3565b80356001600160a01b038116811461052d57600080610c9f61091a565b5050919050565b60008060408385031215610cc1578182610cbe61091a565b50505b610cca83610c82565b9150610cd860208401610c82565b90509250929050565b60008060008060808587031215610cff578182610cfc61091a565b50505b610d0885610c82565b9350610d1660208601610c82565b9250610d2460408601610c82565b9396929550929360600135925050565b600060208284031215610d4e578081610d4b61091a565b50505b81518015158114610d66578182610d6361091a565b50505b9392505050565b6001600160601b0319606094851b811682529290931b9091166014830152602882015260480190565b60008251610da8818460208701610f54565b9190910192915050565b60008451610dc4818460208901610f54565b606085901b6001600160601b0319169083019081528351610dec816014840160208801610f54565b0160140195945050505050565b6001600160a01b0391909116815260200190565b6001600160a01b0392831681529116602082015260400190565b6001600160a01b039384168152919092166020820152604081019190915260600190565b6001600160a01b03929092168252602082015260400190565b6000602082528251806020840152610e83816040850160208701610f54565b601f01601f19169190910160400192915050565b6020808252601190820152704c696245524332303a204e4f5f434f444560781b604082015260600190565b60208082526024908201527f4368616e6e656c466163746f72793a2045524332305f415050524f56455f46416040820152631253115160e21b606082015260800190565b60208082526025908201527f4368616e6e656c466163746f72793a2045524332305f5452414e534645525f46604082015264105253115160da1b606082015260800190565b90815260200190565b60005b83811015610f6f578082015183820152602001610f57565b83811115610913575050600091015256",
  "linkReferences": {},
  "deployedLinkReferences": {}
}