{
    "_format": "hh-sol-artifact-1",
    "contractName": "FailingToken",
    "sourceName": "src.sol/testing/FailingToken.sol",
    "abi": [
        {
            "inputs": [],
            "stateMutability": "nonpayable",
            "type": "constructor"
        },
        {
            "anonymous": false,
            "inputs": [
                {
                    "indexed": true,
                    "internalType": "address",
                    "name": "owner",
                    "type": "address"
                },
                {
                    "indexed": true,
                    "internalType": "address",
                    "name": "spender",
                    "type": "address"
                },
                {
                    "indexed": false,
                    "internalType": "uint256",
                    "name": "value",
                    "type": "uint256"
                }
            ],
            "name": "Approval",
            "type": "event"
        },
        {
            "anonymous": false,
            "inputs": [
                {
                    "indexed": true,
                    "internalType": "address",
                    "name": "from",
                    "type": "address"
                },
                {
                    "indexed": true,
                    "internalType": "address",
                    "name": "to",
                    "type": "address"
                },
                {
                    "indexed": false,
                    "internalType": "uint256",
                    "name": "value",
                    "type": "uint256"
                }
            ],
            "name": "Transfer",
            "type": "event"
        },
        {
            "inputs": [
                {
                    "internalType": "address",
                    "name": "owner",
                    "type": "address"
                },
                {
                    "internalType": "address",
                    "name": "spender",
                    "type": "address"
                }
            ],
            "name": "allowance",
            "outputs": [
                {
                    "internalType": "uint256",
                    "name": "",
                    "type": "uint256"
                }
            ],
            "stateMutability": "view",
            "type": "function"
        },
        {
            "inputs": [
                {
                    "internalType": "address",
                    "name": "spender",
                    "type": "address"
                },
                {
                    "internalType": "uint256",
                    "name": "amount",
                    "type": "uint256"
                }
            ],
            "name": "approve",
            "outputs": [
                {
                    "internalType": "bool",
                    "name": "",
                    "type": "bool"
                }
            ],
            "stateMutability": "nonpayable",
            "type": "function"
        },
        {
            "inputs": [
                {
                    "internalType": "address",
                    "name": "account",
                    "type": "address"
                }
            ],
            "name": "balanceOf",
            "outputs": [
                {
                    "internalType": "uint256",
                    "name": "",
                    "type": "uint256"
                }
            ],
            "stateMutability": "view",
            "type": "function"
        },
        {
            "inputs": [
                {
                    "internalType": "address",
                    "name": "account",
                    "type": "address"
                },
                {
                    "internalType": "uint256",
                    "name": "amount",
                    "type": "uint256"
                }
            ],
            "name": "burn",
            "outputs": [],
            "stateMutability": "nonpayable",
            "type": "function"
        },
        {
            "inputs": [],
            "name": "decimals",
            "outputs": [
                {
                    "internalType": "uint8",
                    "name": "",
                    "type": "uint8"
                }
            ],
            "stateMutability": "view",
            "type": "function"
        },
        {
            "inputs": [
                {
                    "internalType": "address",
                    "name": "spender",
                    "type": "address"
                },
                {
                    "internalType": "uint256",
                    "name": "subtractedValue",
                    "type": "uint256"
                }
            ],
            "name": "decreaseAllowance",
            "outputs": [
                {
                    "internalType": "bool",
                    "name": "",
                    "type": "bool"
                }
            ],
            "stateMutability": "nonpayable",
            "type": "function"
        },
        {
            "inputs": [
                {
                    "internalType": "address",
                    "name": "spender",
                    "type": "address"
                },
                {
                    "internalType": "uint256",
                    "name": "addedValue",
                    "type": "uint256"
                }
            ],
            "name": "increaseAllowance",
            "outputs": [
                {
                    "internalType": "bool",
                    "name": "",
                    "type": "bool"
                }
            ],
            "stateMutability": "nonpayable",
            "type": "function"
        },
        {
            "inputs": [
                {
                    "internalType": "address",
                    "name": "account",
                    "type": "address"
                },
                {
                    "internalType": "uint256",
                    "name": "amount",
                    "type": "uint256"
                }
            ],
            "name": "mint",
            "outputs": [],
            "stateMutability": "nonpayable",
            "type": "function"
        },
        {
            "inputs": [],
            "name": "name",
            "outputs": [
                {
                    "internalType": "string",
                    "name": "",
                    "type": "string"
                }
            ],
            "stateMutability": "view",
            "type": "function"
        },
        {
            "inputs": [],
            "name": "rejectEther",
            "outputs": [
                {
                    "internalType": "bool",
                    "name": "",
                    "type": "bool"
                }
            ],
            "stateMutability": "view",
            "type": "function"
        },
        {
            "inputs": [
                {
                    "internalType": "bool",
                    "name": "_rejectEther",
                    "type": "bool"
                }
            ],
            "name": "setRejectEther",
            "outputs": [
                {
                    "internalType": "bool",
                    "name": "",
                    "type": "bool"
                }
            ],
            "stateMutability": "nonpayable",
            "type": "function"
        },
        {
            "inputs": [
                {
                    "internalType": "bool",
                    "name": "_transferShouldFail",
                    "type": "bool"
                }
            ],
            "name": "setTransferShouldFail",
            "outputs": [
                {
                    "internalType": "bool",
                    "name": "",
                    "type": "bool"
                }
            ],
            "stateMutability": "nonpayable",
            "type": "function"
        },
        {
            "inputs": [
                {
                    "internalType": "bool",
                    "name": "_transferShouldRevert",
                    "type": "bool"
                }
            ],
            "name": "setTransferShouldRevert",
            "outputs": [
                {
                    "internalType": "bool",
                    "name": "",
                    "type": "bool"
                }
            ],
            "stateMutability": "nonpayable",
            "type": "function"
        },
        {
            "inputs": [
                {
                    "internalType": "address",
                    "name": "recipient",
                    "type": "address"
                },
                {
                    "internalType": "uint256",
                    "name": "amount",
                    "type": "uint256"
                }
            ],
            "name": "succeedingTransfer",
            "outputs": [
                {
                    "internalType": "bool",
                    "name": "",
                    "type": "bool"
                }
            ],
            "stateMutability": "nonpayable",
            "type": "function"
        },
        {
            "inputs": [],
            "name": "symbol",
            "outputs": [
                {
                    "internalType": "string",
                    "name": "",
                    "type": "string"
                }
            ],
            "stateMutability": "view",
            "type": "function"
        },
        {
            "inputs": [],
            "name": "totalSupply",
            "outputs": [
                {
                    "internalType": "uint256",
                    "name": "",
                    "type": "uint256"
                }
            ],
            "stateMutability": "view",
            "type": "function"
        },
        {
            "inputs": [
                {
                    "internalType": "address",
                    "name": "recipient",
                    "type": "address"
                },
                {
                    "internalType": "uint256",
                    "name": "amount",
                    "type": "uint256"
                }
            ],
            "name": "transfer",
            "outputs": [
                {
                    "internalType": "bool",
                    "name": "",
                    "type": "bool"
                }
            ],
            "stateMutability": "nonpayable",
            "type": "function"
        },
        {
            "inputs": [
                {
                    "internalType": "address",
                    "name": "sender",
                    "type": "address"
                },
                {
                    "internalType": "address",
                    "name": "recipient",
                    "type": "address"
                },
                {
                    "internalType": "uint256",
                    "name": "amount",
                    "type": "uint256"
                }
            ],
            "name": "transferFrom",
            "outputs": [
                {
                    "internalType": "bool",
                    "name": "",
                    "type": "bool"
                }
            ],
            "stateMutability": "nonpayable",
            "type": "function"
        },
        {
            "inputs": [],
            "name": "transferShouldFail",
            "outputs": [
                {
                    "internalType": "bool",
                    "name": "",
                    "type": "bool"
                }
            ],
            "stateMutability": "view",
            "type": "function"
        },
        {
            "inputs": [],
            "name": "transferShouldRevert",
            "outputs": [
                {
                    "internalType": "bool",
                    "name": "",
                    "type": "bool"
                }
            ],
            "stateMutability": "view",
            "type": "function"
        },
        {
            "stateMutability": "payable",
            "type": "receive"
        }
    ],
    "bytecode": "0x60806040523480156200001157600080fd5b50604080518082018252600d81526c2330b4b634b733902a37b5b2b760991b6020808301918252835180850190945260048452631190525360e21b908401528151919291620000639160039162000226565b5080516200007990600490602084019062000226565b50506005805461ff001960ff199091166012171661010017905550620000aa3369d3c21bcecceda1000000620000b0565b620002c2565b6001600160a01b0382166200010c576040805162461bcd60e51b815260206004820152601f60248201527f45524332303a206d696e7420746f20746865207a65726f206164647265737300604482015290519081900360640190fd5b6200011a60008383620001bf565b6200013681600254620001c460201b620009691790919060201c565b6002556001600160a01b038216600090815260208181526040909120546200016991839062000969620001c4821b17901c565b6001600160a01b0383166000818152602081815260408083209490945583518581529351929391927fddf252ad1be2c89b69c2b068fc378daa952ba7f163c4a11628f55a4df523b3ef9281900390910190a35050565b505050565b6000828201838110156200021f576040805162461bcd60e51b815260206004820152601b60248201527f536166654d6174683a206164646974696f6e206f766572666c6f770000000000604482015290519081900360640190fd5b9392505050565b828054600181600116156101000203166002900490600052602060002090601f016020900481019282601f106200026957805160ff191683800117855562000299565b8280016001018555821562000299579182015b82811115620002995782518255916020019190600101906200027c565b50620002a7929150620002ab565b5090565b5b80821115620002a75760008155600101620002ac565b6110e880620002d26000396000f3fe6080604052600436106101235760003560e01c806370a08231116100a0578063a457c2d711610064578063a457c2d7146104a0578063a9059cbb146104d9578063c38b79ef14610512578063dd62ed3e1461053e578063ff0a85701461057957610181565b806370a08231146103f5578063805c44ae146104285780639299dc731461043d57806395d89b41146104525780639dc29fac1461046757610181565b806323b872dd116100e757806323b872dd146102e9578063313ce5671461032c578063395093511461035757806340c10f1914610390578063468c15a9146103c957610181565b806306fdde0314610186578063095ea7b3146102105780630cf96c3b1461025d57806318160ddd146102895780631f7fbbee146102b057610181565b36610181576005546301000000900460ff161561017f576040805162461bcd60e51b8152602060048201526015602482015274115490cc8c0e88115512115497d491529150d51151605a1b604482015290519081900360640190fd5b005b600080fd5b34801561019257600080fd5b5061019b61058e565b6040805160208082528351818301528351919283929083019185019080838360005b838110156101d55781810151838201526020016101bd565b50505050905090810190601f1680156102025780820380516001836020036101000a031916815260200191505b509250505060405180910390f35b34801561021c57600080fd5b506102496004803603604081101561023357600080fd5b506001600160a01b038135169060200135610624565b604080519115158252519081900360200190f35b34801561026957600080fd5b506102496004803603602081101561028057600080fd5b50351515610642565b34801561029557600080fd5b5061029e610663565b60408051918252519081900360200190f35b3480156102bc57600080fd5b50610249600480360360408110156102d357600080fd5b506001600160a01b038135169060200135610669565b3480156102f557600080fd5b506102496004803603606081101561030c57600080fd5b506001600160a01b0381358116916020810135909116906040013561067c565b34801561033857600080fd5b506103416106fe565b6040805160ff9092168252519081900360200190f35b34801561036357600080fd5b506102496004803603604081101561037a57600080fd5b506001600160a01b038135169060200135610707565b34801561039c57600080fd5b5061017f600480360360408110156103b357600080fd5b506001600160a01b03813516906020013561075a565b3480156103d557600080fd5b50610249600480360360208110156103ec57600080fd5b50351515610768565b34801561040157600080fd5b5061029e6004803603602081101561041857600080fd5b50356001600160a01b0316610787565b34801561043457600080fd5b506102496107a2565b34801561044957600080fd5b506102496107b2565b34801561045e57600080fd5b5061019b6107c0565b34801561047357600080fd5b5061017f6004803603604081101561048a57600080fd5b506001600160a01b038135169060200135610821565b3480156104ac57600080fd5b50610249600480360360408110156104c357600080fd5b506001600160a01b03813516906020013561082b565b3480156104e557600080fd5b50610249600480360360408110156104fc57600080fd5b506001600160a01b038135169060200135610893565b34801561051e57600080fd5b506102496004803603602081101561053557600080fd5b5035151561090c565b34801561054a57600080fd5b5061029e6004803603604081101561056157600080fd5b506001600160a01b038135811691602001351661092f565b34801561058557600080fd5b5061024961095a565b60038054604080516020601f600260001961010060018816150201909516949094049384018190048102820181019092528281526060939092909183018282801561061a5780601f106105ef5761010080835404028352916020019161061a565b820191906000526020600020905b8154815290600101906020018083116105fd57829003601f168201915b5050505050905090565b60006106386106316109c3565b84846109c7565b5060015b92915050565b6005805462ff00001916620100009215158302179081905560ff9190041690565b60025490565b60006106758383610ab3565b9392505050565b600554600090610100900460ff16156106d2576040805162461bcd60e51b81526020600482015260136024820152722320a4a61d102330b4b634b733903a37b5b2b760691b604482015290519081900360640190fd5b60055462010000900460ff16156106eb57506000610675565b6106f6848484610ac7565b949350505050565b60055460ff1690565b60006106386107146109c3565b8461075585600160006107256109c3565b6001600160a01b03908116825260208083019390935260409182016000908120918c168152925290205490610969565b6109c7565b6107648282610b49565b5050565b6005805461ff0019166101009215158302179081905560ff9190041690565b6001600160a01b031660009081526020819052604090205490565b6005546301000000900460ff1681565b600554610100900460ff1681565b60048054604080516020601f600260001961010060018816150201909516949094049384018190048102820181019092528281526060939092909183018282801561061a5780601f106105ef5761010080835404028352916020019161061a565b6107648282610c39565b60006106386108386109c3565b846107558560405180606001604052806025815260200161108e60259139600160006108626109c3565b6001600160a01b03908116825260208083019390935260409182016000908120918d16815292529020549190610d35565b600554600090610100900460ff16156108e9576040805162461bcd60e51b81526020600482015260136024820152722320a4a61d102330b4b634b733903a37b5b2b760691b604482015290519081900360640190fd5b60055462010000900460ff16156109025750600061063c565b6106758383610ab3565b6005805463ff000000191663010000009215158302179081905560ff9190041690565b6001600160a01b03918216600090815260016020908152604080832093909416825291909152205490565b60055462010000900460ff1681565b600082820183811015610675576040805162461bcd60e51b815260206004820152601b60248201527f536166654d6174683a206164646974696f6e206f766572666c6f770000000000604482015290519081900360640190fd5b3390565b6001600160a01b038316610a0c5760405162461bcd60e51b815260040180806020018281038252602481526020018061106a6024913960400191505060405180910390fd5b6001600160a01b038216610a515760405162461bcd60e51b8152600401808060200182810382526022815260200180610fb46022913960400191505060405180910390fd5b6001600160a01b03808416600081815260016020908152604080832094871680845294825291829020859055815185815291517f8c5be1e5ebec7d5bd14f71427d1e84f3dd0314c0f7b2291e5b200ac8c7c3b9259281900390910190a3505050565b6000610638610ac06109c3565b8484610dcc565b6000610ad4848484610dcc565b610b3f84610ae06109c3565b61075585604051806060016040528060288152602001610ffc602891396001600160a01b038a16600090815260016020526040812090610b1e6109c3565b6001600160a01b031681526020810191909152604001600020549190610d35565b5060019392505050565b6001600160a01b038216610ba4576040805162461bcd60e51b815260206004820152601f60248201527f45524332303a206d696e7420746f20746865207a65726f206164647265737300604482015290519081900360640190fd5b610bb060008383610f27565b600254610bbd9082610969565b6002556001600160a01b038216600090815260208190526040902054610be39082610969565b6001600160a01b0383166000818152602081815260408083209490945583518581529351929391927fddf252ad1be2c89b69c2b068fc378daa952ba7f163c4a11628f55a4df523b3ef9281900390910190a35050565b6001600160a01b038216610c7e5760405162461bcd60e51b81526004018080602001828103825260218152602001806110246021913960400191505060405180910390fd5b610c8a82600083610f27565b610cc781604051806060016040528060228152602001610f92602291396001600160a01b0385166000908152602081905260409020549190610d35565b6001600160a01b038316600090815260208190526040902055600254610ced9082610f2c565b6002556040805182815290516000916001600160a01b038516917fddf252ad1be2c89b69c2b068fc378daa952ba7f163c4a11628f55a4df523b3ef9181900360200190a35050565b60008184841115610dc45760405162461bcd60e51b81526004018080602001828103825283818151815260200191508051906020019080838360005b83811015610d89578181015183820152602001610d71565b50505050905090810190601f168015610db65780820380516001836020036101000a031916815260200191505b509250505060405180910390fd5b505050900390565b6001600160a01b038316610e115760405162461bcd60e51b81526004018080602001828103825260258152602001806110456025913960400191505060405180910390fd5b6001600160a01b038216610e565760405162461bcd60e51b8152600401808060200182810382526023815260200180610f6f6023913960400191505060405180910390fd5b610e61838383610f27565b610e9e81604051806060016040528060268152602001610fd6602691396001600160a01b0386166000908152602081905260409020549190610d35565b6001600160a01b038085166000908152602081905260408082209390935590841681522054610ecd9082610969565b6001600160a01b038084166000818152602081815260409182902094909455805185815290519193928716927fddf252ad1be2c89b69c2b068fc378daa952ba7f163c4a11628f55a4df523b3ef92918290030190a3505050565b505050565b600061067583836040518060400160405280601e81526020017f536166654d6174683a207375627472616374696f6e206f766572666c6f770000815250610d3556fe45524332303a207472616e7366657220746f20746865207a65726f206164647265737345524332303a206275726e20616d6f756e7420657863656564732062616c616e636545524332303a20617070726f766520746f20746865207a65726f206164647265737345524332303a207472616e7366657220616d6f756e7420657863656564732062616c616e636545524332303a207472616e7366657220616d6f756e74206578636565647320616c6c6f77616e636545524332303a206275726e2066726f6d20746865207a65726f206164647265737345524332303a207472616e736665722066726f6d20746865207a65726f206164647265737345524332303a20617070726f76652066726f6d20746865207a65726f206164647265737345524332303a2064656372656173656420616c6c6f77616e63652062656c6f77207a65726fa264697066735822122053c037a6efdf005412bd563f0b5a7080790c26248d834f32451d1d798a5935c664736f6c63430007030033",
    "linkReferences": {},
    "deployedLinkReferences": {}
}