{
  "_format": "hh-sol-artifact-1",
  "contractName": "TestChannelFactory",
  "sourceName": "src.sol/testing/TestChannelFactory.sol",
  "abi": [
    {
      "inputs": [
        {
          "internalType": "address",
          "name": "_mastercopy",
          "type": "address"
        },
        {
          "internalType": "uint256",
          "name": "_chainId",
          "type": "uint256"
        }
      ],
      "stateMutability": "nonpayable",
      "type": "constructor"
    },
    {
      "anonymous": false,
      "inputs": [
        {
          "indexed": false,
          "internalType": "address",
          "name": "channel",
          "type": "address"
        }
      ],
      "name": "ChannelCreation",
      "type": "event"
    },
    {
      "inputs": [
        {
          "internalType": "address",
          "name": "alice",
          "type": "address"
        },
        {
          "internalType": "address",
          "name": "bob",
          "type": "address"
        }
      ],
      "name": "createChannel",
      "outputs": [
        {
          "internalType": "address",
          "name": "channel",
          "type": "address"
        }
      ],
      "stateMutability": "nonpayable",
      "type": "function"
    },
    {
      "inputs": [
        {
          "internalType": "address",
          "name": "alice",
          "type": "address"
        },
        {
          "internalType": "address",
          "name": "bob",
          "type": "address"
        },
        {
          "internalType": "address",
          "name": "assetId",
          "type": "address"
        },
        {
          "internalType": "uint256",
          "name": "amount",
          "type": "uint256"
        }
      ],
      "name": "createChannelAndDepositAlice",
      "outputs": [
        {
          "internalType": "address",
          "name": "channel",
          "type": "address"
        }
      ],
      "stateMutability": "payable",
      "type": "function"
    },
    {
      "inputs": [
        {
          "internalType": "address",
          "name": "alice",
          "type": "address"
        },
        {
          "internalType": "address",
          "name": "bob",
          "type": "address"
        }
      ],
      "name": "createChannelWithoutSetup",
      "outputs": [
        {
          "internalType": "address",
          "name": "channel",
          "type": "address"
        }
      ],
      "stateMutability": "nonpayable",
      "type": "function"
    },
    {
      "inputs": [
        {
          "internalType": "address",
          "name": "alice",
          "type": "address"
        },
        {
          "internalType": "address",
          "name": "bob",
          "type": "address"
        }
      ],
      "name": "deployChannelProxyWithoutSetup",
      "outputs": [
        {
          "internalType": "address",
          "name": "",
          "type": "address"
        }
      ],
      "stateMutability": "nonpayable",
      "type": "function"
    },
    {
      "inputs": [],
      "name": "getChainId",
      "outputs": [
        {
          "internalType": "uint256",
          "name": "_chainId",
          "type": "uint256"
        }
      ],
      "stateMutability": "view",
      "type": "function"
    },
    {
      "inputs": [
        {
          "internalType": "address",
          "name": "alice",
          "type": "address"
        },
        {
          "internalType": "address",
          "name": "bob",
          "type": "address"
        }
      ],
      "name": "getChannelAddress",
      "outputs": [
        {
          "internalType": "address",
          "name": "",
          "type": "address"
        }
      ],
      "stateMutability": "view",
      "type": "function"
    },
    {
      "inputs": [],
      "name": "getMastercopy",
      "outputs": [
        {
          "internalType": "address",
          "name": "",
          "type": "address"
        }
      ],
      "stateMutability": "view",
      "type": "function"
    },
    {
      "inputs": [],
      "name": "getProxyCreationCode",
      "outputs": [
        {
          "internalType": "bytes",
          "name": "",
          "type": "bytes"
        }
      ],
      "stateMutability": "view",
      "type": "function"
    },
    {
      "inputs": [],
      "name": "getStoredChainId",
      "outputs": [
        {
          "internalType": "uint256",
          "name": "",
          "type": "uint256"
        }
      ],
      "stateMutability": "view",
      "type": "function"
    }
  ],
  "bytecode": "0x60c060405234801561001057600080fd5b50604051610cd2380380610cd283398101604081905261002f916100ef565b6001600160601b0319606083901b1660805260a0819052818161005182610066565b80516020909101206000555061019492505050565b60606040518060400160405280601481526020017f3d602d80600a3d3981f3363d3d373d3d3d363d73000000000000000000000000815250826040518060400160405280600f81526020016e5af43d82803e903d91602b57fd5bf360881b8152506040516020016100d993929190610160565b6040516020818303038152906040529050919050565b60008060408385031215610101578182fd5b82516001600160a01b0381168114610117578283fd5b6020939093015192949293505050565b60008151815b81811015610147576020818501810151868301520161012d565b818111156101555782828601525b509290920192915050565b600061016c8286610127565b606085901b6001600160601b031916815261018a6014820185610127565b9695505050505050565b60805160601c60a051610b0e6101c4600039806101d452806101fa5250806101a952806103435250610b0e6000f3fe6080604052600436106100865760003560e01c80635b056cb5116100595780635b056cb51461011a578063a25dbcc91461013a578063e617aaac1461015a578063efe436931461017a578063fe4545011461018f57610086565b806315727e911461008b57806332a130c9146100b65780633408e470146100d857806335a1ba6f146100ed575b600080fd5b34801561009757600080fd5b506100a06101a2565b6040516100ad919061094c565b60405180910390f35b3480156100c257600080fd5b506100cb6101d2565b6040516100ad9190610a9f565b3480156100e457600080fd5b506100cb6101f6565b3480156100f957600080fd5b5061010d610108366004610785565b61022e565b6040516100ad91906108e1565b34801561012657600080fd5b5061010d610135366004610785565b6102da565b34801561014657600080fd5b5061010d610155366004610785565b610317565b34801561016657600080fd5b5061010d610175366004610785565b61032a565b34801561018657600080fd5b5061010d610341565b61010d61019d3660046107b7565b610365565b60606101cd7f0000000000000000000000000000000000000000000000000000000000000000610442565b905090565b7f000000000000000000000000000000000000000000000000000000000000000090565b60007f0000000000000000000000000000000000000000000000000000000000000000806102265746915061022a565b8091505b5090565b600061023a83836104c3565b604051632d34ba7960e01b81529091506001600160a01b03821690632d34ba799061026b90869086906004016108f5565b600060405180830381600087803b15801561028557600080fd5b505af1158015610299573d6000803e3d6000fd5b505050507fa79ba8cc5fdc29196c8d65701a02433c92328f38f0ffbea3908335b80d81409d816040516102cc91906108e1565b60405180910390a192915050565b60006102e683836104c3565b90507fa79ba8cc5fdc29196c8d65701a02433c92328f38f0ffbea3908335b80d81409d816040516102cc91906108e1565b600061032383836104c3565b9392505050565b600061032361033984846104ed565b600054610529565b7f000000000000000000000000000000000000000000000000000000000000000090565b6000610371858561022e565b905061037c83610536565b6103d85761038c83333085610543565b6103b15760405162461bcd60e51b81526004016103a890610a5a565b60405180910390fd5b6103bc838284610596565b6103d85760405162461bcd60e51b81526004016103a890610a16565b60405163635ae90160e01b81526001600160a01b0382169063635ae9019034906104089087908790600401610933565b6000604051808303818588803b15801561042157600080fd5b505af1158015610435573d6000803e3d6000fd5b5050505050949350505050565b6060604051806040016040528060148152602001733d602d80600a3d3981f3363d3d373d3d3d363d7360601b815250826040518060400160405280600f81526020016e5af43d82803e903d91602b57fd5bf360881b8152506040516020016104ac9392919061089a565b60405160208183030381529060405290505b919050565b6000806104d084846104ed565b90506104e56000826104e06101a2565b6105de565b949350505050565b600082826104f96101f6565b60405160200161050b93929190610821565b60405160208183030381529060405280519060200120905092915050565b6000610323838330610634565b6001600160a01b03161590565b600061058d8585858560405160240161055e9392919061090f565b60408051601f198184030181529190526020810180516001600160e01b03166323b872dd60e01b179052610673565b95945050505050565b60006104e58484846040516024016105af929190610933565b60408051601f198184030181529190526020810180516001600160e01b031663095ea7b360e01b179052610673565b6000808251600014156106035760405162461bcd60e51b81526004016103a89061097f565b8383516020850187f590506001600160a01b0381166104e55760405162461bcd60e51b81526004016103a8906109b4565b60008060ff60f81b838686604051602001610652949392919061084a565b60408051808303601f19018152919052805160209091012095945050505050565b600061067e83610724565b61069a5760405162461bcd60e51b81526004016103a8906109eb565b60006060846001600160a01b0316846040516106b6919061087e565b6000604051808303816000865af19150503d80600081146106f3576040519150601f19603f3d011682016040523d82523d6000602084013e6106f8565b606091505b5091509150610707828261075d565b8051158061058d57508080602001905181019061058d9190610801565b6000813f7fc5d2460186f7233c927e7db2dcc703c0e500b653ca82273b7bfad8045d85a4708181148015906104e5575050151592915050565b8161076a57805160208201fd5b5050565b80356001600160a01b03811681146104be57600080fd5b60008060408385031215610797578182fd5b6107a08361076e565b91506107ae6020840161076e565b90509250929050565b600080600080608085870312156107cc578182fd5b6107d58561076e565b93506107e36020860161076e565b92506107f16040860161076e565b9396929550929360600135925050565b600060208284031215610812578081fd5b81518015158114610323578182fd5b6001600160601b0319606094851b811682529290931b9091166014830152602882015260480190565b6001600160f81b031994909416845260609290921b6001600160601b03191660018401526015830152603582015260550190565b60008251610890818460208701610aa8565b9190910192915050565b600084516108ac818460208901610aa8565b606085901b6001600160601b03191690830190815283516108d4816014840160208801610aa8565b0160140195945050505050565b6001600160a01b0391909116815260200190565b6001600160a01b0392831681529116602082015260400190565b6001600160a01b039384168152919092166020820152604081019190915260600190565b6001600160a01b03929092168252602082015260400190565b600060208252825180602084015261096b816040850160208701610aa8565b601f01601f19169190910160400192915050565b6020808252818101527f437265617465323a2062797465636f6465206c656e677468206973207a65726f604082015260600190565b60208082526019908201527f437265617465323a204661696c6564206f6e206465706c6f7900000000000000604082015260600190565b6020808252601190820152704c696245524332303a204e4f5f434f444560781b604082015260600190565b60208082526024908201527f4368616e6e656c466163746f72793a2045524332305f415050524f56455f46416040820152631253115160e21b606082015260800190565b60208082526025908201527f4368616e6e656c466163746f72793a2045524332305f5452414e534645525f46604082015264105253115160da1b606082015260800190565b90815260200190565b60005b83811015610ac3578181015183820152602001610aab565b83811115610ad2576000848401525b5050505056fea264697066735822122077e97b08de0f5a284b71ba2deab1c4b57ceb06d70e8549985360c2509f03f42a64736f6c63430007030033",
  "linkReferences": {},
  "deployedLinkReferences": {}
}