{
  "_format": "hh-sol-artifact-1",
  "contractName": "TestChannelFactory.ovm",
  "sourceName": "src.sol/testing/TestChannelFactory.sol",
  "abi": [
    {
      "inputs": [
        {
          "internalType": "address",
          "name": "_mastercopy",
          "type": "address"
        },
        {
          "internalType": "uint256",
          "name": "_chainId",
          "type": "uint256"
        }
      ],
      "stateMutability": "nonpayable",
      "type": "constructor"
    },
    {
      "anonymous": false,
      "inputs": [
        {
          "indexed": false,
          "internalType": "address",
          "name": "channel",
          "type": "address"
        }
      ],
      "name": "ChannelCreation",
      "type": "event"
    },
    {
      "inputs": [
        {
          "internalType": "address",
          "name": "alice",
          "type": "address"
        },
        {
          "internalType": "address",
          "name": "bob",
          "type": "address"
        }
      ],
      "name": "createChannel",
      "outputs": [
        {
          "internalType": "address",
          "name": "channel",
          "type": "address"
        }
      ],
      "stateMutability": "nonpayable",
      "type": "function"
    },
    {
      "inputs": [
        {
          "internalType": "address",
          "name": "alice",
          "type": "address"
        },
        {
          "internalType": "address",
          "name": "bob",
          "type": "address"
        },
        {
          "internalType": "address",
          "name": "assetId",
          "type": "address"
        },
        {
          "internalType": "uint256",
          "name": "amount",
          "type": "uint256"
        }
      ],
      "name": "createChannelAndDepositAlice",
      "outputs": [
        {
          "internalType": "address",
          "name": "channel",
          "type": "address"
        }
      ],
      "stateMutability": "payable",
      "type": "function"
    },
    {
      "inputs": [
        {
          "internalType": "address",
          "name": "alice",
          "type": "address"
        },
        {
          "internalType": "address",
          "name": "bob",
          "type": "address"
        }
      ],
      "name": "createChannelWithoutSetup",
      "outputs": [
        {
          "internalType": "address",
          "name": "channel",
          "type": "address"
        }
      ],
      "stateMutability": "nonpayable",
      "type": "function"
    },
    {
      "inputs": [
        {
          "internalType": "address",
          "name": "alice",
          "type": "address"
        },
        {
          "internalType": "address",
          "name": "bob",
          "type": "address"
        }
      ],
      "name": "deployChannelProxyWithoutSetup",
      "outputs": [
        {
          "internalType": "address",
          "name": "",
          "type": "address"
        }
      ],
      "stateMutability": "nonpayable",
      "type": "function"
    },
    {
      "inputs": [],
      "name": "getChainId",
      "outputs": [
        {
          "internalType": "uint256",
          "name": "_chainId",
          "type": "uint256"
        }
      ],
      "stateMutability": "view",
      "type": "function"
    },
    {
      "inputs": [
        {
          "internalType": "address",
          "name": "alice",
          "type": "address"
        },
        {
          "internalType": "address",
          "name": "bob",
          "type": "address"
        }
      ],
      "name": "getChannelAddress",
      "outputs": [
        {
          "internalType": "address",
          "name": "",
          "type": "address"
        }
      ],
      "stateMutability": "view",
      "type": "function"
    },
    {
      "inputs": [],
      "name": "getMastercopy",
      "outputs": [
        {
          "internalType": "address",
          "name": "",
          "type": "address"
        }
      ],
      "stateMutability": "view",
      "type": "function"
    },
    {
      "inputs": [],
      "name": "getProxyCreationCode",
      "outputs": [
        {
          "internalType": "bytes",
          "name": "",
          "type": "bytes"
        }
      ],
      "stateMutability": "view",
      "type": "function"
    },
    {
      "inputs": [],
      "name": "getStoredChainId",
      "outputs": [
        {
          "internalType": "uint256",
          "name": "",
          "type": "uint256"
        }
      ],
      "stateMutability": "view",
      "type": "function"
    }
  ],
  "bytecode": "0x60c06040523480156200001c576000806200001962000108565b50505b5060405162001303380380620013038339810160408190526200003f91620001d9565b6001600160601b0319606083901b1660805260a08190528181620000638262000084565b805190602001208060006200007762000175565b505050505050506200029e565b606060405160408082018152601482527f3d602d80600a3d3981f3363d3d373d3d3d363d73000000000000000000000000602083015283905160408082018152600f82526e5af43d82803e903d91602b57fd5bf360881b602083015251602001620000f29392919062000266565b6040516020818303038152906040529050919050565b632a2a7adb598160e01b8152600481016020815285602082015260005b868110156200014257808601518282016040015260200162000125565b506020828760640184336000905af158600e01573d6000803e3d6000fd5b3d6001141558600a015760016000f35b505050565b6322bd64c0598160e01b8152836004820152846024820152600081604483336000905af158600e01573d6000803e3d6000fd5b3d6001141558600a015760016000f35b60005b6040811015620001d457600082820152602001620001bb565b505050565b60008060408385031215620001f7578182620001f462000108565b50505b82516001600160a01b0381168114620002195782836200021662000108565b50505b9150602083015190509250929050565b60008151815b818110156200024c5760208185010151858201526020016200022f565b818111156200025b5782828601525b509290920192915050565b600062000274828662000229565b606085901b6001600160601b031916815262000294601482018562000229565b9695505050505050565b60805160601c60a051611034620002cf60003980610225528061024b5250806101fa52806103ce52506110346000f3fe6080604052600436106100865760003560e01c80635b056cb5116100595780635b056cb514610147578063a25dbcc914610170578063e617aaac14610199578063efe43693146101c2578063fe454501146101e057610086565b806315727e911461009457806332a130c9146100c85780633408e470146100f357806335a1ba6f14610111575b6000806100916109cf565b50505b3480156100a9576000806100a66109cf565b50505b506100b26101f3565b6040516100bf9190610f18565b60405180910390f35b3480156100dd576000806100da6109cf565b50505b506100e6610223565b6040516100bf9190610fff565b348015610108576000806101056109cf565b50505b506100e6610247565b348015610126576000806101236109cf565b50505b5061013a610135366004610d5b565b610287565b6040516100bf9190610ead565b34801561015c576000806101596109cf565b50505b5061013a61016b366004610d5b565b610358565b348015610185576000806101826109cf565b50505b5061013a610194366004610d5b565b61039b565b3480156101ae576000806101ab6109cf565b50505b5061013a6101bd366004610d5b565b6103ae565b3480156101d7576000806101d46109cf565b50505b5061013a6103cc565b61013a6101ee366004610d96565b6103f0565b606061021e7f000000000000000000000000000000000000000000000000000000000000000061056d565b905090565b7f000000000000000000000000000000000000000000000000000000000000000090565b60007f00000000000000000000000000000000000000000000000000000000000000008061027f575a610278610a3a565b9150610283565b8091505b5090565b600061029383836105e7565b9050806001600160a01b0316632d34ba7984846040518363ffffffff1660e01b81526004016102c3929190610ec1565b600060405180830381600087806102d8610a94565b1580156102ed576000806102ea6109cf565b50505b505a6102f7610ae0565b505050505050158015610317573d6000803e3d60006103146109cf565b50505b505050507fa79ba8cc5fdc29196c8d65701a02433c92328f38f0ffbea3908335b80d81409d8160405161034a9190610ead565b60405180910390a192915050565b600061036483836105e7565b90507fa79ba8cc5fdc29196c8d65701a02433c92328f38f0ffbea3908335b80d81409d8160405161034a9190610ead565b92915050565b60006103a783836105e7565b9392505050565b60006103a76103bd8484610611565b60006103c7610bcb565b61064c565b7f000000000000000000000000000000000000000000000000000000000000000090565b60006103fc8585610287565b9050610407836106b1565b6104de57610477835a610418610c17565b5a63996d79a5598160e01b8152602081600483336000905af158600e01573d6000803e3d6000fd5b3d6001141558600a015760016000f35b8051925060005b604081101561046e57600082820152602001610457565b505050856106be565b6104a55760405162461bcd60e51b815260040161049390610fba565b604051809103906104a26109cf565b50505b6104b0838284610715565b6104de5760405162461bcd60e51b81526004016104cc90610f76565b604051809103906104db6109cf565b50505b806001600160a01b031663635ae9013485856040518463ffffffff1660e01b815260040161050d929190610eff565b600060405180830381858880610521610a94565b158015610536576000806105336109cf565b50505b505a610540610ae0565b505050505050158015610560573d6000803e3d600061055d6109cf565b50505b5050505050949350505050565b60606040516040808201815260148252733d602d80600a3d3981f3363d3d373d3d3d363d7360601b602083015283905160408082018152600f82526e5af43d82803e903d91602b57fd5bf360881b6020830152516020016105d093929190610e66565b60405160208183030381529060405290505b919050565b6000806105f48484610611565b90506106096000826106046101f3565b610761565b949350505050565b6000828261061d610247565b60405160200161062f93929190610e21565b604051602081830303815290604052805190602001209392505050565b60006103a783835a63996d79a5598160e01b8152602081600483336000905af158600e01573d6000803e3d6000fd5b3d6001141558600a015760016000f35b8051925060005b60408110156106a957600082820152602001610692565b50505061083f565b6001600160a01b03161590565b600061070c858585856040516024016106d993929190610edb565b604051601f198183030181526040919091526323b872dd60e01b6020820180516001600160e01b031690911790526108a4565b95945050505050565b600061060984848460405160240161072e929190610eff565b604051601f1981830301815260409190915263095ea7b360e01b6020820180516001600160e01b031690911790526108a4565b60008082516107bf5760405162461bcd60e51b815260206004820181905260248201527f437265617465323a2062797465636f6465206c656e677468206973207a65726f6044820152606401604051809103906107bc6109cf565b50505b83835160208501876107cf610c5d565b5091925050506001600160a01b0381166106095760405162461bcd60e51b815260206004820152601960248201527f437265617465323a204661696c6564206f6e206465706c6f79000000000000006044820152606401604051809103906108356109cf565b5050949350505050565b6000806001600160f81b03198386866040516001600160f81b031994909416602085015260609290921b6001600160601b0319166021840152603583015260558201526075016040516020818303038152906040528051906020012095945050505050565b60006108af83610972565b6108dd5760405162461bcd60e51b81526004016108cb90610f4b565b604051809103906108da6109cf565b50505b600080846001600160a01b0316846040516108f89190610e4a565b6000604051808303816000865a61090d610ae0565b5050505050509150503d8060008114610942576040513d603f01601f191681016040523d815291503d6000602084013e610947565b606091505b509150915061095682826109b5565b8051158061070c575060208101815181019061070c9190610de9565b6000807fc5d2460186f7233c927e7db2dcc703c0e500b653ca82273b7bfad8045d85a4708361099f610ceb565b9150808214158015610609575050151592915050565b816109cb578051602082016109c86109cf565b50505b5050565b632a2a7adb598160e01b8152600481016020815285602082015260005b86811015610a075780860151828201604001526020016109ec565b506020828760640184336000905af158600e01573d6000803e3d6000fd5b3d6001141558600a015760016000f35b505050565b6390580256598160e01b8152602081600483336000905af158600e01573d6000803e3d6000fd5b3d6001141558600a015760016000f35b8051935060005b6040811015610a8f57600082820152602001610a78565b505050565b638435035b598160e01b8152836004820152602081602483336000905af158600e01573d6000803e3d6000fd5b3d6001141558600a015760016000f35b80516000825293506020610a78565b6385979f76598160e01b8152610b11565b8080831115610395575090919050565b8080831015610395575090919050565b836004820152846024820152606060448201528760648201526084810160005b89811015610b49578089015182820152602001610b31565b506060828a60a40184336000905af158600e01573d6000803e3d6000fd5b3d6001141558600a015760016000f35b815160408301513d6000853e8c8c82606087013350600060045af15059610b9e8e3d610b01565b8d01610baa8187610af1565b5b82811015610bbf5760008152602001610bab565b50929d50505050505050565b6303daa959598160e01b8152836004820152602081602483336000905af158600e01573d6000803e3d6000fd5b3d6001141558600a015760016000f35b80516000825293506020610a78565b6373509064598160e01b8152602081600483336000905af158600e01573d6000803e3d6000fd5b3d6001141558600a015760016000f35b80516000825293506020610a78565b6399ccd98b598160e01b8152600481016040815287602082015286604082015260005b87811015610c9b578087015182820160600152602001610c80565b506020828860840184336000905af158600e01573d6000803e3d6000fd5b3d6001141558600a015760016000f35b8151975059825b81811015610ce45760008152602001610cd0565b5050505050565b6324749d5c598160e01b8152836004820152602081602483336000905af158600e01573d6000803e3d6000fd5b3d6001141558600a015760016000f35b80516000825293506020610a78565b80356001600160a01b03811681146105e257600080610d546109cf565b5050919050565b60008060408385031215610d76578182610d736109cf565b50505b610d7f83610d37565b9150610d8d60208401610d37565b90509250929050565b60008060008060808587031215610db4578182610db16109cf565b50505b610dbd85610d37565b9350610dcb60208601610d37565b9250610dd960408601610d37565b9396929550929360600135925050565b600060208284031215610e03578081610e006109cf565b50505b815180151581146103a7578182610e186109cf565b50509392505050565b6001600160601b0319606094851b811682529290931b9091166014830152602882015260480190565b60008251610e5c818460208701611008565b9190910192915050565b60008451610e78818460208901611008565b606085901b6001600160601b0319169083019081528351610ea0816014840160208801611008565b0160140195945050505050565b6001600160a01b0391909116815260200190565b6001600160a01b0392831681529116602082015260400190565b6001600160a01b039384168152919092166020820152604081019190915260600190565b6001600160a01b03929092168252602082015260400190565b6000602082528251806020840152610f37816040850160208701611008565b601f01601f19169190910160400192915050565b6020808252601190820152704c696245524332303a204e4f5f434f444560781b604082015260600190565b60208082526024908201527f4368616e6e656c466163746f72793a2045524332305f415050524f56455f46416040820152631253115160e21b606082015260800190565b60208082526025908201527f4368616e6e656c466163746f72793a2045524332305f5452414e534645525f46604082015264105253115160da1b606082015260800190565b90815260200190565b60005b8381101561102357808201518382015260200161100b565b838111156109c8575050600091015256",
  "linkReferences": {},
  "deployedLinkReferences": {}
}