{
  "_format": "hh-sol-artifact-1",
  "contractName": "Withdraw.ovm",
  "sourceName": "src.sol/transferDefinitions/Withdraw.sol",
  "abi": [
    {
      "inputs": [],
      "name": "EncodedCancel",
      "outputs": [
        {
          "internalType": "bytes",
          "name": "",
          "type": "bytes"
        }
      ],
      "stateMutability": "pure",
      "type": "function"
    },
    {
      "inputs": [],
      "name": "Name",
      "outputs": [
        {
          "internalType": "string",
          "name": "",
          "type": "string"
        }
      ],
      "stateMutability": "view",
      "type": "function"
    },
    {
      "inputs": [],
      "name": "ResolverEncoding",
      "outputs": [
        {
          "internalType": "string",
          "name": "",
          "type": "string"
        }
      ],
      "stateMutability": "view",
      "type": "function"
    },
    {
      "inputs": [],
      "name": "StateEncoding",
      "outputs": [
        {
          "internalType": "string",
          "name": "",
          "type": "string"
        }
      ],
      "stateMutability": "view",
      "type": "function"
    },
    {
      "inputs": [
        {
          "internalType": "bytes",
          "name": "encodedBalance",
          "type": "bytes"
        },
        {
          "internalType": "bytes",
          "name": "encodedState",
          "type": "bytes"
        }
      ],
      "name": "create",
      "outputs": [
        {
          "internalType": "bool",
          "name": "",
          "type": "bool"
        }
      ],
      "stateMutability": "pure",
      "type": "function"
    },
    {
      "inputs": [],
      "name": "getRegistryInformation",
      "outputs": [
        {
          "components": [
            {
              "internalType": "string",
              "name": "name",
              "type": "string"
            },
            {
              "internalType": "address",
              "name": "definition",
              "type": "address"
            },
            {
              "internalType": "string",
              "name": "stateEncoding",
              "type": "string"
            },
            {
              "internalType": "string",
              "name": "resolverEncoding",
              "type": "string"
            },
            {
              "internalType": "bytes",
              "name": "encodedCancel",
              "type": "bytes"
            }
          ],
          "internalType": "struct RegisteredTransfer",
          "name": "",
          "type": "tuple"
        }
      ],
      "stateMutability": "view",
      "type": "function"
    },
    {
      "inputs": [
        {
          "internalType": "bytes",
          "name": "encodedBalance",
          "type": "bytes"
        },
        {
          "internalType": "bytes",
          "name": "encodedState",
          "type": "bytes"
        },
        {
          "internalType": "bytes",
          "name": "encodedResolver",
          "type": "bytes"
        }
      ],
      "name": "resolve",
      "outputs": [
        {
          "components": [
            {
              "internalType": "uint256[2]",
              "name": "amount",
              "type": "uint256[2]"
            },
            {
              "internalType": "address payable[2]",
              "name": "to",
              "type": "address[2]"
            }
          ],
          "internalType": "struct Balance",
          "name": "",
          "type": "tuple"
        }
      ],
      "stateMutability": "pure",
      "type": "function"
    }
  ],
  "bytecode": "0x60806040523480156100195760008061001661001f565b50505b5061008a565b632a2a7adb598160e01b8152600481016020815285602082015260005b8681101561005757808601518282016040015260200161003c565b506020828760640184336000905af158600e01573d6000803e3d6000fd5b3d6001141558600a015760016000f35b505050565b6117ed806100996000396000f3fe608060405234801561001957600080610016610b81565b50505b50600436106100865760003560e01c80638052474d116100645780638052474d146100cf5780638de8b77e146100d75780638ef98a7e146100df57806394184ba9146100ff57610086565b80630528aa1c14610094578063206162be146100b25780633722aff9146100c7575b600080610091610b81565b50505b61009c61011f565b6040516100a991906113c2565b60405180910390f35b6100ba61017e565b6040516100a991906115ba565b61009c6105d6565b61009c61060d565b61009c61062f565b6100f26100ed366004610fd8565b610649565b6040516100a99190611551565b61011261010d366004610f54565b610731565b6040516100a991906113b7565b6060610129610bec565b6041604051818152601f19601f8301168101602001604052908015610155576020820181803683370190505b50815280604051602001610169919061164b565b60405160208183030381529060405291505090565b610186610bfd565b6040518060a001604052805a63996d79a5598160e01b8152602081600483336000905af158600e01573d6000803e3d6000fd5b3d6001141558600a015760016000f35b8051925060005b60408110156101e7576000828201526020016101d0565b5050506001600160a01b0316638052474d6040518163ffffffff1660e01b8152600401600060405180830381868061021d610c35565b1580156102325760008061022f610b81565b50505b505a61023c610c95565b505050505015801561025b573d6000803e3d6000610258610b81565b50505b505050506040513d6000823e601f3d908101601f191682016040526102839190810190611092565b81526020015a63996d79a5598160e01b8152602081600483336000905af158600e01573d6000803e3d6000fd5b3d6001141558600a015760016000f35b8051925060005b60408110156102de576000828201526020016102c7565b5050506001600160a01b031681526020015a63996d79a5598160e01b8152602081600483336000905af158600e01573d6000803e3d6000fd5b3d6001141558600a015760016000f35b8051925060005b60408110156103455760008282015260200161032e565b5050506001600160a01b0316638de8b77e6040518163ffffffff1660e01b8152600401600060405180830381868061037b610c35565b1580156103905760008061038d610b81565b50505b505a61039a610c95565b50505050501580156103b9573d6000803e3d60006103b6610b81565b50505b505050506040513d6000823e601f3d908101601f191682016040526103e19190810190611092565b81526020015a63996d79a5598160e01b8152602081600483336000905af158600e01573d6000803e3d6000fd5b3d6001141558600a015760016000f35b8051925060005b604081101561043c57600082820152602001610425565b5050506001600160a01b0316633722aff96040518163ffffffff1660e01b81526004016000604051808303818680610472610c35565b15801561048757600080610484610b81565b50505b505a610491610c95565b50505050501580156104b0573d6000803e3d60006104ad610b81565b50505b505050506040513d6000823e601f3d908101601f191682016040526104d89190810190611092565b81526020015a63996d79a5598160e01b8152602081600483336000905af158600e01573d6000803e3d6000fd5b3d6001141558600a015760016000f35b8051925060005b60408110156105335760008282015260200161051c565b5050506001600160a01b0316630528aa1c6040518163ffffffff1660e01b81526004016000604051808303818680610569610c35565b15801561057e5760008061057b610b81565b50505b505a610588610c95565b50505050501580156105a7573d6000803e3d60006105a4610b81565b50505b505050506040513d6000823e601f3d908101601f191682016040526105cf9190810190611092565b9052905090565b60405160408082019052601f81527f7475706c6528627974657320726573706f6e6465725369676e61747572652900602082015281565b604051604080820190526008815267576974686472617760c01b602082015281565b60405160c08101604052608f80825261175e602083013981565b610651610d80565b600061065f8587018761124a565b9050600061066f848601866111ad565b9050600061067f898b018b6110f3565b905060006041604051818152601f19601f83011681016020016040529080156106af576020820181803683370190505b509050808051906020012083518051906020012014156106ce57610723565b6106e483518560400151866060015191906108d8565b6107125760405162461bcd60e51b81526004016107009061151a565b6040518091039061070f610b81565b50505b8360a0015182516020015260008251525b509998505050505050505050565b6000806107408385018561124a565b90506000610750868801886110f3565b9050805160200151156107875760405162461bcd60e51b81526004016107759061147a565b60405180910390610784610b81565b50505b600060208301516001600160a01b0316141580156107b35750600060408301516001600160a01b031614155b6107e15760405162461bcd60e51b81526004016107cf906113d5565b604051809103906107de610b81565b50505b6000606083015114156108185760405162461bcd60e51b8152600401610806906114bd565b60405180910390610815610b81565b50505b60008260800151141561084f5760405162461bcd60e51b815260040161083d906114eb565b6040518091039061084c610b81565b50505b8051518260a0015111156108875760405162461bcd60e51b815260040161087590611443565b60405180910390610884610b81565b50505b61089d82518360200151846060015191906108d8565b6108cb5760405162461bcd60e51b81526004016108b99061140c565b604051809103906108c8610b81565b50505b5060019695505050505050565b6000816001600160a01b03166108ee8585610902565b6001600160a01b03161490505b9392505050565b60008061090e84610924565b905061091a8184610955565b9150505b92915050565b6000816040516020016109379190611386565b6040516020818303038152906040528051906020012090505b919050565b600081516041146109b55760405162461bcd60e51b815260206004820152601f60248201527f45434453413a20696e76616c6964207369676e6174757265206c656e677468006044820152606401604051809103906109b2610b81565b50505b60008060006020850151925060408501519150606085015160001a90507f7fffffffffffffffffffffffffffffff5d576e7357a4501ddfe92f46681b20a0821115610a3a5760405162461bcd60e51b815260040180806020018281038252602281526020018061171a6022913960400191505060405180910390610a37610b81565b50505b8060ff16601b14158015610a5257508060ff16601c14155b15610a975760405162461bcd60e51b815260040180806020018281038252602281526020018061173c6022913960400191505060405180910390610a94610b81565b50505b600060018783868660405160008152602001604052604051808581526020018460ff1681526020018381526020018281526020019450505050506020604051602081039080840390855a610ae9610c95565b5050505050158015610b08573d6000803e3d6000610b05610b81565b50505b5050506020604051035190506001600160a01b038116610b775760405162461bcd60e51b815260206004820152601860248201527f45434453413a20696e76616c6964207369676e61747572650000000000000000604482015260640160405180910390610b74610b81565b50505b9695505050505050565b632a2a7adb598160e01b8152600481016020815285602082015260005b86811015610bb9578086015182820160400152602001610b9e565b506020828760640184336000905af158600e01573d6000803e3d6000fd5b3d6001141558600a015760016000f35b505050565b604051602081016040526060815290565b6040518060a001604052806060815260200160006001600160a01b031681526020016060815260200160608152602001606081525090565b638435035b598160e01b8152836004820152602081602483336000905af158600e01573d6000803e3d6000fd5b3d6001141558600a015760016000f35b8051935060005b6040811015610c9057600082820152602001610c79565b505050565b638540661f598160e01b8152610cc6565b808083111561091e575090919050565b808083101561091e575090919050565b836004820152846024820152606060448201528660648201526084810160005b88811015610cfe578088015182820152602001610ce6565b506060828960a40184336000905af158600e01573d6000803e3d6000fd5b3d6001141558600a015760016000f35b815160408301513d6000853e8b8b82606087013350600060045af15059610d538d3d610cb6565b8c01610d5f8187610ca6565b5b82811015610d745760008152602001610d60565b50929c50505050505050565b6040518060400160405280610d93610da5565b8152602001610da0610da5565b905290565b60405160408082018152600290829080368337509192915050565b6000610dd3610dce846116a9565b611666565b9050828152838383011115610df057600080610ded610b81565b50505b6108fb8360208301846116cb565b8035610950816116fb565b600082601f830112610e22578081610e1f610b81565b50505b6040516040810181811067ffffffffffffffff82111715610e3f57fe5b8060405250808385604086011115610e5e578384610e5b610b81565b50505b835b6002811015610e89578135610e74816116fb565b83526020928301929190910190600101610e60565b509195945050505050565b60008083601f840112610eae578182610eab610b81565b50505b50813567ffffffffffffffff811115610ece578182610ecb610b81565b50505b602083019150836020828501011115610eef57600080610eec610b81565b50505b9250929050565b600082601f830112610f0f578081610f0c610b81565b50505b8135610f1d610dce826116a9565b818152846020838601011115610f3a578283610f37610b81565b50505b816020850160208301379081016020019190915292915050565b60008060008060408587031215610f72578384610f6f610b81565b50505b843567ffffffffffffffff80821115610f92578586610f8f610b81565b50505b610f9e88838901610e94565b90965094506020870135915080821115610fbf578384610fbc610b81565b50505b50610fcc87828801610e94565b95989497509550505050565b60008060008060008060608789031215610ff9578182610ff6610b81565b50505b863567ffffffffffffffff80821115611019578384611016610b81565b50505b6110258a838b01610e94565b90985096506020890135915080821115611046578384611043610b81565b50505b6110528a838b01610e94565b90965094506040890135915080821115611073578384611070610b81565b50505b5061108089828a01610e94565b979a9699509497509295939492505050565b6000602082840312156110ac5780816110a9610b81565b50505b815167ffffffffffffffff8111156110cb5781826110c8610b81565b50505b8201601f810184136110e45781826110e1610b81565b50505b61091a84825160208401610dc0565b60006080828403121561110d57808161110a610b81565b50505b6040516040810181811067ffffffffffffffff8211171561112a57fe5b604052601f83018413611144578182611141610b81565b50505b6002611152610dce8261168e565b8085604087018881111561116d57868761116a610b81565b50505b865b8581101561118d57823585526020948501949092019160010161116f565b5082865261119b8982610e09565b60208701525093979650505050505050565b6000602082840312156111c75780816111c4610b81565b50505b813567ffffffffffffffff808211156111e75782836111e4610b81565b50505b9083019060208286031215611203578283611200610b81565b50505b60405160208101818110838211171561121857fe5b60405282358281111561123257848561122f610b81565b50505b61123e87828601610ef6565b82525095945050505050565b600060208284031215611264578081611261610b81565b50505b813567ffffffffffffffff80821115611284578283611281610b81565b50505b81840191506101008083870312156112a35783846112a0610b81565b50505b6112ac81611666565b90508235828111156112c55784856112c2610b81565b50505b6112d187828601610ef6565b8252506112e060208401610dfe565b60208201526112f160408401610dfe565b6040820152606083013560608201526080830135608082015260a083013560a082015261132060c08401610dfe565b60c082015260e08301358281111561133f57848561133c610b81565b50505b61134b87828601610ef6565b60e08301525095945050505050565b600081518084526113728160208601602086016116cb565b601f01601f19169290920160200192915050565b7f16566563746f72205369676e6564204d6573736167653a0a33320000000000008152601a810191909152603a0190565b901515815260200190565b6000602082526108fb602083018461135a565b60208082526017908201527f57697468647261773a20454d5054595f5349474e455253000000000000000000604082015260600190565b6020808252601f908201527f57697468647261773a20494e56414c49445f494e49544941544f525f53494700604082015260600190565b6020808252601e908201527f57697468647261773a20494e53554646494349454e545f42414c414e43450000604082015260600190565b60208082526023908201527f57697468647261773a204e4f4e5a45524f5f524543495049454e545f42414c416040820152624e434560e81b606082015260800190565b60208082526014908201527357697468647261773a20454d5054595f4441544160601b604082015260600190565b60208082526015908201527457697468647261773a20454d5054595f4e4f4e434560581b604082015260600190565b6020808252601f908201527f57697468647261773a20494e56414c49445f524553504f4e4445525f53494700604082015260600190565b6080810182518260005b600281101561157a57825182526020928301929091019060010161155b565b5050506020808401516040840160005b60028110156115b0576001600160a01b038351168252918301919083019060010161158a565b5050505092915050565b600060208252825160a060208401526115d660c084018261135a565b90506001600160a01b0360208501511660408401526040840151601f1980858403016060860152611607838361135a565b92506060860151915080858403016080860152611624838361135a565b925060808601519150808584030160a086015250611642828261135a565b95945050505050565b600060208252825160208084015261091a604084018261135a565b6000604051905081810181811067ffffffffffffffff8211171561168657fe5b604052919050565b600067ffffffffffffffff8211156116a257fe5b5060200290565b600067ffffffffffffffff8211156116bd57fe5b50601f01601f191660200190565b60005b838110156116e65780820151838201526020016116ce565b838111156116f5576000848401525b50505050565b6001600160a01b038116811461171657600080610c90610b81565b5056fe45434453413a20696e76616c6964207369676e6174757265202773272076616c756545434453413a20696e76616c6964207369676e6174757265202776272076616c75657475706c6528627974657320696e69746961746f725369676e61747572652c206164647265737320696e69746961746f722c206164647265737320726573706f6e6465722c206279746573333220646174612c2075696e74323536206e6f6e63652c2075696e74323536206665652c20616464726573732063616c6c546f2c2062797465732063616c6c4461746129",
  "linkReferences": {},
  "deployedLinkReferences": {}
}