{
  "_format": "hh-sol-artifact-1",
  "contractName": "CMCWithdraw.ovm",
  "sourceName": "src.sol/CMCWithdraw.sol",
  "abi": [
    {
      "inputs": [
        {
          "internalType": "address",
          "name": "assetId",
          "type": "address"
        },
        {
          "internalType": "address",
          "name": "owner",
          "type": "address"
        },
        {
          "internalType": "address payable",
          "name": "recipient",
          "type": "address"
        }
      ],
      "name": "exit",
      "outputs": [],
      "stateMutability": "nonpayable",
      "type": "function"
    },
    {
      "inputs": [],
      "name": "getAlice",
      "outputs": [
        {
          "internalType": "address",
          "name": "",
          "type": "address"
        }
      ],
      "stateMutability": "view",
      "type": "function"
    },
    {
      "inputs": [],
      "name": "getBob",
      "outputs": [
        {
          "internalType": "address",
          "name": "",
          "type": "address"
        }
      ],
      "stateMutability": "view",
      "type": "function"
    },
    {
      "inputs": [
        {
          "internalType": "address",
          "name": "assetId",
          "type": "address"
        },
        {
          "internalType": "address",
          "name": "owner",
          "type": "address"
        }
      ],
      "name": "getExitableAmount",
      "outputs": [
        {
          "internalType": "uint256",
          "name": "",
          "type": "uint256"
        }
      ],
      "stateMutability": "view",
      "type": "function"
    },
    {
      "inputs": [
        {
          "internalType": "address",
          "name": "assetId",
          "type": "address"
        }
      ],
      "name": "getTotalTransferred",
      "outputs": [
        {
          "internalType": "uint256",
          "name": "",
          "type": "uint256"
        }
      ],
      "stateMutability": "view",
      "type": "function"
    },
    {
      "inputs": [
        {
          "components": [
            {
              "internalType": "address",
              "name": "channelAddress",
              "type": "address"
            },
            {
              "internalType": "address",
              "name": "assetId",
              "type": "address"
            },
            {
              "internalType": "address payable",
              "name": "recipient",
              "type": "address"
            },
            {
              "internalType": "uint256",
              "name": "amount",
              "type": "uint256"
            },
            {
              "internalType": "uint256",
              "name": "nonce",
              "type": "uint256"
            },
            {
              "internalType": "address",
              "name": "callTo",
              "type": "address"
            },
            {
              "internalType": "bytes",
              "name": "callData",
              "type": "bytes"
            }
          ],
          "internalType": "struct WithdrawData",
          "name": "wd",
          "type": "tuple"
        }
      ],
      "name": "getWithdrawalTransactionRecord",
      "outputs": [
        {
          "internalType": "bool",
          "name": "",
          "type": "bool"
        }
      ],
      "stateMutability": "view",
      "type": "function"
    },
    {
      "inputs": [],
      "name": "lock",
      "outputs": [
        {
          "internalType": "uint256",
          "name": "",
          "type": "uint256"
        }
      ],
      "stateMutability": "view",
      "type": "function"
    },
    {
      "inputs": [
        {
          "internalType": "address",
          "name": "_alice",
          "type": "address"
        },
        {
          "internalType": "address",
          "name": "_bob",
          "type": "address"
        }
      ],
      "name": "setup",
      "outputs": [],
      "stateMutability": "nonpayable",
      "type": "function"
    },
    {
      "inputs": [
        {
          "components": [
            {
              "internalType": "address",
              "name": "channelAddress",
              "type": "address"
            },
            {
              "internalType": "address",
              "name": "assetId",
              "type": "address"
            },
            {
              "internalType": "address payable",
              "name": "recipient",
              "type": "address"
            },
            {
              "internalType": "uint256",
              "name": "amount",
              "type": "uint256"
            },
            {
              "internalType": "uint256",
              "name": "nonce",
              "type": "uint256"
            },
            {
              "internalType": "address",
              "name": "callTo",
              "type": "address"
            },
            {
              "internalType": "bytes",
              "name": "callData",
              "type": "bytes"
            }
          ],
          "internalType": "struct WithdrawData",
          "name": "wd",
          "type": "tuple"
        },
        {
          "internalType": "bytes",
          "name": "aliceSignature",
          "type": "bytes"
        },
        {
          "internalType": "bytes",
          "name": "bobSignature",
          "type": "bytes"
        }
      ],
      "name": "withdraw",
      "outputs": [],
      "stateMutability": "nonpayable",
      "type": "function"
    }
  ],
  "bytecode": "0x60a06040523480156200001c57600080620000196200008e565b50505b505a63996d79a5598160e01b8152602081600483336000905af158600e01573d6000803e3d6000fd5b3d6001141558600a015760016000f35b8051925060005b604081101562000075576000828201526020016200005c565b50505060601b6001600160601b031916608052620000fb565b632a2a7adb598160e01b8152600481016020815285602082015260005b86811015620000c8578086015182820160400152602001620000ab565b506020828760640184336000905af158600e01573d6000803e3d6000fd5b3d6001141558600a015760016000f35b505050565b60805160601c6123d16200013c6000398061016a52806102825280610644528061085c5280610ae65280610c175280610d365280610e6f52506123d16000f3fe608060405234801561001957600080610016611834565b50505b506004361061009c5760003560e01c80638c048fc21161006f5780638c048fc214610103578063cefa512214610123578063e985256914610143578063eeb30fea14610156578063f83d08ba1461015e5761009c565b8063241686a0146100aa5780632c889aa1146100c85780632d34ba79146100dd5780635bc9d96d146100f0575b6000806100a7611834565b50505b6100b2610166565b6040516100bf9190611fad565b60405180910390f35b6100db6100d6366004611d9a565b610280565b005b6100db6100eb366004611c89565b610642565b6100db6100fe366004611cca565b61085a565b610116610111366004611d55565b610ae2565b6040516100bf9190611fda565b610136610131366004611c64565b610c13565b6040516100bf9190612308565b610136610151366004611c89565b610d32565b6100b2610e6b565b610136610f70565b60007f00000000000000000000000000000000000000000000000000000000000000006001600160a01b03165a63996d79a5598160e01b8152602081600483336000905af158600e01573d6000803e3d6000fd5b3d6001141558600a015760016000f35b8051925060005b60408110156101e8576000828201526020016101d1565b5050506001600160a01b031614156102245760405162461bcd60e51b81526004016102129061229c565b60405180910390610221611834565b50505b6001600061023061189f565b1461025f5760405162461bcd60e51b815260040161024d9061219e565b6040518091039061025c611834565b50505b6000600261026b61189f565b906101000a90046001600160a01b0316905090565b7f00000000000000000000000000000000000000000000000000000000000000006001600160a01b03165a63996d79a5598160e01b8152602081600483336000905af158600e01573d6000803e3d6000fd5b3d6001141558600a015760016000f35b8051925060005b6040811015610300576000828201526020016102e9565b5050506001600160a01b0316141561033c5760405162461bcd60e51b815260040161032a9061229c565b60405180910390610339611834565b50505b6001600061034861189f565b146103775760405162461bcd60e51b81526004016103659061219e565b60405180910390610374611834565b50505b60028060006103846118fa565b505050845a63996d79a5598160e01b8152602081600483336000905af158600e01573d6000803e3d6000fd5b3d6001141558600a015760016000f35b8051925060005b60408110156103de576000828201526020016103c7565b5050506001600160a01b03166103f76020830183611c64565b6001600160a01b03161461042f5760405162461bcd60e51b815260040161041d90611ffd565b6040518091039061042c611834565b50505b600061043a87610f7d565b90506104498187878787610fac565b600081815260056020526040902060009061046261189f565b906101000a900460ff161561049b5760405162461bcd60e51b81526004016104899061213c565b60405180910390610498611834565b50505b60008181526005602052600190604090206001816104b761189f565b8160ff021916908315150217906104cc6118fa565b50600091506104f090506104e660408a0160208b01611c64565b89606001356110db565b9050600081118061051a5750600061050e60c08a0160a08b01611c64565b6001600160a01b031614155b6105485760405162461bcd60e51b815260040161053690612034565b60405180910390610545611834565b50505b61057161055b60408a0160208b01611c64565b61056b60608b0160408c01611c64565b836110ef565b600061058360c08a0160a08b01611c64565b6001600160a01b031614610627576105a160c0890160a08a01611c64565b6001600160a01b031663f50cd32c89836040518363ffffffff1660e01b81526004016105ce9291906122e6565b600060405180830381600087806105e3611948565b1580156105f8576000806105f5611834565b50505b505a610602611994565b505050505050158015610622573d6000803e3d600061061f611834565b50505b505050505b5050506001600081906106386118fa565b5050505050505050565b7f00000000000000000000000000000000000000000000000000000000000000006001600160a01b03165a63996d79a5598160e01b8152602081600483336000905af158600e01573d6000803e3d6000fd5b3d6001141558600a015760016000f35b8051925060005b60408110156106c2576000828201526020016106ab565b5050506001600160a01b031614156106fe5760405162461bcd60e51b81526004016106ec9061229c565b604051809103906106fb611834565b50505b600080600161070b61189f565b906101000a90046001600160a01b03166001600160a01b0316146107535760405162461bcd60e51b81526004016107419061226c565b60405180910390610750611834565b50505b6001600160a01b0382161580159061077357506001600160a01b03811615155b6107a15760405162461bcd60e51b815260040161078f90612105565b6040518091039061079e611834565b50505b806001600160a01b0316826001600160a01b031614156107e55760405162461bcd60e51b81526004016107d390612060565b604051809103906107e2611834565b50505b6107ed611134565b81600180806107fa61189f565b816001600160a01b0302191690836001600160a01b031602179061081c6118fa565b50505080600260006101000a8161083161189f565b816001600160a01b0302191690836001600160a01b03160217906108536118fa565b5050505050565b7f00000000000000000000000000000000000000000000000000000000000000006001600160a01b03165a63996d79a5598160e01b8152602081600483336000905af158600e01573d6000803e3d6000fd5b3d6001141558600a015760016000f35b8051925060005b60408110156108da576000828201526020016108c3565b5050506001600160a01b031614156109165760405162461bcd60e51b81526004016109049061229c565b60405180910390610913611834565b50505b6001600061092261189f565b146109515760405162461bcd60e51b815260040161093f9061219e565b6040518091039061094e611834565b50505b600280600061095e6118fa565b505050816001600160a01b03165a610974611a7f565b6001600160a01b0316148061099a5750806001600160a01b0316826001600160a01b0316145b6109c85760405162461bcd60e51b81526004016109b690612235565b604051809103906109c5611834565b50505b6001600160a01b03831660009081526004602052610a0a84604083206001600160a01b038616600090815260209190915260409020610a0561189f565b6110db565b905060008111610a3e5760405162461bcd60e51b8152600401610a2c906121d5565b60405180910390610a3b611834565b50505b6001600160a01b03841660009081526004602052610a83908290604090206001600160a01b038616600090815260209190915260409020610a7d61189f565b90611141565b6001600160a01b03851660009081526004602052604090206001600160a01b0385166000908152602091909152604090208190610abe6118fa565b505050610acc8483836110ef565b506001806000610ada6118fa565b505050505050565b60007f00000000000000000000000000000000000000000000000000000000000000006001600160a01b03165a63996d79a5598160e01b8152602081600483336000905af158600e01573d6000803e3d6000fd5b3d6001141558600a015760016000f35b8051925060005b6040811015610b6457600082820152602001610b4d565b5050506001600160a01b03161415610ba05760405162461bcd60e51b8152600401610b8e9061229c565b60405180910390610b9d611834565b50505b60016000610bac61189f565b14610bdb5760405162461bcd60e51b8152600401610bc99061219e565b60405180910390610bd8611834565b50505b60056000610be884610f7d565b8152602001908152602001600020600090610c0161189f565b906101000a900460ff1690505b919050565b60007f00000000000000000000000000000000000000000000000000000000000000006001600160a01b03165a63996d79a5598160e01b8152602081600483336000905af158600e01573d6000803e3d6000fd5b3d6001141558600a015760016000f35b8051925060005b6040811015610c9557600082820152602001610c7e565b5050506001600160a01b03161415610cd15760405162461bcd60e51b8152600401610cbf9061229c565b60405180910390610cce611834565b50505b60016000610cdd61189f565b14610d0c5760405162461bcd60e51b8152600401610cfa9061219e565b60405180910390610d09611834565b50505b6001600160a01b0382166000908152600360205260409020610d2c61189f565b92915050565b60007f00000000000000000000000000000000000000000000000000000000000000006001600160a01b03165a63996d79a5598160e01b8152602081600483336000905af158600e01573d6000803e3d6000fd5b3d6001141558600a015760016000f35b8051925060005b6040811015610db457600082820152602001610d9d565b5050506001600160a01b03161415610df05760405162461bcd60e51b8152600401610dde9061229c565b60405180910390610ded611834565b50505b60016000610dfc61189f565b14610e2b5760405162461bcd60e51b8152600401610e199061219e565b60405180910390610e28611834565b50505b6001600160a01b03831660009081526004602052604090206001600160a01b038316600090815260209190915260409020610e6461189f565b9392505050565b60007f00000000000000000000000000000000000000000000000000000000000000006001600160a01b03165a63996d79a5598160e01b8152602081600483336000905af158600e01573d6000803e3d6000fd5b3d6001141558600a015760016000f35b8051925060005b6040811015610eed57600082820152602001610ed6565b5050506001600160a01b03161415610f295760405162461bcd60e51b8152600401610f179061229c565b60405180910390610f26611834565b50505b60016000610f3561189f565b14610f645760405162461bcd60e51b8152600401610f529061219e565b60405180910390610f61611834565b50505b6000600161026b61189f565b6000610f7a61189f565b81565b600081604051602001610f9091906122d3565b6040516020818303038152906040528051906020012092915050565b6000600186604051602001610fc2929190611fe5565b60405160208183030381529060405280519060200120905061103e85858080601f0160208091040260200160405190810160405281815292919060208401838380828437600092018290525092506001915061101e905061189f565b906101000a90046001600160a01b0316836111819092919063ffffffff16565b61106c5760405162461bcd60e51b815260040161105a906121fe565b60405180910390611069611834565b50505b6110b083838080601f0160208091040260200160405190810160405281815292919060208401838380828437600092018290525092506002915061101e905061189f565b610ada5760405162461bcd60e51b81526004016110cc906120ce565b60405180910390610638611834565b6000610e64826110ea856111a9565b6112a3565b6110f983826112b9565b6111048383836112ed565b61112f5760405162461bcd60e51b815260040161112090612097565b60405180910390610853611834565b505050565b600180600061112f6118fa565b6000610e64838360405160408082019052601e81527f536166654d6174683a207375627472616374696f6e206f766572666c6f770000602082015261131e565b6000816001600160a01b031661119785856113be565b6001600160a01b031614949350505050565b6000816001600160a01b03166370a082315a63996d79a5598160e01b8152602081600483336000905af158600e01573d6000803e3d6000fd5b3d6001141558600a015760016000f35b8051925060005b6040811015611210576000828201526020016111f9565b5050506040518263ffffffff1660e01b815260040161122f9190611fad565b6020604051808303818680611242611948565b15801561125757600080611254611834565b50505b505a611261611ac5565b5050505050158015611280573d6000803e3d600061127d611834565b50505b50505050604051601f3d908101601f19168201604052610d2c9190810190611e4f565b60008183106112b25781610e64565b5090919050565b6001600160a01b03821660009081526003602052819060409020600082826112df61189f565b0192505081906108536118fa565b60006112f8846113d6565b61130c576113078484846113e3565b611316565b61131683836113f0565b949350505050565b600081848411156113b65760405162461bcd60e51b81526004018080602001828103825283818151815260200191508051906020019080838360005b8381101561137257808201518382015260200161135a565b50505050905090810190601f16801561139f5780820380516001836020036101000a031916815260200191505b5092505050604051809103906113b3611834565b50505b505050900390565b6000806113ca84611475565b90506113168184611488565b6001600160a01b03161590565b60006113168484846116b4565b6000806000846001600160a01b03168460405161140c90611faa565b60006040518083038185875a611420611994565b505050505050925050503d8060008114611456576040513d603f01601f191681016040523d815291503d6000602084013e61145b565b606091505b509150915061146a8282611700565b506001949350505050565b600081604051602001610f909190611f79565b600081516041146114e85760405162461bcd60e51b815260206004820152601f60248201527f45434453413a20696e76616c6964207369676e6174757265206c656e677468006044820152606401604051809103906114e5611834565b50505b60008060006020850151925060408501519150606085015160001a90507f7fffffffffffffffffffffffffffffff5d576e7357a4501ddfe92f46681b20a082111561156d5760405162461bcd60e51b815260040180806020018281038252602281526020018061238d602291396040019150506040518091039061156a611834565b50505b8060ff16601b1415801561158557508060ff16601c14155b156115ca5760405162461bcd60e51b81526004018080602001828103825260228152602001806123af60229139604001915050604051809103906115c7611834565b50505b600060018783868660405160008152602001604052604051808581526020018460ff1681526020018381526020018281526020019450505050506020604051602081039080840390855a61161c611ac5565b505050505015801561163b573d6000803e3d6000611638611834565b50505b5050506020604051035190506001600160a01b0381166116aa5760405162461bcd60e51b815260206004820152601860248201527f45434453413a20696e76616c6964207369676e617475726500000000000000006044820152606401604051809103906116a7611834565b50505b9695505050505050565b60006113168484846040516024016116cd929190611fc1565b604051601f1981830301815260409190915263a9059cbb60e01b6020820180516001600160e01b0316909117905261171a565b8161171657805160208201611713611834565b50505b5050565b6000611725836117f1565b6117535760405162461bcd60e51b815260040161174190612173565b60405180910390611750611834565b50505b600080846001600160a01b03168460405161176e9190611f3f565b6000604051808303816000865a611783611994565b5050505050509150503d80600081146117b8576040513d603f01601f191681016040523d815291503d6000602084013e6117bd565b606091505b50915091506117cc8282611700565b805115806117e857506020810181518101906117e89190611d1d565b95945050505050565b6000807fc5d2460186f7233c927e7db2dcc703c0e500b653ca82273b7bfad8045d85a4708361181e611b8b565b9150808214158015611316575050151592915050565b632a2a7adb598160e01b8152600481016020815285602082015260005b8681101561186c578086015182820160400152602001611851565b506020828760640184336000905af158600e01573d6000803e3d6000fd5b3d6001141558600a015760016000f35b505050565b6303daa959598160e01b8152836004820152602081602483336000905af158600e01573d6000803e3d6000fd5b3d6001141558600a015760016000f35b8051935060005b604081101561112f576000828201526020016118e3565b6322bd64c0598160e01b8152836004820152846024820152600081604483336000905af158600e01573d6000803e3d6000fd5b3d6001141558600a015760016000f35b6000815260206118e3565b638435035b598160e01b8152836004820152602081602483336000905af158600e01573d6000803e3d6000fd5b3d6001141558600a015760016000f35b805160008252935060206118e3565b6385979f76598160e01b81526119c5565b8080831115610d2c575090919050565b8080831015610d2c575090919050565b836004820152846024820152606060448201528760648201526084810160005b898110156119fd5780890151828201526020016119e5565b506060828a60a40184336000905af158600e01573d6000803e3d6000fd5b3d6001141558600a015760016000f35b815160408301513d6000853e8c8c82606087013350600060045af15059611a528e3d6119b5565b8d01611a5e81876119a5565b5b82811015611a735760008152602001611a5f565b50929d50505050505050565b6373509064598160e01b8152602081600483336000905af158600e01573d6000803e3d6000fd5b3d6001141558600a015760016000f35b805160008252935060206118e3565b638540661f598160e01b8152836004820152846024820152606060448201528660648201526084810160005b88811015611b09578088015182820152602001611af1565b506060828960a40184336000905af158600e01573d6000803e3d6000fd5b3d6001141558600a015760016000f35b815160408301513d6000853e8b8b82606087013350600060045af15059611b5e8d3d6119b5565b8c01611b6a81876119a5565b5b82811015611b7f5760008152602001611b6b565b50929c50505050505050565b6324749d5c598160e01b8152836004820152602081602483336000905af158600e01573d6000803e3d6000fd5b3d6001141558600a015760016000f35b805160008252935060206118e3565b8035610c0e8161236e565b60008083601f840112611bfc578182611bf9611834565b50505b50813567ffffffffffffffff811115611c1c578182611c19611834565b50505b602083019150836020828501011115611c3d57600080611c3a611834565b50505b9250929050565b600060e08284031215611c5e578081611c5b611834565b50505b50919050565b600060208284031215611c7e578081611c7b611834565b50505b8135610e648161236e565b60008060408385031215611ca4578081611ca1611834565b50505b8235611caf8161236e565b91506020830135611cbf8161236e565b809150509250929050565b600080600060608486031215611ce7578081611ce4611834565b50505b8335611cf28161236e565b92506020840135611d028161236e565b91506040840135611d128161236e565b809150509250925092565b600060208284031215611d37578081611d34611834565b50505b81518015158114610e64578182611d4c611834565b50509392505050565b600060208284031215611d6f578081611d6c611834565b50505b813567ffffffffffffffff811115611d8e578182611d8b611834565b50505b61131684828501611c44565b600080600080600060608688031215611dba578081611db7611834565b50505b853567ffffffffffffffff80821115611dda578283611dd7611834565b50505b611de689838a01611c44565b96506020880135915080821115611e04578283611e01611834565b50505b611e1089838a01611be2565b90965094506040880135915080821115611e31578283611e2e611834565b50505b50611e3e88828901611be2565b969995985093965092949392505050565b600060208284031215611e69578081611e66611834565b50505b81519392505050565b6001600160a01b03169052565b60008284528282602086013780602084860101526020601f19601f85011685010190509392505050565b60008135611eb68161236e565b6001600160a01b039081168452602083013590611ed28261236e565b9081166020850152604083013590611ee98261236e565b1660408401526060828101359084015260808083013590840152611f0f60a08301611bd7565b611f1c60a0850182611e72565b50611f2a60c0830183612311565b60e060c08601526117e860e086018284611e7f565b60008251815b81811015611f60576020818601015184820152602001611f45565b81811115611f6e5782828501525b509190910192915050565b7f16566563746f72205369676e6564204d6573736167653a0a33320000000000008152601a810191909152603a0190565b90565b6001600160a01b0391909116815260200190565b6001600160a01b03929092168252602082015260400190565b901515815260200190565b6040810160028410611ff357fe5b9281526020015290565b6020808252601d908201527f434d4357697468647261773a204348414e4e454c5f4d49534d41544348000000604082015260600190565b6020808252601290820152710434d4357697468647261773a204e4f5f4f560741b604082015260600190565b6020808252601f908201527f434d43436f72653a204944454e544943414c5f5041525449434950414e545300604082015260600190565b60208082526019908201527f434d4341737365743a205452414e534645525f4641494c454400000000000000604082015260600190565b6020808252601c908201527f434d4357697468647261773a20494e56414c49445f424f425f53494700000000604082015260600190565b6020808252601c908201527f434d43436f72653a20494e56414c49445f5041525449434950414e5400000000604082015260600190565b6020808252601d908201527f434d4357697468647261773a20414c52454144595f4558454355544544000000604082015260600190565b6020808252601190820152704c696245524332303a204e4f5f434f444560781b604082015260600190565b6020808252601f908201527f5265656e7472616e637947756172643a205245454e5452414e545f43414c4c00604082015260600190565b6020808252600f908201526e0434d4341737365743a204e4f5f4f5608c1b604082015260600190565b6020808252601e908201527f434d4357697468647261773a20494e56414c49445f414c4943455f5349470000604082015260600190565b60208082526018908201527f434d4341737365743a204f574e45525f4d49534d415443480000000000000000604082015260600190565b6020808252601690820152750434d43436f72653a20414c52454144595f53455455560541b604082015260600190565b6020808252601a908201527f4d6173746572636f70793a204f4e4c595f5649415f50524f5859000000000000604082015260600190565b600060208252610e646020830184611ea9565b6000604082526122f96040830185611ea9565b90508260208301529392505050565b90815260200190565b6000808335601e1984360301811261233057828361232d611834565b50505b830160208101925035905067ffffffffffffffff81111561235957600080612356611834565b50505b803603831315611c3d57600080611c3a611834565b6001600160a01b03811681146123895760008061112f611834565b5056fe45434453413a20696e76616c6964207369676e6174757265202773272076616c756545434453413a20696e76616c6964207369676e6174757265202776272076616c7565",
  "linkReferences": {},
  "deployedLinkReferences": {}
}