{
  "_format": "hh-sol-artifact-1",
  "contractName": "CMCAsset.ovm",
  "sourceName": "src.sol/CMCAsset.sol",
  "abi": [
    {
      "inputs": [
        {
          "internalType": "address",
          "name": "assetId",
          "type": "address"
        },
        {
          "internalType": "address",
          "name": "owner",
          "type": "address"
        },
        {
          "internalType": "address payable",
          "name": "recipient",
          "type": "address"
        }
      ],
      "name": "exit",
      "outputs": [],
      "stateMutability": "nonpayable",
      "type": "function"
    },
    {
      "inputs": [],
      "name": "getAlice",
      "outputs": [
        {
          "internalType": "address",
          "name": "",
          "type": "address"
        }
      ],
      "stateMutability": "view",
      "type": "function"
    },
    {
      "inputs": [],
      "name": "getBob",
      "outputs": [
        {
          "internalType": "address",
          "name": "",
          "type": "address"
        }
      ],
      "stateMutability": "view",
      "type": "function"
    },
    {
      "inputs": [
        {
          "internalType": "address",
          "name": "assetId",
          "type": "address"
        },
        {
          "internalType": "address",
          "name": "owner",
          "type": "address"
        }
      ],
      "name": "getExitableAmount",
      "outputs": [
        {
          "internalType": "uint256",
          "name": "",
          "type": "uint256"
        }
      ],
      "stateMutability": "view",
      "type": "function"
    },
    {
      "inputs": [
        {
          "internalType": "address",
          "name": "assetId",
          "type": "address"
        }
      ],
      "name": "getTotalTransferred",
      "outputs": [
        {
          "internalType": "uint256",
          "name": "",
          "type": "uint256"
        }
      ],
      "stateMutability": "view",
      "type": "function"
    },
    {
      "inputs": [],
      "name": "lock",
      "outputs": [
        {
          "internalType": "uint256",
          "name": "",
          "type": "uint256"
        }
      ],
      "stateMutability": "view",
      "type": "function"
    },
    {
      "inputs": [
        {
          "internalType": "address",
          "name": "_alice",
          "type": "address"
        },
        {
          "internalType": "address",
          "name": "_bob",
          "type": "address"
        }
      ],
      "name": "setup",
      "outputs": [],
      "stateMutability": "nonpayable",
      "type": "function"
    }
  ],
  "bytecode": "0x60a060405234801561001957600080610016610088565b50505b505a63996d79a5598160e01b8152602081600483336000905af158600e01573d6000803e3d6000fd5b3d6001141558600a015760016000f35b8051925060005b604081101561007057600082820152602001610059565b50505060601b6001600160601b0319166080526100f3565b632a2a7adb598160e01b8152600481016020815285602082015260005b868110156100c05780860151828201604001526020016100a5565b506020828760640184336000905af158600e01573d6000803e3d6000fd5b3d6001141558600a015760016000f35b505050565b60805160601c611631610129600039806101215280610239528061045152806106db52806107fa528061093352506116316000f3fe608060405234801561001957600080610016610f1b565b50505b50600436106100865760003560e01c8063cefa512211610064578063cefa5122146100da578063e9852569146100fa578063eeb30fea1461010d578063f83d08ba1461011557610086565b8063241686a0146100945780632d34ba79146100b25780635bc9d96d146100c7575b600080610091610f1b565b50505b61009c61011d565b6040516100a9919061140f565b60405180910390f35b6100c56100c03660046112e3565b610237565b005b6100c56100d5366004611324565b61044f565b6100ed6100e83660046112be565b6106d7565b6040516100a9919061160a565b6100ed6101083660046112e3565b6107f6565b61009c61092f565b6100ed610a34565b60007f00000000000000000000000000000000000000000000000000000000000000006001600160a01b03165a63996d79a5598160e01b8152602081600483336000905af158600e01573d6000803e3d6000fd5b3d6001141558600a015760016000f35b8051925060005b604081101561019f57600082820152602001610188565b5050506001600160a01b031614156101db5760405162461bcd60e51b81526004016101c9906115d3565b604051809103906101d8610f1b565b50505b600160006101e7610f86565b146102165760405162461bcd60e51b81526004016102049061150c565b60405180910390610213610f1b565b50505b60006002610222610f86565b906101000a90046001600160a01b0316905090565b7f00000000000000000000000000000000000000000000000000000000000000006001600160a01b03165a63996d79a5598160e01b8152602081600483336000905af158600e01573d6000803e3d6000fd5b3d6001141558600a015760016000f35b8051925060005b60408110156102b7576000828201526020016102a0565b5050506001600160a01b031614156102f35760405162461bcd60e51b81526004016102e1906115d3565b604051809103906102f0610f1b565b50505b6000806001610300610f86565b906101000a90046001600160a01b03166001600160a01b0316146103485760405162461bcd60e51b8152600401610336906115a3565b60405180910390610345610f1b565b50505b6001600160a01b0382161580159061036857506001600160a01b03811615155b6103965760405162461bcd60e51b8152600401610384906114aa565b60405180910390610393610f1b565b50505b806001600160a01b0316826001600160a01b031614156103da5760405162461bcd60e51b81526004016103c89061143c565b604051809103906103d7610f1b565b50505b6103e2610a41565b81600180806103ef610f86565b816001600160a01b0302191690836001600160a01b0316021790610411610fe1565b50505080600260006101000a81610426610f86565b816001600160a01b0302191690836001600160a01b0316021790610448610fe1565b5050505050565b7f00000000000000000000000000000000000000000000000000000000000000006001600160a01b03165a63996d79a5598160e01b8152602081600483336000905af158600e01573d6000803e3d6000fd5b3d6001141558600a015760016000f35b8051925060005b60408110156104cf576000828201526020016104b8565b5050506001600160a01b0316141561050b5760405162461bcd60e51b81526004016104f9906115d3565b60405180910390610508610f1b565b50505b60016000610517610f86565b146105465760405162461bcd60e51b81526004016105349061150c565b60405180910390610543610f1b565b50505b6002806000610553610fe1565b505050816001600160a01b03165a61056961102f565b6001600160a01b0316148061058f5750806001600160a01b0316826001600160a01b0316145b6105bd5760405162461bcd60e51b81526004016105ab9061156c565b604051809103906105ba610f1b565b50505b6001600160a01b038316600090815260046020526105ff84604083206001600160a01b0386166000908152602091909152604090206105fa610f86565b610a53565b9050600081116106335760405162461bcd60e51b815260040161062190611543565b60405180910390610630610f1b565b50505b6001600160a01b03841660009081526004602052610678908290604090206001600160a01b038616600090815260209190915260409020610672610f86565b90610a67565b6001600160a01b03851660009081526004602052604090206001600160a01b03851660009081526020919091526040902081906106b3610fe1565b5050506106c1848383610aa7565b5060018060006106cf610fe1565b505050505050565b60007f00000000000000000000000000000000000000000000000000000000000000006001600160a01b03165a63996d79a5598160e01b8152602081600483336000905af158600e01573d6000803e3d6000fd5b3d6001141558600a015760016000f35b8051925060005b604081101561075957600082820152602001610742565b5050506001600160a01b031614156107955760405162461bcd60e51b8152600401610783906115d3565b60405180910390610792610f1b565b50505b600160006107a1610f86565b146107d05760405162461bcd60e51b81526004016107be9061150c565b604051809103906107cd610f1b565b50505b6001600160a01b03821660009081526003602052604090206107f0610f86565b92915050565b60007f00000000000000000000000000000000000000000000000000000000000000006001600160a01b03165a63996d79a5598160e01b8152602081600483336000905af158600e01573d6000803e3d6000fd5b3d6001141558600a015760016000f35b8051925060005b604081101561087857600082820152602001610861565b5050506001600160a01b031614156108b45760405162461bcd60e51b81526004016108a2906115d3565b604051809103906108b1610f1b565b50505b600160006108c0610f86565b146108ef5760405162461bcd60e51b81526004016108dd9061150c565b604051809103906108ec610f1b565b50505b6001600160a01b03831660009081526004602052604090206001600160a01b038316600090815260209190915260409020610928610f86565b9392505050565b60007f00000000000000000000000000000000000000000000000000000000000000006001600160a01b03165a63996d79a5598160e01b8152602081600483336000905af158600e01573d6000803e3d6000fd5b3d6001141558600a015760016000f35b8051925060005b60408110156109b15760008282015260200161099a565b5050506001600160a01b031614156109ed5760405162461bcd60e51b81526004016109db906115d3565b604051809103906109ea610f1b565b50505b600160006109f9610f86565b14610a285760405162461bcd60e51b8152600401610a169061150c565b60405180910390610a25610f1b565b50505b60006001610222610f86565b6000610a3e610f86565b81565b6001806000610a4e610fe1565b505050565b600061092882610a6285610ae7565b610be1565b6000610928838360405160408082019052601e81527f536166654d6174683a207375627472616374696f6e206f766572666c6f7700006020820152610bf7565b610ab18382610c97565b610abc838383610ccb565b610a4e5760405162461bcd60e51b8152600401610ad890611473565b60405180910390610448610f1b565b6000816001600160a01b03166370a082315a63996d79a5598160e01b8152602081600483336000905af158600e01573d6000803e3d6000fd5b3d6001141558600a015760016000f35b8051925060005b6040811015610b4e57600082820152602001610b37565b5050506040518263ffffffff1660e01b8152600401610b6d919061140f565b6020604051808303818680610b80611075565b158015610b9557600080610b92610f1b565b50505b505a610b9f6110c1565b5050505050158015610bbe573d6000803e3d6000610bbb610f1b565b50505b50505050604051601f3d908101601f191682016040526107f091908101906113af565b6000818310610bf05781610928565b5090919050565b60008184841115610c8f5760405162461bcd60e51b81526004018080602001828103825283818151815260200191508051906020019080838360005b83811015610c4b578082015183820152602001610c33565b50505050905090810190601f168015610c785780820380516001836020036101000a031916815260200191505b509250505060405180910390610c8c610f1b565b50505b505050900390565b6001600160a01b0382166000908152600360205281906040902060008282610cbd610f86565b019250508190610448610fe1565b6000610cd684610cfc565b610cea57610ce5848484610d09565b610cf4565b610cf48383610d16565b949350505050565b6001600160a01b03161590565b6000610cf4848484610d9b565b6000806000846001600160a01b031684604051610d329061140c565b60006040518083038185875a610d466111ac565b505050505050925050503d8060008114610d7c576040513d603f01601f191681016040523d815291503d6000602084013e610d81565b606091505b5091509150610d908282610de7565b506001949350505050565b6000610cf4848484604051602401610db4929190611423565b604051601f1981830301815260409190915263a9059cbb60e01b6020820180516001600160e01b03169091179052610e01565b81610dfd57805160208201610dfa610f1b565b50505b5050565b6000610e0c83610ed8565b610e3a5760405162461bcd60e51b8152600401610e28906114e1565b60405180910390610e37610f1b565b50505b600080846001600160a01b031684604051610e5591906113d2565b6000604051808303816000865a610e6a6111ac565b5050505050509150503d8060008114610e9f576040513d603f01601f191681016040523d815291503d6000602084013e610ea4565b606091505b5091509150610eb38282610de7565b80511580610ecf5750602081018151810190610ecf9190611377565b95945050505050565b6000807fc5d2460186f7233c927e7db2dcc703c0e500b653ca82273b7bfad8045d85a47083610f05611272565b9150808214158015610cf4575050151592915050565b632a2a7adb598160e01b8152600481016020815285602082015260005b86811015610f53578086015182820160400152602001610f38565b506020828760640184336000905af158600e01573d6000803e3d6000fd5b3d6001141558600a015760016000f35b505050565b6303daa959598160e01b8152836004820152602081602483336000905af158600e01573d6000803e3d6000fd5b3d6001141558600a015760016000f35b8051935060005b6040811015610a4e57600082820152602001610fca565b6322bd64c0598160e01b8152836004820152846024820152600081604483336000905af158600e01573d6000803e3d6000fd5b3d6001141558600a015760016000f35b600081526020610fca565b6373509064598160e01b8152602081600483336000905af158600e01573d6000803e3d6000fd5b3d6001141558600a015760016000f35b80516000825293506020610fca565b638435035b598160e01b8152836004820152602081602483336000905af158600e01573d6000803e3d6000fd5b3d6001141558600a015760016000f35b80516000825293506020610fca565b638540661f598160e01b81526110f2565b80808311156107f0575090919050565b80808310156107f0575090919050565b836004820152846024820152606060448201528660648201526084810160005b8881101561112a578088015182820152602001611112565b506060828960a40184336000905af158600e01573d6000803e3d6000fd5b3d6001141558600a015760016000f35b815160408301513d6000853e8b8b82606087013350600060045af1505961117f8d3d6110e2565b8c0161118b81876110d2565b5b828110156111a0576000815260200161118c565b50929c50505050505050565b6385979f76598160e01b8152836004820152846024820152606060448201528760648201526084810160005b898110156111f05780890151828201526020016111d8565b506060828a60a40184336000905af158600e01573d6000803e3d6000fd5b3d6001141558600a015760016000f35b815160408301513d6000853e8c8c82606087013350600060045af150596112458e3d6110e2565b8d0161125181876110d2565b5b828110156112665760008152602001611252565b50929d50505050505050565b6324749d5c598160e01b8152836004820152602081602483336000905af158600e01573d6000803e3d6000fd5b3d6001141558600a015760016000f35b80516000825293506020610fca565b6000602082840312156112d85780816112d5610f1b565b50505b813561092881611613565b600080604083850312156112fe5780816112fb610f1b565b50505b823561130981611613565b9150602083013561131981611613565b809150509250929050565b60008060006060848603121561134157808161133e610f1b565b50505b833561134c81611613565b9250602084013561135c81611613565b9150604084013561136c81611613565b809150509250925092565b60006020828403121561139157808161138e610f1b565b50505b815180151581146109285781826113a6610f1b565b50509392505050565b6000602082840312156113c95780816113c6610f1b565b50505b81519392505050565b60008251815b818110156113f35760208186010151848201526020016113d8565b818111156114015782828501525b509190910192915050565b90565b6001600160a01b0391909116815260200190565b6001600160a01b03929092168252602082015260400190565b6020808252601f908201527f434d43436f72653a204944454e544943414c5f5041525449434950414e545300604082015260600190565b60208082526019908201527f434d4341737365743a205452414e534645525f4641494c454400000000000000604082015260600190565b6020808252601c908201527f434d43436f72653a20494e56414c49445f5041525449434950414e5400000000604082015260600190565b6020808252601190820152704c696245524332303a204e4f5f434f444560781b604082015260600190565b6020808252601f908201527f5265656e7472616e637947756172643a205245454e5452414e545f43414c4c00604082015260600190565b6020808252600f908201526e0434d4341737365743a204e4f5f4f5608c1b604082015260600190565b60208082526018908201527f434d4341737365743a204f574e45525f4d49534d415443480000000000000000604082015260600190565b6020808252601690820152750434d43436f72653a20414c52454144595f53455455560541b604082015260600190565b6020808252601a908201527f4d6173746572636f70793a204f4e4c595f5649415f50524f5859000000000000604082015260600190565b90815260200190565b6001600160a01b038116811461162e57600080610a4e610f1b565b5056",
  "linkReferences": {},
  "deployedLinkReferences": {}
}