{
    "_format": "hh-sol-artifact-1",
    "contractName": "TransferRegistry",
    "sourceName": "src.sol/TransferRegistry.sol",
    "abi": [
        {
            "anonymous": false,
            "inputs": [
                {
                    "indexed": true,
                    "internalType": "address",
                    "name": "previousOwner",
                    "type": "address"
                },
                {
                    "indexed": true,
                    "internalType": "address",
                    "name": "newOwner",
                    "type": "address"
                }
            ],
            "name": "OwnershipTransferred",
            "type": "event"
        },
        {
            "anonymous": false,
            "inputs": [
                {
                    "components": [
                        {
                            "internalType": "string",
                            "name": "name",
                            "type": "string"
                        },
                        {
                            "internalType": "address",
                            "name": "definition",
                            "type": "address"
                        },
                        {
                            "internalType": "string",
                            "name": "stateEncoding",
                            "type": "string"
                        },
                        {
                            "internalType": "string",
                            "name": "resolverEncoding",
                            "type": "string"
                        },
                        {
                            "internalType": "bytes",
                            "name": "encodedCancel",
                            "type": "bytes"
                        }
                    ],
                    "indexed": false,
                    "internalType": "struct RegisteredTransfer",
                    "name": "transfer",
                    "type": "tuple"
                }
            ],
            "name": "TransferAdded",
            "type": "event"
        },
        {
            "anonymous": false,
            "inputs": [
                {
                    "components": [
                        {
                            "internalType": "string",
                            "name": "name",
                            "type": "string"
                        },
                        {
                            "internalType": "address",
                            "name": "definition",
                            "type": "address"
                        },
                        {
                            "internalType": "string",
                            "name": "stateEncoding",
                            "type": "string"
                        },
                        {
                            "internalType": "string",
                            "name": "resolverEncoding",
                            "type": "string"
                        },
                        {
                            "internalType": "bytes",
                            "name": "encodedCancel",
                            "type": "bytes"
                        }
                    ],
                    "indexed": false,
                    "internalType": "struct RegisteredTransfer",
                    "name": "transfer",
                    "type": "tuple"
                }
            ],
            "name": "TransferRemoved",
            "type": "event"
        },
        {
            "inputs": [
                {
                    "components": [
                        {
                            "internalType": "string",
                            "name": "name",
                            "type": "string"
                        },
                        {
                            "internalType": "address",
                            "name": "definition",
                            "type": "address"
                        },
                        {
                            "internalType": "string",
                            "name": "stateEncoding",
                            "type": "string"
                        },
                        {
                            "internalType": "string",
                            "name": "resolverEncoding",
                            "type": "string"
                        },
                        {
                            "internalType": "bytes",
                            "name": "encodedCancel",
                            "type": "bytes"
                        }
                    ],
                    "internalType": "struct RegisteredTransfer",
                    "name": "definition",
                    "type": "tuple"
                }
            ],
            "name": "addTransferDefinition",
            "outputs": [],
            "stateMutability": "nonpayable",
            "type": "function"
        },
        {
            "inputs": [],
            "name": "getTransferDefinitions",
            "outputs": [
                {
                    "components": [
                        {
                            "internalType": "string",
                            "name": "name",
                            "type": "string"
                        },
                        {
                            "internalType": "address",
                            "name": "definition",
                            "type": "address"
                        },
                        {
                            "internalType": "string",
                            "name": "stateEncoding",
                            "type": "string"
                        },
                        {
                            "internalType": "string",
                            "name": "resolverEncoding",
                            "type": "string"
                        },
                        {
                            "internalType": "bytes",
                            "name": "encodedCancel",
                            "type": "bytes"
                        }
                    ],
                    "internalType": "struct RegisteredTransfer[]",
                    "name": "",
                    "type": "tuple[]"
                }
            ],
            "stateMutability": "view",
            "type": "function"
        },
        {
            "inputs": [],
            "name": "owner",
            "outputs": [
                {
                    "internalType": "address",
                    "name": "",
                    "type": "address"
                }
            ],
            "stateMutability": "view",
            "type": "function"
        },
        {
            "inputs": [
                {
                    "internalType": "string",
                    "name": "name",
                    "type": "string"
                }
            ],
            "name": "removeTransferDefinition",
            "outputs": [],
            "stateMutability": "nonpayable",
            "type": "function"
        },
        {
            "inputs": [],
            "name": "renounceOwnership",
            "outputs": [],
            "stateMutability": "nonpayable",
            "type": "function"
        },
        {
            "inputs": [
                {
                    "internalType": "address",
                    "name": "newOwner",
                    "type": "address"
                }
            ],
            "name": "transferOwnership",
            "outputs": [],
            "stateMutability": "nonpayable",
            "type": "function"
        }
    ],
    "bytecode": "0x608060405234801561001057600080fd5b50600061001b61006a565b600080546001600160a01b0319166001600160a01b0383169081178255604051929350917f8be0079c531659141344cd1fd0a4f28419497f9722a3daafe3b4186f6b6457e0908290a35061006e565b3390565b6115098061007d6000396000f3fe608060405234801561001057600080fd5b50600436106100625760003560e01c806355304c3f14610067578063715018a61461007c5780638da5cb5b14610084578063961bf9b1146100a2578063c9ff4d25146100b5578063f2fde38b146100ca575b600080fd5b61007a610075366004611067565b6100dd565b005b61007a610179565b61008c6101f8565b6040516100999190611281565b60405180910390f35b61007a6100b036600461102c565b610207565b6100bd61028b565b6040516100999190611295565b61007a6100d8366004611012565b61029c565b6100e5610352565b6000546001600160a01b0390811691161461011b5760405162461bcd60e51b815260040161011290611381565b60405180910390fd5b60006101276001610356565b9050610134600183610361565b7fcdbba5dd6bffbe47d5f74dbed3cf4a2174815c7186eaa49b32f97af4c47543bf6101606001836104b3565b60405161016d9190611470565b60405180910390a15050565b610181610352565b6000546001600160a01b039081169116146101ae5760405162461bcd60e51b815260040161011290611381565b600080546040516001600160a01b03909116907f8be0079c531659141344cd1fd0a4f28419497f9722a3daafe3b4186f6b6457e0908390a3600080546001600160a01b0319169055565b6000546001600160a01b031690565b61020f610352565b6000546001600160a01b0390811691161461023c5760405162461bcd60e51b815260040161011290611381565b610244610e82565b61024f600183610786565b905061025c6001836107c4565b7fdc44d9d985df00268149ae57add485c612e57109279f8485035dbe2b2251222b8160405161016d9190611470565b606061029760016109e2565b905090565b6102a4610352565b6000546001600160a01b039081169116146102d15760405162461bcd60e51b815260040161011290611381565b6001600160a01b0381166102f75760405162461bcd60e51b8152600401610112906112f5565b600080546040516001600160a01b03808516939216917f8be0079c531659141344cd1fd0a4f28419497f9722a3daafe3b4186f6b6457e091a3600080546001600160a01b0319166001600160a01b0392909216919091179055565b3390565b60018101545b919050565b805161036c81610d11565b156103895760405162461bcd60e51b8152600401610112906113b6565b6103938382610d32565b156103b05760405162461bcd60e51b81526004016101129061133b565b60408051808201825283815260018501546020820152905184906103d59084906111f5565b908152604051602091819003820190208251805180519293919284926103ff928492910190610eba565b506020828101516001830180546001600160a01b0319166001600160a01b039092169190911790556040830151805161043e9260028501920190610eba565b506060820151805161045a916003840191602090910190610eba565b5060808201518051610476916004840191602090910190610eba565b505050602091820151600590910155600180850180549182018155600090815282902083516104ad93919092019190840190610eba565b50505050565b6104bb610e82565b600183015482106104de5760405162461bcd60e51b8152600401610112906113ed565b826000018360010183815481106104f157fe5b906000526020600020016040516105089190611211565b9081526040805160209281900383018120805460026001821615610100026000190190911604601f8101859004909402820160c090810190935260a082018481529193909284929184918401828280156105a35780601f10610578576101008083540402835291602001916105a3565b820191906000526020600020905b81548152906001019060200180831161058657829003601f168201915b50505091835250506001828101546001600160a01b0316602080840191909152600280850180546040805161010096831615969096026000190190911692909204601f8101849004840285018401835280855291909401939183018282801561064d5780601f106106225761010080835404028352916020019161064d565b820191906000526020600020905b81548152906001019060200180831161063057829003601f168201915b505050918352505060038201805460408051602060026001851615610100026000190190941693909304601f81018490048402820184019092528181529382019392918301828280156106e15780601f106106b6576101008083540402835291602001916106e1565b820191906000526020600020905b8154815290600101906020018083116106c457829003601f168201915b505050918352505060048201805460408051602060026001851615610100026000190190941693909304601f81018490048402820184019092528181529382019392918301828280156107755780601f1061074a57610100808354040283529160200191610775565b820191906000526020600020905b81548152906001019060200180831161075857829003601f168201915b505050505081525050905092915050565b61078e610e82565b6107988383610d32565b6107b45760405162461bcd60e51b81526004016101129061142e565b60405183906105089084906111f5565b6107cd81610d11565b156107ea5760405162461bcd60e51b8152600401610112906113b6565b6107f48282610d32565b6108105760405162461bcd60e51b81526004016101129061142e565b6000826000018260405161082491906111f5565b90815260405190819003602001902060050154600184018054919250606091600019810190811061085157fe5b600091825260209182902001805460408051601f60026000196101006001871615020190941693909304928301859004850281018501909152818152928301828280156108df5780601f106108b4576101008083540402835291602001916108df565b820191906000526020600020905b8154815290600101906020018083116108c257829003601f168201915b505050505090508184600001826040516108f991906111f5565b9081526020016040518091039020600501819055508084600101838154811061091e57fe5b90600052602060002001908051906020019061093b929190610eba565b50604051849061094c9085906111f5565b908152604051908190036020019020600081816109698282610f38565b6001820180546001600160a01b0319169055610989600283016000610f38565b610997600383016000610f38565b6109a5600483016000610f38565b505060058201600090555050836001018054806109be57fe5b6001900381819060005260206000200160006109da9190610f38565b905550505050565b6001810154606090818167ffffffffffffffff81118015610a0257600080fd5b50604051908082528060200260200182016040528015610a3c57816020015b610a29610e82565b815260200190600190039081610a215790505b50905060005b82811015610d095784600001856001018281548110610a5d57fe5b90600052602060002001604051610a749190611211565b9081526040805160209281900383018120805460026001821615610100026000190190911604601f8101859004909402820160c090810190935260a08201848152919390928492918491840182828015610b0f5780601f10610ae457610100808354040283529160200191610b0f565b820191906000526020600020905b815481529060010190602001808311610af257829003601f168201915b50505091835250506001828101546001600160a01b0316602080840191909152600280850180546040805161010096831615969096026000190190911692909204601f81018490048402850184018352808552919094019391830182828015610bb95780601f10610b8e57610100808354040283529160200191610bb9565b820191906000526020600020905b815481529060010190602001808311610b9c57829003601f168201915b505050918352505060038201805460408051602060026001851615610100026000190190941693909304601f8101849004840282018401909252818152938201939291830182828015610c4d5780601f10610c2257610100808354040283529160200191610c4d565b820191906000526020600020905b815481529060010190602001808311610c3057829003601f168201915b505050918352505060048201805460408051602060026001851615610100026000190190941693909304601f8101849004840282018401909252818152938201939291830182828015610ce15780601f10610cb657610100808354040283529160200191610ce1565b820191906000526020600020905b815481529060010190602001808311610cc457829003601f168201915b505050505081525050828281518110610cf657fe5b6020908102919091010152600101610a42565b509392505050565b6000610d2c8260405180602001604052806000815250610e29565b92915050565b6000610d3d82610d11565b158015610d4d5750600183015415155b8015610e225750610e22836001018460000184604051610d6d91906111f5565b90815260200160405180910390206005015481548110610d8957fe5b600091825260209182902001805460408051601f6002600019610100600187161502019094169390930492830185900485028101850190915281815292830182828015610e175780601f10610dec57610100808354040283529160200191610e17565b820191906000526020600020905b815481529060010190602001808311610dfa57829003601f168201915b505050505083610e29565b9392505050565b600081604051602001610e3c91906111f5565b6040516020818303038152906040528051906020012083604051602001610e6391906111f5565b6040516020818303038152906040528051906020012014905092915050565b6040518060a001604052806060815260200160006001600160a01b031681526020016060815260200160608152602001606081525090565b828054600181600116156101000203166002900490600052602060002090601f016020900481019282601f10610efb57805160ff1916838001178555610f28565b82800160010185558215610f28579182015b82811115610f28578251825591602001919060010190610f0d565b50610f34929150610f7f565b5090565b50805460018160011615610100020316600290046000825580601f10610f5e5750610f7c565b601f016020900490600052602060002090810190610f7c9190610f7f565b50565b5b80821115610f345760008155600101610f80565b80356001600160a01b038116811461035c57600080fd5b600082601f830112610fbb578081fd5b813567ffffffffffffffff811115610fcf57fe5b610fe2601f8201601f1916602001611483565b9150808252836020828501011115610ff957600080fd5b8060208401602084013760009082016020015292915050565b600060208284031215611023578081fd5b610e2282610f94565b60006020828403121561103d578081fd5b813567ffffffffffffffff811115611053578182fd5b61105f84828501610fab565b949350505050565b600060208284031215611078578081fd5b813567ffffffffffffffff8082111561108f578283fd5b9083019060a082860312156110a2578283fd5b6110ac60a0611483565b8235828111156110ba578485fd5b6110c687828601610fab565b8252506110d560208401610f94565b60208201526040830135828111156110eb578485fd5b6110f787828601610fab565b60408301525060608301358281111561110e578485fd5b61111a87828601610fab565b606083015250608083013582811115611131578485fd5b61113d87828601610fab565b60808301525095945050505050565b600081518084526111648160208601602086016114a7565b601f01601f19169290920160200192915050565b6000815160a0845261118d60a085018261114c565b905060018060a01b036020840151166020850152604083015184820360408601526111b8828261114c565b915050606083015184820360608601526111d2828261114c565b915050608083015184820360808601526111ec828261114c565b95945050505050565b600082516112078184602087016114a7565b9190910192915050565b6000808354600180821660008114611230576001811461124757611276565b60ff198316865260028304607f1686019350611276565b600283048786526020808720875b8381101561126e5781548a820152908501908201611255565b505050860193505b509195945050505050565b6001600160a01b0391909116815260200190565b6000602080830181845280855180835260408601915060408482028701019250838701855b828110156112e857603f198886030184526112d6858351611178565b945092850192908501906001016112ba565b5092979650505050505050565b60208082526026908201527f4f776e61626c653a206e6577206f776e657220697320746865207a65726f206160408201526564647265737360d01b606082015260800190565b60208082526026908201527f4c69624974657261626c654d617070696e673a204e414d455f414c524541445960408201526517d05111115160d21b606082015260800190565b6020808252818101527f4f776e61626c653a2063616c6c6572206973206e6f7420746865206f776e6572604082015260600190565b6020808252601e908201527f4c69624974657261626c654d617070696e673a20454d5054595f4e414d450000604082015260600190565b60208082526021908201527f4c69624974657261626c654d617070696e673a20494e56414c49445f494e44456040820152600b60fb1b606082015260800190565b60208082526022908201527f4c69624974657261626c654d617070696e673a204e414d455f4e4f545f464f55604082015261139160f21b606082015260800190565b600060208252610e226020830184611178565b60405181810167ffffffffffffffff8111828210171561149f57fe5b604052919050565b60005b838110156114c25781810151838201526020016114aa565b838111156104ad575050600091015256fea2646970667358221220c2be81502758705ae171a7fff9443e3138345e73e9afd2b2788a0181f692513464736f6c63430007030033",
    "linkReferences": {},
    "deployedLinkReferences": {}
}