{
  "_format": "hh-sol-artifact-1",
  "contractName": "HashlockTransfer.ovm",
  "sourceName": "src.sol/transferDefinitions/HashlockTransfer.sol",
  "abi": [
    {
      "inputs": [],
      "name": "EncodedCancel",
      "outputs": [
        {
          "internalType": "bytes",
          "name": "",
          "type": "bytes"
        }
      ],
      "stateMutability": "pure",
      "type": "function"
    },
    {
      "inputs": [],
      "name": "Name",
      "outputs": [
        {
          "internalType": "string",
          "name": "",
          "type": "string"
        }
      ],
      "stateMutability": "view",
      "type": "function"
    },
    {
      "inputs": [],
      "name": "ResolverEncoding",
      "outputs": [
        {
          "internalType": "string",
          "name": "",
          "type": "string"
        }
      ],
      "stateMutability": "view",
      "type": "function"
    },
    {
      "inputs": [],
      "name": "StateEncoding",
      "outputs": [
        {
          "internalType": "string",
          "name": "",
          "type": "string"
        }
      ],
      "stateMutability": "view",
      "type": "function"
    },
    {
      "inputs": [
        {
          "internalType": "bytes",
          "name": "encodedBalance",
          "type": "bytes"
        },
        {
          "internalType": "bytes",
          "name": "encodedState",
          "type": "bytes"
        }
      ],
      "name": "create",
      "outputs": [
        {
          "internalType": "bool",
          "name": "",
          "type": "bool"
        }
      ],
      "stateMutability": "view",
      "type": "function"
    },
    {
      "inputs": [],
      "name": "getRegistryInformation",
      "outputs": [
        {
          "components": [
            {
              "internalType": "string",
              "name": "name",
              "type": "string"
            },
            {
              "internalType": "address",
              "name": "definition",
              "type": "address"
            },
            {
              "internalType": "string",
              "name": "stateEncoding",
              "type": "string"
            },
            {
              "internalType": "string",
              "name": "resolverEncoding",
              "type": "string"
            },
            {
              "internalType": "bytes",
              "name": "encodedCancel",
              "type": "bytes"
            }
          ],
          "internalType": "struct RegisteredTransfer",
          "name": "",
          "type": "tuple"
        }
      ],
      "stateMutability": "view",
      "type": "function"
    },
    {
      "inputs": [
        {
          "internalType": "bytes",
          "name": "encodedBalance",
          "type": "bytes"
        },
        {
          "internalType": "bytes",
          "name": "encodedState",
          "type": "bytes"
        },
        {
          "internalType": "bytes",
          "name": "encodedResolver",
          "type": "bytes"
        }
      ],
      "name": "resolve",
      "outputs": [
        {
          "components": [
            {
              "internalType": "uint256[2]",
              "name": "amount",
              "type": "uint256[2]"
            },
            {
              "internalType": "address payable[2]",
              "name": "to",
              "type": "address[2]"
            }
          ],
          "internalType": "struct Balance",
          "name": "",
          "type": "tuple"
        }
      ],
      "stateMutability": "view",
      "type": "function"
    }
  ],
  "bytecode": "0x60806040523480156100195760008061001661001f565b50505b5061008a565b632a2a7adb598160e01b8152600481016020815285602082015260005b8681101561005757808601518282016040015260200161003c565b506020828760640184336000905af158600e01573d6000803e3d6000fd5b3d6001141558600a015760016000f35b505050565b611338806100996000396000f3fe60806040523480156100195760008061001661089d565b50505b50600436106100865760003560e01c80638052474d116100645780638052474d146100cf5780638de8b77e146100d75780638ef98a7e146100df57806394184ba9146100ff57610086565b80630528aa1c14610094578063206162be146100b25780633722aff9146100c7575b60008061009161089d565b50505b61009c61011f565b6040516100a99190610ff8565b60405180910390f35b6100ba610153565b6040516100a991906111fe565b61009c6105ab565b61009c6105e2565b61009c61060c565b6100f26100ed366004610d25565b610626565b6040516100a99190611195565b61011261010d366004610ca1565b610788565b6040516100a99190610fe4565b6060610129610908565b600081528060405160200161013e919061128f565b60405160208183030381529060405291505090565b61015b610919565b6040518060a001604052805a63996d79a5598160e01b8152602081600483336000905af158600e01573d6000803e3d6000fd5b3d6001141558600a015760016000f35b8051925060005b60408110156101bc576000828201526020016101a5565b5050506001600160a01b0316638052474d6040518163ffffffff1660e01b815260040160006040518083038186806101f2610951565b1580156102075760008061020461089d565b50505b505a6102116109b1565b5050505050158015610230573d6000803e3d600061022d61089d565b50505b505050506040513d6000823e601f3d908101601f191682016040526102589190810190610ddf565b81526020015a63996d79a5598160e01b8152602081600483336000905af158600e01573d6000803e3d6000fd5b3d6001141558600a015760016000f35b8051925060005b60408110156102b35760008282015260200161029c565b5050506001600160a01b031681526020015a63996d79a5598160e01b8152602081600483336000905af158600e01573d6000803e3d6000fd5b3d6001141558600a015760016000f35b8051925060005b604081101561031a57600082820152602001610303565b5050506001600160a01b0316638de8b77e6040518163ffffffff1660e01b81526004016000604051808303818680610350610951565b1580156103655760008061036261089d565b50505b505a61036f6109b1565b505050505015801561038e573d6000803e3d600061038b61089d565b50505b505050506040513d6000823e601f3d908101601f191682016040526103b69190810190610ddf565b81526020015a63996d79a5598160e01b8152602081600483336000905af158600e01573d6000803e3d6000fd5b3d6001141558600a015760016000f35b8051925060005b6040811015610411576000828201526020016103fa565b5050506001600160a01b0316633722aff96040518163ffffffff1660e01b81526004016000604051808303818680610447610951565b15801561045c5760008061045961089d565b50505b505a6104666109b1565b5050505050158015610485573d6000803e3d600061048261089d565b50505b505050506040513d6000823e601f3d908101601f191682016040526104ad9190810190610ddf565b81526020015a63996d79a5598160e01b8152602081600483336000905af158600e01573d6000803e3d6000fd5b3d6001141558600a015760016000f35b8051925060005b6040811015610508576000828201526020016104f1565b5050506001600160a01b0316630528aa1c6040518163ffffffff1660e01b8152600401600060405180830381868061053e610951565b1580156105535760008061055061089d565b50505b505a61055d6109b1565b505050505015801561057c573d6000803e3d600061057961089d565b50505b505050506040513d6000823e601f3d908101601f191682016040526105a49190810190610ddf565b9052905090565b60405160408082019052601781527f7475706c65286279746573333220707265496d61676529000000000000000000602082015281565b60405160408082019052601081526f2430b9b43637b1b5aa3930b739b332b960811b602082015281565b604051606081016040526027808252611311602083013981565b61062e610a9e565b600061063c85870187610f4b565b9050600061064c84860186610f07565b9050600061065c898b018b610e48565b9050600082511461077b578260200151158061068357505a61067c610ac3565b8360200151115b6106b15760405162461bcd60e51b815260040161069f9061111f565b604051809103906106ae61089d565b50505b6000600283516040516020016106c79190610fef565b6040516020818303038152906040526040516106e39190610fc8565b602060405180830381855a6106f66109b1565b5050505050158015610715573d6000803e3d600061071261089d565b50505b505050604051601f3d908101601f191682016040526107379190810190610c7e565b90508084511461076b5760405162461bcd60e51b815260040161075990611056565b6040518091039061076861089d565b50505b8151518251602001526000825152505b9998505050505050505050565b60008061079783850185610f4b565b905060006107a786880188610e48565b90506000815151116107dd5760405162461bcd60e51b81526004016107cb90611098565b604051809103906107da61089d565b50505b805160200151156108125760405162461bcd60e51b81526004016108009061100b565b6040518091039061080f61089d565b50505b6000825114156108465760405162461bcd60e51b815260040161083490611160565b6040518091039061084361089d565b50505b8160200151158061086257505a61085b610ac3565b8260200151115b6108905760405162461bcd60e51b815260040161087e906110dd565b6040518091039061088d61089d565b50505b5060019695505050505050565b632a2a7adb598160e01b8152600481016020815285602082015260005b868110156108d55780860151828201604001526020016108ba565b506020828760640184336000905af158600e01573d6000803e3d6000fd5b3d6001141558600a015760016000f35b505050565b604051602081016040526000815290565b6040518060a001604052806060815260200160006001600160a01b031681526020016060815260200160608152602001606081525090565b638435035b598160e01b8152836004820152602081602483336000905af158600e01573d6000803e3d6000fd5b3d6001141558600a015760016000f35b8051935060005b60408110156109ac57600082820152602001610995565b505050565b638540661f598160e01b81526109e4565b80808311156109ce5750815b92915050565b80808310156109ce575090919050565b836004820152846024820152606060448201528660648201526084810160005b88811015610a1c578088015182820152602001610a04565b506060828960a40184336000905af158600e01573d6000803e3d6000fd5b3d6001141558600a015760016000f35b815160408301513d6000853e8b8b82606087013350600060045af15059610a718d3d6109d4565b8c01610a7d81876109c2565b5b82811015610a925760008152602001610a7e565b50929c50505050505050565b6040518060400160405280610ab1610b09565b8152602001610abe610b09565b905290565b63bdbf8c36598160e01b8152602081600483336000905af158600e01573d6000803e3d6000fd5b3d6001141558600a015760016000f35b80516000825293506020610995565b60405160408082018152600290829080368337509192915050565b600067ffffffffffffffff831115610b3857fe5b610b4b601f8401601f191660200161129d565b9050828152838383011115610b6857600080610b6561089d565b50505b610b768360208301846112e0565b9392505050565b600082601f830112610b96578081610b9361089d565b50505b6040516040810181811067ffffffffffffffff82111715610bb357fe5b8060405250808385604086011115610bd2578384610bcf61089d565b50505b835b6002811015610c115781356001600160a01b0381168114610bfc578586610bf961089d565b50505b83526020928301929190910190600101610bd4565b509195945050505050565b60008083601f840112610c36578182610c3361089d565b50505b50813567ffffffffffffffff811115610c56578182610c5361089d565b50505b602083019150836020828501011115610c7757600080610c7461089d565b50505b9250929050565b600060208284031215610c98578081610c9561089d565b50505b81519392505050565b60008060008060408587031215610cbf578283610cbc61089d565b50505b843567ffffffffffffffff80821115610cdf578485610cdc61089d565b50505b610ceb88838901610c1c565b90965094506020870135915080821115610d0c578384610d0961089d565b50505b50610d1987828801610c1c565b95989497509550505050565b60008060008060008060608789031215610d46578182610d4361089d565b50505b863567ffffffffffffffff80821115610d66578384610d6361089d565b50505b610d728a838b01610c1c565b90985096506020890135915080821115610d93578384610d9061089d565b50505b610d9f8a838b01610c1c565b90965094506040890135915080821115610dc0578384610dbd61089d565b50505b50610dcd89828a01610c1c565b979a9699509497509295939492505050565b600060208284031215610df9578081610df661089d565b50505b815167ffffffffffffffff811115610e18578182610e1561089d565b50505b8201601f81018413610e31578182610e2e61089d565b50505b610e4084825160208401610b24565b949350505050565b600060808284031215610e62578081610e5f61089d565b50505b6040516040810181811067ffffffffffffffff82111715610e7f57fe5b604052601f83018413610e99578182610e9661089d565b50505b6002610eac610ea7826112c5565b61129d565b80856040870188811115610ec7578687610ec461089d565b50505b865b85811015610ee7578235855260209485019490920191600101610ec9565b50828652610ef58982610b7d565b60208701525093979650505050505050565b600060208284031215610f21578081610f1e61089d565b50505b6040516020810181811067ffffffffffffffff82111715610f3e57fe5b6040529135825250919050565b600060408284031215610f65578081610f6261089d565b50505b6040516040810181811067ffffffffffffffff82111715610f8257fe5b604052823581526020928301359281019290925250919050565b60008151808452610fb48160208601602086016112e0565b601f01601f19169290920160200192915050565b60008251610fda8184602087016112e0565b9190910192915050565b901515815260200190565b90815260200190565b600060208252610b766020830184610f9c565b6020808252602b908201527f486173686c6f636b5472616e736665723a204e4f4e5a45524f5f52454349504960408201526a454e545f42414c414e434560a81b606082015260800190565b60208082526022908201527f486173686c6f636b5472616e736665723a20494e56414c49445f505245494d41604082015261474560f01b606082015260800190565b60208082526025908201527f486173686c6f636b5472616e736665723a205a4552305f53454e4445525f42416040820152644c414e434560d81b606082015260800190565b60208082526022908201527f486173686c6f636b5472616e736665723a20455850495245445f54494d454c4f604082015261434b60f01b606082015260800190565b60208082526021908201527f486173686c6f636b5472616e736665723a205041594d454e545f4558504952456040820152601160fa1b606082015260800190565b6020808252818101527f486173686c6f636b5472616e736665723a20454d5054595f4c4f434b48415348604082015260600190565b6080810182518260005b60028110156111be57825182526020928301929091019060010161119f565b5050506020808401516040840160005b60028110156111f4576001600160a01b03835116825291830191908301906001016111ce565b5050505092915050565b600060208252825160a0602084015261121a60c0840182610f9c565b90506001600160a01b0360208501511660408401526040840151601f198085840301606086015261124b8383610f9c565b925060608601519150808584030160808601526112688383610f9c565b925060808601519150808584030160a0860152506112868282610f9c565b95945050505050565b602081018251825292915050565b6000604051905081810181811067ffffffffffffffff821117156112bd57fe5b604052919050565b600067ffffffffffffffff8211156112d957fe5b5060200290565b60005b838110156112fb5780820151838201526020016112e3565b8381111561130a576000848401525b5050505056fe7475706c652862797465733332206c6f636b486173682c2075696e743235362065787069727929",
  "linkReferences": {},
  "deployedLinkReferences": {}
}